{"abi":[{"inputs":[{"internalType":"uint256","name":"minimum","type":"uint256"},{"internalType":"address","name":"creator","type":"address"}],"stateMutability":"nonpayable","type":"constructor"},{"inputs":[{"internalType":"uint256","name":"index","type":"uint256"}],"name":"approveRequest","outputs":[],"stateMutability":"nonpayable","type":"function"},{"inputs":[{"internalType":"uint256","name":"index","type":"uint256"}],"name":"confirmApproval","outputs":[],"stateMutability":"payable","type":"function"},{"inputs":[],"name":"contribute","outputs":[],"stateMutability":"payable","type":"function"},{"inputs":[{"internalType":"address","name":"","type":"address"}],"name":"contributors","outputs":[{"internalType":"bool","name":"","type":"bool"}],"stateMutability":"view","type":"function"},{"inputs":[],"name":"contributorsCount","outputs":[{"internalType":"uint256","name":"","type":"uint256"}],"stateMutability":"view","type":"function"},{"inputs":[{"internalType":"string","name":"description","type":"string"},{"internalType":"uint256","name":"value","type":"uint256"},{"internalType":"address","name":"receiver","type":"address"}],"name":"createRequest","outputs":[],"stateMutability":"nonpayable","type":"function"},{"inputs":[],"name":"manager","outputs":[{"internalType":"address","name":"","type":"address"}],"stateMutability":"view","type":"function"},{"inputs":[],"name":"minimumContribution","outputs":[{"internalType":"uint256","name":"","type":"uint256"}],"stateMutability":"view","type":"function"},{"inputs":[],"name":"numberofRequests","outputs":[{"internalType":"uint256","name":"","type":"uint256"}],"stateMutability":"view","type":"function"},{"inputs":[{"internalType":"uint256","name":"","type":"uint256"}],"name":"requests","outputs":[{"internalType":"string","name":"description","type":"string"},{"internalType":"uint256","name":"value","type":"uint256"},{"internalType":"address","name":"receiver","type":"address"},{"internalType":"bool","name":"complete","type":"bool"},{"internalType":"uint256","name":"approvalCount","type":"uint256"}],"stateMutability":"view","type":"function"}],"devdoc":{"kind":"dev","methods":{},"version":1},"evm":{"assembly":"    /* \"Campaign.sol\":432:2684  contract Campaign {... */\n  mstore(0x40, 0x80)\n    /* \"Campaign.sol\":887:1004  constructor (uint minimum, address creator) {... */\n  callvalue\n  dup1\n  iszero\n  tag_1\n  jumpi\n  0x00\n  dup1\n  revert\ntag_1:\n  pop\n  mload(0x40)\n  sub(codesize, bytecodeSize)\n  dup1\n  bytecodeSize\n  dup4\n  codecopy\n  dup2\n  dup2\n  add\n  0x40\n  mstore\n  dup2\n  add\n  swap1\n  tag_2\n  swap2\n  swap1\n  tag_3\n  jump\t// in\ntag_2:\n    /* \"Campaign.sol\":951:958  creator */\n  dup1\n    /* \"Campaign.sol\":941:948  manager */\n  0x03\n  0x00\n    /* \"Campaign.sol\":941:958  manager = creator */\n  0x0100\n  exp\n  dup2\n  sload\n  dup2\n  0xffffffffffffffffffffffffffffffffffffffff\n  mul\n  not\n  and\n  swap1\n  dup4\n  0xffffffffffffffffffffffffffffffffffffffff\n  and\n  mul\n  or\n  swap1\n  sstore\n  pop\n    /* \"Campaign.sol\":990:997  minimum */\n  dup2\n    /* \"Campaign.sol\":968:987  minimumContribution */\n  0x04\n    /* \"Campaign.sol\":968:997  minimumContribution = minimum */\n  dup2\n  swap1\n  sstore\n  pop\n    /* \"Campaign.sol\":887:1004  constructor (uint minimum, address creator) {... */\n  pop\n  pop\n    /* \"Campaign.sol\":432:2684  contract Campaign {... */\n  jump(tag_6)\n    /* \"#utility.yul\":88:205   */\ntag_8:\n    /* \"#utility.yul\":197:198   */\n  0x00\n    /* \"#utility.yul\":194:195   */\n  dup1\n    /* \"#utility.yul\":187:199   */\n  revert\n    /* \"#utility.yul\":334:411   */\ntag_10:\n    /* \"#utility.yul\":371:378   */\n  0x00\n    /* \"#utility.yul\":400:405   */\n  dup2\n    /* \"#utility.yul\":389:405   */\n  swap1\n  pop\n    /* \"#utility.yul\":334:411   */\n  swap2\n  swap1\n  pop\n  jump\t// out\n    /* \"#utility.yul\":417:539   */\ntag_11:\n    /* \"#utility.yul\":490:514   */\n  tag_23\n    /* \"#utility.yul\":508:513   */\n  dup2\n    /* \"#utility.yul\":490:514   */\n  tag_10\n  jump\t// in\ntag_23:\n    /* \"#utility.yul\":483:488   */\n  dup2\n    /* \"#utility.yul\":480:515   */\n  eq\n    /* \"#utility.yul\":470:533   */\n  tag_24\n  jumpi\n    /* \"#utility.yul\":529:530   */\n  0x00\n    /* \"#utility.yul\":526:527   */\n  dup1\n    /* \"#utility.yul\":519:531   */\n  revert\n    /* \"#utility.yul\":470:533   */\ntag_24:\n    /* \"#utility.yul\":417:539   */\n  pop\n  jump\t// out\n    /* \"#utility.yul\":545:688   */\ntag_12:\n    /* \"#utility.yul\":602:607   */\n  0x00\n    /* \"#utility.yul\":633:639   */\n  dup2\n    /* \"#utility.yul\":627:640   */\n  mload\n    /* \"#utility.yul\":618:640   */\n  swap1\n  pop\n    /* \"#utility.yul\":649:682   */\n  tag_26\n    /* \"#utility.yul\":676:681   */\n  dup2\n    /* \"#utility.yul\":649:682   */\n  tag_11\n  jump\t// in\ntag_26:\n    /* \"#utility.yul\":545:688   */\n  swap3\n  swap2\n  pop\n  pop\n  jump\t// out\n    /* \"#utility.yul\":694:820   */\ntag_13:\n    /* \"#utility.yul\":731:738   */\n  0x00\n    /* \"#utility.yul\":771:813   */\n  0xffffffffffffffffffffffffffffffffffffffff\n    /* \"#utility.yul\":764:769   */\n  dup3\n    /* \"#utility.yul\":760:814   */\n  and\n    /* \"#utility.yul\":749:814   */\n  swap1\n  pop\n    /* \"#utility.yul\":694:820   */\n  swap2\n  swap1\n  pop\n  jump\t// out\n    /* \"#utility.yul\":826:922   */\ntag_14:\n    /* \"#utility.yul\":863:870   */\n  0x00\n    /* \"#utility.yul\":892:916   */\n  tag_29\n    /* \"#utility.yul\":910:915   */\n  dup3\n    /* \"#utility.yul\":892:916   */\n  tag_13\n  jump\t// in\ntag_29:\n    /* \"#utility.yul\":881:916   */\n  swap1\n  pop\n    /* \"#utility.yul\":826:922   */\n  swap2\n  swap1\n  pop\n  jump\t// out\n    /* \"#utility.yul\":928:1050   */\ntag_15:\n    /* \"#utility.yul\":1001:1025   */\n  tag_31\n    /* \"#utility.yul\":1019:1024   */\n  dup2\n    /* \"#utility.yul\":1001:1025   */\n  tag_14\n  jump\t// in\ntag_31:\n    /* \"#utility.yul\":994:999   */\n  dup2\n    /* \"#utility.yul\":991:1026   */\n  eq\n    /* \"#utility.yul\":981:1044   */\n  tag_32\n  jumpi\n    /* \"#utility.yul\":1040:1041   */\n  0x00\n    /* \"#utility.yul\":1037:1038   */\n  dup1\n    /* \"#utility.yul\":1030:1042   */\n  revert\n    /* \"#utility.yul\":981:1044   */\ntag_32:\n    /* \"#utility.yul\":928:1050   */\n  pop\n  jump\t// out\n    /* \"#utility.yul\":1056:1199   */\ntag_16:\n    /* \"#utility.yul\":1113:1118   */\n  0x00\n    /* \"#utility.yul\":1144:1150   */\n  dup2\n    /* \"#utility.yul\":1138:1151   */\n  mload\n    /* \"#utility.yul\":1129:1151   */\n  swap1\n  pop\n    /* \"#utility.yul\":1160:1193   */\n  tag_34\n    /* \"#utility.yul\":1187:1192   */\n  dup2\n    /* \"#utility.yul\":1160:1193   */\n  tag_15\n  jump\t// in\ntag_34:\n    /* \"#utility.yul\":1056:1199   */\n  swap3\n  swap2\n  pop\n  pop\n  jump\t// out\n    /* \"#utility.yul\":1205:1712   */\ntag_3:\n    /* \"#utility.yul\":1284:1290   */\n  0x00\n    /* \"#utility.yul\":1292:1298   */\n  dup1\n    /* \"#utility.yul\":1341:1343   */\n  0x40\n    /* \"#utility.yul\":1329:1338   */\n  dup4\n    /* \"#utility.yul\":1320:1327   */\n  dup6\n    /* \"#utility.yul\":1316:1339   */\n  sub\n    /* \"#utility.yul\":1312:1344   */\n  slt\n    /* \"#utility.yul\":1309:1428   */\n  iszero\n  tag_36\n  jumpi\n    /* \"#utility.yul\":1347:1426   */\n  tag_37\n  tag_8\n  jump\t// in\ntag_37:\n    /* \"#utility.yul\":1309:1428   */\ntag_36:\n    /* \"#utility.yul\":1467:1468   */\n  0x00\n    /* \"#utility.yul\":1492:1556   */\n  tag_38\n    /* \"#utility.yul\":1548:1555   */\n  dup6\n    /* \"#utility.yul\":1539:1545   */\n  dup3\n    /* \"#utility.yul\":1528:1537   */\n  dup7\n    /* \"#utility.yul\":1524:1546   */\n  add\n    /* \"#utility.yul\":1492:1556   */\n  tag_12\n  jump\t// in\ntag_38:\n    /* \"#utility.yul\":1482:1556   */\n  swap3\n  pop\n    /* \"#utility.yul\":1438:1566   */\n  pop\n    /* \"#utility.yul\":1605:1607   */\n  0x20\n    /* \"#utility.yul\":1631:1695   */\n  tag_39\n    /* \"#utility.yul\":1687:1694   */\n  dup6\n    /* \"#utility.yul\":1678:1684   */\n  dup3\n    /* \"#utility.yul\":1667:1676   */\n  dup7\n    /* \"#utility.yul\":1663:1685   */\n  add\n    /* \"#utility.yul\":1631:1695   */\n  tag_16\n  jump\t// in\ntag_39:\n    /* \"#utility.yul\":1621:1695   */\n  swap2\n  pop\n    /* \"#utility.yul\":1576:1705   */\n  pop\n    /* \"#utility.yul\":1205:1712   */\n  swap3\n  pop\n  swap3\n  swap1\n  pop\n  jump\t// out\n    /* \"Campaign.sol\":432:2684  contract Campaign {... */\ntag_6:\n  dataSize(sub_0)\n  dup1\n  dataOffset(sub_0)\n  0x00\n  codecopy\n  0x00\n  return\nstop\n\nsub_0: assembly {\n        /* \"Campaign.sol\":432:2684  contract Campaign {... */\n      mstore(0x40, 0x80)\n      jumpi(tag_1, lt(calldatasize, 0x04))\n      shr(0xe0, calldataload(0x00))\n      dup1\n      0x8a9cfd55\n      gt\n      tag_12\n      jumpi\n      dup1\n      0x8a9cfd55\n      eq\n      tag_7\n      jumpi\n      dup1\n      0x8f9a6fee\n      eq\n      tag_8\n      jumpi\n      dup1\n      0x937e09b1\n      eq\n      tag_9\n      jumpi\n      dup1\n      0xd7bb99ba\n      eq\n      tag_10\n      jumpi\n      dup1\n      0xd7d1bbdb\n      eq\n      tag_11\n      jumpi\n      jump(tag_1)\n    tag_12:\n      dup1\n      0x1f6d4942\n      eq\n      tag_2\n      jumpi\n      dup1\n      0x278d2ee0\n      eq\n      tag_3\n      jumpi\n      dup1\n      0x481c6a75\n      eq\n      tag_4\n      jumpi\n      dup1\n      0x7569b3d7\n      eq\n      tag_5\n      jumpi\n      dup1\n      0x81d12c58\n      eq\n      tag_6\n      jumpi\n    tag_1:\n      0x00\n      dup1\n      revert\n        /* \"Campaign.sol\":833:877  mapping(address => bool) public contributors */\n    tag_2:\n      callvalue\n      dup1\n      iszero\n      tag_13\n      jumpi\n      0x00\n      dup1\n      revert\n    tag_13:\n      pop\n      tag_14\n      0x04\n      dup1\n      calldatasize\n      sub\n      dup2\n      add\n      swap1\n      tag_15\n      swap2\n      swap1\n      tag_16\n      jump\t// in\n    tag_15:\n      tag_17\n      jump\t// in\n    tag_14:\n      mload(0x40)\n      tag_18\n      swap2\n      swap1\n      tag_19\n      jump\t// in\n    tag_18:\n      mload(0x40)\n      dup1\n      swap2\n      sub\n      swap1\n      return\n        /* \"Campaign.sol\":688:716  uint public numberofRequests */\n    tag_3:\n      callvalue\n      dup1\n      iszero\n      tag_20\n      jumpi\n      0x00\n      dup1\n      revert\n    tag_20:\n      pop\n      tag_21\n      tag_22\n      jump\t// in\n    tag_21:\n      mload(0x40)\n      tag_23\n      swap2\n      swap1\n      tag_24\n      jump\t// in\n    tag_23:\n      mload(0x40)\n      dup1\n      swap2\n      sub\n      swap1\n      return\n        /* \"Campaign.sol\":768:790  address public manager */\n    tag_4:\n      callvalue\n      dup1\n      iszero\n      tag_25\n      jumpi\n      0x00\n      dup1\n      revert\n    tag_25:\n      pop\n      tag_26\n      tag_27\n      jump\t// in\n    tag_26:\n      mload(0x40)\n      tag_28\n      swap2\n      swap1\n      tag_29\n      jump\t// in\n    tag_28:\n      mload(0x40)\n      dup1\n      swap2\n      sub\n      swap1\n      return\n        /* \"Campaign.sol\":653:682  uint public contributorsCount */\n    tag_5:\n      callvalue\n      dup1\n      iszero\n      tag_30\n      jumpi\n      0x00\n      dup1\n      revert\n    tag_30:\n      pop\n      tag_31\n      tag_32\n      jump\t// in\n    tag_31:\n      mload(0x40)\n      tag_33\n      swap2\n      swap1\n      tag_24\n      jump\t// in\n    tag_33:\n      mload(0x40)\n      dup1\n      swap2\n      sub\n      swap1\n      return\n        /* \"Campaign.sol\":722:762  mapping(uint => Request) public requests */\n    tag_6:\n      callvalue\n      dup1\n      iszero\n      tag_34\n      jumpi\n      0x00\n      dup1\n      revert\n    tag_34:\n      pop\n      tag_35\n      0x04\n      dup1\n      calldatasize\n      sub\n      dup2\n      add\n      swap1\n      tag_36\n      swap2\n      swap1\n      tag_37\n      jump\t// in\n    tag_36:\n      tag_38\n      jump\t// in\n    tag_35:\n      mload(0x40)\n      tag_39\n      swap6\n      swap5\n      swap4\n      swap3\n      swap2\n      swap1\n      tag_40\n      jump\t// in\n    tag_39:\n      mload(0x40)\n      dup1\n      swap2\n      sub\n      swap1\n      return\n        /* \"Campaign.sol\":1447:1887  function createRequest(string memory description, uint value, address receiver) ... */\n    tag_7:\n      callvalue\n      dup1\n      iszero\n      tag_41\n      jumpi\n      0x00\n      dup1\n      revert\n    tag_41:\n      pop\n      tag_42\n      0x04\n      dup1\n      calldatasize\n      sub\n      dup2\n      add\n      swap1\n      tag_43\n      swap2\n      swap1\n      tag_44\n      jump\t// in\n    tag_43:\n      tag_45\n      jump\t// in\n    tag_42:\n      stop\n        /* \"Campaign.sol\":2259:2681  function confirmApproval(uint index) public restricted payable {... */\n    tag_8:\n      tag_46\n      0x04\n      dup1\n      calldatasize\n      sub\n      dup2\n      add\n      swap1\n      tag_47\n      swap2\n      swap1\n      tag_37\n      jump\t// in\n    tag_47:\n      tag_48\n      jump\t// in\n    tag_46:\n      stop\n        /* \"Campaign.sol\":796:827  uint public minimumContribution */\n    tag_9:\n      callvalue\n      dup1\n      iszero\n      tag_49\n      jumpi\n      0x00\n      dup1\n      revert\n    tag_49:\n      pop\n      tag_50\n      tag_51\n      jump\t// in\n    tag_50:\n      mload(0x40)\n      tag_52\n      swap2\n      swap1\n      tag_24\n      jump\t// in\n    tag_52:\n      mload(0x40)\n      dup1\n      swap2\n      sub\n      swap1\n      return\n        /* \"Campaign.sol\":1144:1441  function contribute() public payable {... */\n    tag_10:\n      tag_53\n      tag_54\n      jump\t// in\n    tag_53:\n      stop\n        /* \"Campaign.sol\":1893:2253  function approveRequest(uint index) public {... */\n    tag_11:\n      callvalue\n      dup1\n      iszero\n      tag_55\n      jumpi\n      0x00\n      dup1\n      revert\n    tag_55:\n      pop\n      tag_56\n      0x04\n      dup1\n      calldatasize\n      sub\n      dup2\n      add\n      swap1\n      tag_57\n      swap2\n      swap1\n      tag_37\n      jump\t// in\n    tag_57:\n      tag_58\n      jump\t// in\n    tag_56:\n      stop\n        /* \"Campaign.sol\":833:877  mapping(address => bool) public contributors */\n    tag_17:\n      mstore(0x20, 0x05)\n      dup1\n      0x00\n      mstore\n      keccak256(0x00, 0x40)\n      0x00\n      swap2\n      pop\n      sload\n      swap1\n      0x0100\n      exp\n      swap1\n      div\n      0xff\n      and\n      dup2\n      jump\t// out\n        /* \"Campaign.sol\":688:716  uint public numberofRequests */\n    tag_22:\n      sload(0x01)\n      dup2\n      jump\t// out\n        /* \"Campaign.sol\":768:790  address public manager */\n    tag_27:\n      0x03\n      0x00\n      swap1\n      sload\n      swap1\n      0x0100\n      exp\n      swap1\n      div\n      0xffffffffffffffffffffffffffffffffffffffff\n      and\n      dup2\n      jump\t// out\n        /* \"Campaign.sol\":653:682  uint public contributorsCount */\n    tag_32:\n      sload(0x00)\n      dup2\n      jump\t// out\n        /* \"Campaign.sol\":722:762  mapping(uint => Request) public requests */\n    tag_38:\n      mstore(0x20, 0x02)\n      dup1\n      0x00\n      mstore\n      keccak256(0x00, 0x40)\n      0x00\n      swap2\n      pop\n      swap1\n      pop\n      dup1\n      0x00\n      add\n      dup1\n      sload\n      tag_59\n      swap1\n      tag_60\n      jump\t// in\n    tag_59:\n      dup1\n      0x1f\n      add\n      0x20\n      dup1\n      swap2\n      div\n      mul\n      0x20\n      add\n      mload(0x40)\n      swap1\n      dup2\n      add\n      0x40\n      mstore\n      dup1\n      swap3\n      swap2\n      swap1\n      dup2\n      dup2\n      mstore\n      0x20\n      add\n      dup3\n      dup1\n      sload\n      tag_61\n      swap1\n      tag_60\n      jump\t// in\n    tag_61:\n      dup1\n      iszero\n      tag_62\n      jumpi\n      dup1\n      0x1f\n      lt\n      tag_63\n      jumpi\n      0x0100\n      dup1\n      dup4\n      sload\n      div\n      mul\n      dup4\n      mstore\n      swap2\n      0x20\n      add\n      swap2\n      jump(tag_62)\n    tag_63:\n      dup3\n      add\n      swap2\n      swap1\n      0x00\n      mstore\n      keccak256(0x00, 0x20)\n      swap1\n    tag_64:\n      dup2\n      sload\n      dup2\n      mstore\n      swap1\n      0x01\n      add\n      swap1\n      0x20\n      add\n      dup1\n      dup4\n      gt\n      tag_64\n      jumpi\n      dup3\n      swap1\n      sub\n      0x1f\n      and\n      dup3\n      add\n      swap2\n    tag_62:\n      pop\n      pop\n      pop\n      pop\n      pop\n      swap1\n      dup1\n      0x01\n      add\n      sload\n      swap1\n      dup1\n      0x02\n      add\n      0x00\n      swap1\n      sload\n      swap1\n      0x0100\n      exp\n      swap1\n      div\n      0xffffffffffffffffffffffffffffffffffffffff\n      and\n      swap1\n      dup1\n      0x02\n      add\n      0x14\n      swap1\n      sload\n      swap1\n      0x0100\n      exp\n      swap1\n      div\n      0xff\n      and\n      swap1\n      dup1\n      0x03\n      add\n      sload\n      swap1\n      pop\n      dup6\n      jump\t// out\n        /* \"Campaign.sol\":1447:1887  function createRequest(string memory description, uint value, address receiver) ... */\n    tag_45:\n        /* \"Campaign.sol\":1066:1073  manager */\n      0x03\n      0x00\n      swap1\n      sload\n      swap1\n      0x0100\n      exp\n      swap1\n      div\n      0xffffffffffffffffffffffffffffffffffffffff\n      and\n        /* \"Campaign.sol\":1052:1073  msg.sender == manager */\n      0xffffffffffffffffffffffffffffffffffffffff\n      and\n        /* \"Campaign.sol\":1052:1062  msg.sender */\n      caller\n        /* \"Campaign.sol\":1052:1073  msg.sender == manager */\n      0xffffffffffffffffffffffffffffffffffffffff\n      and\n      eq\n        /* \"Campaign.sol\":1044:1118  require(msg.sender == manager, \"Only the Manager can perform this action\") */\n      tag_66\n      jumpi\n      mload(0x40)\n      0x08c379a000000000000000000000000000000000000000000000000000000000\n      dup2\n      mstore\n      0x04\n      add\n      tag_67\n      swap1\n      tag_68\n      jump\t// in\n    tag_67:\n      mload(0x40)\n      dup1\n      swap2\n      sub\n      swap1\n      revert\n    tag_66:\n        /* \"Campaign.sol\":1562:1588  Request storage newRequest */\n      0x00\n        /* \"Campaign.sol\":1591:1599  requests */\n      0x02\n        /* \"Campaign.sol\":1591:1619  requests[numberofRequests++] */\n      0x00\n        /* \"Campaign.sol\":1600:1616  numberofRequests */\n      0x01\n      0x00\n        /* \"Campaign.sol\":1600:1618  numberofRequests++ */\n      dup2\n      sload\n      dup1\n      swap3\n      swap2\n      swap1\n      tag_70\n      swap1\n      tag_71\n      jump\t// in\n    tag_70:\n      swap2\n      swap1\n      pop\n      sstore\n        /* \"Campaign.sol\":1591:1619  requests[numberofRequests++] */\n      dup2\n      mstore\n      0x20\n      add\n      swap1\n      dup2\n      mstore\n      0x20\n      add\n      0x00\n      keccak256\n        /* \"Campaign.sol\":1562:1619  Request storage newRequest = requests[numberofRequests++] */\n      swap1\n      pop\n        /* \"Campaign.sol\":1655:1666  description */\n      dup4\n        /* \"Campaign.sol\":1630:1640  newRequest */\n      dup2\n        /* \"Campaign.sol\":1630:1652  newRequest.description */\n      0x00\n      add\n        /* \"Campaign.sol\":1630:1666  newRequest.description = description */\n      swap1\n      dup1\n      mload\n      swap1\n      0x20\n      add\n      swap1\n      tag_72\n      swap3\n      swap2\n      swap1\n      tag_73\n      jump\t// in\n    tag_72:\n      pop\n        /* \"Campaign.sol\":1696:1701  value */\n      dup3\n        /* \"Campaign.sol\":1677:1687  newRequest */\n      dup2\n        /* \"Campaign.sol\":1677:1693  newRequest.value */\n      0x01\n      add\n        /* \"Campaign.sol\":1677:1701  newRequest.value = value */\n      dup2\n      swap1\n      sstore\n      pop\n        /* \"Campaign.sol\":1734:1742  receiver */\n      dup2\n        /* \"Campaign.sol\":1712:1722  newRequest */\n      dup2\n        /* \"Campaign.sol\":1712:1731  newRequest.receiver */\n      0x02\n      add\n      0x00\n        /* \"Campaign.sol\":1712:1742  newRequest.receiver = receiver */\n      0x0100\n      exp\n      dup2\n      sload\n      dup2\n      0xffffffffffffffffffffffffffffffffffffffff\n      mul\n      not\n      and\n      swap1\n      dup4\n      0xffffffffffffffffffffffffffffffffffffffff\n      and\n      mul\n      or\n      swap1\n      sstore\n      pop\n        /* \"Campaign.sol\":1775:1780  false */\n      0x00\n        /* \"Campaign.sol\":1753:1763  newRequest */\n      dup2\n        /* \"Campaign.sol\":1753:1772  newRequest.complete */\n      0x02\n      add\n      0x14\n        /* \"Campaign.sol\":1753:1780  newRequest.complete = false */\n      0x0100\n      exp\n      dup2\n      sload\n      dup2\n      0xff\n      mul\n      not\n      and\n      swap1\n      dup4\n      iszero\n      iszero\n      mul\n      or\n      swap1\n      sstore\n      pop\n        /* \"Campaign.sol\":1818:1819  0 */\n      0x00\n        /* \"Campaign.sol\":1791:1801  newRequest */\n      dup2\n        /* \"Campaign.sol\":1791:1815  newRequest.approvalCount */\n      0x03\n      add\n        /* \"Campaign.sol\":1791:1819  newRequest.approvalCount = 0 */\n      dup2\n      swap1\n      sstore\n      pop\n        /* \"Campaign.sol\":1865:1870  false */\n      0x00\n        /* \"Campaign.sol\":1830:1840  newRequest */\n      dup2\n        /* \"Campaign.sol\":1830:1850  newRequest.approvals */\n      0x04\n      add\n        /* \"Campaign.sol\":1830:1862  newRequest.approvals[msg.sender] */\n      0x00\n        /* \"Campaign.sol\":1851:1861  msg.sender */\n      caller\n        /* \"Campaign.sol\":1830:1862  newRequest.approvals[msg.sender] */\n      0xffffffffffffffffffffffffffffffffffffffff\n      and\n      0xffffffffffffffffffffffffffffffffffffffff\n      and\n      dup2\n      mstore\n      0x20\n      add\n      swap1\n      dup2\n      mstore\n      0x20\n      add\n      0x00\n      keccak256\n      0x00\n        /* \"Campaign.sol\":1830:1870  newRequest.approvals[msg.sender] = false */\n      0x0100\n      exp\n      dup2\n      sload\n      dup2\n      0xff\n      mul\n      not\n      and\n      swap1\n      dup4\n      iszero\n      iszero\n      mul\n      or\n      swap1\n      sstore\n      pop\n        /* \"Campaign.sol\":1550:1887  {... */\n      pop\n        /* \"Campaign.sol\":1447:1887  function createRequest(string memory description, uint value, address receiver) ... */\n      pop\n      pop\n      pop\n      jump\t// out\n        /* \"Campaign.sol\":2259:2681  function confirmApproval(uint index) public restricted payable {... */\n    tag_48:\n        /* \"Campaign.sol\":1066:1073  manager */\n      0x03\n      0x00\n      swap1\n      sload\n      swap1\n      0x0100\n      exp\n      swap1\n      div\n      0xffffffffffffffffffffffffffffffffffffffff\n      and\n        /* \"Campaign.sol\":1052:1073  msg.sender == manager */\n      0xffffffffffffffffffffffffffffffffffffffff\n      and\n        /* \"Campaign.sol\":1052:1062  msg.sender */\n      caller\n        /* \"Campaign.sol\":1052:1073  msg.sender == manager */\n      0xffffffffffffffffffffffffffffffffffffffff\n      and\n      eq\n        /* \"Campaign.sol\":1044:1118  require(msg.sender == manager, \"Only the Manager can perform this action\") */\n      tag_75\n      jumpi\n      mload(0x40)\n      0x08c379a000000000000000000000000000000000000000000000000000000000\n      dup2\n      mstore\n      0x04\n      add\n      tag_76\n      swap1\n      tag_68\n      jump\t// in\n    tag_76:\n      mload(0x40)\n      dup1\n      swap2\n      sub\n      swap1\n      revert\n    tag_75:\n        /* \"Campaign.sol\":2332:2355  Request storage request */\n      0x00\n        /* \"Campaign.sol\":2358:2366  requests */\n      0x02\n        /* \"Campaign.sol\":2358:2373  requests[index] */\n      0x00\n        /* \"Campaign.sol\":2367:2372  index */\n      dup4\n        /* \"Campaign.sol\":2358:2373  requests[index] */\n      dup2\n      mstore\n      0x20\n      add\n      swap1\n      dup2\n      mstore\n      0x20\n      add\n      0x00\n      keccak256\n        /* \"Campaign.sol\":2332:2373  Request storage request = requests[index] */\n      swap1\n      pop\n        /* \"Campaign.sol\":2392:2399  request */\n      dup1\n        /* \"Campaign.sol\":2392:2408  request.complete */\n      0x02\n      add\n      0x14\n      swap1\n      sload\n      swap1\n      0x0100\n      exp\n      swap1\n      div\n      0xff\n      and\n        /* \"Campaign.sol\":2391:2408  !request.complete */\n      iszero\n        /* \"Campaign.sol\":2383:2468  require(!request.complete, \"You have already confirmed the approval of this Request\") */\n      tag_78\n      jumpi\n      mload(0x40)\n      0x08c379a000000000000000000000000000000000000000000000000000000000\n      dup2\n      mstore\n      0x04\n      add\n      tag_79\n      swap1\n      tag_80\n      jump\t// in\n    tag_79:\n      mload(0x40)\n      dup1\n      swap2\n      sub\n      swap1\n      revert\n    tag_78:\n        /* \"Campaign.sol\":2529:2530  2 */\n      0x02\n        /* \"Campaign.sol\":2511:2528  contributorsCount */\n      sload(0x00)\n        /* \"Campaign.sol\":2511:2530  contributorsCount/2 */\n      tag_81\n      swap2\n      swap1\n      tag_82\n      jump\t// in\n    tag_81:\n        /* \"Campaign.sol\":2486:2493  request */\n      dup2\n        /* \"Campaign.sol\":2486:2507  request.approvalCount */\n      0x03\n      add\n      sload\n        /* \"Campaign.sol\":2486:2531  request.approvalCount > (contributorsCount/2) */\n      gt\n        /* \"Campaign.sol\":2478:2582  require(request.approvalCount > (contributorsCount/2), \"At Least 50% of your contributors must approve\") */\n      tag_83\n      jumpi\n      mload(0x40)\n      0x08c379a000000000000000000000000000000000000000000000000000000000\n      dup2\n      mstore\n      0x04\n      add\n      tag_84\n      swap1\n      tag_85\n      jump\t// in\n    tag_84:\n      mload(0x40)\n      dup1\n      swap2\n      sub\n      swap1\n      revert\n    tag_83:\n        /* \"Campaign.sol\":2611:2615  true */\n      0x01\n        /* \"Campaign.sol\":2592:2599  request */\n      dup2\n        /* \"Campaign.sol\":2592:2608  request.complete */\n      0x02\n      add\n      0x14\n        /* \"Campaign.sol\":2592:2615  request.complete = true */\n      0x0100\n      exp\n      dup2\n      sload\n      dup2\n      0xff\n      mul\n      not\n      and\n      swap1\n      dup4\n      iszero\n      iszero\n      mul\n      or\n      swap1\n      sstore\n      pop\n        /* \"Campaign.sol\":2633:2640  request */\n      dup1\n        /* \"Campaign.sol\":2633:2649  request.receiver */\n      0x02\n      add\n      0x00\n      swap1\n      sload\n      swap1\n      0x0100\n      exp\n      swap1\n      div\n      0xffffffffffffffffffffffffffffffffffffffff\n      and\n        /* \"Campaign.sol\":2625:2659  payable(request.receiver).transfer */\n      0xffffffffffffffffffffffffffffffffffffffff\n      and\n        /* \"Campaign.sol\":2625:2674  payable(request.receiver).transfer(request.value) */\n      0x08fc\n        /* \"Campaign.sol\":2660:2667  request */\n      dup3\n        /* \"Campaign.sol\":2660:2673  request.value */\n      0x01\n      add\n      sload\n        /* \"Campaign.sol\":2625:2674  payable(request.receiver).transfer(request.value) */\n      swap1\n      dup2\n      iszero\n      mul\n      swap1\n      mload(0x40)\n      0x00\n      mload(0x40)\n      dup1\n      dup4\n      sub\n      dup2\n      dup6\n      dup9\n      dup9\n      call\n      swap4\n      pop\n      pop\n      pop\n      pop\n      iszero\n      dup1\n      iszero\n      tag_87\n      jumpi\n      returndatasize\n      0x00\n      dup1\n      returndatacopy\n      revert(0x00, returndatasize)\n    tag_87:\n      pop\n        /* \"Campaign.sol\":2322:2681  {... */\n      pop\n        /* \"Campaign.sol\":2259:2681  function confirmApproval(uint index) public restricted payable {... */\n      pop\n      jump\t// out\n        /* \"Campaign.sol\":796:827  uint public minimumContribution */\n    tag_51:\n      sload(0x04)\n      dup2\n      jump\t// out\n        /* \"Campaign.sol\":1144:1441  function contribute() public payable {... */\n    tag_54:\n        /* \"Campaign.sol\":1211:1230  minimumContribution */\n      sload(0x04)\n        /* \"Campaign.sol\":1199:1208  msg.value */\n      callvalue\n        /* \"Campaign.sol\":1199:1230  msg.value > minimumContribution */\n      gt\n        /* \"Campaign.sol\":1191:1280  require(msg.value > minimumContribution, \"Your contribution is below the minimum amount\") */\n      tag_89\n      jumpi\n      mload(0x40)\n      0x08c379a000000000000000000000000000000000000000000000000000000000\n      dup2\n      mstore\n      0x04\n      add\n      tag_90\n      swap1\n      tag_91\n      jump\t// in\n    tag_90:\n      mload(0x40)\n      dup1\n      swap2\n      sub\n      swap1\n      revert\n    tag_89:\n        /* \"Campaign.sol\":1326:1331  false */\n      0x00\n        /* \"Campaign.sol\":1298:1331  contributors[msg.sender] == false */\n      iszero\n      iszero\n        /* \"Campaign.sol\":1298:1310  contributors */\n      0x05\n        /* \"Campaign.sol\":1298:1322  contributors[msg.sender] */\n      0x00\n        /* \"Campaign.sol\":1311:1321  msg.sender */\n      caller\n        /* \"Campaign.sol\":1298:1322  contributors[msg.sender] */\n      0xffffffffffffffffffffffffffffffffffffffff\n      and\n      0xffffffffffffffffffffffffffffffffffffffff\n      and\n      dup2\n      mstore\n      0x20\n      add\n      swap1\n      dup2\n      mstore\n      0x20\n      add\n      0x00\n      keccak256\n      0x00\n      swap1\n      sload\n      swap1\n      0x0100\n      exp\n      swap1\n      div\n      0xff\n      and\n        /* \"Campaign.sol\":1298:1331  contributors[msg.sender] == false */\n      iszero\n      iszero\n      eq\n        /* \"Campaign.sol\":1290:1364  require(contributors[msg.sender] == false, \"You have already contributed\") */\n      tag_92\n      jumpi\n      mload(0x40)\n      0x08c379a000000000000000000000000000000000000000000000000000000000\n      dup2\n      mstore\n      0x04\n      add\n      tag_93\n      swap1\n      tag_94\n      jump\t// in\n    tag_93:\n      mload(0x40)\n      dup1\n      swap2\n      sub\n      swap1\n      revert\n    tag_92:\n        /* \"Campaign.sol\":1401:1405  true */\n      0x01\n        /* \"Campaign.sol\":1374:1386  contributors */\n      0x05\n        /* \"Campaign.sol\":1374:1398  contributors[msg.sender] */\n      0x00\n        /* \"Campaign.sol\":1387:1397  msg.sender */\n      caller\n        /* \"Campaign.sol\":1374:1398  contributors[msg.sender] */\n      0xffffffffffffffffffffffffffffffffffffffff\n      and\n      0xffffffffffffffffffffffffffffffffffffffff\n      and\n      dup2\n      mstore\n      0x20\n      add\n      swap1\n      dup2\n      mstore\n      0x20\n      add\n      0x00\n      keccak256\n      0x00\n        /* \"Campaign.sol\":1374:1405  contributors[msg.sender] = true */\n      0x0100\n      exp\n      dup2\n      sload\n      dup2\n      0xff\n      mul\n      not\n      and\n      swap1\n      dup4\n      iszero\n      iszero\n      mul\n      or\n      swap1\n      sstore\n      pop\n        /* \"Campaign.sol\":1415:1432  contributorsCount */\n      0x00\n      dup1\n        /* \"Campaign.sol\":1415:1434  contributorsCount++ */\n      dup2\n      sload\n      dup1\n      swap3\n      swap2\n      swap1\n      tag_95\n      swap1\n      tag_71\n      jump\t// in\n    tag_95:\n      swap2\n      swap1\n      pop\n      sstore\n      pop\n        /* \"Campaign.sol\":1144:1441  function contribute() public payable {... */\n      jump\t// out\n        /* \"Campaign.sol\":1893:2253  function approveRequest(uint index) public {... */\n    tag_58:\n        /* \"Campaign.sol\":1946:1969  Request storage request */\n      0x00\n        /* \"Campaign.sol\":1972:1980  requests */\n      0x02\n        /* \"Campaign.sol\":1972:1987  requests[index] */\n      0x00\n        /* \"Campaign.sol\":1981:1986  index */\n      dup4\n        /* \"Campaign.sol\":1972:1987  requests[index] */\n      dup2\n      mstore\n      0x20\n      add\n      swap1\n      dup2\n      mstore\n      0x20\n      add\n      0x00\n      keccak256\n        /* \"Campaign.sol\":1946:1987  Request storage request = requests[index] */\n      swap1\n      pop\n        /* \"Campaign.sol\":2005:2017  contributors */\n      0x05\n        /* \"Campaign.sol\":2005:2029  contributors[msg.sender] */\n      0x00\n        /* \"Campaign.sol\":2018:2028  msg.sender */\n      caller\n        /* \"Campaign.sol\":2005:2029  contributors[msg.sender] */\n      0xffffffffffffffffffffffffffffffffffffffff\n      and\n      0xffffffffffffffffffffffffffffffffffffffff\n      and\n      dup2\n      mstore\n      0x20\n      add\n      swap1\n      dup2\n      mstore\n      0x20\n      add\n      0x00\n      keccak256\n      0x00\n      swap1\n      sload\n      swap1\n      0x0100\n      exp\n      swap1\n      div\n      0xff\n      and\n        /* \"Campaign.sol\":1997:2076  require(contributors[msg.sender], \"Only Contributors can approve this Request\") */\n      tag_97\n      jumpi\n      mload(0x40)\n      0x08c379a000000000000000000000000000000000000000000000000000000000\n      dup2\n      mstore\n      0x04\n      add\n      tag_98\n      swap1\n      tag_99\n      jump\t// in\n    tag_98:\n      mload(0x40)\n      dup1\n      swap2\n      sub\n      swap1\n      revert\n    tag_97:\n        /* \"Campaign.sol\":2095:2102  request */\n      dup1\n        /* \"Campaign.sol\":2095:2112  request.approvals */\n      0x04\n      add\n        /* \"Campaign.sol\":2095:2124  request.approvals[msg.sender] */\n      0x00\n        /* \"Campaign.sol\":2113:2123  msg.sender */\n      caller\n        /* \"Campaign.sol\":2095:2124  request.approvals[msg.sender] */\n      0xffffffffffffffffffffffffffffffffffffffff\n      and\n      0xffffffffffffffffffffffffffffffffffffffff\n      and\n      dup2\n      mstore\n      0x20\n      add\n      swap1\n      dup2\n      mstore\n      0x20\n      add\n      0x00\n      keccak256\n      0x00\n      swap1\n      sload\n      swap1\n      0x0100\n      exp\n      swap1\n      div\n      0xff\n      and\n        /* \"Campaign.sol\":2094:2124  !request.approvals[msg.sender] */\n      iszero\n        /* \"Campaign.sol\":2086:2167  require(!request.approvals[msg.sender], \"You have already approved this Request\") */\n      tag_100\n      jumpi\n      mload(0x40)\n      0x08c379a000000000000000000000000000000000000000000000000000000000\n      dup2\n      mstore\n      0x04\n      add\n      tag_101\n      swap1\n      tag_102\n      jump\t// in\n    tag_101:\n      mload(0x40)\n      dup1\n      swap2\n      sub\n      swap1\n      revert\n    tag_100:\n        /* \"Campaign.sol\":2209:2213  true */\n      0x01\n        /* \"Campaign.sol\":2177:2184  request */\n      dup2\n        /* \"Campaign.sol\":2177:2194  request.approvals */\n      0x04\n      add\n        /* \"Campaign.sol\":2177:2206  request.approvals[msg.sender] */\n      0x00\n        /* \"Campaign.sol\":2195:2205  msg.sender */\n      caller\n        /* \"Campaign.sol\":2177:2206  request.approvals[msg.sender] */\n      0xffffffffffffffffffffffffffffffffffffffff\n      and\n      0xffffffffffffffffffffffffffffffffffffffff\n      and\n      dup2\n      mstore\n      0x20\n      add\n      swap1\n      dup2\n      mstore\n      0x20\n      add\n      0x00\n      keccak256\n      0x00\n        /* \"Campaign.sol\":2177:2213  request.approvals[msg.sender] = true */\n      0x0100\n      exp\n      dup2\n      sload\n      dup2\n      0xff\n      mul\n      not\n      and\n      swap1\n      dup4\n      iszero\n      iszero\n      mul\n      or\n      swap1\n      sstore\n      pop\n        /* \"Campaign.sol\":2223:2230  request */\n      dup1\n        /* \"Campaign.sol\":2223:2244  request.approvalCount */\n      0x03\n      add\n      0x00\n        /* \"Campaign.sol\":2223:2246  request.approvalCount++ */\n      dup2\n      sload\n      dup1\n      swap3\n      swap2\n      swap1\n      tag_103\n      swap1\n      tag_71\n      jump\t// in\n    tag_103:\n      swap2\n      swap1\n      pop\n      sstore\n      pop\n        /* \"Campaign.sol\":1936:2253  {... */\n      pop\n        /* \"Campaign.sol\":1893:2253  function approveRequest(uint index) public {... */\n      pop\n      jump\t// out\n    tag_73:\n      dup3\n      dup1\n      sload\n      tag_104\n      swap1\n      tag_60\n      jump\t// in\n    tag_104:\n      swap1\n      0x00\n      mstore\n      keccak256(0x00, 0x20)\n      swap1\n      0x1f\n      add\n      0x20\n      swap1\n      div\n      dup2\n      add\n      swap3\n      dup3\n      tag_106\n      jumpi\n      0x00\n      dup6\n      sstore\n      jump(tag_105)\n    tag_106:\n      dup3\n      0x1f\n      lt\n      tag_107\n      jumpi\n      dup1\n      mload\n      not(0xff)\n      and\n      dup4\n      dup1\n      add\n      or\n      dup6\n      sstore\n      jump(tag_105)\n    tag_107:\n      dup3\n      dup1\n      add\n      0x01\n      add\n      dup6\n      sstore\n      dup3\n      iszero\n      tag_105\n      jumpi\n      swap2\n      dup3\n      add\n    tag_108:\n      dup3\n      dup2\n      gt\n      iszero\n      tag_109\n      jumpi\n      dup3\n      mload\n      dup3\n      sstore\n      swap2\n      0x20\n      add\n      swap2\n      swap1\n      0x01\n      add\n      swap1\n      jump(tag_108)\n    tag_109:\n    tag_105:\n      pop\n      swap1\n      pop\n      tag_110\n      swap2\n      swap1\n      tag_111\n      jump\t// in\n    tag_110:\n      pop\n      swap1\n      jump\t// out\n    tag_111:\n    tag_112:\n      dup1\n      dup3\n      gt\n      iszero\n      tag_113\n      jumpi\n      0x00\n      dup2\n      0x00\n      swap1\n      sstore\n      pop\n      0x01\n      add\n      jump(tag_112)\n    tag_113:\n      pop\n      swap1\n      jump\t// out\n        /* \"#utility.yul\":7:82   */\n    tag_114:\n        /* \"#utility.yul\":40:46   */\n      0x00\n        /* \"#utility.yul\":73:75   */\n      0x40\n        /* \"#utility.yul\":67:76   */\n      mload\n        /* \"#utility.yul\":57:76   */\n      swap1\n      pop\n        /* \"#utility.yul\":7:82   */\n      swap1\n      jump\t// out\n        /* \"#utility.yul\":88:205   */\n    tag_115:\n        /* \"#utility.yul\":197:198   */\n      0x00\n        /* \"#utility.yul\":194:195   */\n      dup1\n        /* \"#utility.yul\":187:199   */\n      revert\n        /* \"#utility.yul\":211:328   */\n    tag_116:\n        /* \"#utility.yul\":320:321   */\n      0x00\n        /* \"#utility.yul\":317:318   */\n      dup1\n        /* \"#utility.yul\":310:322   */\n      revert\n        /* \"#utility.yul\":334:460   */\n    tag_117:\n        /* \"#utility.yul\":371:378   */\n      0x00\n        /* \"#utility.yul\":411:453   */\n      0xffffffffffffffffffffffffffffffffffffffff\n        /* \"#utility.yul\":404:409   */\n      dup3\n        /* \"#utility.yul\":400:454   */\n      and\n        /* \"#utility.yul\":389:454   */\n      swap1\n      pop\n        /* \"#utility.yul\":334:460   */\n      swap2\n      swap1\n      pop\n      jump\t// out\n        /* \"#utility.yul\":466:562   */\n    tag_118:\n        /* \"#utility.yul\":503:510   */\n      0x00\n        /* \"#utility.yul\":532:556   */\n      tag_165\n        /* \"#utility.yul\":550:555   */\n      dup3\n        /* \"#utility.yul\":532:556   */\n      tag_117\n      jump\t// in\n    tag_165:\n        /* \"#utility.yul\":521:556   */\n      swap1\n      pop\n        /* \"#utility.yul\":466:562   */\n      swap2\n      swap1\n      pop\n      jump\t// out\n        /* \"#utility.yul\":568:690   */\n    tag_119:\n        /* \"#utility.yul\":641:665   */\n      tag_167\n        /* \"#utility.yul\":659:664   */\n      dup2\n        /* \"#utility.yul\":641:665   */\n      tag_118\n      jump\t// in\n    tag_167:\n        /* \"#utility.yul\":634:639   */\n      dup2\n        /* \"#utility.yul\":631:666   */\n      eq\n        /* \"#utility.yul\":621:684   */\n      tag_168\n      jumpi\n        /* \"#utility.yul\":680:681   */\n      0x00\n        /* \"#utility.yul\":677:678   */\n      dup1\n        /* \"#utility.yul\":670:682   */\n      revert\n        /* \"#utility.yul\":621:684   */\n    tag_168:\n        /* \"#utility.yul\":568:690   */\n      pop\n      jump\t// out\n        /* \"#utility.yul\":696:835   */\n    tag_120:\n        /* \"#utility.yul\":742:747   */\n      0x00\n        /* \"#utility.yul\":780:786   */\n      dup2\n        /* \"#utility.yul\":767:787   */\n      calldataload\n        /* \"#utility.yul\":758:787   */\n      swap1\n      pop\n        /* \"#utility.yul\":796:829   */\n      tag_170\n        /* \"#utility.yul\":823:828   */\n      dup2\n        /* \"#utility.yul\":796:829   */\n      tag_119\n      jump\t// in\n    tag_170:\n        /* \"#utility.yul\":696:835   */\n      swap3\n      swap2\n      pop\n      pop\n      jump\t// out\n        /* \"#utility.yul\":841:1170   */\n    tag_16:\n        /* \"#utility.yul\":900:906   */\n      0x00\n        /* \"#utility.yul\":949:951   */\n      0x20\n        /* \"#utility.yul\":937:946   */\n      dup3\n        /* \"#utility.yul\":928:935   */\n      dup5\n        /* \"#utility.yul\":924:947   */\n      sub\n        /* \"#utility.yul\":920:952   */\n      slt\n        /* \"#utility.yul\":917:1036   */\n      iszero\n      tag_172\n      jumpi\n        /* \"#utility.yul\":955:1034   */\n      tag_173\n      tag_115\n      jump\t// in\n    tag_173:\n        /* \"#utility.yul\":917:1036   */\n    tag_172:\n        /* \"#utility.yul\":1075:1076   */\n      0x00\n        /* \"#utility.yul\":1100:1153   */\n      tag_174\n        /* \"#utility.yul\":1145:1152   */\n      dup5\n        /* \"#utility.yul\":1136:1142   */\n      dup3\n        /* \"#utility.yul\":1125:1134   */\n      dup6\n        /* \"#utility.yul\":1121:1143   */\n      add\n        /* \"#utility.yul\":1100:1153   */\n      tag_120\n      jump\t// in\n    tag_174:\n        /* \"#utility.yul\":1090:1153   */\n      swap2\n      pop\n        /* \"#utility.yul\":1046:1163   */\n      pop\n        /* \"#utility.yul\":841:1170   */\n      swap3\n      swap2\n      pop\n      pop\n      jump\t// out\n        /* \"#utility.yul\":1176:1266   */\n    tag_121:\n        /* \"#utility.yul\":1210:1217   */\n      0x00\n        /* \"#utility.yul\":1253:1258   */\n      dup2\n        /* \"#utility.yul\":1246:1259   */\n      iszero\n        /* \"#utility.yul\":1239:1260   */\n      iszero\n        /* \"#utility.yul\":1228:1260   */\n      swap1\n      pop\n        /* \"#utility.yul\":1176:1266   */\n      swap2\n      swap1\n      pop\n      jump\t// out\n        /* \"#utility.yul\":1272:1381   */\n    tag_122:\n        /* \"#utility.yul\":1353:1374   */\n      tag_177\n        /* \"#utility.yul\":1368:1373   */\n      dup2\n        /* \"#utility.yul\":1353:1374   */\n      tag_121\n      jump\t// in\n    tag_177:\n        /* \"#utility.yul\":1348:1351   */\n      dup3\n        /* \"#utility.yul\":1341:1375   */\n      mstore\n        /* \"#utility.yul\":1272:1381   */\n      pop\n      pop\n      jump\t// out\n        /* \"#utility.yul\":1387:1597   */\n    tag_19:\n        /* \"#utility.yul\":1474:1478   */\n      0x00\n        /* \"#utility.yul\":1512:1514   */\n      0x20\n        /* \"#utility.yul\":1501:1510   */\n      dup3\n        /* \"#utility.yul\":1497:1515   */\n      add\n        /* \"#utility.yul\":1489:1515   */\n      swap1\n      pop\n        /* \"#utility.yul\":1525:1590   */\n      tag_179\n        /* \"#utility.yul\":1587:1588   */\n      0x00\n        /* \"#utility.yul\":1576:1585   */\n      dup4\n        /* \"#utility.yul\":1572:1589   */\n      add\n        /* \"#utility.yul\":1563:1569   */\n      dup5\n        /* \"#utility.yul\":1525:1590   */\n      tag_122\n      jump\t// in\n    tag_179:\n        /* \"#utility.yul\":1387:1597   */\n      swap3\n      swap2\n      pop\n      pop\n      jump\t// out\n        /* \"#utility.yul\":1603:1680   */\n    tag_123:\n        /* \"#utility.yul\":1640:1647   */\n      0x00\n        /* \"#utility.yul\":1669:1674   */\n      dup2\n        /* \"#utility.yul\":1658:1674   */\n      swap1\n      pop\n        /* \"#utility.yul\":1603:1680   */\n      swap2\n      swap1\n      pop\n      jump\t// out\n        /* \"#utility.yul\":1686:1804   */\n    tag_124:\n        /* \"#utility.yul\":1773:1797   */\n      tag_182\n        /* \"#utility.yul\":1791:1796   */\n      dup2\n        /* \"#utility.yul\":1773:1797   */\n      tag_123\n      jump\t// in\n    tag_182:\n        /* \"#utility.yul\":1768:1771   */\n      dup3\n        /* \"#utility.yul\":1761:1798   */\n      mstore\n        /* \"#utility.yul\":1686:1804   */\n      pop\n      pop\n      jump\t// out\n        /* \"#utility.yul\":1810:2032   */\n    tag_24:\n        /* \"#utility.yul\":1903:1907   */\n      0x00\n        /* \"#utility.yul\":1941:1943   */\n      0x20\n        /* \"#utility.yul\":1930:1939   */\n      dup3\n        /* \"#utility.yul\":1926:1944   */\n      add\n        /* \"#utility.yul\":1918:1944   */\n      swap1\n      pop\n        /* \"#utility.yul\":1954:2025   */\n      tag_184\n        /* \"#utility.yul\":2022:2023   */\n      0x00\n        /* \"#utility.yul\":2011:2020   */\n      dup4\n        /* \"#utility.yul\":2007:2024   */\n      add\n        /* \"#utility.yul\":1998:2004   */\n      dup5\n        /* \"#utility.yul\":1954:2025   */\n      tag_124\n      jump\t// in\n    tag_184:\n        /* \"#utility.yul\":1810:2032   */\n      swap3\n      swap2\n      pop\n      pop\n      jump\t// out\n        /* \"#utility.yul\":2038:2156   */\n    tag_125:\n        /* \"#utility.yul\":2125:2149   */\n      tag_186\n        /* \"#utility.yul\":2143:2148   */\n      dup2\n        /* \"#utility.yul\":2125:2149   */\n      tag_118\n      jump\t// in\n    tag_186:\n        /* \"#utility.yul\":2120:2123   */\n      dup3\n        /* \"#utility.yul\":2113:2150   */\n      mstore\n        /* \"#utility.yul\":2038:2156   */\n      pop\n      pop\n      jump\t// out\n        /* \"#utility.yul\":2162:2384   */\n    tag_29:\n        /* \"#utility.yul\":2255:2259   */\n      0x00\n        /* \"#utility.yul\":2293:2295   */\n      0x20\n        /* \"#utility.yul\":2282:2291   */\n      dup3\n        /* \"#utility.yul\":2278:2296   */\n      add\n        /* \"#utility.yul\":2270:2296   */\n      swap1\n      pop\n        /* \"#utility.yul\":2306:2377   */\n      tag_188\n        /* \"#utility.yul\":2374:2375   */\n      0x00\n        /* \"#utility.yul\":2363:2372   */\n      dup4\n        /* \"#utility.yul\":2359:2376   */\n      add\n        /* \"#utility.yul\":2350:2356   */\n      dup5\n        /* \"#utility.yul\":2306:2377   */\n      tag_125\n      jump\t// in\n    tag_188:\n        /* \"#utility.yul\":2162:2384   */\n      swap3\n      swap2\n      pop\n      pop\n      jump\t// out\n        /* \"#utility.yul\":2390:2512   */\n    tag_126:\n        /* \"#utility.yul\":2463:2487   */\n      tag_190\n        /* \"#utility.yul\":2481:2486   */\n      dup2\n        /* \"#utility.yul\":2463:2487   */\n      tag_123\n      jump\t// in\n    tag_190:\n        /* \"#utility.yul\":2456:2461   */\n      dup2\n        /* \"#utility.yul\":2453:2488   */\n      eq\n        /* \"#utility.yul\":2443:2506   */\n      tag_191\n      jumpi\n        /* \"#utility.yul\":2502:2503   */\n      0x00\n        /* \"#utility.yul\":2499:2500   */\n      dup1\n        /* \"#utility.yul\":2492:2504   */\n      revert\n        /* \"#utility.yul\":2443:2506   */\n    tag_191:\n        /* \"#utility.yul\":2390:2512   */\n      pop\n      jump\t// out\n        /* \"#utility.yul\":2518:2657   */\n    tag_127:\n        /* \"#utility.yul\":2564:2569   */\n      0x00\n        /* \"#utility.yul\":2602:2608   */\n      dup2\n        /* \"#utility.yul\":2589:2609   */\n      calldataload\n        /* \"#utility.yul\":2580:2609   */\n      swap1\n      pop\n        /* \"#utility.yul\":2618:2651   */\n      tag_193\n        /* \"#utility.yul\":2645:2650   */\n      dup2\n        /* \"#utility.yul\":2618:2651   */\n      tag_126\n      jump\t// in\n    tag_193:\n        /* \"#utility.yul\":2518:2657   */\n      swap3\n      swap2\n      pop\n      pop\n      jump\t// out\n        /* \"#utility.yul\":2663:2992   */\n    tag_37:\n        /* \"#utility.yul\":2722:2728   */\n      0x00\n        /* \"#utility.yul\":2771:2773   */\n      0x20\n        /* \"#utility.yul\":2759:2768   */\n      dup3\n        /* \"#utility.yul\":2750:2757   */\n      dup5\n        /* \"#utility.yul\":2746:2769   */\n      sub\n        /* \"#utility.yul\":2742:2774   */\n      slt\n        /* \"#utility.yul\":2739:2858   */\n      iszero\n      tag_195\n      jumpi\n        /* \"#utility.yul\":2777:2856   */\n      tag_196\n      tag_115\n      jump\t// in\n    tag_196:\n        /* \"#utility.yul\":2739:2858   */\n    tag_195:\n        /* \"#utility.yul\":2897:2898   */\n      0x00\n        /* \"#utility.yul\":2922:2975   */\n      tag_197\n        /* \"#utility.yul\":2967:2974   */\n      dup5\n        /* \"#utility.yul\":2958:2964   */\n      dup3\n        /* \"#utility.yul\":2947:2956   */\n      dup6\n        /* \"#utility.yul\":2943:2965   */\n      add\n        /* \"#utility.yul\":2922:2975   */\n      tag_127\n      jump\t// in\n    tag_197:\n        /* \"#utility.yul\":2912:2975   */\n      swap2\n      pop\n        /* \"#utility.yul\":2868:2985   */\n      pop\n        /* \"#utility.yul\":2663:2992   */\n      swap3\n      swap2\n      pop\n      pop\n      jump\t// out\n        /* \"#utility.yul\":2998:3097   */\n    tag_128:\n        /* \"#utility.yul\":3050:3056   */\n      0x00\n        /* \"#utility.yul\":3084:3089   */\n      dup2\n        /* \"#utility.yul\":3078:3090   */\n      mload\n        /* \"#utility.yul\":3068:3090   */\n      swap1\n      pop\n        /* \"#utility.yul\":2998:3097   */\n      swap2\n      swap1\n      pop\n      jump\t// out\n        /* \"#utility.yul\":3103:3272   */\n    tag_129:\n        /* \"#utility.yul\":3187:3198   */\n      0x00\n        /* \"#utility.yul\":3221:3227   */\n      dup3\n        /* \"#utility.yul\":3216:3219   */\n      dup3\n        /* \"#utility.yul\":3209:3228   */\n      mstore\n        /* \"#utility.yul\":3261:3265   */\n      0x20\n        /* \"#utility.yul\":3256:3259   */\n      dup3\n        /* \"#utility.yul\":3252:3266   */\n      add\n        /* \"#utility.yul\":3237:3266   */\n      swap1\n      pop\n        /* \"#utility.yul\":3103:3272   */\n      swap3\n      swap2\n      pop\n      pop\n      jump\t// out\n        /* \"#utility.yul\":3278:3585   */\n    tag_130:\n        /* \"#utility.yul\":3346:3347   */\n      0x00\n        /* \"#utility.yul\":3356:3469   */\n    tag_201:\n        /* \"#utility.yul\":3370:3376   */\n      dup4\n        /* \"#utility.yul\":3367:3368   */\n      dup2\n        /* \"#utility.yul\":3364:3377   */\n      lt\n        /* \"#utility.yul\":3356:3469   */\n      iszero\n      tag_203\n      jumpi\n        /* \"#utility.yul\":3455:3456   */\n      dup1\n        /* \"#utility.yul\":3450:3453   */\n      dup3\n        /* \"#utility.yul\":3446:3457   */\n      add\n        /* \"#utility.yul\":3440:3458   */\n      mload\n        /* \"#utility.yul\":3436:3437   */\n      dup2\n        /* \"#utility.yul\":3431:3434   */\n      dup5\n        /* \"#utility.yul\":3427:3438   */\n      add\n        /* \"#utility.yul\":3420:3459   */\n      mstore\n        /* \"#utility.yul\":3392:3394   */\n      0x20\n        /* \"#utility.yul\":3389:3390   */\n      dup2\n        /* \"#utility.yul\":3385:3395   */\n      add\n        /* \"#utility.yul\":3380:3395   */\n      swap1\n      pop\n        /* \"#utility.yul\":3356:3469   */\n      jump(tag_201)\n    tag_203:\n        /* \"#utility.yul\":3487:3493   */\n      dup4\n        /* \"#utility.yul\":3484:3485   */\n      dup2\n        /* \"#utility.yul\":3481:3494   */\n      gt\n        /* \"#utility.yul\":3478:3579   */\n      iszero\n      tag_204\n      jumpi\n        /* \"#utility.yul\":3567:3568   */\n      0x00\n        /* \"#utility.yul\":3558:3564   */\n      dup5\n        /* \"#utility.yul\":3553:3556   */\n      dup5\n        /* \"#utility.yul\":3549:3565   */\n      add\n        /* \"#utility.yul\":3542:3569   */\n      mstore\n        /* \"#utility.yul\":3478:3579   */\n    tag_204:\n        /* \"#utility.yul\":3327:3585   */\n      pop\n        /* \"#utility.yul\":3278:3585   */\n      pop\n      pop\n      pop\n      jump\t// out\n        /* \"#utility.yul\":3591:3693   */\n    tag_131:\n        /* \"#utility.yul\":3632:3638   */\n      0x00\n        /* \"#utility.yul\":3683:3685   */\n      0x1f\n        /* \"#utility.yul\":3679:3686   */\n      not\n        /* \"#utility.yul\":3674:3676   */\n      0x1f\n        /* \"#utility.yul\":3667:3672   */\n      dup4\n        /* \"#utility.yul\":3663:3677   */\n      add\n        /* \"#utility.yul\":3659:3687   */\n      and\n        /* \"#utility.yul\":3649:3687   */\n      swap1\n      pop\n        /* \"#utility.yul\":3591:3693   */\n      swap2\n      swap1\n      pop\n      jump\t// out\n        /* \"#utility.yul\":3699:4063   */\n    tag_132:\n        /* \"#utility.yul\":3787:3790   */\n      0x00\n        /* \"#utility.yul\":3815:3854   */\n      tag_207\n        /* \"#utility.yul\":3848:3853   */\n      dup3\n        /* \"#utility.yul\":3815:3854   */\n      tag_128\n      jump\t// in\n    tag_207:\n        /* \"#utility.yul\":3870:3941   */\n      tag_208\n        /* \"#utility.yul\":3934:3940   */\n      dup2\n        /* \"#utility.yul\":3929:3932   */\n      dup6\n        /* \"#utility.yul\":3870:3941   */\n      tag_129\n      jump\t// in\n    tag_208:\n        /* \"#utility.yul\":3863:3941   */\n      swap4\n      pop\n        /* \"#utility.yul\":3950:4002   */\n      tag_209\n        /* \"#utility.yul\":3995:4001   */\n      dup2\n        /* \"#utility.yul\":3990:3993   */\n      dup6\n        /* \"#utility.yul\":3983:3987   */\n      0x20\n        /* \"#utility.yul\":3976:3981   */\n      dup7\n        /* \"#utility.yul\":3972:3988   */\n      add\n        /* \"#utility.yul\":3950:4002   */\n      tag_130\n      jump\t// in\n    tag_209:\n        /* \"#utility.yul\":4027:4056   */\n      tag_210\n        /* \"#utility.yul\":4049:4055   */\n      dup2\n        /* \"#utility.yul\":4027:4056   */\n      tag_131\n      jump\t// in\n    tag_210:\n        /* \"#utility.yul\":4022:4025   */\n      dup5\n        /* \"#utility.yul\":4018:4057   */\n      add\n        /* \"#utility.yul\":4011:4057   */\n      swap2\n      pop\n        /* \"#utility.yul\":3791:4063   */\n      pop\n        /* \"#utility.yul\":3699:4063   */\n      swap3\n      swap2\n      pop\n      pop\n      jump\t// out\n        /* \"#utility.yul\":4069:4812   */\n    tag_40:\n        /* \"#utility.yul\":4288:4292   */\n      0x00\n        /* \"#utility.yul\":4326:4329   */\n      0xa0\n        /* \"#utility.yul\":4315:4324   */\n      dup3\n        /* \"#utility.yul\":4311:4330   */\n      add\n        /* \"#utility.yul\":4303:4330   */\n      swap1\n      pop\n        /* \"#utility.yul\":4376:4385   */\n      dup2\n        /* \"#utility.yul\":4370:4374   */\n      dup2\n        /* \"#utility.yul\":4366:4386   */\n      sub\n        /* \"#utility.yul\":4362:4363   */\n      0x00\n        /* \"#utility.yul\":4351:4360   */\n      dup4\n        /* \"#utility.yul\":4347:4364   */\n      add\n        /* \"#utility.yul\":4340:4387   */\n      mstore\n        /* \"#utility.yul\":4404:4482   */\n      tag_212\n        /* \"#utility.yul\":4477:4481   */\n      dup2\n        /* \"#utility.yul\":4468:4474   */\n      dup9\n        /* \"#utility.yul\":4404:4482   */\n      tag_132\n      jump\t// in\n    tag_212:\n        /* \"#utility.yul\":4396:4482   */\n      swap1\n      pop\n        /* \"#utility.yul\":4492:4564   */\n      tag_213\n        /* \"#utility.yul\":4560:4562   */\n      0x20\n        /* \"#utility.yul\":4549:4558   */\n      dup4\n        /* \"#utility.yul\":4545:4563   */\n      add\n        /* \"#utility.yul\":4536:4542   */\n      dup8\n        /* \"#utility.yul\":4492:4564   */\n      tag_124\n      jump\t// in\n    tag_213:\n        /* \"#utility.yul\":4574:4646   */\n      tag_214\n        /* \"#utility.yul\":4642:4644   */\n      0x40\n        /* \"#utility.yul\":4631:4640   */\n      dup4\n        /* \"#utility.yul\":4627:4645   */\n      add\n        /* \"#utility.yul\":4618:4624   */\n      dup7\n        /* \"#utility.yul\":4574:4646   */\n      tag_125\n      jump\t// in\n    tag_214:\n        /* \"#utility.yul\":4656:4722   */\n      tag_215\n        /* \"#utility.yul\":4718:4720   */\n      0x60\n        /* \"#utility.yul\":4707:4716   */\n      dup4\n        /* \"#utility.yul\":4703:4721   */\n      add\n        /* \"#utility.yul\":4694:4700   */\n      dup6\n        /* \"#utility.yul\":4656:4722   */\n      tag_122\n      jump\t// in\n    tag_215:\n        /* \"#utility.yul\":4732:4805   */\n      tag_216\n        /* \"#utility.yul\":4800:4803   */\n      0x80\n        /* \"#utility.yul\":4789:4798   */\n      dup4\n        /* \"#utility.yul\":4785:4804   */\n      add\n        /* \"#utility.yul\":4776:4782   */\n      dup5\n        /* \"#utility.yul\":4732:4805   */\n      tag_124\n      jump\t// in\n    tag_216:\n        /* \"#utility.yul\":4069:4812   */\n      swap7\n      swap6\n      pop\n      pop\n      pop\n      pop\n      pop\n      pop\n      jump\t// out\n        /* \"#utility.yul\":4818:4935   */\n    tag_133:\n        /* \"#utility.yul\":4927:4928   */\n      0x00\n        /* \"#utility.yul\":4924:4925   */\n      dup1\n        /* \"#utility.yul\":4917:4929   */\n      revert\n        /* \"#utility.yul\":4941:5058   */\n    tag_134:\n        /* \"#utility.yul\":5050:5051   */\n      0x00\n        /* \"#utility.yul\":5047:5048   */\n      dup1\n        /* \"#utility.yul\":5040:5052   */\n      revert\n        /* \"#utility.yul\":5064:5244   */\n    tag_135:\n        /* \"#utility.yul\":5112:5189   */\n      0x4e487b7100000000000000000000000000000000000000000000000000000000\n        /* \"#utility.yul\":5109:5110   */\n      0x00\n        /* \"#utility.yul\":5102:5190   */\n      mstore\n        /* \"#utility.yul\":5209:5213   */\n      0x41\n        /* \"#utility.yul\":5206:5207   */\n      0x04\n        /* \"#utility.yul\":5199:5214   */\n      mstore\n        /* \"#utility.yul\":5233:5237   */\n      0x24\n        /* \"#utility.yul\":5230:5231   */\n      0x00\n        /* \"#utility.yul\":5223:5238   */\n      revert\n        /* \"#utility.yul\":5250:5531   */\n    tag_136:\n        /* \"#utility.yul\":5333:5360   */\n      tag_221\n        /* \"#utility.yul\":5355:5359   */\n      dup3\n        /* \"#utility.yul\":5333:5360   */\n      tag_131\n      jump\t// in\n    tag_221:\n        /* \"#utility.yul\":5325:5331   */\n      dup2\n        /* \"#utility.yul\":5321:5361   */\n      add\n        /* \"#utility.yul\":5463:5469   */\n      dup2\n        /* \"#utility.yul\":5451:5461   */\n      dup2\n        /* \"#utility.yul\":5448:5470   */\n      lt\n        /* \"#utility.yul\":5427:5445   */\n      0xffffffffffffffff\n        /* \"#utility.yul\":5415:5425   */\n      dup3\n        /* \"#utility.yul\":5412:5446   */\n      gt\n        /* \"#utility.yul\":5409:5471   */\n      or\n        /* \"#utility.yul\":5406:5494   */\n      iszero\n      tag_222\n      jumpi\n        /* \"#utility.yul\":5474:5492   */\n      tag_223\n      tag_135\n      jump\t// in\n    tag_223:\n        /* \"#utility.yul\":5406:5494   */\n    tag_222:\n        /* \"#utility.yul\":5514:5524   */\n      dup1\n        /* \"#utility.yul\":5510:5512   */\n      0x40\n        /* \"#utility.yul\":5503:5525   */\n      mstore\n        /* \"#utility.yul\":5293:5531   */\n      pop\n        /* \"#utility.yul\":5250:5531   */\n      pop\n      pop\n      jump\t// out\n        /* \"#utility.yul\":5537:5666   */\n    tag_137:\n        /* \"#utility.yul\":5571:5577   */\n      0x00\n        /* \"#utility.yul\":5598:5618   */\n      tag_225\n      tag_114\n      jump\t// in\n    tag_225:\n        /* \"#utility.yul\":5588:5618   */\n      swap1\n      pop\n        /* \"#utility.yul\":5627:5660   */\n      tag_226\n        /* \"#utility.yul\":5655:5659   */\n      dup3\n        /* \"#utility.yul\":5647:5653   */\n      dup3\n        /* \"#utility.yul\":5627:5660   */\n      tag_136\n      jump\t// in\n    tag_226:\n        /* \"#utility.yul\":5537:5666   */\n      swap2\n      swap1\n      pop\n      jump\t// out\n        /* \"#utility.yul\":5672:5980   */\n    tag_138:\n        /* \"#utility.yul\":5734:5738   */\n      0x00\n        /* \"#utility.yul\":5824:5842   */\n      0xffffffffffffffff\n        /* \"#utility.yul\":5816:5822   */\n      dup3\n        /* \"#utility.yul\":5813:5843   */\n      gt\n        /* \"#utility.yul\":5810:5866   */\n      iszero\n      tag_228\n      jumpi\n        /* \"#utility.yul\":5846:5864   */\n      tag_229\n      tag_135\n      jump\t// in\n    tag_229:\n        /* \"#utility.yul\":5810:5866   */\n    tag_228:\n        /* \"#utility.yul\":5884:5913   */\n      tag_230\n        /* \"#utility.yul\":5906:5912   */\n      dup3\n        /* \"#utility.yul\":5884:5913   */\n      tag_131\n      jump\t// in\n    tag_230:\n        /* \"#utility.yul\":5876:5913   */\n      swap1\n      pop\n        /* \"#utility.yul\":5968:5972   */\n      0x20\n        /* \"#utility.yul\":5962:5966   */\n      dup2\n        /* \"#utility.yul\":5958:5973   */\n      add\n        /* \"#utility.yul\":5950:5973   */\n      swap1\n      pop\n        /* \"#utility.yul\":5672:5980   */\n      swap2\n      swap1\n      pop\n      jump\t// out\n        /* \"#utility.yul\":5986:6140   */\n    tag_139:\n        /* \"#utility.yul\":6070:6076   */\n      dup3\n        /* \"#utility.yul\":6065:6068   */\n      dup2\n        /* \"#utility.yul\":6060:6063   */\n      dup4\n        /* \"#utility.yul\":6047:6077   */\n      calldatacopy\n        /* \"#utility.yul\":6132:6133   */\n      0x00\n        /* \"#utility.yul\":6123:6129   */\n      dup4\n        /* \"#utility.yul\":6118:6121   */\n      dup4\n        /* \"#utility.yul\":6114:6130   */\n      add\n        /* \"#utility.yul\":6107:6134   */\n      mstore\n        /* \"#utility.yul\":5986:6140   */\n      pop\n      pop\n      pop\n      jump\t// out\n        /* \"#utility.yul\":6146:6558   */\n    tag_140:\n        /* \"#utility.yul\":6224:6229   */\n      0x00\n        /* \"#utility.yul\":6249:6315   */\n      tag_233\n        /* \"#utility.yul\":6265:6314   */\n      tag_234\n        /* \"#utility.yul\":6307:6313   */\n      dup5\n        /* \"#utility.yul\":6265:6314   */\n      tag_138\n      jump\t// in\n    tag_234:\n        /* \"#utility.yul\":6249:6315   */\n      tag_137\n      jump\t// in\n    tag_233:\n        /* \"#utility.yul\":6240:6315   */\n      swap1\n      pop\n        /* \"#utility.yul\":6338:6344   */\n      dup3\n        /* \"#utility.yul\":6331:6336   */\n      dup2\n        /* \"#utility.yul\":6324:6345   */\n      mstore\n        /* \"#utility.yul\":6376:6380   */\n      0x20\n        /* \"#utility.yul\":6369:6374   */\n      dup2\n        /* \"#utility.yul\":6365:6381   */\n      add\n        /* \"#utility.yul\":6414:6417   */\n      dup5\n        /* \"#utility.yul\":6405:6411   */\n      dup5\n        /* \"#utility.yul\":6400:6403   */\n      dup5\n        /* \"#utility.yul\":6396:6412   */\n      add\n        /* \"#utility.yul\":6393:6418   */\n      gt\n        /* \"#utility.yul\":6390:6502   */\n      iszero\n      tag_235\n      jumpi\n        /* \"#utility.yul\":6421:6500   */\n      tag_236\n      tag_134\n      jump\t// in\n    tag_236:\n        /* \"#utility.yul\":6390:6502   */\n    tag_235:\n        /* \"#utility.yul\":6511:6552   */\n      tag_237\n        /* \"#utility.yul\":6545:6551   */\n      dup5\n        /* \"#utility.yul\":6540:6543   */\n      dup3\n        /* \"#utility.yul\":6535:6538   */\n      dup6\n        /* \"#utility.yul\":6511:6552   */\n      tag_139\n      jump\t// in\n    tag_237:\n        /* \"#utility.yul\":6230:6558   */\n      pop\n        /* \"#utility.yul\":6146:6558   */\n      swap4\n      swap3\n      pop\n      pop\n      pop\n      jump\t// out\n        /* \"#utility.yul\":6578:6918   */\n    tag_141:\n        /* \"#utility.yul\":6634:6639   */\n      0x00\n        /* \"#utility.yul\":6683:6686   */\n      dup3\n        /* \"#utility.yul\":6676:6680   */\n      0x1f\n        /* \"#utility.yul\":6668:6674   */\n      dup4\n        /* \"#utility.yul\":6664:6681   */\n      add\n        /* \"#utility.yul\":6660:6687   */\n      slt\n        /* \"#utility.yul\":6650:6772   */\n      tag_239\n      jumpi\n        /* \"#utility.yul\":6691:6770   */\n      tag_240\n      tag_133\n      jump\t// in\n    tag_240:\n        /* \"#utility.yul\":6650:6772   */\n    tag_239:\n        /* \"#utility.yul\":6808:6814   */\n      dup2\n        /* \"#utility.yul\":6795:6815   */\n      calldataload\n        /* \"#utility.yul\":6833:6912   */\n      tag_241\n        /* \"#utility.yul\":6908:6911   */\n      dup5\n        /* \"#utility.yul\":6900:6906   */\n      dup3\n        /* \"#utility.yul\":6893:6897   */\n      0x20\n        /* \"#utility.yul\":6885:6891   */\n      dup7\n        /* \"#utility.yul\":6881:6898   */\n      add\n        /* \"#utility.yul\":6833:6912   */\n      tag_140\n      jump\t// in\n    tag_241:\n        /* \"#utility.yul\":6824:6912   */\n      swap2\n      pop\n        /* \"#utility.yul\":6640:6918   */\n      pop\n        /* \"#utility.yul\":6578:6918   */\n      swap3\n      swap2\n      pop\n      pop\n      jump\t// out\n        /* \"#utility.yul\":6924:7723   */\n    tag_44:\n        /* \"#utility.yul\":7011:7017   */\n      0x00\n        /* \"#utility.yul\":7019:7025   */\n      dup1\n        /* \"#utility.yul\":7027:7033   */\n      0x00\n        /* \"#utility.yul\":7076:7078   */\n      0x60\n        /* \"#utility.yul\":7064:7073   */\n      dup5\n        /* \"#utility.yul\":7055:7062   */\n      dup7\n        /* \"#utility.yul\":7051:7074   */\n      sub\n        /* \"#utility.yul\":7047:7079   */\n      slt\n        /* \"#utility.yul\":7044:7163   */\n      iszero\n      tag_243\n      jumpi\n        /* \"#utility.yul\":7082:7161   */\n      tag_244\n      tag_115\n      jump\t// in\n    tag_244:\n        /* \"#utility.yul\":7044:7163   */\n    tag_243:\n        /* \"#utility.yul\":7230:7231   */\n      0x00\n        /* \"#utility.yul\":7219:7228   */\n      dup5\n        /* \"#utility.yul\":7215:7232   */\n      add\n        /* \"#utility.yul\":7202:7233   */\n      calldataload\n        /* \"#utility.yul\":7260:7278   */\n      0xffffffffffffffff\n        /* \"#utility.yul\":7252:7258   */\n      dup2\n        /* \"#utility.yul\":7249:7279   */\n      gt\n        /* \"#utility.yul\":7246:7363   */\n      iszero\n      tag_245\n      jumpi\n        /* \"#utility.yul\":7282:7361   */\n      tag_246\n      tag_116\n      jump\t// in\n    tag_246:\n        /* \"#utility.yul\":7246:7363   */\n    tag_245:\n        /* \"#utility.yul\":7387:7450   */\n      tag_247\n        /* \"#utility.yul\":7442:7449   */\n      dup7\n        /* \"#utility.yul\":7433:7439   */\n      dup3\n        /* \"#utility.yul\":7422:7431   */\n      dup8\n        /* \"#utility.yul\":7418:7440   */\n      add\n        /* \"#utility.yul\":7387:7450   */\n      tag_141\n      jump\t// in\n    tag_247:\n        /* \"#utility.yul\":7377:7450   */\n      swap4\n      pop\n        /* \"#utility.yul\":7173:7460   */\n      pop\n        /* \"#utility.yul\":7499:7501   */\n      0x20\n        /* \"#utility.yul\":7525:7578   */\n      tag_248\n        /* \"#utility.yul\":7570:7577   */\n      dup7\n        /* \"#utility.yul\":7561:7567   */\n      dup3\n        /* \"#utility.yul\":7550:7559   */\n      dup8\n        /* \"#utility.yul\":7546:7568   */\n      add\n        /* \"#utility.yul\":7525:7578   */\n      tag_127\n      jump\t// in\n    tag_248:\n        /* \"#utility.yul\":7515:7578   */\n      swap3\n      pop\n        /* \"#utility.yul\":7470:7588   */\n      pop\n        /* \"#utility.yul\":7627:7629   */\n      0x40\n        /* \"#utility.yul\":7653:7706   */\n      tag_249\n        /* \"#utility.yul\":7698:7705   */\n      dup7\n        /* \"#utility.yul\":7689:7695   */\n      dup3\n        /* \"#utility.yul\":7678:7687   */\n      dup8\n        /* \"#utility.yul\":7674:7696   */\n      add\n        /* \"#utility.yul\":7653:7706   */\n      tag_120\n      jump\t// in\n    tag_249:\n        /* \"#utility.yul\":7643:7706   */\n      swap2\n      pop\n        /* \"#utility.yul\":7598:7716   */\n      pop\n        /* \"#utility.yul\":6924:7723   */\n      swap3\n      pop\n      swap3\n      pop\n      swap3\n      jump\t// out\n        /* \"#utility.yul\":7729:7909   */\n    tag_142:\n        /* \"#utility.yul\":7777:7854   */\n      0x4e487b7100000000000000000000000000000000000000000000000000000000\n        /* \"#utility.yul\":7774:7775   */\n      0x00\n        /* \"#utility.yul\":7767:7855   */\n      mstore\n        /* \"#utility.yul\":7874:7878   */\n      0x22\n        /* \"#utility.yul\":7871:7872   */\n      0x04\n        /* \"#utility.yul\":7864:7879   */\n      mstore\n        /* \"#utility.yul\":7898:7902   */\n      0x24\n        /* \"#utility.yul\":7895:7896   */\n      0x00\n        /* \"#utility.yul\":7888:7903   */\n      revert\n        /* \"#utility.yul\":7915:8235   */\n    tag_60:\n        /* \"#utility.yul\":7959:7965   */\n      0x00\n        /* \"#utility.yul\":7996:7997   */\n      0x02\n        /* \"#utility.yul\":7990:7994   */\n      dup3\n        /* \"#utility.yul\":7986:7998   */\n      div\n        /* \"#utility.yul\":7976:7998   */\n      swap1\n      pop\n        /* \"#utility.yul\":8043:8044   */\n      0x01\n        /* \"#utility.yul\":8037:8041   */\n      dup3\n        /* \"#utility.yul\":8033:8045   */\n      and\n        /* \"#utility.yul\":8064:8082   */\n      dup1\n        /* \"#utility.yul\":8054:8135   */\n      tag_252\n      jumpi\n        /* \"#utility.yul\":8120:8124   */\n      0x7f\n        /* \"#utility.yul\":8112:8118   */\n      dup3\n        /* \"#utility.yul\":8108:8125   */\n      and\n        /* \"#utility.yul\":8098:8125   */\n      swap2\n      pop\n        /* \"#utility.yul\":8054:8135   */\n    tag_252:\n        /* \"#utility.yul\":8182:8184   */\n      0x20\n        /* \"#utility.yul\":8174:8180   */\n      dup3\n        /* \"#utility.yul\":8171:8185   */\n      lt\n        /* \"#utility.yul\":8151:8169   */\n      dup2\n        /* \"#utility.yul\":8148:8186   */\n      eq\n        /* \"#utility.yul\":8145:8229   */\n      iszero\n      tag_253\n      jumpi\n        /* \"#utility.yul\":8201:8219   */\n      tag_254\n      tag_142\n      jump\t// in\n    tag_254:\n        /* \"#utility.yul\":8145:8229   */\n    tag_253:\n        /* \"#utility.yul\":7966:8235   */\n      pop\n        /* \"#utility.yul\":7915:8235   */\n      swap2\n      swap1\n      pop\n      jump\t// out\n        /* \"#utility.yul\":8241:8468   */\n    tag_143:\n        /* \"#utility.yul\":8381:8415   */\n      0x4f6e6c7920746865204d616e616765722063616e20706572666f726d20746869\n        /* \"#utility.yul\":8377:8378   */\n      0x00\n        /* \"#utility.yul\":8369:8375   */\n      dup3\n        /* \"#utility.yul\":8365:8379   */\n      add\n        /* \"#utility.yul\":8358:8416   */\n      mstore\n        /* \"#utility.yul\":8450:8460   */\n      0x7320616374696f6e000000000000000000000000000000000000000000000000\n        /* \"#utility.yul\":8445:8447   */\n      0x20\n        /* \"#utility.yul\":8437:8443   */\n      dup3\n        /* \"#utility.yul\":8433:8448   */\n      add\n        /* \"#utility.yul\":8426:8461   */\n      mstore\n        /* \"#utility.yul\":8241:8468   */\n      pop\n      jump\t// out\n        /* \"#utility.yul\":8474:8840   */\n    tag_144:\n        /* \"#utility.yul\":8616:8619   */\n      0x00\n        /* \"#utility.yul\":8637:8704   */\n      tag_257\n        /* \"#utility.yul\":8701:8703   */\n      0x28\n        /* \"#utility.yul\":8696:8699   */\n      dup4\n        /* \"#utility.yul\":8637:8704   */\n      tag_129\n      jump\t// in\n    tag_257:\n        /* \"#utility.yul\":8630:8704   */\n      swap2\n      pop\n        /* \"#utility.yul\":8713:8806   */\n      tag_258\n        /* \"#utility.yul\":8802:8805   */\n      dup3\n        /* \"#utility.yul\":8713:8806   */\n      tag_143\n      jump\t// in\n    tag_258:\n        /* \"#utility.yul\":8831:8833   */\n      0x40\n        /* \"#utility.yul\":8826:8829   */\n      dup3\n        /* \"#utility.yul\":8822:8834   */\n      add\n        /* \"#utility.yul\":8815:8834   */\n      swap1\n      pop\n        /* \"#utility.yul\":8474:8840   */\n      swap2\n      swap1\n      pop\n      jump\t// out\n        /* \"#utility.yul\":8846:9265   */\n    tag_68:\n        /* \"#utility.yul\":9012:9016   */\n      0x00\n        /* \"#utility.yul\":9050:9052   */\n      0x20\n        /* \"#utility.yul\":9039:9048   */\n      dup3\n        /* \"#utility.yul\":9035:9053   */\n      add\n        /* \"#utility.yul\":9027:9053   */\n      swap1\n      pop\n        /* \"#utility.yul\":9099:9108   */\n      dup2\n        /* \"#utility.yul\":9093:9097   */\n      dup2\n        /* \"#utility.yul\":9089:9109   */\n      sub\n        /* \"#utility.yul\":9085:9086   */\n      0x00\n        /* \"#utility.yul\":9074:9083   */\n      dup4\n        /* \"#utility.yul\":9070:9087   */\n      add\n        /* \"#utility.yul\":9063:9110   */\n      mstore\n        /* \"#utility.yul\":9127:9258   */\n      tag_260\n        /* \"#utility.yul\":9253:9257   */\n      dup2\n        /* \"#utility.yul\":9127:9258   */\n      tag_144\n      jump\t// in\n    tag_260:\n        /* \"#utility.yul\":9119:9258   */\n      swap1\n      pop\n        /* \"#utility.yul\":8846:9265   */\n      swap2\n      swap1\n      pop\n      jump\t// out\n        /* \"#utility.yul\":9271:9451   */\n    tag_145:\n        /* \"#utility.yul\":9319:9396   */\n      0x4e487b7100000000000000000000000000000000000000000000000000000000\n        /* \"#utility.yul\":9316:9317   */\n      0x00\n        /* \"#utility.yul\":9309:9397   */\n      mstore\n        /* \"#utility.yul\":9416:9420   */\n      0x11\n        /* \"#utility.yul\":9413:9414   */\n      0x04\n        /* \"#utility.yul\":9406:9421   */\n      mstore\n        /* \"#utility.yul\":9440:9444   */\n      0x24\n        /* \"#utility.yul\":9437:9438   */\n      0x00\n        /* \"#utility.yul\":9430:9445   */\n      revert\n        /* \"#utility.yul\":9457:9690   */\n    tag_71:\n        /* \"#utility.yul\":9496:9499   */\n      0x00\n        /* \"#utility.yul\":9519:9543   */\n      tag_263\n        /* \"#utility.yul\":9537:9542   */\n      dup3\n        /* \"#utility.yul\":9519:9543   */\n      tag_123\n      jump\t// in\n    tag_263:\n        /* \"#utility.yul\":9510:9543   */\n      swap2\n      pop\n        /* \"#utility.yul\":9565:9631   */\n      0xffffffffffffffffffffffffffffffffffffffffffffffffffffffffffffffff\n        /* \"#utility.yul\":9558:9563   */\n      dup3\n        /* \"#utility.yul\":9555:9632   */\n      eq\n        /* \"#utility.yul\":9552:9655   */\n      iszero\n      tag_264\n      jumpi\n        /* \"#utility.yul\":9635:9653   */\n      tag_265\n      tag_145\n      jump\t// in\n    tag_265:\n        /* \"#utility.yul\":9552:9655   */\n    tag_264:\n        /* \"#utility.yul\":9682:9683   */\n      0x01\n        /* \"#utility.yul\":9675:9680   */\n      dup3\n        /* \"#utility.yul\":9671:9684   */\n      add\n        /* \"#utility.yul\":9664:9684   */\n      swap1\n      pop\n        /* \"#utility.yul\":9457:9690   */\n      swap2\n      swap1\n      pop\n      jump\t// out\n        /* \"#utility.yul\":9696:9938   */\n    tag_146:\n        /* \"#utility.yul\":9836:9870   */\n      0x596f75206861766520616c726561647920636f6e6669726d6564207468652061\n        /* \"#utility.yul\":9832:9833   */\n      0x00\n        /* \"#utility.yul\":9824:9830   */\n      dup3\n        /* \"#utility.yul\":9820:9834   */\n      add\n        /* \"#utility.yul\":9813:9871   */\n      mstore\n        /* \"#utility.yul\":9905:9930   */\n      0x7070726f76616c206f6620746869732052657175657374000000000000000000\n        /* \"#utility.yul\":9900:9902   */\n      0x20\n        /* \"#utility.yul\":9892:9898   */\n      dup3\n        /* \"#utility.yul\":9888:9903   */\n      add\n        /* \"#utility.yul\":9881:9931   */\n      mstore\n        /* \"#utility.yul\":9696:9938   */\n      pop\n      jump\t// out\n        /* \"#utility.yul\":9944:10310   */\n    tag_147:\n        /* \"#utility.yul\":10086:10089   */\n      0x00\n        /* \"#utility.yul\":10107:10174   */\n      tag_268\n        /* \"#utility.yul\":10171:10173   */\n      0x37\n        /* \"#utility.yul\":10166:10169   */\n      dup4\n        /* \"#utility.yul\":10107:10174   */\n      tag_129\n      jump\t// in\n    tag_268:\n        /* \"#utility.yul\":10100:10174   */\n      swap2\n      pop\n        /* \"#utility.yul\":10183:10276   */\n      tag_269\n        /* \"#utility.yul\":10272:10275   */\n      dup3\n        /* \"#utility.yul\":10183:10276   */\n      tag_146\n      jump\t// in\n    tag_269:\n        /* \"#utility.yul\":10301:10303   */\n      0x40\n        /* \"#utility.yul\":10296:10299   */\n      dup3\n        /* \"#utility.yul\":10292:10304   */\n      add\n        /* \"#utility.yul\":10285:10304   */\n      swap1\n      pop\n        /* \"#utility.yul\":9944:10310   */\n      swap2\n      swap1\n      pop\n      jump\t// out\n        /* \"#utility.yul\":10316:10735   */\n    tag_80:\n        /* \"#utility.yul\":10482:10486   */\n      0x00\n        /* \"#utility.yul\":10520:10522   */\n      0x20\n        /* \"#utility.yul\":10509:10518   */\n      dup3\n        /* \"#utility.yul\":10505:10523   */\n      add\n        /* \"#utility.yul\":10497:10523   */\n      swap1\n      pop\n        /* \"#utility.yul\":10569:10578   */\n      dup2\n        /* \"#utility.yul\":10563:10567   */\n      dup2\n        /* \"#utility.yul\":10559:10579   */\n      sub\n        /* \"#utility.yul\":10555:10556   */\n      0x00\n        /* \"#utility.yul\":10544:10553   */\n      dup4\n        /* \"#utility.yul\":10540:10557   */\n      add\n        /* \"#utility.yul\":10533:10580   */\n      mstore\n        /* \"#utility.yul\":10597:10728   */\n      tag_271\n        /* \"#utility.yul\":10723:10727   */\n      dup2\n        /* \"#utility.yul\":10597:10728   */\n      tag_147\n      jump\t// in\n    tag_271:\n        /* \"#utility.yul\":10589:10728   */\n      swap1\n      pop\n        /* \"#utility.yul\":10316:10735   */\n      swap2\n      swap1\n      pop\n      jump\t// out\n        /* \"#utility.yul\":10741:10921   */\n    tag_148:\n        /* \"#utility.yul\":10789:10866   */\n      0x4e487b7100000000000000000000000000000000000000000000000000000000\n        /* \"#utility.yul\":10786:10787   */\n      0x00\n        /* \"#utility.yul\":10779:10867   */\n      mstore\n        /* \"#utility.yul\":10886:10890   */\n      0x12\n        /* \"#utility.yul\":10883:10884   */\n      0x04\n        /* \"#utility.yul\":10876:10891   */\n      mstore\n        /* \"#utility.yul\":10910:10914   */\n      0x24\n        /* \"#utility.yul\":10907:10908   */\n      0x00\n        /* \"#utility.yul\":10900:10915   */\n      revert\n        /* \"#utility.yul\":10927:11112   */\n    tag_82:\n        /* \"#utility.yul\":10967:10968   */\n      0x00\n        /* \"#utility.yul\":10984:11004   */\n      tag_274\n        /* \"#utility.yul\":11002:11003   */\n      dup3\n        /* \"#utility.yul\":10984:11004   */\n      tag_123\n      jump\t// in\n    tag_274:\n        /* \"#utility.yul\":10979:11004   */\n      swap2\n      pop\n        /* \"#utility.yul\":11018:11038   */\n      tag_275\n        /* \"#utility.yul\":11036:11037   */\n      dup4\n        /* \"#utility.yul\":11018:11038   */\n      tag_123\n      jump\t// in\n    tag_275:\n        /* \"#utility.yul\":11013:11038   */\n      swap3\n      pop\n        /* \"#utility.yul\":11057:11058   */\n      dup3\n        /* \"#utility.yul\":11047:11082   */\n      tag_276\n      jumpi\n        /* \"#utility.yul\":11062:11080   */\n      tag_277\n      tag_148\n      jump\t// in\n    tag_277:\n        /* \"#utility.yul\":11047:11082   */\n    tag_276:\n        /* \"#utility.yul\":11104:11105   */\n      dup3\n        /* \"#utility.yul\":11101:11102   */\n      dup3\n        /* \"#utility.yul\":11097:11106   */\n      div\n        /* \"#utility.yul\":11092:11106   */\n      swap1\n      pop\n        /* \"#utility.yul\":10927:11112   */\n      swap3\n      swap2\n      pop\n      pop\n      jump\t// out\n        /* \"#utility.yul\":11118:11351   */\n    tag_149:\n        /* \"#utility.yul\":11258:11292   */\n      0x4174204c6561737420353025206f6620796f757220636f6e7472696275746f72\n        /* \"#utility.yul\":11254:11255   */\n      0x00\n        /* \"#utility.yul\":11246:11252   */\n      dup3\n        /* \"#utility.yul\":11242:11256   */\n      add\n        /* \"#utility.yul\":11235:11293   */\n      mstore\n        /* \"#utility.yul\":11327:11343   */\n      0x73206d75737420617070726f7665000000000000000000000000000000000000\n        /* \"#utility.yul\":11322:11324   */\n      0x20\n        /* \"#utility.yul\":11314:11320   */\n      dup3\n        /* \"#utility.yul\":11310:11325   */\n      add\n        /* \"#utility.yul\":11303:11344   */\n      mstore\n        /* \"#utility.yul\":11118:11351   */\n      pop\n      jump\t// out\n        /* \"#utility.yul\":11357:11723   */\n    tag_150:\n        /* \"#utility.yul\":11499:11502   */\n      0x00\n        /* \"#utility.yul\":11520:11587   */\n      tag_280\n        /* \"#utility.yul\":11584:11586   */\n      0x2e\n        /* \"#utility.yul\":11579:11582   */\n      dup4\n        /* \"#utility.yul\":11520:11587   */\n      tag_129\n      jump\t// in\n    tag_280:\n        /* \"#utility.yul\":11513:11587   */\n      swap2\n      pop\n        /* \"#utility.yul\":11596:11689   */\n      tag_281\n        /* \"#utility.yul\":11685:11688   */\n      dup3\n        /* \"#utility.yul\":11596:11689   */\n      tag_149\n      jump\t// in\n    tag_281:\n        /* \"#utility.yul\":11714:11716   */\n      0x40\n        /* \"#utility.yul\":11709:11712   */\n      dup3\n        /* \"#utility.yul\":11705:11717   */\n      add\n        /* \"#utility.yul\":11698:11717   */\n      swap1\n      pop\n        /* \"#utility.yul\":11357:11723   */\n      swap2\n      swap1\n      pop\n      jump\t// out\n        /* \"#utility.yul\":11729:12148   */\n    tag_85:\n        /* \"#utility.yul\":11895:11899   */\n      0x00\n        /* \"#utility.yul\":11933:11935   */\n      0x20\n        /* \"#utility.yul\":11922:11931   */\n      dup3\n        /* \"#utility.yul\":11918:11936   */\n      add\n        /* \"#utility.yul\":11910:11936   */\n      swap1\n      pop\n        /* \"#utility.yul\":11982:11991   */\n      dup2\n        /* \"#utility.yul\":11976:11980   */\n      dup2\n        /* \"#utility.yul\":11972:11992   */\n      sub\n        /* \"#utility.yul\":11968:11969   */\n      0x00\n        /* \"#utility.yul\":11957:11966   */\n      dup4\n        /* \"#utility.yul\":11953:11970   */\n      add\n        /* \"#utility.yul\":11946:11993   */\n      mstore\n        /* \"#utility.yul\":12010:12141   */\n      tag_283\n        /* \"#utility.yul\":12136:12140   */\n      dup2\n        /* \"#utility.yul\":12010:12141   */\n      tag_150\n      jump\t// in\n    tag_283:\n        /* \"#utility.yul\":12002:12141   */\n      swap1\n      pop\n        /* \"#utility.yul\":11729:12148   */\n      swap2\n      swap1\n      pop\n      jump\t// out\n        /* \"#utility.yul\":12154:12386   */\n    tag_151:\n        /* \"#utility.yul\":12294:12328   */\n      0x596f757220636f6e747269627574696f6e2069732062656c6f7720746865206d\n        /* \"#utility.yul\":12290:12291   */\n      0x00\n        /* \"#utility.yul\":12282:12288   */\n      dup3\n        /* \"#utility.yul\":12278:12292   */\n      add\n        /* \"#utility.yul\":12271:12329   */\n      mstore\n        /* \"#utility.yul\":12363:12378   */\n      0x696e696d756d20616d6f756e7400000000000000000000000000000000000000\n        /* \"#utility.yul\":12358:12360   */\n      0x20\n        /* \"#utility.yul\":12350:12356   */\n      dup3\n        /* \"#utility.yul\":12346:12361   */\n      add\n        /* \"#utility.yul\":12339:12379   */\n      mstore\n        /* \"#utility.yul\":12154:12386   */\n      pop\n      jump\t// out\n        /* \"#utility.yul\":12392:12758   */\n    tag_152:\n        /* \"#utility.yul\":12534:12537   */\n      0x00\n        /* \"#utility.yul\":12555:12622   */\n      tag_286\n        /* \"#utility.yul\":12619:12621   */\n      0x2d\n        /* \"#utility.yul\":12614:12617   */\n      dup4\n        /* \"#utility.yul\":12555:12622   */\n      tag_129\n      jump\t// in\n    tag_286:\n        /* \"#utility.yul\":12548:12622   */\n      swap2\n      pop\n        /* \"#utility.yul\":12631:12724   */\n      tag_287\n        /* \"#utility.yul\":12720:12723   */\n      dup3\n        /* \"#utility.yul\":12631:12724   */\n      tag_151\n      jump\t// in\n    tag_287:\n        /* \"#utility.yul\":12749:12751   */\n      0x40\n        /* \"#utility.yul\":12744:12747   */\n      dup3\n        /* \"#utility.yul\":12740:12752   */\n      add\n        /* \"#utility.yul\":12733:12752   */\n      swap1\n      pop\n        /* \"#utility.yul\":12392:12758   */\n      swap2\n      swap1\n      pop\n      jump\t// out\n        /* \"#utility.yul\":12764:13183   */\n    tag_91:\n        /* \"#utility.yul\":12930:12934   */\n      0x00\n        /* \"#utility.yul\":12968:12970   */\n      0x20\n        /* \"#utility.yul\":12957:12966   */\n      dup3\n        /* \"#utility.yul\":12953:12971   */\n      add\n        /* \"#utility.yul\":12945:12971   */\n      swap1\n      pop\n        /* \"#utility.yul\":13017:13026   */\n      dup2\n        /* \"#utility.yul\":13011:13015   */\n      dup2\n        /* \"#utility.yul\":13007:13027   */\n      sub\n        /* \"#utility.yul\":13003:13004   */\n      0x00\n        /* \"#utility.yul\":12992:13001   */\n      dup4\n        /* \"#utility.yul\":12988:13005   */\n      add\n        /* \"#utility.yul\":12981:13028   */\n      mstore\n        /* \"#utility.yul\":13045:13176   */\n      tag_289\n        /* \"#utility.yul\":13171:13175   */\n      dup2\n        /* \"#utility.yul\":13045:13176   */\n      tag_152\n      jump\t// in\n    tag_289:\n        /* \"#utility.yul\":13037:13176   */\n      swap1\n      pop\n        /* \"#utility.yul\":12764:13183   */\n      swap2\n      swap1\n      pop\n      jump\t// out\n        /* \"#utility.yul\":13189:13367   */\n    tag_153:\n        /* \"#utility.yul\":13329:13359   */\n      0x596f75206861766520616c726561647920636f6e747269627574656400000000\n        /* \"#utility.yul\":13325:13326   */\n      0x00\n        /* \"#utility.yul\":13317:13323   */\n      dup3\n        /* \"#utility.yul\":13313:13327   */\n      add\n        /* \"#utility.yul\":13306:13360   */\n      mstore\n        /* \"#utility.yul\":13189:13367   */\n      pop\n      jump\t// out\n        /* \"#utility.yul\":13373:13739   */\n    tag_154:\n        /* \"#utility.yul\":13515:13518   */\n      0x00\n        /* \"#utility.yul\":13536:13603   */\n      tag_292\n        /* \"#utility.yul\":13600:13602   */\n      0x1c\n        /* \"#utility.yul\":13595:13598   */\n      dup4\n        /* \"#utility.yul\":13536:13603   */\n      tag_129\n      jump\t// in\n    tag_292:\n        /* \"#utility.yul\":13529:13603   */\n      swap2\n      pop\n        /* \"#utility.yul\":13612:13705   */\n      tag_293\n        /* \"#utility.yul\":13701:13704   */\n      dup3\n        /* \"#utility.yul\":13612:13705   */\n      tag_153\n      jump\t// in\n    tag_293:\n        /* \"#utility.yul\":13730:13732   */\n      0x20\n        /* \"#utility.yul\":13725:13728   */\n      dup3\n        /* \"#utility.yul\":13721:13733   */\n      add\n        /* \"#utility.yul\":13714:13733   */\n      swap1\n      pop\n        /* \"#utility.yul\":13373:13739   */\n      swap2\n      swap1\n      pop\n      jump\t// out\n        /* \"#utility.yul\":13745:14164   */\n    tag_94:\n        /* \"#utility.yul\":13911:13915   */\n      0x00\n        /* \"#utility.yul\":13949:13951   */\n      0x20\n        /* \"#utility.yul\":13938:13947   */\n      dup3\n        /* \"#utility.yul\":13934:13952   */\n      add\n        /* \"#utility.yul\":13926:13952   */\n      swap1\n      pop\n        /* \"#utility.yul\":13998:14007   */\n      dup2\n        /* \"#utility.yul\":13992:13996   */\n      dup2\n        /* \"#utility.yul\":13988:14008   */\n      sub\n        /* \"#utility.yul\":13984:13985   */\n      0x00\n        /* \"#utility.yul\":13973:13982   */\n      dup4\n        /* \"#utility.yul\":13969:13986   */\n      add\n        /* \"#utility.yul\":13962:14009   */\n      mstore\n        /* \"#utility.yul\":14026:14157   */\n      tag_295\n        /* \"#utility.yul\":14152:14156   */\n      dup2\n        /* \"#utility.yul\":14026:14157   */\n      tag_154\n      jump\t// in\n    tag_295:\n        /* \"#utility.yul\":14018:14157   */\n      swap1\n      pop\n        /* \"#utility.yul\":13745:14164   */\n      swap2\n      swap1\n      pop\n      jump\t// out\n        /* \"#utility.yul\":14170:14399   */\n    tag_155:\n        /* \"#utility.yul\":14310:14344   */\n      0x4f6e6c7920436f6e7472696275746f72732063616e20617070726f7665207468\n        /* \"#utility.yul\":14306:14307   */\n      0x00\n        /* \"#utility.yul\":14298:14304   */\n      dup3\n        /* \"#utility.yul\":14294:14308   */\n      add\n        /* \"#utility.yul\":14287:14345   */\n      mstore\n        /* \"#utility.yul\":14379:14391   */\n      0x6973205265717565737400000000000000000000000000000000000000000000\n        /* \"#utility.yul\":14374:14376   */\n      0x20\n        /* \"#utility.yul\":14366:14372   */\n      dup3\n        /* \"#utility.yul\":14362:14377   */\n      add\n        /* \"#utility.yul\":14355:14392   */\n      mstore\n        /* \"#utility.yul\":14170:14399   */\n      pop\n      jump\t// out\n        /* \"#utility.yul\":14405:14771   */\n    tag_156:\n        /* \"#utility.yul\":14547:14550   */\n      0x00\n        /* \"#utility.yul\":14568:14635   */\n      tag_298\n        /* \"#utility.yul\":14632:14634   */\n      0x2a\n        /* \"#utility.yul\":14627:14630   */\n      dup4\n        /* \"#utility.yul\":14568:14635   */\n      tag_129\n      jump\t// in\n    tag_298:\n        /* \"#utility.yul\":14561:14635   */\n      swap2\n      pop\n        /* \"#utility.yul\":14644:14737   */\n      tag_299\n        /* \"#utility.yul\":14733:14736   */\n      dup3\n        /* \"#utility.yul\":14644:14737   */\n      tag_155\n      jump\t// in\n    tag_299:\n        /* \"#utility.yul\":14762:14764   */\n      0x40\n        /* \"#utility.yul\":14757:14760   */\n      dup3\n        /* \"#utility.yul\":14753:14765   */\n      add\n        /* \"#utility.yul\":14746:14765   */\n      swap1\n      pop\n        /* \"#utility.yul\":14405:14771   */\n      swap2\n      swap1\n      pop\n      jump\t// out\n        /* \"#utility.yul\":14777:15196   */\n    tag_99:\n        /* \"#utility.yul\":14943:14947   */\n      0x00\n        /* \"#utility.yul\":14981:14983   */\n      0x20\n        /* \"#utility.yul\":14970:14979   */\n      dup3\n        /* \"#utility.yul\":14966:14984   */\n      add\n        /* \"#utility.yul\":14958:14984   */\n      swap1\n      pop\n        /* \"#utility.yul\":15030:15039   */\n      dup2\n        /* \"#utility.yul\":15024:15028   */\n      dup2\n        /* \"#utility.yul\":15020:15040   */\n      sub\n        /* \"#utility.yul\":15016:15017   */\n      0x00\n        /* \"#utility.yul\":15005:15014   */\n      dup4\n        /* \"#utility.yul\":15001:15018   */\n      add\n        /* \"#utility.yul\":14994:15041   */\n      mstore\n        /* \"#utility.yul\":15058:15189   */\n      tag_301\n        /* \"#utility.yul\":15184:15188   */\n      dup2\n        /* \"#utility.yul\":15058:15189   */\n      tag_156\n      jump\t// in\n    tag_301:\n        /* \"#utility.yul\":15050:15189   */\n      swap1\n      pop\n        /* \"#utility.yul\":14777:15196   */\n      swap2\n      swap1\n      pop\n      jump\t// out\n        /* \"#utility.yul\":15202:15427   */\n    tag_157:\n        /* \"#utility.yul\":15342:15376   */\n      0x596f75206861766520616c726561647920617070726f76656420746869732052\n        /* \"#utility.yul\":15338:15339   */\n      0x00\n        /* \"#utility.yul\":15330:15336   */\n      dup3\n        /* \"#utility.yul\":15326:15340   */\n      add\n        /* \"#utility.yul\":15319:15377   */\n      mstore\n        /* \"#utility.yul\":15411:15419   */\n      0x6571756573740000000000000000000000000000000000000000000000000000\n        /* \"#utility.yul\":15406:15408   */\n      0x20\n        /* \"#utility.yul\":15398:15404   */\n      dup3\n        /* \"#utility.yul\":15394:15409   */\n      add\n        /* \"#utility.yul\":15387:15420   */\n      mstore\n        /* \"#utility.yul\":15202:15427   */\n      pop\n      jump\t// out\n        /* \"#utility.yul\":15433:15799   */\n    tag_158:\n        /* \"#utility.yul\":15575:15578   */\n      0x00\n        /* \"#utility.yul\":15596:15663   */\n      tag_304\n        /* \"#utility.yul\":15660:15662   */\n      0x26\n        /* \"#utility.yul\":15655:15658   */\n      dup4\n        /* \"#utility.yul\":15596:15663   */\n      tag_129\n      jump\t// in\n    tag_304:\n        /* \"#utility.yul\":15589:15663   */\n      swap2\n      pop\n        /* \"#utility.yul\":15672:15765   */\n      tag_305\n        /* \"#utility.yul\":15761:15764   */\n      dup3\n        /* \"#utility.yul\":15672:15765   */\n      tag_157\n      jump\t// in\n    tag_305:\n        /* \"#utility.yul\":15790:15792   */\n      0x40\n        /* \"#utility.yul\":15785:15788   */\n      dup3\n        /* \"#utility.yul\":15781:15793   */\n      add\n        /* \"#utility.yul\":15774:15793   */\n      swap1\n      pop\n        /* \"#utility.yul\":15433:15799   */\n      swap2\n      swap1\n      pop\n      jump\t// out\n        /* \"#utility.yul\":15805:16224   */\n    tag_102:\n        /* \"#utility.yul\":15971:15975   */\n      0x00\n        /* \"#utility.yul\":16009:16011   */\n      0x20\n        /* \"#utility.yul\":15998:16007   */\n      dup3\n        /* \"#utility.yul\":15994:16012   */\n      add\n        /* \"#utility.yul\":15986:16012   */\n      swap1\n      pop\n        /* \"#utility.yul\":16058:16067   */\n      dup2\n        /* \"#utility.yul\":16052:16056   */\n      dup2\n        /* \"#utility.yul\":16048:16068   */\n      sub\n        /* \"#utility.yul\":16044:16045   */\n      0x00\n        /* \"#utility.yul\":16033:16042   */\n      dup4\n        /* \"#utility.yul\":16029:16046   */\n      add\n        /* \"#utility.yul\":16022:16069   */\n      mstore\n        /* \"#utility.yul\":16086:16217   */\n      tag_307\n        /* \"#utility.yul\":16212:16216   */\n      dup2\n        /* \"#utility.yul\":16086:16217   */\n      tag_158\n      jump\t// in\n    tag_307:\n        /* \"#utility.yul\":16078:16217   */\n      swap1\n      pop\n        /* \"#utility.yul\":15805:16224   */\n      swap2\n      swap1\n      pop\n      jump\t// out\n\n    auxdata: 0xa264697066735822122056f127cd62c032df20ffdb4c2597cb233f014f3ed7e26370dd6240e0fcaa975664736f6c634300080b0033\n}\n","bytecode":{"linkReferences":{},"object":"60806040523480156200001157600080fd5b50604051620015833803806200158383398181016040528101906200003791906200012c565b80600360006101000a81548173ffffffffffffffffffffffffffffffffffffffff021916908373ffffffffffffffffffffffffffffffffffffffff16021790555081600481905550505062000173565b600080fd5b6000819050919050565b620000a1816200008c565b8114620000ad57600080fd5b50565b600081519050620000c18162000096565b92915050565b600073ffffffffffffffffffffffffffffffffffffffff82169050919050565b6000620000f482620000c7565b9050919050565b6200010681620000e7565b81146200011257600080fd5b50565b6000815190506200012681620000fb565b92915050565b6000806040838503121562000146576200014562000087565b5b60006200015685828601620000b0565b9250506020620001698582860162000115565b9150509250929050565b61140080620001836000396000f3fe6080604052600436106100915760003560e01c80638a9cfd55116100595780638a9cfd55146101955780638f9a6fee146101be578063937e09b1146101da578063d7bb99ba14610205578063d7d1bbdb1461020f57610091565b80631f6d494214610096578063278d2ee0146100d3578063481c6a75146100fe5780637569b3d71461012957806381d12c5814610154575b600080fd5b3480156100a257600080fd5b506100bd60048036038101906100b89190610b08565b610238565b6040516100ca9190610b50565b60405180910390f35b3480156100df57600080fd5b506100e8610258565b6040516100f59190610b84565b60405180910390f35b34801561010a57600080fd5b5061011361025e565b6040516101209190610bae565b60405180910390f35b34801561013557600080fd5b5061013e610284565b60405161014b9190610b84565b60405180910390f35b34801561016057600080fd5b5061017b60048036038101906101769190610bf5565b61028a565b60405161018c959493929190610cbb565b60405180910390f35b3480156101a157600080fd5b506101bc60048036038101906101b79190610e4a565b610375565b005b6101d860048036038101906101d39190610bf5565b61051e565b005b3480156101e657600080fd5b506101ef6106fb565b6040516101fc9190610b84565b60405180910390f35b61020d610701565b005b34801561021b57600080fd5b5061023660048036038101906102319190610bf5565b610849565b005b60056020528060005260406000206000915054906101000a900460ff1681565b60015481565b600360009054906101000a900473ffffffffffffffffffffffffffffffffffffffff1681565b60005481565b60026020528060005260406000206000915090508060000180546102ad90610ee8565b80601f01602080910402602001604051908101604052809291908181526020018280546102d990610ee8565b80156103265780601f106102fb57610100808354040283529160200191610326565b820191906000526020600020905b81548152906001019060200180831161030957829003601f168201915b5050505050908060010154908060020160009054906101000a900473ffffffffffffffffffffffffffffffffffffffff16908060020160149054906101000a900460ff16908060030154905085565b600360009054906101000a900473ffffffffffffffffffffffffffffffffffffffff1673ffffffffffffffffffffffffffffffffffffffff163373ffffffffffffffffffffffffffffffffffffffff1614610405576040517f08c379a00000000000000000000000000000000000000000000000000000000081526004016103fc90610f8c565b60405180910390fd5b6000600260006001600081548092919061041e90610fdb565b91905055815260200190815260200160002090508381600001908051906020019061044a9291906109f3565b50828160010181905550818160020160006101000a81548173ffffffffffffffffffffffffffffffffffffffff021916908373ffffffffffffffffffffffffffffffffffffffff16021790555060008160020160146101000a81548160ff0219169083151502179055506000816003018190555060008160040160003373ffffffffffffffffffffffffffffffffffffffff1673ffffffffffffffffffffffffffffffffffffffff16815260200190815260200160002060006101000a81548160ff02191690831515021790555050505050565b600360009054906101000a900473ffffffffffffffffffffffffffffffffffffffff1673ffffffffffffffffffffffffffffffffffffffff163373ffffffffffffffffffffffffffffffffffffffff16146105ae576040517f08c379a00000000000000000000000000000000000000000000000000000000081526004016105a590610f8c565b60405180910390fd5b60006002600083815260200190815260200160002090508060020160149054906101000a900460ff1615610617576040517f08c379a000000000000000000000000000000000000000000000000000000000815260040161060e90611096565b60405180910390fd5b600260005461062691906110e5565b81600301541161066b576040517f08c379a000000000000000000000000000000000000000000000000000000000815260040161066290611188565b60405180910390fd5b60018160020160146101000a81548160ff0219169083151502179055508060020160009054906101000a900473ffffffffffffffffffffffffffffffffffffffff1673ffffffffffffffffffffffffffffffffffffffff166108fc82600101549081150290604051600060405180830381858888f193505050501580156106f6573d6000803e3d6000fd5b505050565b60045481565b6004543411610745576040517f08c379a000000000000000000000000000000000000000000000000000000000815260040161073c9061121a565b60405180910390fd5b60001515600560003373ffffffffffffffffffffffffffffffffffffffff1673ffffffffffffffffffffffffffffffffffffffff16815260200190815260200160002060009054906101000a900460ff161515146107d8576040517f08c379a00000000000000000000000000000000000000000000000000000000081526004016107cf90611286565b60405180910390fd5b6001600560003373ffffffffffffffffffffffffffffffffffffffff1673ffffffffffffffffffffffffffffffffffffffff16815260200190815260200160002060006101000a81548160ff02191690831515021790555060008081548092919061084290610fdb565b9190505550565b6000600260008381526020019081526020016000209050600560003373ffffffffffffffffffffffffffffffffffffffff1673ffffffffffffffffffffffffffffffffffffffff16815260200190815260200160002060009054906101000a900460ff166108ec576040517f08c379a00000000000000000000000000000000000000000000000000000000081526004016108e390611318565b60405180910390fd5b8060040160003373ffffffffffffffffffffffffffffffffffffffff1673ffffffffffffffffffffffffffffffffffffffff16815260200190815260200160002060009054906101000a900460ff161561097b576040517f08c379a0000000000000000000000000000000000000000000000000000000008152600401610972906113aa565b60405180910390fd5b60018160040160003373ffffffffffffffffffffffffffffffffffffffff1673ffffffffffffffffffffffffffffffffffffffff16815260200190815260200160002060006101000a81548160ff0219169083151502179055508060030160008154809291906109ea90610fdb565b91905055505050565b8280546109ff90610ee8565b90600052602060002090601f016020900481019282610a215760008555610a68565b82601f10610a3a57805160ff1916838001178555610a68565b82800160010185558215610a68579182015b82811115610a67578251825591602001919060010190610a4c565b5b509050610a759190610a79565b5090565b5b80821115610a92576000816000905550600101610a7a565b5090565b6000604051905090565b600080fd5b600080fd5b600073ffffffffffffffffffffffffffffffffffffffff82169050919050565b6000610ad582610aaa565b9050919050565b610ae581610aca565b8114610af057600080fd5b50565b600081359050610b0281610adc565b92915050565b600060208284031215610b1e57610b1d610aa0565b5b6000610b2c84828501610af3565b91505092915050565b60008115159050919050565b610b4a81610b35565b82525050565b6000602082019050610b656000830184610b41565b92915050565b6000819050919050565b610b7e81610b6b565b82525050565b6000602082019050610b996000830184610b75565b92915050565b610ba881610aca565b82525050565b6000602082019050610bc36000830184610b9f565b92915050565b610bd281610b6b565b8114610bdd57600080fd5b50565b600081359050610bef81610bc9565b92915050565b600060208284031215610c0b57610c0a610aa0565b5b6000610c1984828501610be0565b91505092915050565b600081519050919050565b600082825260208201905092915050565b60005b83811015610c5c578082015181840152602081019050610c41565b83811115610c6b576000848401525b50505050565b6000601f19601f8301169050919050565b6000610c8d82610c22565b610c978185610c2d565b9350610ca7818560208601610c3e565b610cb081610c71565b840191505092915050565b600060a0820190508181036000830152610cd58188610c82565b9050610ce46020830187610b75565b610cf16040830186610b9f565b610cfe6060830185610b41565b610d0b6080830184610b75565b9695505050505050565b600080fd5b600080fd5b7f4e487b7100000000000000000000000000000000000000000000000000000000600052604160045260246000fd5b610d5782610c71565b810181811067ffffffffffffffff82111715610d7657610d75610d1f565b5b80604052505050565b6000610d89610a96565b9050610d958282610d4e565b919050565b600067ffffffffffffffff821115610db557610db4610d1f565b5b610dbe82610c71565b9050602081019050919050565b82818337600083830152505050565b6000610ded610de884610d9a565b610d7f565b905082815260208101848484011115610e0957610e08610d1a565b5b610e14848285610dcb565b509392505050565b600082601f830112610e3157610e30610d15565b5b8135610e41848260208601610dda565b91505092915050565b600080600060608486031215610e6357610e62610aa0565b5b600084013567ffffffffffffffff811115610e8157610e80610aa5565b5b610e8d86828701610e1c565b9350506020610e9e86828701610be0565b9250506040610eaf86828701610af3565b9150509250925092565b7f4e487b7100000000000000000000000000000000000000000000000000000000600052602260045260246000fd5b60006002820490506001821680610f0057607f821691505b60208210811415610f1457610f13610eb9565b5b50919050565b7f4f6e6c7920746865204d616e616765722063616e20706572666f726d2074686960008201527f7320616374696f6e000000000000000000000000000000000000000000000000602082015250565b6000610f76602883610c2d565b9150610f8182610f1a565b604082019050919050565b60006020820190508181036000830152610fa581610f69565b9050919050565b7f4e487b7100000000000000000000000000000000000000000000000000000000600052601160045260246000fd5b6000610fe682610b6b565b91507fffffffffffffffffffffffffffffffffffffffffffffffffffffffffffffffff82141561101957611018610fac565b5b600182019050919050565b7f596f75206861766520616c726561647920636f6e6669726d656420746865206160008201527f7070726f76616c206f6620746869732052657175657374000000000000000000602082015250565b6000611080603783610c2d565b915061108b82611024565b604082019050919050565b600060208201905081810360008301526110af81611073565b9050919050565b7f4e487b7100000000000000000000000000000000000000000000000000000000600052601260045260246000fd5b60006110f082610b6b565b91506110fb83610b6b565b92508261110b5761110a6110b6565b5b828204905092915050565b7f4174204c6561737420353025206f6620796f757220636f6e7472696275746f7260008201527f73206d75737420617070726f7665000000000000000000000000000000000000602082015250565b6000611172602e83610c2d565b915061117d82611116565b604082019050919050565b600060208201905081810360008301526111a181611165565b9050919050565b7f596f757220636f6e747269627574696f6e2069732062656c6f7720746865206d60008201527f696e696d756d20616d6f756e7400000000000000000000000000000000000000602082015250565b6000611204602d83610c2d565b915061120f826111a8565b604082019050919050565b60006020820190508181036000830152611233816111f7565b9050919050565b7f596f75206861766520616c726561647920636f6e747269627574656400000000600082015250565b6000611270601c83610c2d565b915061127b8261123a565b602082019050919050565b6000602082019050818103600083015261129f81611263565b9050919050565b7f4f6e6c7920436f6e7472696275746f72732063616e20617070726f766520746860008201527f6973205265717565737400000000000000000000000000000000000000000000602082015250565b6000611302602a83610c2d565b915061130d826112a6565b604082019050919050565b60006020820190508181036000830152611331816112f5565b9050919050565b7f596f75206861766520616c726561647920617070726f7665642074686973205260008201527f6571756573740000000000000000000000000000000000000000000000000000602082015250565b6000611394602683610c2d565b915061139f82611338565b604082019050919050565b600060208201905081810360008301526113c381611387565b905091905056fea264697066735822122056f127cd62c032df20ffdb4c2597cb233f014f3ed7e26370dd6240e0fcaa975664736f6c634300080b0033","opcodes":"PUSH1 0x80 PUSH1 0x40 MSTORE CALLVALUE DUP1 ISZERO PUSH3 0x11 JUMPI PUSH1 0x0 DUP1 REVERT JUMPDEST POP PUSH1 0x40 MLOAD PUSH3 0x1583 CODESIZE SUB DUP1 PUSH3 0x1583 DUP4 CODECOPY DUP2 DUP2 ADD PUSH1 0x40 MSTORE DUP2 ADD SWAP1 PUSH3 0x37 SWAP2 SWAP1 PUSH3 0x12C JUMP JUMPDEST DUP1 PUSH1 0x3 PUSH1 0x0 PUSH2 0x100 EXP DUP2 SLOAD DUP2 PUSH20 0xFFFFFFFFFFFFFFFFFFFFFFFFFFFFFFFFFFFFFFFF MUL NOT AND SWAP1 DUP4 PUSH20 0xFFFFFFFFFFFFFFFFFFFFFFFFFFFFFFFFFFFFFFFF AND MUL OR SWAP1 SSTORE POP DUP2 PUSH1 0x4 DUP2 SWAP1 SSTORE POP POP POP PUSH3 0x173 JUMP JUMPDEST PUSH1 0x0 DUP1 REVERT JUMPDEST PUSH1 0x0 DUP2 SWAP1 POP SWAP2 SWAP1 POP JUMP JUMPDEST PUSH3 0xA1 DUP2 PUSH3 0x8C JUMP JUMPDEST DUP2 EQ PUSH3 0xAD JUMPI PUSH1 0x0 DUP1 REVERT JUMPDEST POP JUMP JUMPDEST PUSH1 0x0 DUP2 MLOAD SWAP1 POP PUSH3 0xC1 DUP2 PUSH3 0x96 JUMP JUMPDEST SWAP3 SWAP2 POP POP JUMP JUMPDEST PUSH1 0x0 PUSH20 0xFFFFFFFFFFFFFFFFFFFFFFFFFFFFFFFFFFFFFFFF DUP3 AND SWAP1 POP SWAP2 SWAP1 POP JUMP JUMPDEST PUSH1 0x0 PUSH3 0xF4 DUP3 PUSH3 0xC7 JUMP JUMPDEST SWAP1 POP SWAP2 SWAP1 POP JUMP JUMPDEST PUSH3 0x106 DUP2 PUSH3 0xE7 JUMP JUMPDEST DUP2 EQ PUSH3 0x112 JUMPI PUSH1 0x0 DUP1 REVERT JUMPDEST POP JUMP JUMPDEST PUSH1 0x0 DUP2 MLOAD SWAP1 POP PUSH3 0x126 DUP2 PUSH3 0xFB JUMP JUMPDEST SWAP3 SWAP2 POP POP JUMP JUMPDEST PUSH1 0x0 DUP1 PUSH1 0x40 DUP4 DUP6 SUB SLT ISZERO PUSH3 0x146 JUMPI PUSH3 0x145 PUSH3 0x87 JUMP JUMPDEST JUMPDEST PUSH1 0x0 PUSH3 0x156 DUP6 DUP3 DUP7 ADD PUSH3 0xB0 JUMP JUMPDEST SWAP3 POP POP PUSH1 0x20 PUSH3 0x169 DUP6 DUP3 DUP7 ADD PUSH3 0x115 JUMP JUMPDEST SWAP2 POP POP SWAP3 POP SWAP3 SWAP1 POP JUMP JUMPDEST PUSH2 0x1400 DUP1 PUSH3 0x183 PUSH1 0x0 CODECOPY PUSH1 0x0 RETURN INVALID PUSH1 0x80 PUSH1 0x40 MSTORE PUSH1 0x4 CALLDATASIZE LT PUSH2 0x91 JUMPI PUSH1 0x0 CALLDATALOAD PUSH1 0xE0 SHR DUP1 PUSH4 0x8A9CFD55 GT PUSH2 0x59 JUMPI DUP1 PUSH4 0x8A9CFD55 EQ PUSH2 0x195 JUMPI DUP1 PUSH4 0x8F9A6FEE EQ PUSH2 0x1BE JUMPI DUP1 PUSH4 0x937E09B1 EQ PUSH2 0x1DA JUMPI DUP1 PUSH4 0xD7BB99BA EQ PUSH2 0x205 JUMPI DUP1 PUSH4 0xD7D1BBDB EQ PUSH2 0x20F JUMPI PUSH2 0x91 JUMP JUMPDEST DUP1 PUSH4 0x1F6D4942 EQ PUSH2 0x96 JUMPI DUP1 PUSH4 0x278D2EE0 EQ PUSH2 0xD3 JUMPI DUP1 PUSH4 0x481C6A75 EQ PUSH2 0xFE JUMPI DUP1 PUSH4 0x7569B3D7 EQ PUSH2 0x129 JUMPI DUP1 PUSH4 0x81D12C58 EQ PUSH2 0x154 JUMPI JUMPDEST PUSH1 0x0 DUP1 REVERT JUMPDEST CALLVALUE DUP1 ISZERO PUSH2 0xA2 JUMPI PUSH1 0x0 DUP1 REVERT JUMPDEST POP PUSH2 0xBD PUSH1 0x4 DUP1 CALLDATASIZE SUB DUP2 ADD SWAP1 PUSH2 0xB8 SWAP2 SWAP1 PUSH2 0xB08 JUMP JUMPDEST PUSH2 0x238 JUMP JUMPDEST PUSH1 0x40 MLOAD PUSH2 0xCA SWAP2 SWAP1 PUSH2 0xB50 JUMP JUMPDEST PUSH1 0x40 MLOAD DUP1 SWAP2 SUB SWAP1 RETURN JUMPDEST CALLVALUE DUP1 ISZERO PUSH2 0xDF JUMPI PUSH1 0x0 DUP1 REVERT JUMPDEST POP PUSH2 0xE8 PUSH2 0x258 JUMP JUMPDEST PUSH1 0x40 MLOAD PUSH2 0xF5 SWAP2 SWAP1 PUSH2 0xB84 JUMP JUMPDEST PUSH1 0x40 MLOAD DUP1 SWAP2 SUB SWAP1 RETURN JUMPDEST CALLVALUE DUP1 ISZERO PUSH2 0x10A JUMPI PUSH1 0x0 DUP1 REVERT JUMPDEST POP PUSH2 0x113 PUSH2 0x25E JUMP JUMPDEST PUSH1 0x40 MLOAD PUSH2 0x120 SWAP2 SWAP1 PUSH2 0xBAE JUMP JUMPDEST PUSH1 0x40 MLOAD DUP1 SWAP2 SUB SWAP1 RETURN JUMPDEST CALLVALUE DUP1 ISZERO PUSH2 0x135 JUMPI PUSH1 0x0 DUP1 REVERT JUMPDEST POP PUSH2 0x13E PUSH2 0x284 JUMP JUMPDEST PUSH1 0x40 MLOAD PUSH2 0x14B SWAP2 SWAP1 PUSH2 0xB84 JUMP JUMPDEST PUSH1 0x40 MLOAD DUP1 SWAP2 SUB SWAP1 RETURN JUMPDEST CALLVALUE DUP1 ISZERO PUSH2 0x160 JUMPI PUSH1 0x0 DUP1 REVERT JUMPDEST POP PUSH2 0x17B PUSH1 0x4 DUP1 CALLDATASIZE SUB DUP2 ADD SWAP1 PUSH2 0x176 SWAP2 SWAP1 PUSH2 0xBF5 JUMP JUMPDEST PUSH2 0x28A JUMP JUMPDEST PUSH1 0x40 MLOAD PUSH2 0x18C SWAP6 SWAP5 SWAP4 SWAP3 SWAP2 SWAP1 PUSH2 0xCBB JUMP JUMPDEST PUSH1 0x40 MLOAD DUP1 SWAP2 SUB SWAP1 RETURN JUMPDEST CALLVALUE DUP1 ISZERO PUSH2 0x1A1 JUMPI PUSH1 0x0 DUP1 REVERT JUMPDEST POP PUSH2 0x1BC PUSH1 0x4 DUP1 CALLDATASIZE SUB DUP2 ADD SWAP1 PUSH2 0x1B7 SWAP2 SWAP1 PUSH2 0xE4A JUMP JUMPDEST PUSH2 0x375 JUMP JUMPDEST STOP JUMPDEST PUSH2 0x1D8 PUSH1 0x4 DUP1 CALLDATASIZE SUB DUP2 ADD SWAP1 PUSH2 0x1D3 SWAP2 SWAP1 PUSH2 0xBF5 JUMP JUMPDEST PUSH2 0x51E JUMP JUMPDEST STOP JUMPDEST CALLVALUE DUP1 ISZERO PUSH2 0x1E6 JUMPI PUSH1 0x0 DUP1 REVERT JUMPDEST POP PUSH2 0x1EF PUSH2 0x6FB JUMP JUMPDEST PUSH1 0x40 MLOAD PUSH2 0x1FC SWAP2 SWAP1 PUSH2 0xB84 JUMP JUMPDEST PUSH1 0x40 MLOAD DUP1 SWAP2 SUB SWAP1 RETURN JUMPDEST PUSH2 0x20D PUSH2 0x701 JUMP JUMPDEST STOP JUMPDEST CALLVALUE DUP1 ISZERO PUSH2 0x21B JUMPI PUSH1 0x0 DUP1 REVERT JUMPDEST POP PUSH2 0x236 PUSH1 0x4 DUP1 CALLDATASIZE SUB DUP2 ADD SWAP1 PUSH2 0x231 SWAP2 SWAP1 PUSH2 0xBF5 JUMP JUMPDEST PUSH2 0x849 JUMP JUMPDEST STOP JUMPDEST PUSH1 0x5 PUSH1 0x20 MSTORE DUP1 PUSH1 0x0 MSTORE PUSH1 0x40 PUSH1 0x0 KECCAK256 PUSH1 0x0 SWAP2 POP SLOAD SWAP1 PUSH2 0x100 EXP SWAP1 DIV PUSH1 0xFF AND DUP2 JUMP JUMPDEST PUSH1 0x1 SLOAD DUP2 JUMP JUMPDEST PUSH1 0x3 PUSH1 0x0 SWAP1 SLOAD SWAP1 PUSH2 0x100 EXP SWAP1 DIV PUSH20 0xFFFFFFFFFFFFFFFFFFFFFFFFFFFFFFFFFFFFFFFF AND DUP2 JUMP JUMPDEST PUSH1 0x0 SLOAD DUP2 JUMP JUMPDEST PUSH1 0x2 PUSH1 0x20 MSTORE DUP1 PUSH1 0x0 MSTORE PUSH1 0x40 PUSH1 0x0 KECCAK256 PUSH1 0x0 SWAP2 POP SWAP1 POP DUP1 PUSH1 0x0 ADD DUP1 SLOAD PUSH2 0x2AD SWAP1 PUSH2 0xEE8 JUMP JUMPDEST DUP1 PUSH1 0x1F ADD PUSH1 0x20 DUP1 SWAP2 DIV MUL PUSH1 0x20 ADD PUSH1 0x40 MLOAD SWAP1 DUP2 ADD PUSH1 0x40 MSTORE DUP1 SWAP3 SWAP2 SWAP1 DUP2 DUP2 MSTORE PUSH1 0x20 ADD DUP3 DUP1 SLOAD PUSH2 0x2D9 SWAP1 PUSH2 0xEE8 JUMP JUMPDEST DUP1 ISZERO PUSH2 0x326 JUMPI DUP1 PUSH1 0x1F LT PUSH2 0x2FB JUMPI PUSH2 0x100 DUP1 DUP4 SLOAD DIV MUL DUP4 MSTORE SWAP2 PUSH1 0x20 ADD SWAP2 PUSH2 0x326 JUMP JUMPDEST DUP3 ADD SWAP2 SWAP1 PUSH1 0x0 MSTORE PUSH1 0x20 PUSH1 0x0 KECCAK256 SWAP1 JUMPDEST DUP2 SLOAD DUP2 MSTORE SWAP1 PUSH1 0x1 ADD SWAP1 PUSH1 0x20 ADD DUP1 DUP4 GT PUSH2 0x309 JUMPI DUP3 SWAP1 SUB PUSH1 0x1F AND DUP3 ADD SWAP2 JUMPDEST POP POP POP POP POP SWAP1 DUP1 PUSH1 0x1 ADD SLOAD SWAP1 DUP1 PUSH1 0x2 ADD PUSH1 0x0 SWAP1 SLOAD SWAP1 PUSH2 0x100 EXP SWAP1 DIV PUSH20 0xFFFFFFFFFFFFFFFFFFFFFFFFFFFFFFFFFFFFFFFF AND SWAP1 DUP1 PUSH1 0x2 ADD PUSH1 0x14 SWAP1 SLOAD SWAP1 PUSH2 0x100 EXP SWAP1 DIV PUSH1 0xFF AND SWAP1 DUP1 PUSH1 0x3 ADD SLOAD SWAP1 POP DUP6 JUMP JUMPDEST PUSH1 0x3 PUSH1 0x0 SWAP1 SLOAD SWAP1 PUSH2 0x100 EXP SWAP1 DIV PUSH20 0xFFFFFFFFFFFFFFFFFFFFFFFFFFFFFFFFFFFFFFFF AND PUSH20 0xFFFFFFFFFFFFFFFFFFFFFFFFFFFFFFFFFFFFFFFF AND CALLER PUSH20 0xFFFFFFFFFFFFFFFFFFFFFFFFFFFFFFFFFFFFFFFF AND EQ PUSH2 0x405 JUMPI PUSH1 0x40 MLOAD PUSH32 0x8C379A000000000000000000000000000000000000000000000000000000000 DUP2 MSTORE PUSH1 0x4 ADD PUSH2 0x3FC SWAP1 PUSH2 0xF8C JUMP JUMPDEST PUSH1 0x40 MLOAD DUP1 SWAP2 SUB SWAP1 REVERT JUMPDEST PUSH1 0x0 PUSH1 0x2 PUSH1 0x0 PUSH1 0x1 PUSH1 0x0 DUP2 SLOAD DUP1 SWAP3 SWAP2 SWAP1 PUSH2 0x41E SWAP1 PUSH2 0xFDB JUMP JUMPDEST SWAP2 SWAP1 POP SSTORE DUP2 MSTORE PUSH1 0x20 ADD SWAP1 DUP2 MSTORE PUSH1 0x20 ADD PUSH1 0x0 KECCAK256 SWAP1 POP DUP4 DUP2 PUSH1 0x0 ADD SWAP1 DUP1 MLOAD SWAP1 PUSH1 0x20 ADD SWAP1 PUSH2 0x44A SWAP3 SWAP2 SWAP1 PUSH2 0x9F3 JUMP JUMPDEST POP DUP3 DUP2 PUSH1 0x1 ADD DUP2 SWAP1 SSTORE POP DUP2 DUP2 PUSH1 0x2 ADD PUSH1 0x0 PUSH2 0x100 EXP DUP2 SLOAD DUP2 PUSH20 0xFFFFFFFFFFFFFFFFFFFFFFFFFFFFFFFFFFFFFFFF MUL NOT AND SWAP1 DUP4 PUSH20 0xFFFFFFFFFFFFFFFFFFFFFFFFFFFFFFFFFFFFFFFF AND MUL OR SWAP1 SSTORE POP PUSH1 0x0 DUP2 PUSH1 0x2 ADD PUSH1 0x14 PUSH2 0x100 EXP DUP2 SLOAD DUP2 PUSH1 0xFF MUL NOT AND SWAP1 DUP4 ISZERO ISZERO MUL OR SWAP1 SSTORE POP PUSH1 0x0 DUP2 PUSH1 0x3 ADD DUP2 SWAP1 SSTORE POP PUSH1 0x0 DUP2 PUSH1 0x4 ADD PUSH1 0x0 CALLER PUSH20 0xFFFFFFFFFFFFFFFFFFFFFFFFFFFFFFFFFFFFFFFF AND PUSH20 0xFFFFFFFFFFFFFFFFFFFFFFFFFFFFFFFFFFFFFFFF AND DUP2 MSTORE PUSH1 0x20 ADD SWAP1 DUP2 MSTORE PUSH1 0x20 ADD PUSH1 0x0 KECCAK256 PUSH1 0x0 PUSH2 0x100 EXP DUP2 SLOAD DUP2 PUSH1 0xFF MUL NOT AND SWAP1 DUP4 ISZERO ISZERO MUL OR SWAP1 SSTORE POP POP POP POP POP JUMP JUMPDEST PUSH1 0x3 PUSH1 0x0 SWAP1 SLOAD SWAP1 PUSH2 0x100 EXP SWAP1 DIV PUSH20 0xFFFFFFFFFFFFFFFFFFFFFFFFFFFFFFFFFFFFFFFF AND PUSH20 0xFFFFFFFFFFFFFFFFFFFFFFFFFFFFFFFFFFFFFFFF AND CALLER PUSH20 0xFFFFFFFFFFFFFFFFFFFFFFFFFFFFFFFFFFFFFFFF AND EQ PUSH2 0x5AE JUMPI PUSH1 0x40 MLOAD PUSH32 0x8C379A000000000000000000000000000000000000000000000000000000000 DUP2 MSTORE PUSH1 0x4 ADD PUSH2 0x5A5 SWAP1 PUSH2 0xF8C JUMP JUMPDEST PUSH1 0x40 MLOAD DUP1 SWAP2 SUB SWAP1 REVERT JUMPDEST PUSH1 0x0 PUSH1 0x2 PUSH1 0x0 DUP4 DUP2 MSTORE PUSH1 0x20 ADD SWAP1 DUP2 MSTORE PUSH1 0x20 ADD PUSH1 0x0 KECCAK256 SWAP1 POP DUP1 PUSH1 0x2 ADD PUSH1 0x14 SWAP1 SLOAD SWAP1 PUSH2 0x100 EXP SWAP1 DIV PUSH1 0xFF AND ISZERO PUSH2 0x617 JUMPI PUSH1 0x40 MLOAD PUSH32 0x8C379A000000000000000000000000000000000000000000000000000000000 DUP2 MSTORE PUSH1 0x4 ADD PUSH2 0x60E SWAP1 PUSH2 0x1096 JUMP JUMPDEST PUSH1 0x40 MLOAD DUP1 SWAP2 SUB SWAP1 REVERT JUMPDEST PUSH1 0x2 PUSH1 0x0 SLOAD PUSH2 0x626 SWAP2 SWAP1 PUSH2 0x10E5 JUMP JUMPDEST DUP2 PUSH1 0x3 ADD SLOAD GT PUSH2 0x66B JUMPI PUSH1 0x40 MLOAD PUSH32 0x8C379A000000000000000000000000000000000000000000000000000000000 DUP2 MSTORE PUSH1 0x4 ADD PUSH2 0x662 SWAP1 PUSH2 0x1188 JUMP JUMPDEST PUSH1 0x40 MLOAD DUP1 SWAP2 SUB SWAP1 REVERT JUMPDEST PUSH1 0x1 DUP2 PUSH1 0x2 ADD PUSH1 0x14 PUSH2 0x100 EXP DUP2 SLOAD DUP2 PUSH1 0xFF MUL NOT AND SWAP1 DUP4 ISZERO ISZERO MUL OR SWAP1 SSTORE POP DUP1 PUSH1 0x2 ADD PUSH1 0x0 SWAP1 SLOAD SWAP1 PUSH2 0x100 EXP SWAP1 DIV PUSH20 0xFFFFFFFFFFFFFFFFFFFFFFFFFFFFFFFFFFFFFFFF AND PUSH20 0xFFFFFFFFFFFFFFFFFFFFFFFFFFFFFFFFFFFFFFFF AND PUSH2 0x8FC DUP3 PUSH1 0x1 ADD SLOAD SWAP1 DUP2 ISZERO MUL SWAP1 PUSH1 0x40 MLOAD PUSH1 0x0 PUSH1 0x40 MLOAD DUP1 DUP4 SUB DUP2 DUP6 DUP9 DUP9 CALL SWAP4 POP POP POP POP ISZERO DUP1 ISZERO PUSH2 0x6F6 JUMPI RETURNDATASIZE PUSH1 0x0 DUP1 RETURNDATACOPY RETURNDATASIZE PUSH1 0x0 REVERT JUMPDEST POP POP POP JUMP JUMPDEST PUSH1 0x4 SLOAD DUP2 JUMP JUMPDEST PUSH1 0x4 SLOAD CALLVALUE GT PUSH2 0x745 JUMPI PUSH1 0x40 MLOAD PUSH32 0x8C379A000000000000000000000000000000000000000000000000000000000 DUP2 MSTORE PUSH1 0x4 ADD PUSH2 0x73C SWAP1 PUSH2 0x121A JUMP JUMPDEST PUSH1 0x40 MLOAD DUP1 SWAP2 SUB SWAP1 REVERT JUMPDEST PUSH1 0x0 ISZERO ISZERO PUSH1 0x5 PUSH1 0x0 CALLER PUSH20 0xFFFFFFFFFFFFFFFFFFFFFFFFFFFFFFFFFFFFFFFF AND PUSH20 0xFFFFFFFFFFFFFFFFFFFFFFFFFFFFFFFFFFFFFFFF AND DUP2 MSTORE PUSH1 0x20 ADD SWAP1 DUP2 MSTORE PUSH1 0x20 ADD PUSH1 0x0 KECCAK256 PUSH1 0x0 SWAP1 SLOAD SWAP1 PUSH2 0x100 EXP SWAP1 DIV PUSH1 0xFF AND ISZERO ISZERO EQ PUSH2 0x7D8 JUMPI PUSH1 0x40 MLOAD PUSH32 0x8C379A000000000000000000000000000000000000000000000000000000000 DUP2 MSTORE PUSH1 0x4 ADD PUSH2 0x7CF SWAP1 PUSH2 0x1286 JUMP JUMPDEST PUSH1 0x40 MLOAD DUP1 SWAP2 SUB SWAP1 REVERT JUMPDEST PUSH1 0x1 PUSH1 0x5 PUSH1 0x0 CALLER PUSH20 0xFFFFFFFFFFFFFFFFFFFFFFFFFFFFFFFFFFFFFFFF AND PUSH20 0xFFFFFFFFFFFFFFFFFFFFFFFFFFFFFFFFFFFFFFFF AND DUP2 MSTORE PUSH1 0x20 ADD SWAP1 DUP2 MSTORE PUSH1 0x20 ADD PUSH1 0x0 KECCAK256 PUSH1 0x0 PUSH2 0x100 EXP DUP2 SLOAD DUP2 PUSH1 0xFF MUL NOT AND SWAP1 DUP4 ISZERO ISZERO MUL OR SWAP1 SSTORE POP PUSH1 0x0 DUP1 DUP2 SLOAD DUP1 SWAP3 SWAP2 SWAP1 PUSH2 0x842 SWAP1 PUSH2 0xFDB JUMP JUMPDEST SWAP2 SWAP1 POP SSTORE POP JUMP JUMPDEST PUSH1 0x0 PUSH1 0x2 PUSH1 0x0 DUP4 DUP2 MSTORE PUSH1 0x20 ADD SWAP1 DUP2 MSTORE PUSH1 0x20 ADD PUSH1 0x0 KECCAK256 SWAP1 POP PUSH1 0x5 PUSH1 0x0 CALLER PUSH20 0xFFFFFFFFFFFFFFFFFFFFFFFFFFFFFFFFFFFFFFFF AND PUSH20 0xFFFFFFFFFFFFFFFFFFFFFFFFFFFFFFFFFFFFFFFF AND DUP2 MSTORE PUSH1 0x20 ADD SWAP1 DUP2 MSTORE PUSH1 0x20 ADD PUSH1 0x0 KECCAK256 PUSH1 0x0 SWAP1 SLOAD SWAP1 PUSH2 0x100 EXP SWAP1 DIV PUSH1 0xFF AND PUSH2 0x8EC JUMPI PUSH1 0x40 MLOAD PUSH32 0x8C379A000000000000000000000000000000000000000000000000000000000 DUP2 MSTORE PUSH1 0x4 ADD PUSH2 0x8E3 SWAP1 PUSH2 0x1318 JUMP JUMPDEST PUSH1 0x40 MLOAD DUP1 SWAP2 SUB SWAP1 REVERT JUMPDEST DUP1 PUSH1 0x4 ADD PUSH1 0x0 CALLER PUSH20 0xFFFFFFFFFFFFFFFFFFFFFFFFFFFFFFFFFFFFFFFF AND PUSH20 0xFFFFFFFFFFFFFFFFFFFFFFFFFFFFFFFFFFFFFFFF AND DUP2 MSTORE PUSH1 0x20 ADD SWAP1 DUP2 MSTORE PUSH1 0x20 ADD PUSH1 0x0 KECCAK256 PUSH1 0x0 SWAP1 SLOAD SWAP1 PUSH2 0x100 EXP SWAP1 DIV PUSH1 0xFF AND ISZERO PUSH2 0x97B JUMPI PUSH1 0x40 MLOAD PUSH32 0x8C379A000000000000000000000000000000000000000000000000000000000 DUP2 MSTORE PUSH1 0x4 ADD PUSH2 0x972 SWAP1 PUSH2 0x13AA JUMP JUMPDEST PUSH1 0x40 MLOAD DUP1 SWAP2 SUB SWAP1 REVERT JUMPDEST PUSH1 0x1 DUP2 PUSH1 0x4 ADD PUSH1 0x0 CALLER PUSH20 0xFFFFFFFFFFFFFFFFFFFFFFFFFFFFFFFFFFFFFFFF AND PUSH20 0xFFFFFFFFFFFFFFFFFFFFFFFFFFFFFFFFFFFFFFFF AND DUP2 MSTORE PUSH1 0x20 ADD SWAP1 DUP2 MSTORE PUSH1 0x20 ADD PUSH1 0x0 KECCAK256 PUSH1 0x0 PUSH2 0x100 EXP DUP2 SLOAD DUP2 PUSH1 0xFF MUL NOT AND SWAP1 DUP4 ISZERO ISZERO MUL OR SWAP1 SSTORE POP DUP1 PUSH1 0x3 ADD PUSH1 0x0 DUP2 SLOAD DUP1 SWAP3 SWAP2 SWAP1 PUSH2 0x9EA SWAP1 PUSH2 0xFDB JUMP JUMPDEST SWAP2 SWAP1 POP SSTORE POP POP POP JUMP JUMPDEST DUP3 DUP1 SLOAD PUSH2 0x9FF SWAP1 PUSH2 0xEE8 JUMP JUMPDEST SWAP1 PUSH1 0x0 MSTORE PUSH1 0x20 PUSH1 0x0 KECCAK256 SWAP1 PUSH1 0x1F ADD PUSH1 0x20 SWAP1 DIV DUP2 ADD SWAP3 DUP3 PUSH2 0xA21 JUMPI PUSH1 0x0 DUP6 SSTORE PUSH2 0xA68 JUMP JUMPDEST DUP3 PUSH1 0x1F LT PUSH2 0xA3A JUMPI DUP1 MLOAD PUSH1 0xFF NOT AND DUP4 DUP1 ADD OR DUP6 SSTORE PUSH2 0xA68 JUMP JUMPDEST DUP3 DUP1 ADD PUSH1 0x1 ADD DUP6 SSTORE DUP3 ISZERO PUSH2 0xA68 JUMPI SWAP2 DUP3 ADD JUMPDEST DUP3 DUP2 GT ISZERO PUSH2 0xA67 JUMPI DUP3 MLOAD DUP3 SSTORE SWAP2 PUSH1 0x20 ADD SWAP2 SWAP1 PUSH1 0x1 ADD SWAP1 PUSH2 0xA4C JUMP JUMPDEST JUMPDEST POP SWAP1 POP PUSH2 0xA75 SWAP2 SWAP1 PUSH2 0xA79 JUMP JUMPDEST POP SWAP1 JUMP JUMPDEST JUMPDEST DUP1 DUP3 GT ISZERO PUSH2 0xA92 JUMPI PUSH1 0x0 DUP2 PUSH1 0x0 SWAP1 SSTORE POP PUSH1 0x1 ADD PUSH2 0xA7A JUMP JUMPDEST POP SWAP1 JUMP JUMPDEST PUSH1 0x0 PUSH1 0x40 MLOAD SWAP1 POP SWAP1 JUMP JUMPDEST PUSH1 0x0 DUP1 REVERT JUMPDEST PUSH1 0x0 DUP1 REVERT JUMPDEST PUSH1 0x0 PUSH20 0xFFFFFFFFFFFFFFFFFFFFFFFFFFFFFFFFFFFFFFFF DUP3 AND SWAP1 POP SWAP2 SWAP1 POP JUMP JUMPDEST PUSH1 0x0 PUSH2 0xAD5 DUP3 PUSH2 0xAAA JUMP JUMPDEST SWAP1 POP SWAP2 SWAP1 POP JUMP JUMPDEST PUSH2 0xAE5 DUP2 PUSH2 0xACA JUMP JUMPDEST DUP2 EQ PUSH2 0xAF0 JUMPI PUSH1 0x0 DUP1 REVERT JUMPDEST POP JUMP JUMPDEST PUSH1 0x0 DUP2 CALLDATALOAD SWAP1 POP PUSH2 0xB02 DUP2 PUSH2 0xADC JUMP JUMPDEST SWAP3 SWAP2 POP POP JUMP JUMPDEST PUSH1 0x0 PUSH1 0x20 DUP3 DUP5 SUB SLT ISZERO PUSH2 0xB1E JUMPI PUSH2 0xB1D PUSH2 0xAA0 JUMP JUMPDEST JUMPDEST PUSH1 0x0 PUSH2 0xB2C DUP5 DUP3 DUP6 ADD PUSH2 0xAF3 JUMP JUMPDEST SWAP2 POP POP SWAP3 SWAP2 POP POP JUMP JUMPDEST PUSH1 0x0 DUP2 ISZERO ISZERO SWAP1 POP SWAP2 SWAP1 POP JUMP JUMPDEST PUSH2 0xB4A DUP2 PUSH2 0xB35 JUMP JUMPDEST DUP3 MSTORE POP POP JUMP JUMPDEST PUSH1 0x0 PUSH1 0x20 DUP3 ADD SWAP1 POP PUSH2 0xB65 PUSH1 0x0 DUP4 ADD DUP5 PUSH2 0xB41 JUMP JUMPDEST SWAP3 SWAP2 POP POP JUMP JUMPDEST PUSH1 0x0 DUP2 SWAP1 POP SWAP2 SWAP1 POP JUMP JUMPDEST PUSH2 0xB7E DUP2 PUSH2 0xB6B JUMP JUMPDEST DUP3 MSTORE POP POP JUMP JUMPDEST PUSH1 0x0 PUSH1 0x20 DUP3 ADD SWAP1 POP PUSH2 0xB99 PUSH1 0x0 DUP4 ADD DUP5 PUSH2 0xB75 JUMP JUMPDEST SWAP3 SWAP2 POP POP JUMP JUMPDEST PUSH2 0xBA8 DUP2 PUSH2 0xACA JUMP JUMPDEST DUP3 MSTORE POP POP JUMP JUMPDEST PUSH1 0x0 PUSH1 0x20 DUP3 ADD SWAP1 POP PUSH2 0xBC3 PUSH1 0x0 DUP4 ADD DUP5 PUSH2 0xB9F JUMP JUMPDEST SWAP3 SWAP2 POP POP JUMP JUMPDEST PUSH2 0xBD2 DUP2 PUSH2 0xB6B JUMP JUMPDEST DUP2 EQ PUSH2 0xBDD JUMPI PUSH1 0x0 DUP1 REVERT JUMPDEST POP JUMP JUMPDEST PUSH1 0x0 DUP2 CALLDATALOAD SWAP1 POP PUSH2 0xBEF DUP2 PUSH2 0xBC9 JUMP JUMPDEST SWAP3 SWAP2 POP POP JUMP JUMPDEST PUSH1 0x0 PUSH1 0x20 DUP3 DUP5 SUB SLT ISZERO PUSH2 0xC0B JUMPI PUSH2 0xC0A PUSH2 0xAA0 JUMP JUMPDEST JUMPDEST PUSH1 0x0 PUSH2 0xC19 DUP5 DUP3 DUP6 ADD PUSH2 0xBE0 JUMP JUMPDEST SWAP2 POP POP SWAP3 SWAP2 POP POP JUMP JUMPDEST PUSH1 0x0 DUP2 MLOAD SWAP1 POP SWAP2 SWAP1 POP JUMP JUMPDEST PUSH1 0x0 DUP3 DUP3 MSTORE PUSH1 0x20 DUP3 ADD SWAP1 POP SWAP3 SWAP2 POP POP JUMP JUMPDEST PUSH1 0x0 JUMPDEST DUP4 DUP2 LT ISZERO PUSH2 0xC5C JUMPI DUP1 DUP3 ADD MLOAD DUP2 DUP5 ADD MSTORE PUSH1 0x20 DUP2 ADD SWAP1 POP PUSH2 0xC41 JUMP JUMPDEST DUP4 DUP2 GT ISZERO PUSH2 0xC6B JUMPI PUSH1 0x0 DUP5 DUP5 ADD MSTORE JUMPDEST POP POP POP POP JUMP JUMPDEST PUSH1 0x0 PUSH1 0x1F NOT PUSH1 0x1F DUP4 ADD AND SWAP1 POP SWAP2 SWAP1 POP JUMP JUMPDEST PUSH1 0x0 PUSH2 0xC8D DUP3 PUSH2 0xC22 JUMP JUMPDEST PUSH2 0xC97 DUP2 DUP6 PUSH2 0xC2D JUMP JUMPDEST SWAP4 POP PUSH2 0xCA7 DUP2 DUP6 PUSH1 0x20 DUP7 ADD PUSH2 0xC3E JUMP JUMPDEST PUSH2 0xCB0 DUP2 PUSH2 0xC71 JUMP JUMPDEST DUP5 ADD SWAP2 POP POP SWAP3 SWAP2 POP POP JUMP JUMPDEST PUSH1 0x0 PUSH1 0xA0 DUP3 ADD SWAP1 POP DUP2 DUP2 SUB PUSH1 0x0 DUP4 ADD MSTORE PUSH2 0xCD5 DUP2 DUP9 PUSH2 0xC82 JUMP JUMPDEST SWAP1 POP PUSH2 0xCE4 PUSH1 0x20 DUP4 ADD DUP8 PUSH2 0xB75 JUMP JUMPDEST PUSH2 0xCF1 PUSH1 0x40 DUP4 ADD DUP7 PUSH2 0xB9F JUMP JUMPDEST PUSH2 0xCFE PUSH1 0x60 DUP4 ADD DUP6 PUSH2 0xB41 JUMP JUMPDEST PUSH2 0xD0B PUSH1 0x80 DUP4 ADD DUP5 PUSH2 0xB75 JUMP JUMPDEST SWAP7 SWAP6 POP POP POP POP POP POP JUMP JUMPDEST PUSH1 0x0 DUP1 REVERT JUMPDEST PUSH1 0x0 DUP1 REVERT JUMPDEST PUSH32 0x4E487B7100000000000000000000000000000000000000000000000000000000 PUSH1 0x0 MSTORE PUSH1 0x41 PUSH1 0x4 MSTORE PUSH1 0x24 PUSH1 0x0 REVERT JUMPDEST PUSH2 0xD57 DUP3 PUSH2 0xC71 JUMP JUMPDEST DUP2 ADD DUP2 DUP2 LT PUSH8 0xFFFFFFFFFFFFFFFF DUP3 GT OR ISZERO PUSH2 0xD76 JUMPI PUSH2 0xD75 PUSH2 0xD1F JUMP JUMPDEST JUMPDEST DUP1 PUSH1 0x40 MSTORE POP POP POP JUMP JUMPDEST PUSH1 0x0 PUSH2 0xD89 PUSH2 0xA96 JUMP JUMPDEST SWAP1 POP PUSH2 0xD95 DUP3 DUP3 PUSH2 0xD4E JUMP JUMPDEST SWAP2 SWAP1 POP JUMP JUMPDEST PUSH1 0x0 PUSH8 0xFFFFFFFFFFFFFFFF DUP3 GT ISZERO PUSH2 0xDB5 JUMPI PUSH2 0xDB4 PUSH2 0xD1F JUMP JUMPDEST JUMPDEST PUSH2 0xDBE DUP3 PUSH2 0xC71 JUMP JUMPDEST SWAP1 POP PUSH1 0x20 DUP2 ADD SWAP1 POP SWAP2 SWAP1 POP JUMP JUMPDEST DUP3 DUP2 DUP4 CALLDATACOPY PUSH1 0x0 DUP4 DUP4 ADD MSTORE POP POP POP JUMP JUMPDEST PUSH1 0x0 PUSH2 0xDED PUSH2 0xDE8 DUP5 PUSH2 0xD9A JUMP JUMPDEST PUSH2 0xD7F JUMP JUMPDEST SWAP1 POP DUP3 DUP2 MSTORE PUSH1 0x20 DUP2 ADD DUP5 DUP5 DUP5 ADD GT ISZERO PUSH2 0xE09 JUMPI PUSH2 0xE08 PUSH2 0xD1A JUMP JUMPDEST JUMPDEST PUSH2 0xE14 DUP5 DUP3 DUP6 PUSH2 0xDCB JUMP JUMPDEST POP SWAP4 SWAP3 POP POP POP JUMP JUMPDEST PUSH1 0x0 DUP3 PUSH1 0x1F DUP4 ADD SLT PUSH2 0xE31 JUMPI PUSH2 0xE30 PUSH2 0xD15 JUMP JUMPDEST JUMPDEST DUP2 CALLDATALOAD PUSH2 0xE41 DUP5 DUP3 PUSH1 0x20 DUP7 ADD PUSH2 0xDDA JUMP JUMPDEST SWAP2 POP POP SWAP3 SWAP2 POP POP JUMP JUMPDEST PUSH1 0x0 DUP1 PUSH1 0x0 PUSH1 0x60 DUP5 DUP7 SUB SLT ISZERO PUSH2 0xE63 JUMPI PUSH2 0xE62 PUSH2 0xAA0 JUMP JUMPDEST JUMPDEST PUSH1 0x0 DUP5 ADD CALLDATALOAD PUSH8 0xFFFFFFFFFFFFFFFF DUP2 GT ISZERO PUSH2 0xE81 JUMPI PUSH2 0xE80 PUSH2 0xAA5 JUMP JUMPDEST JUMPDEST PUSH2 0xE8D DUP7 DUP3 DUP8 ADD PUSH2 0xE1C JUMP JUMPDEST SWAP4 POP POP PUSH1 0x20 PUSH2 0xE9E DUP7 DUP3 DUP8 ADD PUSH2 0xBE0 JUMP JUMPDEST SWAP3 POP POP PUSH1 0x40 PUSH2 0xEAF DUP7 DUP3 DUP8 ADD PUSH2 0xAF3 JUMP JUMPDEST SWAP2 POP POP SWAP3 POP SWAP3 POP SWAP3 JUMP JUMPDEST PUSH32 0x4E487B7100000000000000000000000000000000000000000000000000000000 PUSH1 0x0 MSTORE PUSH1 0x22 PUSH1 0x4 MSTORE PUSH1 0x24 PUSH1 0x0 REVERT JUMPDEST PUSH1 0x0 PUSH1 0x2 DUP3 DIV SWAP1 POP PUSH1 0x1 DUP3 AND DUP1 PUSH2 0xF00 JUMPI PUSH1 0x7F DUP3 AND SWAP2 POP JUMPDEST PUSH1 0x20 DUP3 LT DUP2 EQ ISZERO PUSH2 0xF14 JUMPI PUSH2 0xF13 PUSH2 0xEB9 JUMP JUMPDEST JUMPDEST POP SWAP2 SWAP1 POP JUMP JUMPDEST PUSH32 0x4F6E6C7920746865204D616E616765722063616E20706572666F726D20746869 PUSH1 0x0 DUP3 ADD MSTORE PUSH32 0x7320616374696F6E000000000000000000000000000000000000000000000000 PUSH1 0x20 DUP3 ADD MSTORE POP JUMP JUMPDEST PUSH1 0x0 PUSH2 0xF76 PUSH1 0x28 DUP4 PUSH2 0xC2D JUMP JUMPDEST SWAP2 POP PUSH2 0xF81 DUP3 PUSH2 0xF1A JUMP JUMPDEST PUSH1 0x40 DUP3 ADD SWAP1 POP SWAP2 SWAP1 POP JUMP JUMPDEST PUSH1 0x0 PUSH1 0x20 DUP3 ADD SWAP1 POP DUP2 DUP2 SUB PUSH1 0x0 DUP4 ADD MSTORE PUSH2 0xFA5 DUP2 PUSH2 0xF69 JUMP JUMPDEST SWAP1 POP SWAP2 SWAP1 POP JUMP JUMPDEST PUSH32 0x4E487B7100000000000000000000000000000000000000000000000000000000 PUSH1 0x0 MSTORE PUSH1 0x11 PUSH1 0x4 MSTORE PUSH1 0x24 PUSH1 0x0 REVERT JUMPDEST PUSH1 0x0 PUSH2 0xFE6 DUP3 PUSH2 0xB6B JUMP JUMPDEST SWAP2 POP PUSH32 0xFFFFFFFFFFFFFFFFFFFFFFFFFFFFFFFFFFFFFFFFFFFFFFFFFFFFFFFFFFFFFFFF DUP3 EQ ISZERO PUSH2 0x1019 JUMPI PUSH2 0x1018 PUSH2 0xFAC JUMP JUMPDEST JUMPDEST PUSH1 0x1 DUP3 ADD SWAP1 POP SWAP2 SWAP1 POP JUMP JUMPDEST PUSH32 0x596F75206861766520616C726561647920636F6E6669726D6564207468652061 PUSH1 0x0 DUP3 ADD MSTORE PUSH32 0x7070726F76616C206F6620746869732052657175657374000000000000000000 PUSH1 0x20 DUP3 ADD MSTORE POP JUMP JUMPDEST PUSH1 0x0 PUSH2 0x1080 PUSH1 0x37 DUP4 PUSH2 0xC2D JUMP JUMPDEST SWAP2 POP PUSH2 0x108B DUP3 PUSH2 0x1024 JUMP JUMPDEST PUSH1 0x40 DUP3 ADD SWAP1 POP SWAP2 SWAP1 POP JUMP JUMPDEST PUSH1 0x0 PUSH1 0x20 DUP3 ADD SWAP1 POP DUP2 DUP2 SUB PUSH1 0x0 DUP4 ADD MSTORE PUSH2 0x10AF DUP2 PUSH2 0x1073 JUMP JUMPDEST SWAP1 POP SWAP2 SWAP1 POP JUMP JUMPDEST PUSH32 0x4E487B7100000000000000000000000000000000000000000000000000000000 PUSH1 0x0 MSTORE PUSH1 0x12 PUSH1 0x4 MSTORE PUSH1 0x24 PUSH1 0x0 REVERT JUMPDEST PUSH1 0x0 PUSH2 0x10F0 DUP3 PUSH2 0xB6B JUMP JUMPDEST SWAP2 POP PUSH2 0x10FB DUP4 PUSH2 0xB6B JUMP JUMPDEST SWAP3 POP DUP3 PUSH2 0x110B JUMPI PUSH2 0x110A PUSH2 0x10B6 JUMP JUMPDEST JUMPDEST DUP3 DUP3 DIV SWAP1 POP SWAP3 SWAP2 POP POP JUMP JUMPDEST PUSH32 0x4174204C6561737420353025206F6620796F757220636F6E7472696275746F72 PUSH1 0x0 DUP3 ADD MSTORE PUSH32 0x73206D75737420617070726F7665000000000000000000000000000000000000 PUSH1 0x20 DUP3 ADD MSTORE POP JUMP JUMPDEST PUSH1 0x0 PUSH2 0x1172 PUSH1 0x2E DUP4 PUSH2 0xC2D JUMP JUMPDEST SWAP2 POP PUSH2 0x117D DUP3 PUSH2 0x1116 JUMP JUMPDEST PUSH1 0x40 DUP3 ADD SWAP1 POP SWAP2 SWAP1 POP JUMP JUMPDEST PUSH1 0x0 PUSH1 0x20 DUP3 ADD SWAP1 POP DUP2 DUP2 SUB PUSH1 0x0 DUP4 ADD MSTORE PUSH2 0x11A1 DUP2 PUSH2 0x1165 JUMP JUMPDEST SWAP1 POP SWAP2 SWAP1 POP JUMP JUMPDEST PUSH32 0x596F757220636F6E747269627574696F6E2069732062656C6F7720746865206D PUSH1 0x0 DUP3 ADD MSTORE PUSH32 0x696E696D756D20616D6F756E7400000000000000000000000000000000000000 PUSH1 0x20 DUP3 ADD MSTORE POP JUMP JUMPDEST PUSH1 0x0 PUSH2 0x1204 PUSH1 0x2D DUP4 PUSH2 0xC2D JUMP JUMPDEST SWAP2 POP PUSH2 0x120F DUP3 PUSH2 0x11A8 JUMP JUMPDEST PUSH1 0x40 DUP3 ADD SWAP1 POP SWAP2 SWAP1 POP JUMP JUMPDEST PUSH1 0x0 PUSH1 0x20 DUP3 ADD SWAP1 POP DUP2 DUP2 SUB PUSH1 0x0 DUP4 ADD MSTORE PUSH2 0x1233 DUP2 PUSH2 0x11F7 JUMP JUMPDEST SWAP1 POP SWAP2 SWAP1 POP JUMP JUMPDEST PUSH32 0x596F75206861766520616C726561647920636F6E747269627574656400000000 PUSH1 0x0 DUP3 ADD MSTORE POP JUMP JUMPDEST PUSH1 0x0 PUSH2 0x1270 PUSH1 0x1C DUP4 PUSH2 0xC2D JUMP JUMPDEST SWAP2 POP PUSH2 0x127B DUP3 PUSH2 0x123A JUMP JUMPDEST PUSH1 0x20 DUP3 ADD SWAP1 POP SWAP2 SWAP1 POP JUMP JUMPDEST PUSH1 0x0 PUSH1 0x20 DUP3 ADD SWAP1 POP DUP2 DUP2 SUB PUSH1 0x0 DUP4 ADD MSTORE PUSH2 0x129F DUP2 PUSH2 0x1263 JUMP JUMPDEST SWAP1 POP SWAP2 SWAP1 POP JUMP JUMPDEST PUSH32 0x4F6E6C7920436F6E7472696275746F72732063616E20617070726F7665207468 PUSH1 0x0 DUP3 ADD MSTORE PUSH32 0x6973205265717565737400000000000000000000000000000000000000000000 PUSH1 0x20 DUP3 ADD MSTORE POP JUMP JUMPDEST PUSH1 0x0 PUSH2 0x1302 PUSH1 0x2A DUP4 PUSH2 0xC2D JUMP JUMPDEST SWAP2 POP PUSH2 0x130D DUP3 PUSH2 0x12A6 JUMP JUMPDEST PUSH1 0x40 DUP3 ADD SWAP1 POP SWAP2 SWAP1 POP JUMP JUMPDEST PUSH1 0x0 PUSH1 0x20 DUP3 ADD SWAP1 POP DUP2 DUP2 SUB PUSH1 0x0 DUP4 ADD MSTORE PUSH2 0x1331 DUP2 PUSH2 0x12F5 JUMP JUMPDEST SWAP1 POP SWAP2 SWAP1 POP JUMP JUMPDEST PUSH32 0x596F75206861766520616C726561647920617070726F76656420746869732052 PUSH1 0x0 DUP3 ADD MSTORE PUSH32 0x6571756573740000000000000000000000000000000000000000000000000000 PUSH1 0x20 DUP3 ADD MSTORE POP JUMP JUMPDEST PUSH1 0x0 PUSH2 0x1394 PUSH1 0x26 DUP4 PUSH2 0xC2D JUMP JUMPDEST SWAP2 POP PUSH2 0x139F DUP3 PUSH2 0x1338 JUMP JUMPDEST PUSH1 0x40 DUP3 ADD SWAP1 POP SWAP2 SWAP1 POP JUMP JUMPDEST PUSH1 0x0 PUSH1 0x20 DUP3 ADD SWAP1 POP DUP2 DUP2 SUB PUSH1 0x0 DUP4 ADD MSTORE PUSH2 0x13C3 DUP2 PUSH2 0x1387 JUMP JUMPDEST SWAP1 POP SWAP2 SWAP1 POP JUMP INVALID LOG2 PUSH5 0x6970667358 0x22 SLT KECCAK256 JUMP CALL 0x27 0xCD PUSH3 0xC032DF KECCAK256 SELFDESTRUCT 0xDB 0x4C 0x25 SWAP8 0xCB 0x23 EXTCODEHASH ADD 0x4F RETURNDATACOPY 0xD7 0xE2 PUSH4 0x70DD6240 0xE0 0xFC 0xAA SWAP8 JUMP PUSH5 0x736F6C6343 STOP ADDMOD SIGNEXTEND STOP CALLER "},"gasEstimates":{"creation":{"codeDepositCost":"1024000","executionCost":"infinite","totalCost":"infinite"},"external":{"approveRequest(uint256)":"infinite","confirmApproval(uint256)":"infinite","contribute()":"53284","contributors(address)":"2846","contributorsCount()":"2496","createRequest(string,uint256,address)":"infinite","manager()":"2559","minimumContribution()":"2473","numberofRequests()":"2452","requests(uint256)":"infinite"}},"methodIdentifiers":{"approveRequest(uint256)":"d7d1bbdb","confirmApproval(uint256)":"8f9a6fee","contribute()":"d7bb99ba","contributors(address)":"1f6d4942","contributorsCount()":"7569b3d7","createRequest(string,uint256,address)":"8a9cfd55","manager()":"481c6a75","minimumContribution()":"937e09b1","numberofRequests()":"278d2ee0","requests(uint256)":"81d12c58"}},"storageLayout":{"storage":[{"astId":56,"contract":"Campaign.sol:Campaign","label":"contributorsCount","offset":0,"slot":"0","type":"t_uint256"},{"astId":58,"contract":"Campaign.sol:Campaign","label":"numberofRequests","offset":0,"slot":"1","type":"t_uint256"},{"astId":63,"contract":"Campaign.sol:Campaign","label":"requests","offset":0,"slot":"2","type":"t_mapping(t_uint256,t_struct(Request)54_storage)"},{"astId":65,"contract":"Campaign.sol:Campaign","label":"manager","offset":0,"slot":"3","type":"t_address"},{"astId":67,"contract":"Campaign.sol:Campaign","label":"minimumContribution","offset":0,"slot":"4","type":"t_uint256"},{"astId":71,"contract":"Campaign.sol:Campaign","label":"contributors","offset":0,"slot":"5","type":"t_mapping(t_address,t_bool)"}],"types":{"t_address":{"encoding":"inplace","label":"address","numberOfBytes":"20"},"t_bool":{"encoding":"inplace","label":"bool","numberOfBytes":"1"},"t_mapping(t_address,t_bool)":{"encoding":"mapping","key":"t_address","label":"mapping(address => bool)","numberOfBytes":"32","value":"t_bool"},"t_mapping(t_uint256,t_struct(Request)54_storage)":{"encoding":"mapping","key":"t_uint256","label":"mapping(uint256 => struct Campaign.Request)","numberOfBytes":"32","value":"t_struct(Request)54_storage"},"t_string_storage":{"encoding":"bytes","label":"string","numberOfBytes":"32"},"t_struct(Request)54_storage":{"encoding":"inplace","label":"struct Campaign.Request","members":[{"astId":41,"contract":"Campaign.sol:Campaign","label":"description","offset":0,"slot":"0","type":"t_string_storage"},{"astId":43,"contract":"Campaign.sol:Campaign","label":"value","offset":0,"slot":"1","type":"t_uint256"},{"astId":45,"contract":"Campaign.sol:Campaign","label":"receiver","offset":0,"slot":"2","type":"t_address"},{"astId":47,"contract":"Campaign.sol:Campaign","label":"complete","offset":20,"slot":"2","type":"t_bool"},{"astId":49,"contract":"Campaign.sol:Campaign","label":"approvalCount","offset":0,"slot":"3","type":"t_uint256"},{"astId":53,"contract":"Campaign.sol:Campaign","label":"approvals","offset":0,"slot":"4","type":"t_mapping(t_address,t_bool)"}],"numberOfBytes":"160"},"t_uint256":{"encoding":"inplace","label":"uint256","numberOfBytes":"32"}}},"userdoc":{"kind":"user","methods":{},"version":1}}