{"abi":[{"inputs":[{"internalType":"uint256","name":"minimum","type":"uint256"},{"internalType":"address","name":"creator","type":"address"},{"internalType":"string","name":"name","type":"string"}],"stateMutability":"nonpayable","type":"constructor"},{"inputs":[{"internalType":"uint256","name":"index","type":"uint256"}],"name":"approveRequest","outputs":[],"stateMutability":"nonpayable","type":"function"},{"inputs":[],"name":"campaignName","outputs":[{"internalType":"string","name":"","type":"string"}],"stateMutability":"view","type":"function"},{"inputs":[{"internalType":"uint256","name":"index","type":"uint256"}],"name":"confirmApproval","outputs":[],"stateMutability":"payable","type":"function"},{"inputs":[],"name":"contribute","outputs":[],"stateMutability":"payable","type":"function"},{"inputs":[{"internalType":"address","name":"","type":"address"}],"name":"contributors","outputs":[{"internalType":"bool","name":"","type":"bool"}],"stateMutability":"view","type":"function"},{"inputs":[],"name":"contributorsCount","outputs":[{"internalType":"uint256","name":"","type":"uint256"}],"stateMutability":"view","type":"function"},{"inputs":[{"internalType":"string","name":"description","type":"string"},{"internalType":"uint256","name":"value","type":"uint256"},{"internalType":"address","name":"receiver","type":"address"}],"name":"createRequest","outputs":[],"stateMutability":"nonpayable","type":"function"},{"inputs":[],"name":"getCampaignSummary","outputs":[{"internalType":"uint256","name":"","type":"uint256"},{"internalType":"uint256","name":"","type":"uint256"},{"internalType":"uint256","name":"","type":"uint256"},{"internalType":"uint256","name":"","type":"uint256"},{"internalType":"address","name":"","type":"address"}],"stateMutability":"view","type":"function"},{"inputs":[],"name":"manager","outputs":[{"internalType":"address","name":"","type":"address"}],"stateMutability":"view","type":"function"},{"inputs":[],"name":"minimumContribution","outputs":[{"internalType":"uint256","name":"","type":"uint256"}],"stateMutability":"view","type":"function"},{"inputs":[],"name":"numberofRequests","outputs":[{"internalType":"uint256","name":"","type":"uint256"}],"stateMutability":"view","type":"function"},{"inputs":[{"internalType":"uint256","name":"","type":"uint256"}],"name":"requests","outputs":[{"internalType":"string","name":"description","type":"string"},{"internalType":"uint256","name":"value","type":"uint256"},{"internalType":"address","name":"receiver","type":"address"},{"internalType":"bool","name":"complete","type":"bool"},{"internalType":"uint256","name":"approvalCount","type":"uint256"}],"stateMutability":"view","type":"function"}],"devdoc":{"kind":"dev","methods":{},"version":1},"evm":{"assembly":"    /* \"Campaign.sol\":671:3365  contract Campaign {... */\n  mstore(0x40, 0x80)\n    /* \"Campaign.sol\":1177:1347  constructor (uint minimum, address creator, string memory name) {... */\n  callvalue\n  dup1\n  iszero\n  tag_1\n  jumpi\n  0x00\n  dup1\n  revert\ntag_1:\n  pop\n  mload(0x40)\n  sub(codesize, bytecodeSize)\n  dup1\n  bytecodeSize\n  dup4\n  codecopy\n  dup2\n  dup2\n  add\n  0x40\n  mstore\n  dup2\n  add\n  swap1\n  tag_2\n  swap2\n  swap1\n  tag_3\n  jump\t// in\ntag_2:\n    /* \"Campaign.sol\":1262:1269  creator */\n  dup2\n    /* \"Campaign.sol\":1252:1259  manager */\n  0x04\n  0x00\n    /* \"Campaign.sol\":1252:1269  manager = creator */\n  0x0100\n  exp\n  dup2\n  sload\n  dup2\n  0xffffffffffffffffffffffffffffffffffffffff\n  mul\n  not\n  and\n  swap1\n  dup4\n  0xffffffffffffffffffffffffffffffffffffffff\n  and\n  mul\n  or\n  swap1\n  sstore\n  pop\n    /* \"Campaign.sol\":1302:1309  minimum */\n  dup3\n    /* \"Campaign.sol\":1280:1299  minimumContribution */\n  0x05\n    /* \"Campaign.sol\":1280:1309  minimumContribution = minimum */\n  dup2\n  swap1\n  sstore\n  pop\n    /* \"Campaign.sol\":1335:1339  name */\n  dup1\n    /* \"Campaign.sol\":1320:1332  campaignName */\n  0x00\n    /* \"Campaign.sol\":1320:1339  campaignName = name */\n  swap1\n  dup1\n  mload\n  swap1\n  0x20\n  add\n  swap1\n  tag_6\n  swap3\n  swap2\n  swap1\n  tag_7\n  jump\t// in\ntag_6:\n  pop\n    /* \"Campaign.sol\":1177:1347  constructor (uint minimum, address creator, string memory name) {... */\n  pop\n  pop\n  pop\n    /* \"Campaign.sol\":671:3365  contract Campaign {... */\n  jump(tag_8)\ntag_7:\n  dup3\n  dup1\n  sload\n  tag_9\n  swap1\n  tag_10\n  jump\t// in\ntag_9:\n  swap1\n  0x00\n  mstore\n  keccak256(0x00, 0x20)\n  swap1\n  0x1f\n  add\n  0x20\n  swap1\n  div\n  dup2\n  add\n  swap3\n  dup3\n  tag_12\n  jumpi\n  0x00\n  dup6\n  sstore\n  jump(tag_11)\ntag_12:\n  dup3\n  0x1f\n  lt\n  tag_13\n  jumpi\n  dup1\n  mload\n  not(0xff)\n  and\n  dup4\n  dup1\n  add\n  or\n  dup6\n  sstore\n  jump(tag_11)\ntag_13:\n  dup3\n  dup1\n  add\n  0x01\n  add\n  dup6\n  sstore\n  dup3\n  iszero\n  tag_11\n  jumpi\n  swap2\n  dup3\n  add\ntag_14:\n  dup3\n  dup2\n  gt\n  iszero\n  tag_15\n  jumpi\n  dup3\n  mload\n  dup3\n  sstore\n  swap2\n  0x20\n  add\n  swap2\n  swap1\n  0x01\n  add\n  swap1\n  jump(tag_14)\ntag_15:\ntag_11:\n  pop\n  swap1\n  pop\n  tag_16\n  swap2\n  swap1\n  tag_17\n  jump\t// in\ntag_16:\n  pop\n  swap1\n  jump\t// out\ntag_17:\ntag_18:\n  dup1\n  dup3\n  gt\n  iszero\n  tag_19\n  jumpi\n  0x00\n  dup2\n  0x00\n  swap1\n  sstore\n  pop\n  0x01\n  add\n  jump(tag_18)\ntag_19:\n  pop\n  swap1\n  jump\t// out\n    /* \"#utility.yul\":7:82   */\ntag_20:\n    /* \"#utility.yul\":40:46   */\n  0x00\n    /* \"#utility.yul\":73:75   */\n  0x40\n    /* \"#utility.yul\":67:76   */\n  mload\n    /* \"#utility.yul\":57:76   */\n  swap1\n  pop\n    /* \"#utility.yul\":7:82   */\n  swap1\n  jump\t// out\n    /* \"#utility.yul\":88:205   */\ntag_21:\n    /* \"#utility.yul\":197:198   */\n  0x00\n    /* \"#utility.yul\":194:195   */\n  dup1\n    /* \"#utility.yul\":187:199   */\n  revert\n    /* \"#utility.yul\":211:328   */\ntag_22:\n    /* \"#utility.yul\":320:321   */\n  0x00\n    /* \"#utility.yul\":317:318   */\n  dup1\n    /* \"#utility.yul\":310:322   */\n  revert\n    /* \"#utility.yul\":334:411   */\ntag_23:\n    /* \"#utility.yul\":371:378   */\n  0x00\n    /* \"#utility.yul\":400:405   */\n  dup2\n    /* \"#utility.yul\":389:405   */\n  swap1\n  pop\n    /* \"#utility.yul\":334:411   */\n  swap2\n  swap1\n  pop\n  jump\t// out\n    /* \"#utility.yul\":417:539   */\ntag_24:\n    /* \"#utility.yul\":490:514   */\n  tag_47\n    /* \"#utility.yul\":508:513   */\n  dup2\n    /* \"#utility.yul\":490:514   */\n  tag_23\n  jump\t// in\ntag_47:\n    /* \"#utility.yul\":483:488   */\n  dup2\n    /* \"#utility.yul\":480:515   */\n  eq\n    /* \"#utility.yul\":470:533   */\n  tag_48\n  jumpi\n    /* \"#utility.yul\":529:530   */\n  0x00\n    /* \"#utility.yul\":526:527   */\n  dup1\n    /* \"#utility.yul\":519:531   */\n  revert\n    /* \"#utility.yul\":470:533   */\ntag_48:\n    /* \"#utility.yul\":417:539   */\n  pop\n  jump\t// out\n    /* \"#utility.yul\":545:688   */\ntag_25:\n    /* \"#utility.yul\":602:607   */\n  0x00\n    /* \"#utility.yul\":633:639   */\n  dup2\n    /* \"#utility.yul\":627:640   */\n  mload\n    /* \"#utility.yul\":618:640   */\n  swap1\n  pop\n    /* \"#utility.yul\":649:682   */\n  tag_50\n    /* \"#utility.yul\":676:681   */\n  dup2\n    /* \"#utility.yul\":649:682   */\n  tag_24\n  jump\t// in\ntag_50:\n    /* \"#utility.yul\":545:688   */\n  swap3\n  swap2\n  pop\n  pop\n  jump\t// out\n    /* \"#utility.yul\":694:820   */\ntag_26:\n    /* \"#utility.yul\":731:738   */\n  0x00\n    /* \"#utility.yul\":771:813   */\n  0xffffffffffffffffffffffffffffffffffffffff\n    /* \"#utility.yul\":764:769   */\n  dup3\n    /* \"#utility.yul\":760:814   */\n  and\n    /* \"#utility.yul\":749:814   */\n  swap1\n  pop\n    /* \"#utility.yul\":694:820   */\n  swap2\n  swap1\n  pop\n  jump\t// out\n    /* \"#utility.yul\":826:922   */\ntag_27:\n    /* \"#utility.yul\":863:870   */\n  0x00\n    /* \"#utility.yul\":892:916   */\n  tag_53\n    /* \"#utility.yul\":910:915   */\n  dup3\n    /* \"#utility.yul\":892:916   */\n  tag_26\n  jump\t// in\ntag_53:\n    /* \"#utility.yul\":881:916   */\n  swap1\n  pop\n    /* \"#utility.yul\":826:922   */\n  swap2\n  swap1\n  pop\n  jump\t// out\n    /* \"#utility.yul\":928:1050   */\ntag_28:\n    /* \"#utility.yul\":1001:1025   */\n  tag_55\n    /* \"#utility.yul\":1019:1024   */\n  dup2\n    /* \"#utility.yul\":1001:1025   */\n  tag_27\n  jump\t// in\ntag_55:\n    /* \"#utility.yul\":994:999   */\n  dup2\n    /* \"#utility.yul\":991:1026   */\n  eq\n    /* \"#utility.yul\":981:1044   */\n  tag_56\n  jumpi\n    /* \"#utility.yul\":1040:1041   */\n  0x00\n    /* \"#utility.yul\":1037:1038   */\n  dup1\n    /* \"#utility.yul\":1030:1042   */\n  revert\n    /* \"#utility.yul\":981:1044   */\ntag_56:\n    /* \"#utility.yul\":928:1050   */\n  pop\n  jump\t// out\n    /* \"#utility.yul\":1056:1199   */\ntag_29:\n    /* \"#utility.yul\":1113:1118   */\n  0x00\n    /* \"#utility.yul\":1144:1150   */\n  dup2\n    /* \"#utility.yul\":1138:1151   */\n  mload\n    /* \"#utility.yul\":1129:1151   */\n  swap1\n  pop\n    /* \"#utility.yul\":1160:1193   */\n  tag_58\n    /* \"#utility.yul\":1187:1192   */\n  dup2\n    /* \"#utility.yul\":1160:1193   */\n  tag_28\n  jump\t// in\ntag_58:\n    /* \"#utility.yul\":1056:1199   */\n  swap3\n  swap2\n  pop\n  pop\n  jump\t// out\n    /* \"#utility.yul\":1205:1322   */\ntag_30:\n    /* \"#utility.yul\":1314:1315   */\n  0x00\n    /* \"#utility.yul\":1311:1312   */\n  dup1\n    /* \"#utility.yul\":1304:1316   */\n  revert\n    /* \"#utility.yul\":1328:1445   */\ntag_31:\n    /* \"#utility.yul\":1437:1438   */\n  0x00\n    /* \"#utility.yul\":1434:1435   */\n  dup1\n    /* \"#utility.yul\":1427:1439   */\n  revert\n    /* \"#utility.yul\":1451:1553   */\ntag_32:\n    /* \"#utility.yul\":1492:1498   */\n  0x00\n    /* \"#utility.yul\":1543:1545   */\n  0x1f\n    /* \"#utility.yul\":1539:1546   */\n  not\n    /* \"#utility.yul\":1534:1536   */\n  0x1f\n    /* \"#utility.yul\":1527:1532   */\n  dup4\n    /* \"#utility.yul\":1523:1537   */\n  add\n    /* \"#utility.yul\":1519:1547   */\n  and\n    /* \"#utility.yul\":1509:1547   */\n  swap1\n  pop\n    /* \"#utility.yul\":1451:1553   */\n  swap2\n  swap1\n  pop\n  jump\t// out\n    /* \"#utility.yul\":1559:1739   */\ntag_33:\n    /* \"#utility.yul\":1607:1684   */\n  0x4e487b7100000000000000000000000000000000000000000000000000000000\n    /* \"#utility.yul\":1604:1605   */\n  0x00\n    /* \"#utility.yul\":1597:1685   */\n  mstore\n    /* \"#utility.yul\":1704:1708   */\n  0x41\n    /* \"#utility.yul\":1701:1702   */\n  0x04\n    /* \"#utility.yul\":1694:1709   */\n  mstore\n    /* \"#utility.yul\":1728:1732   */\n  0x24\n    /* \"#utility.yul\":1725:1726   */\n  0x00\n    /* \"#utility.yul\":1718:1733   */\n  revert\n    /* \"#utility.yul\":1745:2026   */\ntag_34:\n    /* \"#utility.yul\":1828:1855   */\n  tag_64\n    /* \"#utility.yul\":1850:1854   */\n  dup3\n    /* \"#utility.yul\":1828:1855   */\n  tag_32\n  jump\t// in\ntag_64:\n    /* \"#utility.yul\":1820:1826   */\n  dup2\n    /* \"#utility.yul\":1816:1856   */\n  add\n    /* \"#utility.yul\":1958:1964   */\n  dup2\n    /* \"#utility.yul\":1946:1956   */\n  dup2\n    /* \"#utility.yul\":1943:1965   */\n  lt\n    /* \"#utility.yul\":1922:1940   */\n  0xffffffffffffffff\n    /* \"#utility.yul\":1910:1920   */\n  dup3\n    /* \"#utility.yul\":1907:1941   */\n  gt\n    /* \"#utility.yul\":1904:1966   */\n  or\n    /* \"#utility.yul\":1901:1989   */\n  iszero\n  tag_65\n  jumpi\n    /* \"#utility.yul\":1969:1987   */\n  tag_66\n  tag_33\n  jump\t// in\ntag_66:\n    /* \"#utility.yul\":1901:1989   */\ntag_65:\n    /* \"#utility.yul\":2009:2019   */\n  dup1\n    /* \"#utility.yul\":2005:2007   */\n  0x40\n    /* \"#utility.yul\":1998:2020   */\n  mstore\n    /* \"#utility.yul\":1788:2026   */\n  pop\n    /* \"#utility.yul\":1745:2026   */\n  pop\n  pop\n  jump\t// out\n    /* \"#utility.yul\":2032:2161   */\ntag_35:\n    /* \"#utility.yul\":2066:2072   */\n  0x00\n    /* \"#utility.yul\":2093:2113   */\n  tag_68\n  tag_20\n  jump\t// in\ntag_68:\n    /* \"#utility.yul\":2083:2113   */\n  swap1\n  pop\n    /* \"#utility.yul\":2122:2155   */\n  tag_69\n    /* \"#utility.yul\":2150:2154   */\n  dup3\n    /* \"#utility.yul\":2142:2148   */\n  dup3\n    /* \"#utility.yul\":2122:2155   */\n  tag_34\n  jump\t// in\ntag_69:\n    /* \"#utility.yul\":2032:2161   */\n  swap2\n  swap1\n  pop\n  jump\t// out\n    /* \"#utility.yul\":2167:2475   */\ntag_36:\n    /* \"#utility.yul\":2229:2233   */\n  0x00\n    /* \"#utility.yul\":2319:2337   */\n  0xffffffffffffffff\n    /* \"#utility.yul\":2311:2317   */\n  dup3\n    /* \"#utility.yul\":2308:2338   */\n  gt\n    /* \"#utility.yul\":2305:2361   */\n  iszero\n  tag_71\n  jumpi\n    /* \"#utility.yul\":2341:2359   */\n  tag_72\n  tag_33\n  jump\t// in\ntag_72:\n    /* \"#utility.yul\":2305:2361   */\ntag_71:\n    /* \"#utility.yul\":2379:2408   */\n  tag_73\n    /* \"#utility.yul\":2401:2407   */\n  dup3\n    /* \"#utility.yul\":2379:2408   */\n  tag_32\n  jump\t// in\ntag_73:\n    /* \"#utility.yul\":2371:2408   */\n  swap1\n  pop\n    /* \"#utility.yul\":2463:2467   */\n  0x20\n    /* \"#utility.yul\":2457:2461   */\n  dup2\n    /* \"#utility.yul\":2453:2468   */\n  add\n    /* \"#utility.yul\":2445:2468   */\n  swap1\n  pop\n    /* \"#utility.yul\":2167:2475   */\n  swap2\n  swap1\n  pop\n  jump\t// out\n    /* \"#utility.yul\":2481:2788   */\ntag_37:\n    /* \"#utility.yul\":2549:2550   */\n  0x00\n    /* \"#utility.yul\":2559:2672   */\ntag_75:\n    /* \"#utility.yul\":2573:2579   */\n  dup4\n    /* \"#utility.yul\":2570:2571   */\n  dup2\n    /* \"#utility.yul\":2567:2580   */\n  lt\n    /* \"#utility.yul\":2559:2672   */\n  iszero\n  tag_77\n  jumpi\n    /* \"#utility.yul\":2658:2659   */\n  dup1\n    /* \"#utility.yul\":2653:2656   */\n  dup3\n    /* \"#utility.yul\":2649:2660   */\n  add\n    /* \"#utility.yul\":2643:2661   */\n  mload\n    /* \"#utility.yul\":2639:2640   */\n  dup2\n    /* \"#utility.yul\":2634:2637   */\n  dup5\n    /* \"#utility.yul\":2630:2641   */\n  add\n    /* \"#utility.yul\":2623:2662   */\n  mstore\n    /* \"#utility.yul\":2595:2597   */\n  0x20\n    /* \"#utility.yul\":2592:2593   */\n  dup2\n    /* \"#utility.yul\":2588:2598   */\n  add\n    /* \"#utility.yul\":2583:2598   */\n  swap1\n  pop\n    /* \"#utility.yul\":2559:2672   */\n  jump(tag_75)\ntag_77:\n    /* \"#utility.yul\":2690:2696   */\n  dup4\n    /* \"#utility.yul\":2687:2688   */\n  dup2\n    /* \"#utility.yul\":2684:2697   */\n  gt\n    /* \"#utility.yul\":2681:2782   */\n  iszero\n  tag_78\n  jumpi\n    /* \"#utility.yul\":2770:2771   */\n  0x00\n    /* \"#utility.yul\":2761:2767   */\n  dup5\n    /* \"#utility.yul\":2756:2759   */\n  dup5\n    /* \"#utility.yul\":2752:2768   */\n  add\n    /* \"#utility.yul\":2745:2772   */\n  mstore\n    /* \"#utility.yul\":2681:2782   */\ntag_78:\n    /* \"#utility.yul\":2530:2788   */\n  pop\n    /* \"#utility.yul\":2481:2788   */\n  pop\n  pop\n  pop\n  jump\t// out\n    /* \"#utility.yul\":2794:3215   */\ntag_38:\n    /* \"#utility.yul\":2883:2888   */\n  0x00\n    /* \"#utility.yul\":2908:2974   */\n  tag_80\n    /* \"#utility.yul\":2924:2973   */\n  tag_81\n    /* \"#utility.yul\":2966:2972   */\n  dup5\n    /* \"#utility.yul\":2924:2973   */\n  tag_36\n  jump\t// in\ntag_81:\n    /* \"#utility.yul\":2908:2974   */\n  tag_35\n  jump\t// in\ntag_80:\n    /* \"#utility.yul\":2899:2974   */\n  swap1\n  pop\n    /* \"#utility.yul\":2997:3003   */\n  dup3\n    /* \"#utility.yul\":2990:2995   */\n  dup2\n    /* \"#utility.yul\":2983:3004   */\n  mstore\n    /* \"#utility.yul\":3035:3039   */\n  0x20\n    /* \"#utility.yul\":3028:3033   */\n  dup2\n    /* \"#utility.yul\":3024:3040   */\n  add\n    /* \"#utility.yul\":3073:3076   */\n  dup5\n    /* \"#utility.yul\":3064:3070   */\n  dup5\n    /* \"#utility.yul\":3059:3062   */\n  dup5\n    /* \"#utility.yul\":3055:3071   */\n  add\n    /* \"#utility.yul\":3052:3077   */\n  gt\n    /* \"#utility.yul\":3049:3161   */\n  iszero\n  tag_82\n  jumpi\n    /* \"#utility.yul\":3080:3159   */\n  tag_83\n  tag_31\n  jump\t// in\ntag_83:\n    /* \"#utility.yul\":3049:3161   */\ntag_82:\n    /* \"#utility.yul\":3170:3209   */\n  tag_84\n    /* \"#utility.yul\":3202:3208   */\n  dup5\n    /* \"#utility.yul\":3197:3200   */\n  dup3\n    /* \"#utility.yul\":3192:3195   */\n  dup6\n    /* \"#utility.yul\":3170:3209   */\n  tag_37\n  jump\t// in\ntag_84:\n    /* \"#utility.yul\":2889:3215   */\n  pop\n    /* \"#utility.yul\":2794:3215   */\n  swap4\n  swap3\n  pop\n  pop\n  pop\n  jump\t// out\n    /* \"#utility.yul\":3235:3590   */\ntag_39:\n    /* \"#utility.yul\":3302:3307   */\n  0x00\n    /* \"#utility.yul\":3351:3354   */\n  dup3\n    /* \"#utility.yul\":3344:3348   */\n  0x1f\n    /* \"#utility.yul\":3336:3342   */\n  dup4\n    /* \"#utility.yul\":3332:3349   */\n  add\n    /* \"#utility.yul\":3328:3355   */\n  slt\n    /* \"#utility.yul\":3318:3440   */\n  tag_86\n  jumpi\n    /* \"#utility.yul\":3359:3438   */\n  tag_87\n  tag_30\n  jump\t// in\ntag_87:\n    /* \"#utility.yul\":3318:3440   */\ntag_86:\n    /* \"#utility.yul\":3469:3475   */\n  dup2\n    /* \"#utility.yul\":3463:3476   */\n  mload\n    /* \"#utility.yul\":3494:3584   */\n  tag_88\n    /* \"#utility.yul\":3580:3583   */\n  dup5\n    /* \"#utility.yul\":3572:3578   */\n  dup3\n    /* \"#utility.yul\":3565:3569   */\n  0x20\n    /* \"#utility.yul\":3557:3563   */\n  dup7\n    /* \"#utility.yul\":3553:3570   */\n  add\n    /* \"#utility.yul\":3494:3584   */\n  tag_38\n  jump\t// in\ntag_88:\n    /* \"#utility.yul\":3485:3584   */\n  swap2\n  pop\n    /* \"#utility.yul\":3308:3590   */\n  pop\n    /* \"#utility.yul\":3235:3590   */\n  swap3\n  swap2\n  pop\n  pop\n  jump\t// out\n    /* \"#utility.yul\":3596:4432   */\ntag_3:\n    /* \"#utility.yul\":3694:3700   */\n  0x00\n    /* \"#utility.yul\":3702:3708   */\n  dup1\n    /* \"#utility.yul\":3710:3716   */\n  0x00\n    /* \"#utility.yul\":3759:3761   */\n  0x60\n    /* \"#utility.yul\":3747:3756   */\n  dup5\n    /* \"#utility.yul\":3738:3745   */\n  dup7\n    /* \"#utility.yul\":3734:3757   */\n  sub\n    /* \"#utility.yul\":3730:3762   */\n  slt\n    /* \"#utility.yul\":3727:3846   */\n  iszero\n  tag_90\n  jumpi\n    /* \"#utility.yul\":3765:3844   */\n  tag_91\n  tag_21\n  jump\t// in\ntag_91:\n    /* \"#utility.yul\":3727:3846   */\ntag_90:\n    /* \"#utility.yul\":3885:3886   */\n  0x00\n    /* \"#utility.yul\":3910:3974   */\n  tag_92\n    /* \"#utility.yul\":3966:3973   */\n  dup7\n    /* \"#utility.yul\":3957:3963   */\n  dup3\n    /* \"#utility.yul\":3946:3955   */\n  dup8\n    /* \"#utility.yul\":3942:3964   */\n  add\n    /* \"#utility.yul\":3910:3974   */\n  tag_25\n  jump\t// in\ntag_92:\n    /* \"#utility.yul\":3900:3974   */\n  swap4\n  pop\n    /* \"#utility.yul\":3856:3984   */\n  pop\n    /* \"#utility.yul\":4023:4025   */\n  0x20\n    /* \"#utility.yul\":4049:4113   */\n  tag_93\n    /* \"#utility.yul\":4105:4112   */\n  dup7\n    /* \"#utility.yul\":4096:4102   */\n  dup3\n    /* \"#utility.yul\":4085:4094   */\n  dup8\n    /* \"#utility.yul\":4081:4103   */\n  add\n    /* \"#utility.yul\":4049:4113   */\n  tag_29\n  jump\t// in\ntag_93:\n    /* \"#utility.yul\":4039:4113   */\n  swap3\n  pop\n    /* \"#utility.yul\":3994:4123   */\n  pop\n    /* \"#utility.yul\":4183:4185   */\n  0x40\n    /* \"#utility.yul\":4172:4181   */\n  dup5\n    /* \"#utility.yul\":4168:4186   */\n  add\n    /* \"#utility.yul\":4162:4187   */\n  mload\n    /* \"#utility.yul\":4214:4232   */\n  0xffffffffffffffff\n    /* \"#utility.yul\":4206:4212   */\n  dup2\n    /* \"#utility.yul\":4203:4233   */\n  gt\n    /* \"#utility.yul\":4200:4317   */\n  iszero\n  tag_94\n  jumpi\n    /* \"#utility.yul\":4236:4315   */\n  tag_95\n  tag_22\n  jump\t// in\ntag_95:\n    /* \"#utility.yul\":4200:4317   */\ntag_94:\n    /* \"#utility.yul\":4341:4415   */\n  tag_96\n    /* \"#utility.yul\":4407:4414   */\n  dup7\n    /* \"#utility.yul\":4398:4404   */\n  dup3\n    /* \"#utility.yul\":4387:4396   */\n  dup8\n    /* \"#utility.yul\":4383:4405   */\n  add\n    /* \"#utility.yul\":4341:4415   */\n  tag_39\n  jump\t// in\ntag_96:\n    /* \"#utility.yul\":4331:4415   */\n  swap2\n  pop\n    /* \"#utility.yul\":4133:4425   */\n  pop\n    /* \"#utility.yul\":3596:4432   */\n  swap3\n  pop\n  swap3\n  pop\n  swap3\n  jump\t// out\n    /* \"#utility.yul\":4438:4618   */\ntag_40:\n    /* \"#utility.yul\":4486:4563   */\n  0x4e487b7100000000000000000000000000000000000000000000000000000000\n    /* \"#utility.yul\":4483:4484   */\n  0x00\n    /* \"#utility.yul\":4476:4564   */\n  mstore\n    /* \"#utility.yul\":4583:4587   */\n  0x22\n    /* \"#utility.yul\":4580:4581   */\n  0x04\n    /* \"#utility.yul\":4573:4588   */\n  mstore\n    /* \"#utility.yul\":4607:4611   */\n  0x24\n    /* \"#utility.yul\":4604:4605   */\n  0x00\n    /* \"#utility.yul\":4597:4612   */\n  revert\n    /* \"#utility.yul\":4624:4944   */\ntag_10:\n    /* \"#utility.yul\":4668:4674   */\n  0x00\n    /* \"#utility.yul\":4705:4706   */\n  0x02\n    /* \"#utility.yul\":4699:4703   */\n  dup3\n    /* \"#utility.yul\":4695:4707   */\n  div\n    /* \"#utility.yul\":4685:4707   */\n  swap1\n  pop\n    /* \"#utility.yul\":4752:4753   */\n  0x01\n    /* \"#utility.yul\":4746:4750   */\n  dup3\n    /* \"#utility.yul\":4742:4754   */\n  and\n    /* \"#utility.yul\":4773:4791   */\n  dup1\n    /* \"#utility.yul\":4763:4844   */\n  tag_99\n  jumpi\n    /* \"#utility.yul\":4829:4833   */\n  0x7f\n    /* \"#utility.yul\":4821:4827   */\n  dup3\n    /* \"#utility.yul\":4817:4834   */\n  and\n    /* \"#utility.yul\":4807:4834   */\n  swap2\n  pop\n    /* \"#utility.yul\":4763:4844   */\ntag_99:\n    /* \"#utility.yul\":4891:4893   */\n  0x20\n    /* \"#utility.yul\":4883:4889   */\n  dup3\n    /* \"#utility.yul\":4880:4894   */\n  lt\n    /* \"#utility.yul\":4860:4878   */\n  dup2\n    /* \"#utility.yul\":4857:4895   */\n  eq\n    /* \"#utility.yul\":4854:4938   */\n  iszero\n  tag_100\n  jumpi\n    /* \"#utility.yul\":4910:4928   */\n  tag_101\n  tag_40\n  jump\t// in\ntag_101:\n    /* \"#utility.yul\":4854:4938   */\ntag_100:\n    /* \"#utility.yul\":4675:4944   */\n  pop\n    /* \"#utility.yul\":4624:4944   */\n  swap2\n  swap1\n  pop\n  jump\t// out\n    /* \"Campaign.sol\":671:3365  contract Campaign {... */\ntag_8:\n  dataSize(sub_0)\n  dup1\n  dataOffset(sub_0)\n  0x00\n  codecopy\n  0x00\n  return\nstop\n\nsub_0: assembly {\n        /* \"Campaign.sol\":671:3365  contract Campaign {... */\n      mstore(0x40, 0x80)\n      jumpi(tag_1, lt(calldatasize, 0x04))\n      shr(0xe0, calldataload(0x00))\n      dup1\n      0x8a9cfd55\n      gt\n      tag_14\n      jumpi\n      dup1\n      0x8a9cfd55\n      eq\n      tag_8\n      jumpi\n      dup1\n      0x8f9a6fee\n      eq\n      tag_9\n      jumpi\n      dup1\n      0x937e09b1\n      eq\n      tag_10\n      jumpi\n      dup1\n      0xa00c96d7\n      eq\n      tag_11\n      jumpi\n      dup1\n      0xd7bb99ba\n      eq\n      tag_12\n      jumpi\n      dup1\n      0xd7d1bbdb\n      eq\n      tag_13\n      jumpi\n      jump(tag_1)\n    tag_14:\n      dup1\n      0x0724fda9\n      eq\n      tag_2\n      jumpi\n      dup1\n      0x1f6d4942\n      eq\n      tag_3\n      jumpi\n      dup1\n      0x278d2ee0\n      eq\n      tag_4\n      jumpi\n      dup1\n      0x481c6a75\n      eq\n      tag_5\n      jumpi\n      dup1\n      0x7569b3d7\n      eq\n      tag_6\n      jumpi\n      dup1\n      0x81d12c58\n      eq\n      tag_7\n      jumpi\n    tag_1:\n      0x00\n      dup1\n      revert\n        /* \"Campaign.sol\":902:928  string public campaignName */\n    tag_2:\n      callvalue\n      dup1\n      iszero\n      tag_15\n      jumpi\n      0x00\n      dup1\n      revert\n    tag_15:\n      pop\n      tag_16\n      tag_17\n      jump\t// in\n    tag_16:\n      mload(0x40)\n      tag_18\n      swap2\n      swap1\n      tag_19\n      jump\t// in\n    tag_18:\n      mload(0x40)\n      dup1\n      swap2\n      sub\n      swap1\n      return\n        /* \"Campaign.sol\":1120:1164  mapping(address => bool) public contributors */\n    tag_3:\n      callvalue\n      dup1\n      iszero\n      tag_20\n      jumpi\n      0x00\n      dup1\n      revert\n    tag_20:\n      pop\n      tag_21\n      0x04\n      dup1\n      calldatasize\n      sub\n      dup2\n      add\n      swap1\n      tag_22\n      swap2\n      swap1\n      tag_23\n      jump\t// in\n    tag_22:\n      tag_24\n      jump\t// in\n    tag_21:\n      mload(0x40)\n      tag_25\n      swap2\n      swap1\n      tag_26\n      jump\t// in\n    tag_25:\n      mload(0x40)\n      dup1\n      swap2\n      sub\n      swap1\n      return\n        /* \"Campaign.sol\":971:999  uint public numberofRequests */\n    tag_4:\n      callvalue\n      dup1\n      iszero\n      tag_27\n      jumpi\n      0x00\n      dup1\n      revert\n    tag_27:\n      pop\n      tag_28\n      tag_29\n      jump\t// in\n    tag_28:\n      mload(0x40)\n      tag_30\n      swap2\n      swap1\n      tag_31\n      jump\t// in\n    tag_30:\n      mload(0x40)\n      dup1\n      swap2\n      sub\n      swap1\n      return\n        /* \"Campaign.sol\":1053:1075  address public manager */\n    tag_5:\n      callvalue\n      dup1\n      iszero\n      tag_32\n      jumpi\n      0x00\n      dup1\n      revert\n    tag_32:\n      pop\n      tag_33\n      tag_34\n      jump\t// in\n    tag_33:\n      mload(0x40)\n      tag_35\n      swap2\n      swap1\n      tag_36\n      jump\t// in\n    tag_35:\n      mload(0x40)\n      dup1\n      swap2\n      sub\n      swap1\n      return\n        /* \"Campaign.sol\":935:964  uint public contributorsCount */\n    tag_6:\n      callvalue\n      dup1\n      iszero\n      tag_37\n      jumpi\n      0x00\n      dup1\n      revert\n    tag_37:\n      pop\n      tag_38\n      tag_39\n      jump\t// in\n    tag_38:\n      mload(0x40)\n      tag_40\n      swap2\n      swap1\n      tag_31\n      jump\t// in\n    tag_40:\n      mload(0x40)\n      dup1\n      swap2\n      sub\n      swap1\n      return\n        /* \"Campaign.sol\":1006:1046  mapping(uint => Request) public requests */\n    tag_7:\n      callvalue\n      dup1\n      iszero\n      tag_41\n      jumpi\n      0x00\n      dup1\n      revert\n    tag_41:\n      pop\n      tag_42\n      0x04\n      dup1\n      calldatasize\n      sub\n      dup2\n      add\n      swap1\n      tag_43\n      swap2\n      swap1\n      tag_44\n      jump\t// in\n    tag_43:\n      tag_45\n      jump\t// in\n    tag_42:\n      mload(0x40)\n      tag_46\n      swap6\n      swap5\n      swap4\n      swap3\n      swap2\n      swap1\n      tag_47\n      jump\t// in\n    tag_46:\n      mload(0x40)\n      dup1\n      swap2\n      sub\n      swap1\n      return\n        /* \"Campaign.sol\":1804:2255  function createRequest(string memory description, uint value, address receiver) ... */\n    tag_8:\n      callvalue\n      dup1\n      iszero\n      tag_48\n      jumpi\n      0x00\n      dup1\n      revert\n    tag_48:\n      pop\n      tag_49\n      0x04\n      dup1\n      calldatasize\n      sub\n      dup2\n      add\n      swap1\n      tag_50\n      swap2\n      swap1\n      tag_51\n      jump\t// in\n    tag_50:\n      tag_52\n      jump\t// in\n    tag_49:\n      stop\n        /* \"Campaign.sol\":2645:3073  function confirmApproval(uint index) public restricted payable {... */\n    tag_9:\n      tag_53\n      0x04\n      dup1\n      calldatasize\n      sub\n      dup2\n      add\n      swap1\n      tag_54\n      swap2\n      swap1\n      tag_44\n      jump\t// in\n    tag_54:\n      tag_55\n      jump\t// in\n    tag_53:\n      stop\n        /* \"Campaign.sol\":1082:1113  uint public minimumContribution */\n    tag_10:\n      callvalue\n      dup1\n      iszero\n      tag_56\n      jumpi\n      0x00\n      dup1\n      revert\n    tag_56:\n      pop\n      tag_57\n      tag_58\n      jump\t// in\n    tag_57:\n      mload(0x40)\n      tag_59\n      swap2\n      swap1\n      tag_31\n      jump\t// in\n    tag_59:\n      mload(0x40)\n      dup1\n      swap2\n      sub\n      swap1\n      return\n        /* \"Campaign.sol\":3082:3358  function getCampaignSummary () public view returns (uint, uint, uint, uint, address){... */\n    tag_11:\n      callvalue\n      dup1\n      iszero\n      tag_60\n      jumpi\n      0x00\n      dup1\n      revert\n    tag_60:\n      pop\n      tag_61\n      tag_62\n      jump\t// in\n    tag_61:\n      mload(0x40)\n      tag_63\n      swap6\n      swap5\n      swap4\n      swap3\n      swap2\n      swap1\n      tag_64\n      jump\t// in\n    tag_63:\n      mload(0x40)\n      dup1\n      swap2\n      sub\n      swap1\n      return\n        /* \"Campaign.sol\":1494:1796  function contribute() public payable {... */\n    tag_12:\n      tag_65\n      tag_66\n      jump\t// in\n    tag_65:\n      stop\n        /* \"Campaign.sol\":2263:2637  function approveRequest(uint index) public {... */\n    tag_13:\n      callvalue\n      dup1\n      iszero\n      tag_67\n      jumpi\n      0x00\n      dup1\n      revert\n    tag_67:\n      pop\n      tag_68\n      0x04\n      dup1\n      calldatasize\n      sub\n      dup2\n      add\n      swap1\n      tag_69\n      swap2\n      swap1\n      tag_44\n      jump\t// in\n    tag_69:\n      tag_70\n      jump\t// in\n    tag_68:\n      stop\n        /* \"Campaign.sol\":902:928  string public campaignName */\n    tag_17:\n      0x00\n      dup1\n      sload\n      tag_71\n      swap1\n      tag_72\n      jump\t// in\n    tag_71:\n      dup1\n      0x1f\n      add\n      0x20\n      dup1\n      swap2\n      div\n      mul\n      0x20\n      add\n      mload(0x40)\n      swap1\n      dup2\n      add\n      0x40\n      mstore\n      dup1\n      swap3\n      swap2\n      swap1\n      dup2\n      dup2\n      mstore\n      0x20\n      add\n      dup3\n      dup1\n      sload\n      tag_73\n      swap1\n      tag_72\n      jump\t// in\n    tag_73:\n      dup1\n      iszero\n      tag_74\n      jumpi\n      dup1\n      0x1f\n      lt\n      tag_75\n      jumpi\n      0x0100\n      dup1\n      dup4\n      sload\n      div\n      mul\n      dup4\n      mstore\n      swap2\n      0x20\n      add\n      swap2\n      jump(tag_74)\n    tag_75:\n      dup3\n      add\n      swap2\n      swap1\n      0x00\n      mstore\n      keccak256(0x00, 0x20)\n      swap1\n    tag_76:\n      dup2\n      sload\n      dup2\n      mstore\n      swap1\n      0x01\n      add\n      swap1\n      0x20\n      add\n      dup1\n      dup4\n      gt\n      tag_76\n      jumpi\n      dup3\n      swap1\n      sub\n      0x1f\n      and\n      dup3\n      add\n      swap2\n    tag_74:\n      pop\n      pop\n      pop\n      pop\n      pop\n      dup2\n      jump\t// out\n        /* \"Campaign.sol\":1120:1164  mapping(address => bool) public contributors */\n    tag_24:\n      mstore(0x20, 0x06)\n      dup1\n      0x00\n      mstore\n      keccak256(0x00, 0x40)\n      0x00\n      swap2\n      pop\n      sload\n      swap1\n      0x0100\n      exp\n      swap1\n      div\n      0xff\n      and\n      dup2\n      jump\t// out\n        /* \"Campaign.sol\":971:999  uint public numberofRequests */\n    tag_29:\n      sload(0x02)\n      dup2\n      jump\t// out\n        /* \"Campaign.sol\":1053:1075  address public manager */\n    tag_34:\n      0x04\n      0x00\n      swap1\n      sload\n      swap1\n      0x0100\n      exp\n      swap1\n      div\n      0xffffffffffffffffffffffffffffffffffffffff\n      and\n      dup2\n      jump\t// out\n        /* \"Campaign.sol\":935:964  uint public contributorsCount */\n    tag_39:\n      sload(0x01)\n      dup2\n      jump\t// out\n        /* \"Campaign.sol\":1006:1046  mapping(uint => Request) public requests */\n    tag_45:\n      mstore(0x20, 0x03)\n      dup1\n      0x00\n      mstore\n      keccak256(0x00, 0x40)\n      0x00\n      swap2\n      pop\n      swap1\n      pop\n      dup1\n      0x00\n      add\n      dup1\n      sload\n      tag_77\n      swap1\n      tag_72\n      jump\t// in\n    tag_77:\n      dup1\n      0x1f\n      add\n      0x20\n      dup1\n      swap2\n      div\n      mul\n      0x20\n      add\n      mload(0x40)\n      swap1\n      dup2\n      add\n      0x40\n      mstore\n      dup1\n      swap3\n      swap2\n      swap1\n      dup2\n      dup2\n      mstore\n      0x20\n      add\n      dup3\n      dup1\n      sload\n      tag_78\n      swap1\n      tag_72\n      jump\t// in\n    tag_78:\n      dup1\n      iszero\n      tag_79\n      jumpi\n      dup1\n      0x1f\n      lt\n      tag_80\n      jumpi\n      0x0100\n      dup1\n      dup4\n      sload\n      div\n      mul\n      dup4\n      mstore\n      swap2\n      0x20\n      add\n      swap2\n      jump(tag_79)\n    tag_80:\n      dup3\n      add\n      swap2\n      swap1\n      0x00\n      mstore\n      keccak256(0x00, 0x20)\n      swap1\n    tag_81:\n      dup2\n      sload\n      dup2\n      mstore\n      swap1\n      0x01\n      add\n      swap1\n      0x20\n      add\n      dup1\n      dup4\n      gt\n      tag_81\n      jumpi\n      dup3\n      swap1\n      sub\n      0x1f\n      and\n      dup3\n      add\n      swap2\n    tag_79:\n      pop\n      pop\n      pop\n      pop\n      pop\n      swap1\n      dup1\n      0x01\n      add\n      sload\n      swap1\n      dup1\n      0x02\n      add\n      0x00\n      swap1\n      sload\n      swap1\n      0x0100\n      exp\n      swap1\n      div\n      0xffffffffffffffffffffffffffffffffffffffff\n      and\n      swap1\n      dup1\n      0x02\n      add\n      0x14\n      swap1\n      sload\n      swap1\n      0x0100\n      exp\n      swap1\n      div\n      0xff\n      and\n      swap1\n      dup1\n      0x03\n      add\n      sload\n      swap1\n      pop\n      dup6\n      jump\t// out\n        /* \"Campaign.sol\":1804:2255  function createRequest(string memory description, uint value, address receiver) ... */\n    tag_52:\n        /* \"Campaign.sol\":1412:1419  manager */\n      0x04\n      0x00\n      swap1\n      sload\n      swap1\n      0x0100\n      exp\n      swap1\n      div\n      0xffffffffffffffffffffffffffffffffffffffff\n      and\n        /* \"Campaign.sol\":1398:1419  msg.sender == manager */\n      0xffffffffffffffffffffffffffffffffffffffff\n      and\n        /* \"Campaign.sol\":1398:1408  msg.sender */\n      caller\n        /* \"Campaign.sol\":1398:1419  msg.sender == manager */\n      0xffffffffffffffffffffffffffffffffffffffff\n      and\n      eq\n        /* \"Campaign.sol\":1390:1464  require(msg.sender == manager, \"Only the Manager can perform this action\") */\n      tag_83\n      jumpi\n      mload(0x40)\n      0x08c379a000000000000000000000000000000000000000000000000000000000\n      dup2\n      mstore\n      0x04\n      add\n      tag_84\n      swap1\n      tag_85\n      jump\t// in\n    tag_84:\n      mload(0x40)\n      dup1\n      swap2\n      sub\n      swap1\n      revert\n    tag_83:\n        /* \"Campaign.sol\":1922:1948  Request storage newRequest */\n      0x00\n        /* \"Campaign.sol\":1951:1959  requests */\n      0x03\n        /* \"Campaign.sol\":1951:1979  requests[numberofRequests++] */\n      0x00\n        /* \"Campaign.sol\":1960:1976  numberofRequests */\n      0x02\n      0x00\n        /* \"Campaign.sol\":1960:1978  numberofRequests++ */\n      dup2\n      sload\n      dup1\n      swap3\n      swap2\n      swap1\n      tag_87\n      swap1\n      tag_88\n      jump\t// in\n    tag_87:\n      swap2\n      swap1\n      pop\n      sstore\n        /* \"Campaign.sol\":1951:1979  requests[numberofRequests++] */\n      dup2\n      mstore\n      0x20\n      add\n      swap1\n      dup2\n      mstore\n      0x20\n      add\n      0x00\n      keccak256\n        /* \"Campaign.sol\":1922:1979  Request storage newRequest = requests[numberofRequests++] */\n      swap1\n      pop\n        /* \"Campaign.sol\":2016:2027  description */\n      dup4\n        /* \"Campaign.sol\":1991:2001  newRequest */\n      dup2\n        /* \"Campaign.sol\":1991:2013  newRequest.description */\n      0x00\n      add\n        /* \"Campaign.sol\":1991:2027  newRequest.description = description */\n      swap1\n      dup1\n      mload\n      swap1\n      0x20\n      add\n      swap1\n      tag_89\n      swap3\n      swap2\n      swap1\n      tag_90\n      jump\t// in\n    tag_89:\n      pop\n        /* \"Campaign.sol\":2058:2063  value */\n      dup3\n        /* \"Campaign.sol\":2039:2049  newRequest */\n      dup2\n        /* \"Campaign.sol\":2039:2055  newRequest.value */\n      0x01\n      add\n        /* \"Campaign.sol\":2039:2063  newRequest.value = value */\n      dup2\n      swap1\n      sstore\n      pop\n        /* \"Campaign.sol\":2097:2105  receiver */\n      dup2\n        /* \"Campaign.sol\":2075:2085  newRequest */\n      dup2\n        /* \"Campaign.sol\":2075:2094  newRequest.receiver */\n      0x02\n      add\n      0x00\n        /* \"Campaign.sol\":2075:2105  newRequest.receiver = receiver */\n      0x0100\n      exp\n      dup2\n      sload\n      dup2\n      0xffffffffffffffffffffffffffffffffffffffff\n      mul\n      not\n      and\n      swap1\n      dup4\n      0xffffffffffffffffffffffffffffffffffffffff\n      and\n      mul\n      or\n      swap1\n      sstore\n      pop\n        /* \"Campaign.sol\":2139:2144  false */\n      0x00\n        /* \"Campaign.sol\":2117:2127  newRequest */\n      dup2\n        /* \"Campaign.sol\":2117:2136  newRequest.complete */\n      0x02\n      add\n      0x14\n        /* \"Campaign.sol\":2117:2144  newRequest.complete = false */\n      0x0100\n      exp\n      dup2\n      sload\n      dup2\n      0xff\n      mul\n      not\n      and\n      swap1\n      dup4\n      iszero\n      iszero\n      mul\n      or\n      swap1\n      sstore\n      pop\n        /* \"Campaign.sol\":2183:2184  0 */\n      0x00\n        /* \"Campaign.sol\":2156:2166  newRequest */\n      dup2\n        /* \"Campaign.sol\":2156:2180  newRequest.approvalCount */\n      0x03\n      add\n        /* \"Campaign.sol\":2156:2184  newRequest.approvalCount = 0 */\n      dup2\n      swap1\n      sstore\n      pop\n        /* \"Campaign.sol\":2231:2236  false */\n      0x00\n        /* \"Campaign.sol\":2196:2206  newRequest */\n      dup2\n        /* \"Campaign.sol\":2196:2216  newRequest.approvals */\n      0x04\n      add\n        /* \"Campaign.sol\":2196:2228  newRequest.approvals[msg.sender] */\n      0x00\n        /* \"Campaign.sol\":2217:2227  msg.sender */\n      caller\n        /* \"Campaign.sol\":2196:2228  newRequest.approvals[msg.sender] */\n      0xffffffffffffffffffffffffffffffffffffffff\n      and\n      0xffffffffffffffffffffffffffffffffffffffff\n      and\n      dup2\n      mstore\n      0x20\n      add\n      swap1\n      dup2\n      mstore\n      0x20\n      add\n      0x00\n      keccak256\n      0x00\n        /* \"Campaign.sol\":2196:2236  newRequest.approvals[msg.sender] = false */\n      0x0100\n      exp\n      dup2\n      sload\n      dup2\n      0xff\n      mul\n      not\n      and\n      swap1\n      dup4\n      iszero\n      iszero\n      mul\n      or\n      swap1\n      sstore\n      pop\n        /* \"Campaign.sol\":1908:2255  {... */\n      pop\n        /* \"Campaign.sol\":1804:2255  function createRequest(string memory description, uint value, address receiver) ... */\n      pop\n      pop\n      pop\n      jump\t// out\n        /* \"Campaign.sol\":2645:3073  function confirmApproval(uint index) public restricted payable {... */\n    tag_55:\n        /* \"Campaign.sol\":1412:1419  manager */\n      0x04\n      0x00\n      swap1\n      sload\n      swap1\n      0x0100\n      exp\n      swap1\n      div\n      0xffffffffffffffffffffffffffffffffffffffff\n      and\n        /* \"Campaign.sol\":1398:1419  msg.sender == manager */\n      0xffffffffffffffffffffffffffffffffffffffff\n      and\n        /* \"Campaign.sol\":1398:1408  msg.sender */\n      caller\n        /* \"Campaign.sol\":1398:1419  msg.sender == manager */\n      0xffffffffffffffffffffffffffffffffffffffff\n      and\n      eq\n        /* \"Campaign.sol\":1390:1464  require(msg.sender == manager, \"Only the Manager can perform this action\") */\n      tag_92\n      jumpi\n      mload(0x40)\n      0x08c379a000000000000000000000000000000000000000000000000000000000\n      dup2\n      mstore\n      0x04\n      add\n      tag_93\n      swap1\n      tag_85\n      jump\t// in\n    tag_93:\n      mload(0x40)\n      dup1\n      swap2\n      sub\n      swap1\n      revert\n    tag_92:\n        /* \"Campaign.sol\":2719:2742  Request storage request */\n      0x00\n        /* \"Campaign.sol\":2745:2753  requests */\n      0x03\n        /* \"Campaign.sol\":2745:2760  requests[index] */\n      0x00\n        /* \"Campaign.sol\":2754:2759  index */\n      dup4\n        /* \"Campaign.sol\":2745:2760  requests[index] */\n      dup2\n      mstore\n      0x20\n      add\n      swap1\n      dup2\n      mstore\n      0x20\n      add\n      0x00\n      keccak256\n        /* \"Campaign.sol\":2719:2760  Request storage request = requests[index] */\n      swap1\n      pop\n        /* \"Campaign.sol\":2780:2787  request */\n      dup1\n        /* \"Campaign.sol\":2780:2796  request.complete */\n      0x02\n      add\n      0x14\n      swap1\n      sload\n      swap1\n      0x0100\n      exp\n      swap1\n      div\n      0xff\n      and\n        /* \"Campaign.sol\":2779:2796  !request.complete */\n      iszero\n        /* \"Campaign.sol\":2771:2856  require(!request.complete, \"You have already confirmed the approval of this Request\") */\n      tag_95\n      jumpi\n      mload(0x40)\n      0x08c379a000000000000000000000000000000000000000000000000000000000\n      dup2\n      mstore\n      0x04\n      add\n      tag_96\n      swap1\n      tag_97\n      jump\t// in\n    tag_96:\n      mload(0x40)\n      dup1\n      swap2\n      sub\n      swap1\n      revert\n    tag_95:\n        /* \"Campaign.sol\":2918:2919  2 */\n      0x02\n        /* \"Campaign.sol\":2900:2917  contributorsCount */\n      sload(0x01)\n        /* \"Campaign.sol\":2900:2919  contributorsCount/2 */\n      tag_98\n      swap2\n      swap1\n      tag_99\n      jump\t// in\n    tag_98:\n        /* \"Campaign.sol\":2875:2882  request */\n      dup2\n        /* \"Campaign.sol\":2875:2896  request.approvalCount */\n      0x03\n      add\n      sload\n        /* \"Campaign.sol\":2875:2920  request.approvalCount > (contributorsCount/2) */\n      gt\n        /* \"Campaign.sol\":2867:2971  require(request.approvalCount > (contributorsCount/2), \"At Least 50% of your contributors must approve\") */\n      tag_100\n      jumpi\n      mload(0x40)\n      0x08c379a000000000000000000000000000000000000000000000000000000000\n      dup2\n      mstore\n      0x04\n      add\n      tag_101\n      swap1\n      tag_102\n      jump\t// in\n    tag_101:\n      mload(0x40)\n      dup1\n      swap2\n      sub\n      swap1\n      revert\n    tag_100:\n        /* \"Campaign.sol\":3001:3005  true */\n      0x01\n        /* \"Campaign.sol\":2982:2989  request */\n      dup2\n        /* \"Campaign.sol\":2982:2998  request.complete */\n      0x02\n      add\n      0x14\n        /* \"Campaign.sol\":2982:3005  request.complete = true */\n      0x0100\n      exp\n      dup2\n      sload\n      dup2\n      0xff\n      mul\n      not\n      and\n      swap1\n      dup4\n      iszero\n      iszero\n      mul\n      or\n      swap1\n      sstore\n      pop\n        /* \"Campaign.sol\":3024:3031  request */\n      dup1\n        /* \"Campaign.sol\":3024:3040  request.receiver */\n      0x02\n      add\n      0x00\n      swap1\n      sload\n      swap1\n      0x0100\n      exp\n      swap1\n      div\n      0xffffffffffffffffffffffffffffffffffffffff\n      and\n        /* \"Campaign.sol\":3016:3050  payable(request.receiver).transfer */\n      0xffffffffffffffffffffffffffffffffffffffff\n      and\n        /* \"Campaign.sol\":3016:3065  payable(request.receiver).transfer(request.value) */\n      0x08fc\n        /* \"Campaign.sol\":3051:3058  request */\n      dup3\n        /* \"Campaign.sol\":3051:3064  request.value */\n      0x01\n      add\n      sload\n        /* \"Campaign.sol\":3016:3065  payable(request.receiver).transfer(request.value) */\n      swap1\n      dup2\n      iszero\n      mul\n      swap1\n      mload(0x40)\n      0x00\n      mload(0x40)\n      dup1\n      dup4\n      sub\n      dup2\n      dup6\n      dup9\n      dup9\n      call\n      swap4\n      pop\n      pop\n      pop\n      pop\n      iszero\n      dup1\n      iszero\n      tag_104\n      jumpi\n      returndatasize\n      0x00\n      dup1\n      returndatacopy\n      revert(0x00, returndatasize)\n    tag_104:\n      pop\n        /* \"Campaign.sol\":2708:3073  {... */\n      pop\n        /* \"Campaign.sol\":2645:3073  function confirmApproval(uint index) public restricted payable {... */\n      pop\n      jump\t// out\n        /* \"Campaign.sol\":1082:1113  uint public minimumContribution */\n    tag_58:\n      sload(0x05)\n      dup2\n      jump\t// out\n        /* \"Campaign.sol\":3082:3358  function getCampaignSummary () public view returns (uint, uint, uint, uint, address){... */\n    tag_62:\n        /* \"Campaign.sol\":3134:3138  uint */\n      0x00\n        /* \"Campaign.sol\":3140:3144  uint */\n      dup1\n        /* \"Campaign.sol\":3146:3150  uint */\n      0x00\n        /* \"Campaign.sol\":3152:3156  uint */\n      dup1\n        /* \"Campaign.sol\":3158:3165  address */\n      0x00\n        /* \"Campaign.sol\":3199:3218  minimumContribution */\n      sload(0x05)\n        /* \"Campaign.sol\":3233:3254  address(this).balance */\n      selfbalance\n        /* \"Campaign.sol\":3269:3286  contributorsCount */\n      sload(0x01)\n        /* \"Campaign.sol\":3301:3317  numberofRequests */\n      sload(0x02)\n        /* \"Campaign.sol\":3332:3339  manager */\n      0x04\n      0x00\n      swap1\n      sload\n      swap1\n      0x0100\n      exp\n      swap1\n      div\n      0xffffffffffffffffffffffffffffffffffffffff\n      and\n        /* \"Campaign.sol\":3177:3350  return (... */\n      swap5\n      pop\n      swap5\n      pop\n      swap5\n      pop\n      swap5\n      pop\n      swap5\n      pop\n        /* \"Campaign.sol\":3082:3358  function getCampaignSummary () public view returns (uint, uint, uint, uint, address){... */\n      swap1\n      swap2\n      swap3\n      swap4\n      swap5\n      jump\t// out\n        /* \"Campaign.sol\":1494:1796  function contribute() public payable {... */\n    tag_66:\n        /* \"Campaign.sol\":1562:1581  minimumContribution */\n      sload(0x05)\n        /* \"Campaign.sol\":1550:1559  msg.value */\n      callvalue\n        /* \"Campaign.sol\":1550:1581  msg.value > minimumContribution */\n      gt\n        /* \"Campaign.sol\":1542:1631  require(msg.value > minimumContribution, \"Your contribution is below the minimum amount\") */\n      tag_107\n      jumpi\n      mload(0x40)\n      0x08c379a000000000000000000000000000000000000000000000000000000000\n      dup2\n      mstore\n      0x04\n      add\n      tag_108\n      swap1\n      tag_109\n      jump\t// in\n    tag_108:\n      mload(0x40)\n      dup1\n      swap2\n      sub\n      swap1\n      revert\n    tag_107:\n        /* \"Campaign.sol\":1678:1683  false */\n      0x00\n        /* \"Campaign.sol\":1650:1683  contributors[msg.sender] == false */\n      iszero\n      iszero\n        /* \"Campaign.sol\":1650:1662  contributors */\n      0x06\n        /* \"Campaign.sol\":1650:1674  contributors[msg.sender] */\n      0x00\n        /* \"Campaign.sol\":1663:1673  msg.sender */\n      caller\n        /* \"Campaign.sol\":1650:1674  contributors[msg.sender] */\n      0xffffffffffffffffffffffffffffffffffffffff\n      and\n      0xffffffffffffffffffffffffffffffffffffffff\n      and\n      dup2\n      mstore\n      0x20\n      add\n      swap1\n      dup2\n      mstore\n      0x20\n      add\n      0x00\n      keccak256\n      0x00\n      swap1\n      sload\n      swap1\n      0x0100\n      exp\n      swap1\n      div\n      0xff\n      and\n        /* \"Campaign.sol\":1650:1683  contributors[msg.sender] == false */\n      iszero\n      iszero\n      eq\n        /* \"Campaign.sol\":1642:1716  require(contributors[msg.sender] == false, \"You have already contributed\") */\n      tag_110\n      jumpi\n      mload(0x40)\n      0x08c379a000000000000000000000000000000000000000000000000000000000\n      dup2\n      mstore\n      0x04\n      add\n      tag_111\n      swap1\n      tag_112\n      jump\t// in\n    tag_111:\n      mload(0x40)\n      dup1\n      swap2\n      sub\n      swap1\n      revert\n    tag_110:\n        /* \"Campaign.sol\":1754:1758  true */\n      0x01\n        /* \"Campaign.sol\":1727:1739  contributors */\n      0x06\n        /* \"Campaign.sol\":1727:1751  contributors[msg.sender] */\n      0x00\n        /* \"Campaign.sol\":1740:1750  msg.sender */\n      caller\n        /* \"Campaign.sol\":1727:1751  contributors[msg.sender] */\n      0xffffffffffffffffffffffffffffffffffffffff\n      and\n      0xffffffffffffffffffffffffffffffffffffffff\n      and\n      dup2\n      mstore\n      0x20\n      add\n      swap1\n      dup2\n      mstore\n      0x20\n      add\n      0x00\n      keccak256\n      0x00\n        /* \"Campaign.sol\":1727:1758  contributors[msg.sender] = true */\n      0x0100\n      exp\n      dup2\n      sload\n      dup2\n      0xff\n      mul\n      not\n      and\n      swap1\n      dup4\n      iszero\n      iszero\n      mul\n      or\n      swap1\n      sstore\n      pop\n        /* \"Campaign.sol\":1769:1786  contributorsCount */\n      0x01\n      0x00\n        /* \"Campaign.sol\":1769:1788  contributorsCount++ */\n      dup2\n      sload\n      dup1\n      swap3\n      swap2\n      swap1\n      tag_113\n      swap1\n      tag_88\n      jump\t// in\n    tag_113:\n      swap2\n      swap1\n      pop\n      sstore\n      pop\n        /* \"Campaign.sol\":1494:1796  function contribute() public payable {... */\n      jump\t// out\n        /* \"Campaign.sol\":2263:2637  function approveRequest(uint index) public {... */\n    tag_70:\n        /* \"Campaign.sol\":2317:2340  Request storage request */\n      0x00\n        /* \"Campaign.sol\":2343:2351  requests */\n      0x03\n        /* \"Campaign.sol\":2343:2358  requests[index] */\n      0x00\n        /* \"Campaign.sol\":2352:2357  index */\n      dup4\n        /* \"Campaign.sol\":2343:2358  requests[index] */\n      dup2\n      mstore\n      0x20\n      add\n      swap1\n      dup2\n      mstore\n      0x20\n      add\n      0x00\n      keccak256\n        /* \"Campaign.sol\":2317:2358  Request storage request = requests[index] */\n      swap1\n      pop\n        /* \"Campaign.sol\":2405:2409  true */\n      0x01\n        /* \"Campaign.sol\":2377:2409  contributors[msg.sender] == true */\n      iszero\n      iszero\n        /* \"Campaign.sol\":2377:2389  contributors */\n      0x06\n        /* \"Campaign.sol\":2377:2401  contributors[msg.sender] */\n      0x00\n        /* \"Campaign.sol\":2390:2400  msg.sender */\n      caller\n        /* \"Campaign.sol\":2377:2401  contributors[msg.sender] */\n      0xffffffffffffffffffffffffffffffffffffffff\n      and\n      0xffffffffffffffffffffffffffffffffffffffff\n      and\n      dup2\n      mstore\n      0x20\n      add\n      swap1\n      dup2\n      mstore\n      0x20\n      add\n      0x00\n      keccak256\n      0x00\n      swap1\n      sload\n      swap1\n      0x0100\n      exp\n      swap1\n      div\n      0xff\n      and\n        /* \"Campaign.sol\":2377:2409  contributors[msg.sender] == true */\n      iszero\n      iszero\n      eq\n        /* \"Campaign.sol\":2369:2456  require(contributors[msg.sender] == true, \"Only Contributors can approve this Request\") */\n      tag_115\n      jumpi\n      mload(0x40)\n      0x08c379a000000000000000000000000000000000000000000000000000000000\n      dup2\n      mstore\n      0x04\n      add\n      tag_116\n      swap1\n      tag_117\n      jump\t// in\n    tag_116:\n      mload(0x40)\n      dup1\n      swap2\n      sub\n      swap1\n      revert\n    tag_115:\n        /* \"Campaign.sol\":2476:2483  request */\n      dup1\n        /* \"Campaign.sol\":2476:2493  request.approvals */\n      0x04\n      add\n        /* \"Campaign.sol\":2476:2505  request.approvals[msg.sender] */\n      0x00\n        /* \"Campaign.sol\":2494:2504  msg.sender */\n      caller\n        /* \"Campaign.sol\":2476:2505  request.approvals[msg.sender] */\n      0xffffffffffffffffffffffffffffffffffffffff\n      and\n      0xffffffffffffffffffffffffffffffffffffffff\n      and\n      dup2\n      mstore\n      0x20\n      add\n      swap1\n      dup2\n      mstore\n      0x20\n      add\n      0x00\n      keccak256\n      0x00\n      swap1\n      sload\n      swap1\n      0x0100\n      exp\n      swap1\n      div\n      0xff\n      and\n        /* \"Campaign.sol\":2475:2505  !request.approvals[msg.sender] */\n      iszero\n        /* \"Campaign.sol\":2467:2548  require(!request.approvals[msg.sender], \"You have already approved this Request\") */\n      tag_118\n      jumpi\n      mload(0x40)\n      0x08c379a000000000000000000000000000000000000000000000000000000000\n      dup2\n      mstore\n      0x04\n      add\n      tag_119\n      swap1\n      tag_120\n      jump\t// in\n    tag_119:\n      mload(0x40)\n      dup1\n      swap2\n      sub\n      swap1\n      revert\n    tag_118:\n        /* \"Campaign.sol\":2591:2595  true */\n      0x01\n        /* \"Campaign.sol\":2559:2566  request */\n      dup2\n        /* \"Campaign.sol\":2559:2576  request.approvals */\n      0x04\n      add\n        /* \"Campaign.sol\":2559:2588  request.approvals[msg.sender] */\n      0x00\n        /* \"Campaign.sol\":2577:2587  msg.sender */\n      caller\n        /* \"Campaign.sol\":2559:2588  request.approvals[msg.sender] */\n      0xffffffffffffffffffffffffffffffffffffffff\n      and\n      0xffffffffffffffffffffffffffffffffffffffff\n      and\n      dup2\n      mstore\n      0x20\n      add\n      swap1\n      dup2\n      mstore\n      0x20\n      add\n      0x00\n      keccak256\n      0x00\n        /* \"Campaign.sol\":2559:2595  request.approvals[msg.sender] = true */\n      0x0100\n      exp\n      dup2\n      sload\n      dup2\n      0xff\n      mul\n      not\n      and\n      swap1\n      dup4\n      iszero\n      iszero\n      mul\n      or\n      swap1\n      sstore\n      pop\n        /* \"Campaign.sol\":2606:2613  request */\n      dup1\n        /* \"Campaign.sol\":2606:2627  request.approvalCount */\n      0x03\n      add\n      0x00\n        /* \"Campaign.sol\":2606:2629  request.approvalCount++ */\n      dup2\n      sload\n      dup1\n      swap3\n      swap2\n      swap1\n      tag_121\n      swap1\n      tag_88\n      jump\t// in\n    tag_121:\n      swap2\n      swap1\n      pop\n      sstore\n      pop\n        /* \"Campaign.sol\":2306:2637  {... */\n      pop\n        /* \"Campaign.sol\":2263:2637  function approveRequest(uint index) public {... */\n      pop\n      jump\t// out\n    tag_90:\n      dup3\n      dup1\n      sload\n      tag_122\n      swap1\n      tag_72\n      jump\t// in\n    tag_122:\n      swap1\n      0x00\n      mstore\n      keccak256(0x00, 0x20)\n      swap1\n      0x1f\n      add\n      0x20\n      swap1\n      div\n      dup2\n      add\n      swap3\n      dup3\n      tag_124\n      jumpi\n      0x00\n      dup6\n      sstore\n      jump(tag_123)\n    tag_124:\n      dup3\n      0x1f\n      lt\n      tag_125\n      jumpi\n      dup1\n      mload\n      not(0xff)\n      and\n      dup4\n      dup1\n      add\n      or\n      dup6\n      sstore\n      jump(tag_123)\n    tag_125:\n      dup3\n      dup1\n      add\n      0x01\n      add\n      dup6\n      sstore\n      dup3\n      iszero\n      tag_123\n      jumpi\n      swap2\n      dup3\n      add\n    tag_126:\n      dup3\n      dup2\n      gt\n      iszero\n      tag_127\n      jumpi\n      dup3\n      mload\n      dup3\n      sstore\n      swap2\n      0x20\n      add\n      swap2\n      swap1\n      0x01\n      add\n      swap1\n      jump(tag_126)\n    tag_127:\n    tag_123:\n      pop\n      swap1\n      pop\n      tag_128\n      swap2\n      swap1\n      tag_129\n      jump\t// in\n    tag_128:\n      pop\n      swap1\n      jump\t// out\n    tag_129:\n    tag_130:\n      dup1\n      dup3\n      gt\n      iszero\n      tag_131\n      jumpi\n      0x00\n      dup2\n      0x00\n      swap1\n      sstore\n      pop\n      0x01\n      add\n      jump(tag_130)\n    tag_131:\n      pop\n      swap1\n      jump\t// out\n        /* \"#utility.yul\":7:106   */\n    tag_132:\n        /* \"#utility.yul\":59:65   */\n      0x00\n        /* \"#utility.yul\":93:98   */\n      dup2\n        /* \"#utility.yul\":87:99   */\n      mload\n        /* \"#utility.yul\":77:99   */\n      swap1\n      pop\n        /* \"#utility.yul\":7:106   */\n      swap2\n      swap1\n      pop\n      jump\t// out\n        /* \"#utility.yul\":112:281   */\n    tag_133:\n        /* \"#utility.yul\":196:207   */\n      0x00\n        /* \"#utility.yul\":230:236   */\n      dup3\n        /* \"#utility.yul\":225:228   */\n      dup3\n        /* \"#utility.yul\":218:237   */\n      mstore\n        /* \"#utility.yul\":270:274   */\n      0x20\n        /* \"#utility.yul\":265:268   */\n      dup3\n        /* \"#utility.yul\":261:275   */\n      add\n        /* \"#utility.yul\":246:275   */\n      swap1\n      pop\n        /* \"#utility.yul\":112:281   */\n      swap3\n      swap2\n      pop\n      pop\n      jump\t// out\n        /* \"#utility.yul\":287:594   */\n    tag_134:\n        /* \"#utility.yul\":355:356   */\n      0x00\n        /* \"#utility.yul\":365:478   */\n    tag_181:\n        /* \"#utility.yul\":379:385   */\n      dup4\n        /* \"#utility.yul\":376:377   */\n      dup2\n        /* \"#utility.yul\":373:386   */\n      lt\n        /* \"#utility.yul\":365:478   */\n      iszero\n      tag_183\n      jumpi\n        /* \"#utility.yul\":464:465   */\n      dup1\n        /* \"#utility.yul\":459:462   */\n      dup3\n        /* \"#utility.yul\":455:466   */\n      add\n        /* \"#utility.yul\":449:467   */\n      mload\n        /* \"#utility.yul\":445:446   */\n      dup2\n        /* \"#utility.yul\":440:443   */\n      dup5\n        /* \"#utility.yul\":436:447   */\n      add\n        /* \"#utility.yul\":429:468   */\n      mstore\n        /* \"#utility.yul\":401:403   */\n      0x20\n        /* \"#utility.yul\":398:399   */\n      dup2\n        /* \"#utility.yul\":394:404   */\n      add\n        /* \"#utility.yul\":389:404   */\n      swap1\n      pop\n        /* \"#utility.yul\":365:478   */\n      jump(tag_181)\n    tag_183:\n        /* \"#utility.yul\":496:502   */\n      dup4\n        /* \"#utility.yul\":493:494   */\n      dup2\n        /* \"#utility.yul\":490:503   */\n      gt\n        /* \"#utility.yul\":487:588   */\n      iszero\n      tag_184\n      jumpi\n        /* \"#utility.yul\":576:577   */\n      0x00\n        /* \"#utility.yul\":567:573   */\n      dup5\n        /* \"#utility.yul\":562:565   */\n      dup5\n        /* \"#utility.yul\":558:574   */\n      add\n        /* \"#utility.yul\":551:578   */\n      mstore\n        /* \"#utility.yul\":487:588   */\n    tag_184:\n        /* \"#utility.yul\":336:594   */\n      pop\n        /* \"#utility.yul\":287:594   */\n      pop\n      pop\n      pop\n      jump\t// out\n        /* \"#utility.yul\":600:702   */\n    tag_135:\n        /* \"#utility.yul\":641:647   */\n      0x00\n        /* \"#utility.yul\":692:694   */\n      0x1f\n        /* \"#utility.yul\":688:695   */\n      not\n        /* \"#utility.yul\":683:685   */\n      0x1f\n        /* \"#utility.yul\":676:681   */\n      dup4\n        /* \"#utility.yul\":672:686   */\n      add\n        /* \"#utility.yul\":668:696   */\n      and\n        /* \"#utility.yul\":658:696   */\n      swap1\n      pop\n        /* \"#utility.yul\":600:702   */\n      swap2\n      swap1\n      pop\n      jump\t// out\n        /* \"#utility.yul\":708:1072   */\n    tag_136:\n        /* \"#utility.yul\":796:799   */\n      0x00\n        /* \"#utility.yul\":824:863   */\n      tag_187\n        /* \"#utility.yul\":857:862   */\n      dup3\n        /* \"#utility.yul\":824:863   */\n      tag_132\n      jump\t// in\n    tag_187:\n        /* \"#utility.yul\":879:950   */\n      tag_188\n        /* \"#utility.yul\":943:949   */\n      dup2\n        /* \"#utility.yul\":938:941   */\n      dup6\n        /* \"#utility.yul\":879:950   */\n      tag_133\n      jump\t// in\n    tag_188:\n        /* \"#utility.yul\":872:950   */\n      swap4\n      pop\n        /* \"#utility.yul\":959:1011   */\n      tag_189\n        /* \"#utility.yul\":1004:1010   */\n      dup2\n        /* \"#utility.yul\":999:1002   */\n      dup6\n        /* \"#utility.yul\":992:996   */\n      0x20\n        /* \"#utility.yul\":985:990   */\n      dup7\n        /* \"#utility.yul\":981:997   */\n      add\n        /* \"#utility.yul\":959:1011   */\n      tag_134\n      jump\t// in\n    tag_189:\n        /* \"#utility.yul\":1036:1065   */\n      tag_190\n        /* \"#utility.yul\":1058:1064   */\n      dup2\n        /* \"#utility.yul\":1036:1065   */\n      tag_135\n      jump\t// in\n    tag_190:\n        /* \"#utility.yul\":1031:1034   */\n      dup5\n        /* \"#utility.yul\":1027:1066   */\n      add\n        /* \"#utility.yul\":1020:1066   */\n      swap2\n      pop\n        /* \"#utility.yul\":800:1072   */\n      pop\n        /* \"#utility.yul\":708:1072   */\n      swap3\n      swap2\n      pop\n      pop\n      jump\t// out\n        /* \"#utility.yul\":1078:1391   */\n    tag_19:\n        /* \"#utility.yul\":1191:1195   */\n      0x00\n        /* \"#utility.yul\":1229:1231   */\n      0x20\n        /* \"#utility.yul\":1218:1227   */\n      dup3\n        /* \"#utility.yul\":1214:1232   */\n      add\n        /* \"#utility.yul\":1206:1232   */\n      swap1\n      pop\n        /* \"#utility.yul\":1278:1287   */\n      dup2\n        /* \"#utility.yul\":1272:1276   */\n      dup2\n        /* \"#utility.yul\":1268:1288   */\n      sub\n        /* \"#utility.yul\":1264:1265   */\n      0x00\n        /* \"#utility.yul\":1253:1262   */\n      dup4\n        /* \"#utility.yul\":1249:1266   */\n      add\n        /* \"#utility.yul\":1242:1289   */\n      mstore\n        /* \"#utility.yul\":1306:1384   */\n      tag_192\n        /* \"#utility.yul\":1379:1383   */\n      dup2\n        /* \"#utility.yul\":1370:1376   */\n      dup5\n        /* \"#utility.yul\":1306:1384   */\n      tag_136\n      jump\t// in\n    tag_192:\n        /* \"#utility.yul\":1298:1384   */\n      swap1\n      pop\n        /* \"#utility.yul\":1078:1391   */\n      swap3\n      swap2\n      pop\n      pop\n      jump\t// out\n        /* \"#utility.yul\":1397:1472   */\n    tag_137:\n        /* \"#utility.yul\":1430:1436   */\n      0x00\n        /* \"#utility.yul\":1463:1465   */\n      0x40\n        /* \"#utility.yul\":1457:1466   */\n      mload\n        /* \"#utility.yul\":1447:1466   */\n      swap1\n      pop\n        /* \"#utility.yul\":1397:1472   */\n      swap1\n      jump\t// out\n        /* \"#utility.yul\":1478:1595   */\n    tag_138:\n        /* \"#utility.yul\":1587:1588   */\n      0x00\n        /* \"#utility.yul\":1584:1585   */\n      dup1\n        /* \"#utility.yul\":1577:1589   */\n      revert\n        /* \"#utility.yul\":1601:1718   */\n    tag_139:\n        /* \"#utility.yul\":1710:1711   */\n      0x00\n        /* \"#utility.yul\":1707:1708   */\n      dup1\n        /* \"#utility.yul\":1700:1712   */\n      revert\n        /* \"#utility.yul\":1724:1850   */\n    tag_140:\n        /* \"#utility.yul\":1761:1768   */\n      0x00\n        /* \"#utility.yul\":1801:1843   */\n      0xffffffffffffffffffffffffffffffffffffffff\n        /* \"#utility.yul\":1794:1799   */\n      dup3\n        /* \"#utility.yul\":1790:1844   */\n      and\n        /* \"#utility.yul\":1779:1844   */\n      swap1\n      pop\n        /* \"#utility.yul\":1724:1850   */\n      swap2\n      swap1\n      pop\n      jump\t// out\n        /* \"#utility.yul\":1856:1952   */\n    tag_141:\n        /* \"#utility.yul\":1893:1900   */\n      0x00\n        /* \"#utility.yul\":1922:1946   */\n      tag_198\n        /* \"#utility.yul\":1940:1945   */\n      dup3\n        /* \"#utility.yul\":1922:1946   */\n      tag_140\n      jump\t// in\n    tag_198:\n        /* \"#utility.yul\":1911:1946   */\n      swap1\n      pop\n        /* \"#utility.yul\":1856:1952   */\n      swap2\n      swap1\n      pop\n      jump\t// out\n        /* \"#utility.yul\":1958:2080   */\n    tag_142:\n        /* \"#utility.yul\":2031:2055   */\n      tag_200\n        /* \"#utility.yul\":2049:2054   */\n      dup2\n        /* \"#utility.yul\":2031:2055   */\n      tag_141\n      jump\t// in\n    tag_200:\n        /* \"#utility.yul\":2024:2029   */\n      dup2\n        /* \"#utility.yul\":2021:2056   */\n      eq\n        /* \"#utility.yul\":2011:2074   */\n      tag_201\n      jumpi\n        /* \"#utility.yul\":2070:2071   */\n      0x00\n        /* \"#utility.yul\":2067:2068   */\n      dup1\n        /* \"#utility.yul\":2060:2072   */\n      revert\n        /* \"#utility.yul\":2011:2074   */\n    tag_201:\n        /* \"#utility.yul\":1958:2080   */\n      pop\n      jump\t// out\n        /* \"#utility.yul\":2086:2225   */\n    tag_143:\n        /* \"#utility.yul\":2132:2137   */\n      0x00\n        /* \"#utility.yul\":2170:2176   */\n      dup2\n        /* \"#utility.yul\":2157:2177   */\n      calldataload\n        /* \"#utility.yul\":2148:2177   */\n      swap1\n      pop\n        /* \"#utility.yul\":2186:2219   */\n      tag_203\n        /* \"#utility.yul\":2213:2218   */\n      dup2\n        /* \"#utility.yul\":2186:2219   */\n      tag_142\n      jump\t// in\n    tag_203:\n        /* \"#utility.yul\":2086:2225   */\n      swap3\n      swap2\n      pop\n      pop\n      jump\t// out\n        /* \"#utility.yul\":2231:2560   */\n    tag_23:\n        /* \"#utility.yul\":2290:2296   */\n      0x00\n        /* \"#utility.yul\":2339:2341   */\n      0x20\n        /* \"#utility.yul\":2327:2336   */\n      dup3\n        /* \"#utility.yul\":2318:2325   */\n      dup5\n        /* \"#utility.yul\":2314:2337   */\n      sub\n        /* \"#utility.yul\":2310:2342   */\n      slt\n        /* \"#utility.yul\":2307:2426   */\n      iszero\n      tag_205\n      jumpi\n        /* \"#utility.yul\":2345:2424   */\n      tag_206\n      tag_138\n      jump\t// in\n    tag_206:\n        /* \"#utility.yul\":2307:2426   */\n    tag_205:\n        /* \"#utility.yul\":2465:2466   */\n      0x00\n        /* \"#utility.yul\":2490:2543   */\n      tag_207\n        /* \"#utility.yul\":2535:2542   */\n      dup5\n        /* \"#utility.yul\":2526:2532   */\n      dup3\n        /* \"#utility.yul\":2515:2524   */\n      dup6\n        /* \"#utility.yul\":2511:2533   */\n      add\n        /* \"#utility.yul\":2490:2543   */\n      tag_143\n      jump\t// in\n    tag_207:\n        /* \"#utility.yul\":2480:2543   */\n      swap2\n      pop\n        /* \"#utility.yul\":2436:2553   */\n      pop\n        /* \"#utility.yul\":2231:2560   */\n      swap3\n      swap2\n      pop\n      pop\n      jump\t// out\n        /* \"#utility.yul\":2566:2656   */\n    tag_144:\n        /* \"#utility.yul\":2600:2607   */\n      0x00\n        /* \"#utility.yul\":2643:2648   */\n      dup2\n        /* \"#utility.yul\":2636:2649   */\n      iszero\n        /* \"#utility.yul\":2629:2650   */\n      iszero\n        /* \"#utility.yul\":2618:2650   */\n      swap1\n      pop\n        /* \"#utility.yul\":2566:2656   */\n      swap2\n      swap1\n      pop\n      jump\t// out\n        /* \"#utility.yul\":2662:2771   */\n    tag_145:\n        /* \"#utility.yul\":2743:2764   */\n      tag_210\n        /* \"#utility.yul\":2758:2763   */\n      dup2\n        /* \"#utility.yul\":2743:2764   */\n      tag_144\n      jump\t// in\n    tag_210:\n        /* \"#utility.yul\":2738:2741   */\n      dup3\n        /* \"#utility.yul\":2731:2765   */\n      mstore\n        /* \"#utility.yul\":2662:2771   */\n      pop\n      pop\n      jump\t// out\n        /* \"#utility.yul\":2777:2987   */\n    tag_26:\n        /* \"#utility.yul\":2864:2868   */\n      0x00\n        /* \"#utility.yul\":2902:2904   */\n      0x20\n        /* \"#utility.yul\":2891:2900   */\n      dup3\n        /* \"#utility.yul\":2887:2905   */\n      add\n        /* \"#utility.yul\":2879:2905   */\n      swap1\n      pop\n        /* \"#utility.yul\":2915:2980   */\n      tag_212\n        /* \"#utility.yul\":2977:2978   */\n      0x00\n        /* \"#utility.yul\":2966:2975   */\n      dup4\n        /* \"#utility.yul\":2962:2979   */\n      add\n        /* \"#utility.yul\":2953:2959   */\n      dup5\n        /* \"#utility.yul\":2915:2980   */\n      tag_145\n      jump\t// in\n    tag_212:\n        /* \"#utility.yul\":2777:2987   */\n      swap3\n      swap2\n      pop\n      pop\n      jump\t// out\n        /* \"#utility.yul\":2993:3070   */\n    tag_146:\n        /* \"#utility.yul\":3030:3037   */\n      0x00\n        /* \"#utility.yul\":3059:3064   */\n      dup2\n        /* \"#utility.yul\":3048:3064   */\n      swap1\n      pop\n        /* \"#utility.yul\":2993:3070   */\n      swap2\n      swap1\n      pop\n      jump\t// out\n        /* \"#utility.yul\":3076:3194   */\n    tag_147:\n        /* \"#utility.yul\":3163:3187   */\n      tag_215\n        /* \"#utility.yul\":3181:3186   */\n      dup2\n        /* \"#utility.yul\":3163:3187   */\n      tag_146\n      jump\t// in\n    tag_215:\n        /* \"#utility.yul\":3158:3161   */\n      dup3\n        /* \"#utility.yul\":3151:3188   */\n      mstore\n        /* \"#utility.yul\":3076:3194   */\n      pop\n      pop\n      jump\t// out\n        /* \"#utility.yul\":3200:3422   */\n    tag_31:\n        /* \"#utility.yul\":3293:3297   */\n      0x00\n        /* \"#utility.yul\":3331:3333   */\n      0x20\n        /* \"#utility.yul\":3320:3329   */\n      dup3\n        /* \"#utility.yul\":3316:3334   */\n      add\n        /* \"#utility.yul\":3308:3334   */\n      swap1\n      pop\n        /* \"#utility.yul\":3344:3415   */\n      tag_217\n        /* \"#utility.yul\":3412:3413   */\n      0x00\n        /* \"#utility.yul\":3401:3410   */\n      dup4\n        /* \"#utility.yul\":3397:3414   */\n      add\n        /* \"#utility.yul\":3388:3394   */\n      dup5\n        /* \"#utility.yul\":3344:3415   */\n      tag_147\n      jump\t// in\n    tag_217:\n        /* \"#utility.yul\":3200:3422   */\n      swap3\n      swap2\n      pop\n      pop\n      jump\t// out\n        /* \"#utility.yul\":3428:3546   */\n    tag_148:\n        /* \"#utility.yul\":3515:3539   */\n      tag_219\n        /* \"#utility.yul\":3533:3538   */\n      dup2\n        /* \"#utility.yul\":3515:3539   */\n      tag_141\n      jump\t// in\n    tag_219:\n        /* \"#utility.yul\":3510:3513   */\n      dup3\n        /* \"#utility.yul\":3503:3540   */\n      mstore\n        /* \"#utility.yul\":3428:3546   */\n      pop\n      pop\n      jump\t// out\n        /* \"#utility.yul\":3552:3774   */\n    tag_36:\n        /* \"#utility.yul\":3645:3649   */\n      0x00\n        /* \"#utility.yul\":3683:3685   */\n      0x20\n        /* \"#utility.yul\":3672:3681   */\n      dup3\n        /* \"#utility.yul\":3668:3686   */\n      add\n        /* \"#utility.yul\":3660:3686   */\n      swap1\n      pop\n        /* \"#utility.yul\":3696:3767   */\n      tag_221\n        /* \"#utility.yul\":3764:3765   */\n      0x00\n        /* \"#utility.yul\":3753:3762   */\n      dup4\n        /* \"#utility.yul\":3749:3766   */\n      add\n        /* \"#utility.yul\":3740:3746   */\n      dup5\n        /* \"#utility.yul\":3696:3767   */\n      tag_148\n      jump\t// in\n    tag_221:\n        /* \"#utility.yul\":3552:3774   */\n      swap3\n      swap2\n      pop\n      pop\n      jump\t// out\n        /* \"#utility.yul\":3780:3902   */\n    tag_149:\n        /* \"#utility.yul\":3853:3877   */\n      tag_223\n        /* \"#utility.yul\":3871:3876   */\n      dup2\n        /* \"#utility.yul\":3853:3877   */\n      tag_146\n      jump\t// in\n    tag_223:\n        /* \"#utility.yul\":3846:3851   */\n      dup2\n        /* \"#utility.yul\":3843:3878   */\n      eq\n        /* \"#utility.yul\":3833:3896   */\n      tag_224\n      jumpi\n        /* \"#utility.yul\":3892:3893   */\n      0x00\n        /* \"#utility.yul\":3889:3890   */\n      dup1\n        /* \"#utility.yul\":3882:3894   */\n      revert\n        /* \"#utility.yul\":3833:3896   */\n    tag_224:\n        /* \"#utility.yul\":3780:3902   */\n      pop\n      jump\t// out\n        /* \"#utility.yul\":3908:4047   */\n    tag_150:\n        /* \"#utility.yul\":3954:3959   */\n      0x00\n        /* \"#utility.yul\":3992:3998   */\n      dup2\n        /* \"#utility.yul\":3979:3999   */\n      calldataload\n        /* \"#utility.yul\":3970:3999   */\n      swap1\n      pop\n        /* \"#utility.yul\":4008:4041   */\n      tag_226\n        /* \"#utility.yul\":4035:4040   */\n      dup2\n        /* \"#utility.yul\":4008:4041   */\n      tag_149\n      jump\t// in\n    tag_226:\n        /* \"#utility.yul\":3908:4047   */\n      swap3\n      swap2\n      pop\n      pop\n      jump\t// out\n        /* \"#utility.yul\":4053:4382   */\n    tag_44:\n        /* \"#utility.yul\":4112:4118   */\n      0x00\n        /* \"#utility.yul\":4161:4163   */\n      0x20\n        /* \"#utility.yul\":4149:4158   */\n      dup3\n        /* \"#utility.yul\":4140:4147   */\n      dup5\n        /* \"#utility.yul\":4136:4159   */\n      sub\n        /* \"#utility.yul\":4132:4164   */\n      slt\n        /* \"#utility.yul\":4129:4248   */\n      iszero\n      tag_228\n      jumpi\n        /* \"#utility.yul\":4167:4246   */\n      tag_229\n      tag_138\n      jump\t// in\n    tag_229:\n        /* \"#utility.yul\":4129:4248   */\n    tag_228:\n        /* \"#utility.yul\":4287:4288   */\n      0x00\n        /* \"#utility.yul\":4312:4365   */\n      tag_230\n        /* \"#utility.yul\":4357:4364   */\n      dup5\n        /* \"#utility.yul\":4348:4354   */\n      dup3\n        /* \"#utility.yul\":4337:4346   */\n      dup6\n        /* \"#utility.yul\":4333:4355   */\n      add\n        /* \"#utility.yul\":4312:4365   */\n      tag_150\n      jump\t// in\n    tag_230:\n        /* \"#utility.yul\":4302:4365   */\n      swap2\n      pop\n        /* \"#utility.yul\":4258:4375   */\n      pop\n        /* \"#utility.yul\":4053:4382   */\n      swap3\n      swap2\n      pop\n      pop\n      jump\t// out\n        /* \"#utility.yul\":4388:5131   */\n    tag_47:\n        /* \"#utility.yul\":4607:4611   */\n      0x00\n        /* \"#utility.yul\":4645:4648   */\n      0xa0\n        /* \"#utility.yul\":4634:4643   */\n      dup3\n        /* \"#utility.yul\":4630:4649   */\n      add\n        /* \"#utility.yul\":4622:4649   */\n      swap1\n      pop\n        /* \"#utility.yul\":4695:4704   */\n      dup2\n        /* \"#utility.yul\":4689:4693   */\n      dup2\n        /* \"#utility.yul\":4685:4705   */\n      sub\n        /* \"#utility.yul\":4681:4682   */\n      0x00\n        /* \"#utility.yul\":4670:4679   */\n      dup4\n        /* \"#utility.yul\":4666:4683   */\n      add\n        /* \"#utility.yul\":4659:4706   */\n      mstore\n        /* \"#utility.yul\":4723:4801   */\n      tag_232\n        /* \"#utility.yul\":4796:4800   */\n      dup2\n        /* \"#utility.yul\":4787:4793   */\n      dup9\n        /* \"#utility.yul\":4723:4801   */\n      tag_136\n      jump\t// in\n    tag_232:\n        /* \"#utility.yul\":4715:4801   */\n      swap1\n      pop\n        /* \"#utility.yul\":4811:4883   */\n      tag_233\n        /* \"#utility.yul\":4879:4881   */\n      0x20\n        /* \"#utility.yul\":4868:4877   */\n      dup4\n        /* \"#utility.yul\":4864:4882   */\n      add\n        /* \"#utility.yul\":4855:4861   */\n      dup8\n        /* \"#utility.yul\":4811:4883   */\n      tag_147\n      jump\t// in\n    tag_233:\n        /* \"#utility.yul\":4893:4965   */\n      tag_234\n        /* \"#utility.yul\":4961:4963   */\n      0x40\n        /* \"#utility.yul\":4950:4959   */\n      dup4\n        /* \"#utility.yul\":4946:4964   */\n      add\n        /* \"#utility.yul\":4937:4943   */\n      dup7\n        /* \"#utility.yul\":4893:4965   */\n      tag_148\n      jump\t// in\n    tag_234:\n        /* \"#utility.yul\":4975:5041   */\n      tag_235\n        /* \"#utility.yul\":5037:5039   */\n      0x60\n        /* \"#utility.yul\":5026:5035   */\n      dup4\n        /* \"#utility.yul\":5022:5040   */\n      add\n        /* \"#utility.yul\":5013:5019   */\n      dup6\n        /* \"#utility.yul\":4975:5041   */\n      tag_145\n      jump\t// in\n    tag_235:\n        /* \"#utility.yul\":5051:5124   */\n      tag_236\n        /* \"#utility.yul\":5119:5122   */\n      0x80\n        /* \"#utility.yul\":5108:5117   */\n      dup4\n        /* \"#utility.yul\":5104:5123   */\n      add\n        /* \"#utility.yul\":5095:5101   */\n      dup5\n        /* \"#utility.yul\":5051:5124   */\n      tag_147\n      jump\t// in\n    tag_236:\n        /* \"#utility.yul\":4388:5131   */\n      swap7\n      swap6\n      pop\n      pop\n      pop\n      pop\n      pop\n      pop\n      jump\t// out\n        /* \"#utility.yul\":5137:5254   */\n    tag_151:\n        /* \"#utility.yul\":5246:5247   */\n      0x00\n        /* \"#utility.yul\":5243:5244   */\n      dup1\n        /* \"#utility.yul\":5236:5248   */\n      revert\n        /* \"#utility.yul\":5260:5377   */\n    tag_152:\n        /* \"#utility.yul\":5369:5370   */\n      0x00\n        /* \"#utility.yul\":5366:5367   */\n      dup1\n        /* \"#utility.yul\":5359:5371   */\n      revert\n        /* \"#utility.yul\":5383:5563   */\n    tag_153:\n        /* \"#utility.yul\":5431:5508   */\n      0x4e487b7100000000000000000000000000000000000000000000000000000000\n        /* \"#utility.yul\":5428:5429   */\n      0x00\n        /* \"#utility.yul\":5421:5509   */\n      mstore\n        /* \"#utility.yul\":5528:5532   */\n      0x41\n        /* \"#utility.yul\":5525:5526   */\n      0x04\n        /* \"#utility.yul\":5518:5533   */\n      mstore\n        /* \"#utility.yul\":5552:5556   */\n      0x24\n        /* \"#utility.yul\":5549:5550   */\n      0x00\n        /* \"#utility.yul\":5542:5557   */\n      revert\n        /* \"#utility.yul\":5569:5850   */\n    tag_154:\n        /* \"#utility.yul\":5652:5679   */\n      tag_241\n        /* \"#utility.yul\":5674:5678   */\n      dup3\n        /* \"#utility.yul\":5652:5679   */\n      tag_135\n      jump\t// in\n    tag_241:\n        /* \"#utility.yul\":5644:5650   */\n      dup2\n        /* \"#utility.yul\":5640:5680   */\n      add\n        /* \"#utility.yul\":5782:5788   */\n      dup2\n        /* \"#utility.yul\":5770:5780   */\n      dup2\n        /* \"#utility.yul\":5767:5789   */\n      lt\n        /* \"#utility.yul\":5746:5764   */\n      0xffffffffffffffff\n        /* \"#utility.yul\":5734:5744   */\n      dup3\n        /* \"#utility.yul\":5731:5765   */\n      gt\n        /* \"#utility.yul\":5728:5790   */\n      or\n        /* \"#utility.yul\":5725:5813   */\n      iszero\n      tag_242\n      jumpi\n        /* \"#utility.yul\":5793:5811   */\n      tag_243\n      tag_153\n      jump\t// in\n    tag_243:\n        /* \"#utility.yul\":5725:5813   */\n    tag_242:\n        /* \"#utility.yul\":5833:5843   */\n      dup1\n        /* \"#utility.yul\":5829:5831   */\n      0x40\n        /* \"#utility.yul\":5822:5844   */\n      mstore\n        /* \"#utility.yul\":5612:5850   */\n      pop\n        /* \"#utility.yul\":5569:5850   */\n      pop\n      pop\n      jump\t// out\n        /* \"#utility.yul\":5856:5985   */\n    tag_155:\n        /* \"#utility.yul\":5890:5896   */\n      0x00\n        /* \"#utility.yul\":5917:5937   */\n      tag_245\n      tag_137\n      jump\t// in\n    tag_245:\n        /* \"#utility.yul\":5907:5937   */\n      swap1\n      pop\n        /* \"#utility.yul\":5946:5979   */\n      tag_246\n        /* \"#utility.yul\":5974:5978   */\n      dup3\n        /* \"#utility.yul\":5966:5972   */\n      dup3\n        /* \"#utility.yul\":5946:5979   */\n      tag_154\n      jump\t// in\n    tag_246:\n        /* \"#utility.yul\":5856:5985   */\n      swap2\n      swap1\n      pop\n      jump\t// out\n        /* \"#utility.yul\":5991:6299   */\n    tag_156:\n        /* \"#utility.yul\":6053:6057   */\n      0x00\n        /* \"#utility.yul\":6143:6161   */\n      0xffffffffffffffff\n        /* \"#utility.yul\":6135:6141   */\n      dup3\n        /* \"#utility.yul\":6132:6162   */\n      gt\n        /* \"#utility.yul\":6129:6185   */\n      iszero\n      tag_248\n      jumpi\n        /* \"#utility.yul\":6165:6183   */\n      tag_249\n      tag_153\n      jump\t// in\n    tag_249:\n        /* \"#utility.yul\":6129:6185   */\n    tag_248:\n        /* \"#utility.yul\":6203:6232   */\n      tag_250\n        /* \"#utility.yul\":6225:6231   */\n      dup3\n        /* \"#utility.yul\":6203:6232   */\n      tag_135\n      jump\t// in\n    tag_250:\n        /* \"#utility.yul\":6195:6232   */\n      swap1\n      pop\n        /* \"#utility.yul\":6287:6291   */\n      0x20\n        /* \"#utility.yul\":6281:6285   */\n      dup2\n        /* \"#utility.yul\":6277:6292   */\n      add\n        /* \"#utility.yul\":6269:6292   */\n      swap1\n      pop\n        /* \"#utility.yul\":5991:6299   */\n      swap2\n      swap1\n      pop\n      jump\t// out\n        /* \"#utility.yul\":6305:6459   */\n    tag_157:\n        /* \"#utility.yul\":6389:6395   */\n      dup3\n        /* \"#utility.yul\":6384:6387   */\n      dup2\n        /* \"#utility.yul\":6379:6382   */\n      dup4\n        /* \"#utility.yul\":6366:6396   */\n      calldatacopy\n        /* \"#utility.yul\":6451:6452   */\n      0x00\n        /* \"#utility.yul\":6442:6448   */\n      dup4\n        /* \"#utility.yul\":6437:6440   */\n      dup4\n        /* \"#utility.yul\":6433:6449   */\n      add\n        /* \"#utility.yul\":6426:6453   */\n      mstore\n        /* \"#utility.yul\":6305:6459   */\n      pop\n      pop\n      pop\n      jump\t// out\n        /* \"#utility.yul\":6465:6877   */\n    tag_158:\n        /* \"#utility.yul\":6543:6548   */\n      0x00\n        /* \"#utility.yul\":6568:6634   */\n      tag_253\n        /* \"#utility.yul\":6584:6633   */\n      tag_254\n        /* \"#utility.yul\":6626:6632   */\n      dup5\n        /* \"#utility.yul\":6584:6633   */\n      tag_156\n      jump\t// in\n    tag_254:\n        /* \"#utility.yul\":6568:6634   */\n      tag_155\n      jump\t// in\n    tag_253:\n        /* \"#utility.yul\":6559:6634   */\n      swap1\n      pop\n        /* \"#utility.yul\":6657:6663   */\n      dup3\n        /* \"#utility.yul\":6650:6655   */\n      dup2\n        /* \"#utility.yul\":6643:6664   */\n      mstore\n        /* \"#utility.yul\":6695:6699   */\n      0x20\n        /* \"#utility.yul\":6688:6693   */\n      dup2\n        /* \"#utility.yul\":6684:6700   */\n      add\n        /* \"#utility.yul\":6733:6736   */\n      dup5\n        /* \"#utility.yul\":6724:6730   */\n      dup5\n        /* \"#utility.yul\":6719:6722   */\n      dup5\n        /* \"#utility.yul\":6715:6731   */\n      add\n        /* \"#utility.yul\":6712:6737   */\n      gt\n        /* \"#utility.yul\":6709:6821   */\n      iszero\n      tag_255\n      jumpi\n        /* \"#utility.yul\":6740:6819   */\n      tag_256\n      tag_152\n      jump\t// in\n    tag_256:\n        /* \"#utility.yul\":6709:6821   */\n    tag_255:\n        /* \"#utility.yul\":6830:6871   */\n      tag_257\n        /* \"#utility.yul\":6864:6870   */\n      dup5\n        /* \"#utility.yul\":6859:6862   */\n      dup3\n        /* \"#utility.yul\":6854:6857   */\n      dup6\n        /* \"#utility.yul\":6830:6871   */\n      tag_157\n      jump\t// in\n    tag_257:\n        /* \"#utility.yul\":6549:6877   */\n      pop\n        /* \"#utility.yul\":6465:6877   */\n      swap4\n      swap3\n      pop\n      pop\n      pop\n      jump\t// out\n        /* \"#utility.yul\":6897:7237   */\n    tag_159:\n        /* \"#utility.yul\":6953:6958   */\n      0x00\n        /* \"#utility.yul\":7002:7005   */\n      dup3\n        /* \"#utility.yul\":6995:6999   */\n      0x1f\n        /* \"#utility.yul\":6987:6993   */\n      dup4\n        /* \"#utility.yul\":6983:7000   */\n      add\n        /* \"#utility.yul\":6979:7006   */\n      slt\n        /* \"#utility.yul\":6969:7091   */\n      tag_259\n      jumpi\n        /* \"#utility.yul\":7010:7089   */\n      tag_260\n      tag_151\n      jump\t// in\n    tag_260:\n        /* \"#utility.yul\":6969:7091   */\n    tag_259:\n        /* \"#utility.yul\":7127:7133   */\n      dup2\n        /* \"#utility.yul\":7114:7134   */\n      calldataload\n        /* \"#utility.yul\":7152:7231   */\n      tag_261\n        /* \"#utility.yul\":7227:7230   */\n      dup5\n        /* \"#utility.yul\":7219:7225   */\n      dup3\n        /* \"#utility.yul\":7212:7216   */\n      0x20\n        /* \"#utility.yul\":7204:7210   */\n      dup7\n        /* \"#utility.yul\":7200:7217   */\n      add\n        /* \"#utility.yul\":7152:7231   */\n      tag_158\n      jump\t// in\n    tag_261:\n        /* \"#utility.yul\":7143:7231   */\n      swap2\n      pop\n        /* \"#utility.yul\":6959:7237   */\n      pop\n        /* \"#utility.yul\":6897:7237   */\n      swap3\n      swap2\n      pop\n      pop\n      jump\t// out\n        /* \"#utility.yul\":7243:8042   */\n    tag_51:\n        /* \"#utility.yul\":7330:7336   */\n      0x00\n        /* \"#utility.yul\":7338:7344   */\n      dup1\n        /* \"#utility.yul\":7346:7352   */\n      0x00\n        /* \"#utility.yul\":7395:7397   */\n      0x60\n        /* \"#utility.yul\":7383:7392   */\n      dup5\n        /* \"#utility.yul\":7374:7381   */\n      dup7\n        /* \"#utility.yul\":7370:7393   */\n      sub\n        /* \"#utility.yul\":7366:7398   */\n      slt\n        /* \"#utility.yul\":7363:7482   */\n      iszero\n      tag_263\n      jumpi\n        /* \"#utility.yul\":7401:7480   */\n      tag_264\n      tag_138\n      jump\t// in\n    tag_264:\n        /* \"#utility.yul\":7363:7482   */\n    tag_263:\n        /* \"#utility.yul\":7549:7550   */\n      0x00\n        /* \"#utility.yul\":7538:7547   */\n      dup5\n        /* \"#utility.yul\":7534:7551   */\n      add\n        /* \"#utility.yul\":7521:7552   */\n      calldataload\n        /* \"#utility.yul\":7579:7597   */\n      0xffffffffffffffff\n        /* \"#utility.yul\":7571:7577   */\n      dup2\n        /* \"#utility.yul\":7568:7598   */\n      gt\n        /* \"#utility.yul\":7565:7682   */\n      iszero\n      tag_265\n      jumpi\n        /* \"#utility.yul\":7601:7680   */\n      tag_266\n      tag_139\n      jump\t// in\n    tag_266:\n        /* \"#utility.yul\":7565:7682   */\n    tag_265:\n        /* \"#utility.yul\":7706:7769   */\n      tag_267\n        /* \"#utility.yul\":7761:7768   */\n      dup7\n        /* \"#utility.yul\":7752:7758   */\n      dup3\n        /* \"#utility.yul\":7741:7750   */\n      dup8\n        /* \"#utility.yul\":7737:7759   */\n      add\n        /* \"#utility.yul\":7706:7769   */\n      tag_159\n      jump\t// in\n    tag_267:\n        /* \"#utility.yul\":7696:7769   */\n      swap4\n      pop\n        /* \"#utility.yul\":7492:7779   */\n      pop\n        /* \"#utility.yul\":7818:7820   */\n      0x20\n        /* \"#utility.yul\":7844:7897   */\n      tag_268\n        /* \"#utility.yul\":7889:7896   */\n      dup7\n        /* \"#utility.yul\":7880:7886   */\n      dup3\n        /* \"#utility.yul\":7869:7878   */\n      dup8\n        /* \"#utility.yul\":7865:7887   */\n      add\n        /* \"#utility.yul\":7844:7897   */\n      tag_150\n      jump\t// in\n    tag_268:\n        /* \"#utility.yul\":7834:7897   */\n      swap3\n      pop\n        /* \"#utility.yul\":7789:7907   */\n      pop\n        /* \"#utility.yul\":7946:7948   */\n      0x40\n        /* \"#utility.yul\":7972:8025   */\n      tag_269\n        /* \"#utility.yul\":8017:8024   */\n      dup7\n        /* \"#utility.yul\":8008:8014   */\n      dup3\n        /* \"#utility.yul\":7997:8006   */\n      dup8\n        /* \"#utility.yul\":7993:8015   */\n      add\n        /* \"#utility.yul\":7972:8025   */\n      tag_143\n      jump\t// in\n    tag_269:\n        /* \"#utility.yul\":7962:8025   */\n      swap2\n      pop\n        /* \"#utility.yul\":7917:8035   */\n      pop\n        /* \"#utility.yul\":7243:8042   */\n      swap3\n      pop\n      swap3\n      pop\n      swap3\n      jump\t// out\n        /* \"#utility.yul\":8048:8712   */\n    tag_64:\n        /* \"#utility.yul\":8253:8257   */\n      0x00\n        /* \"#utility.yul\":8291:8294   */\n      0xa0\n        /* \"#utility.yul\":8280:8289   */\n      dup3\n        /* \"#utility.yul\":8276:8295   */\n      add\n        /* \"#utility.yul\":8268:8295   */\n      swap1\n      pop\n        /* \"#utility.yul\":8305:8376   */\n      tag_271\n        /* \"#utility.yul\":8373:8374   */\n      0x00\n        /* \"#utility.yul\":8362:8371   */\n      dup4\n        /* \"#utility.yul\":8358:8375   */\n      add\n        /* \"#utility.yul\":8349:8355   */\n      dup9\n        /* \"#utility.yul\":8305:8376   */\n      tag_147\n      jump\t// in\n    tag_271:\n        /* \"#utility.yul\":8386:8458   */\n      tag_272\n        /* \"#utility.yul\":8454:8456   */\n      0x20\n        /* \"#utility.yul\":8443:8452   */\n      dup4\n        /* \"#utility.yul\":8439:8457   */\n      add\n        /* \"#utility.yul\":8430:8436   */\n      dup8\n        /* \"#utility.yul\":8386:8458   */\n      tag_147\n      jump\t// in\n    tag_272:\n        /* \"#utility.yul\":8468:8540   */\n      tag_273\n        /* \"#utility.yul\":8536:8538   */\n      0x40\n        /* \"#utility.yul\":8525:8534   */\n      dup4\n        /* \"#utility.yul\":8521:8539   */\n      add\n        /* \"#utility.yul\":8512:8518   */\n      dup7\n        /* \"#utility.yul\":8468:8540   */\n      tag_147\n      jump\t// in\n    tag_273:\n        /* \"#utility.yul\":8550:8622   */\n      tag_274\n        /* \"#utility.yul\":8618:8620   */\n      0x60\n        /* \"#utility.yul\":8607:8616   */\n      dup4\n        /* \"#utility.yul\":8603:8621   */\n      add\n        /* \"#utility.yul\":8594:8600   */\n      dup6\n        /* \"#utility.yul\":8550:8622   */\n      tag_147\n      jump\t// in\n    tag_274:\n        /* \"#utility.yul\":8632:8705   */\n      tag_275\n        /* \"#utility.yul\":8700:8703   */\n      0x80\n        /* \"#utility.yul\":8689:8698   */\n      dup4\n        /* \"#utility.yul\":8685:8704   */\n      add\n        /* \"#utility.yul\":8676:8682   */\n      dup5\n        /* \"#utility.yul\":8632:8705   */\n      tag_148\n      jump\t// in\n    tag_275:\n        /* \"#utility.yul\":8048:8712   */\n      swap7\n      swap6\n      pop\n      pop\n      pop\n      pop\n      pop\n      pop\n      jump\t// out\n        /* \"#utility.yul\":8718:8898   */\n    tag_160:\n        /* \"#utility.yul\":8766:8843   */\n      0x4e487b7100000000000000000000000000000000000000000000000000000000\n        /* \"#utility.yul\":8763:8764   */\n      0x00\n        /* \"#utility.yul\":8756:8844   */\n      mstore\n        /* \"#utility.yul\":8863:8867   */\n      0x22\n        /* \"#utility.yul\":8860:8861   */\n      0x04\n        /* \"#utility.yul\":8853:8868   */\n      mstore\n        /* \"#utility.yul\":8887:8891   */\n      0x24\n        /* \"#utility.yul\":8884:8885   */\n      0x00\n        /* \"#utility.yul\":8877:8892   */\n      revert\n        /* \"#utility.yul\":8904:9224   */\n    tag_72:\n        /* \"#utility.yul\":8948:8954   */\n      0x00\n        /* \"#utility.yul\":8985:8986   */\n      0x02\n        /* \"#utility.yul\":8979:8983   */\n      dup3\n        /* \"#utility.yul\":8975:8987   */\n      div\n        /* \"#utility.yul\":8965:8987   */\n      swap1\n      pop\n        /* \"#utility.yul\":9032:9033   */\n      0x01\n        /* \"#utility.yul\":9026:9030   */\n      dup3\n        /* \"#utility.yul\":9022:9034   */\n      and\n        /* \"#utility.yul\":9053:9071   */\n      dup1\n        /* \"#utility.yul\":9043:9124   */\n      tag_278\n      jumpi\n        /* \"#utility.yul\":9109:9113   */\n      0x7f\n        /* \"#utility.yul\":9101:9107   */\n      dup3\n        /* \"#utility.yul\":9097:9114   */\n      and\n        /* \"#utility.yul\":9087:9114   */\n      swap2\n      pop\n        /* \"#utility.yul\":9043:9124   */\n    tag_278:\n        /* \"#utility.yul\":9171:9173   */\n      0x20\n        /* \"#utility.yul\":9163:9169   */\n      dup3\n        /* \"#utility.yul\":9160:9174   */\n      lt\n        /* \"#utility.yul\":9140:9158   */\n      dup2\n        /* \"#utility.yul\":9137:9175   */\n      eq\n        /* \"#utility.yul\":9134:9218   */\n      iszero\n      tag_279\n      jumpi\n        /* \"#utility.yul\":9190:9208   */\n      tag_280\n      tag_160\n      jump\t// in\n    tag_280:\n        /* \"#utility.yul\":9134:9218   */\n    tag_279:\n        /* \"#utility.yul\":8955:9224   */\n      pop\n        /* \"#utility.yul\":8904:9224   */\n      swap2\n      swap1\n      pop\n      jump\t// out\n        /* \"#utility.yul\":9230:9457   */\n    tag_161:\n        /* \"#utility.yul\":9370:9404   */\n      0x4f6e6c7920746865204d616e616765722063616e20706572666f726d20746869\n        /* \"#utility.yul\":9366:9367   */\n      0x00\n        /* \"#utility.yul\":9358:9364   */\n      dup3\n        /* \"#utility.yul\":9354:9368   */\n      add\n        /* \"#utility.yul\":9347:9405   */\n      mstore\n        /* \"#utility.yul\":9439:9449   */\n      0x7320616374696f6e000000000000000000000000000000000000000000000000\n        /* \"#utility.yul\":9434:9436   */\n      0x20\n        /* \"#utility.yul\":9426:9432   */\n      dup3\n        /* \"#utility.yul\":9422:9437   */\n      add\n        /* \"#utility.yul\":9415:9450   */\n      mstore\n        /* \"#utility.yul\":9230:9457   */\n      pop\n      jump\t// out\n        /* \"#utility.yul\":9463:9829   */\n    tag_162:\n        /* \"#utility.yul\":9605:9608   */\n      0x00\n        /* \"#utility.yul\":9626:9693   */\n      tag_283\n        /* \"#utility.yul\":9690:9692   */\n      0x28\n        /* \"#utility.yul\":9685:9688   */\n      dup4\n        /* \"#utility.yul\":9626:9693   */\n      tag_133\n      jump\t// in\n    tag_283:\n        /* \"#utility.yul\":9619:9693   */\n      swap2\n      pop\n        /* \"#utility.yul\":9702:9795   */\n      tag_284\n        /* \"#utility.yul\":9791:9794   */\n      dup3\n        /* \"#utility.yul\":9702:9795   */\n      tag_161\n      jump\t// in\n    tag_284:\n        /* \"#utility.yul\":9820:9822   */\n      0x40\n        /* \"#utility.yul\":9815:9818   */\n      dup3\n        /* \"#utility.yul\":9811:9823   */\n      add\n        /* \"#utility.yul\":9804:9823   */\n      swap1\n      pop\n        /* \"#utility.yul\":9463:9829   */\n      swap2\n      swap1\n      pop\n      jump\t// out\n        /* \"#utility.yul\":9835:10254   */\n    tag_85:\n        /* \"#utility.yul\":10001:10005   */\n      0x00\n        /* \"#utility.yul\":10039:10041   */\n      0x20\n        /* \"#utility.yul\":10028:10037   */\n      dup3\n        /* \"#utility.yul\":10024:10042   */\n      add\n        /* \"#utility.yul\":10016:10042   */\n      swap1\n      pop\n        /* \"#utility.yul\":10088:10097   */\n      dup2\n        /* \"#utility.yul\":10082:10086   */\n      dup2\n        /* \"#utility.yul\":10078:10098   */\n      sub\n        /* \"#utility.yul\":10074:10075   */\n      0x00\n        /* \"#utility.yul\":10063:10072   */\n      dup4\n        /* \"#utility.yul\":10059:10076   */\n      add\n        /* \"#utility.yul\":10052:10099   */\n      mstore\n        /* \"#utility.yul\":10116:10247   */\n      tag_286\n        /* \"#utility.yul\":10242:10246   */\n      dup2\n        /* \"#utility.yul\":10116:10247   */\n      tag_162\n      jump\t// in\n    tag_286:\n        /* \"#utility.yul\":10108:10247   */\n      swap1\n      pop\n        /* \"#utility.yul\":9835:10254   */\n      swap2\n      swap1\n      pop\n      jump\t// out\n        /* \"#utility.yul\":10260:10440   */\n    tag_163:\n        /* \"#utility.yul\":10308:10385   */\n      0x4e487b7100000000000000000000000000000000000000000000000000000000\n        /* \"#utility.yul\":10305:10306   */\n      0x00\n        /* \"#utility.yul\":10298:10386   */\n      mstore\n        /* \"#utility.yul\":10405:10409   */\n      0x11\n        /* \"#utility.yul\":10402:10403   */\n      0x04\n        /* \"#utility.yul\":10395:10410   */\n      mstore\n        /* \"#utility.yul\":10429:10433   */\n      0x24\n        /* \"#utility.yul\":10426:10427   */\n      0x00\n        /* \"#utility.yul\":10419:10434   */\n      revert\n        /* \"#utility.yul\":10446:10679   */\n    tag_88:\n        /* \"#utility.yul\":10485:10488   */\n      0x00\n        /* \"#utility.yul\":10508:10532   */\n      tag_289\n        /* \"#utility.yul\":10526:10531   */\n      dup3\n        /* \"#utility.yul\":10508:10532   */\n      tag_146\n      jump\t// in\n    tag_289:\n        /* \"#utility.yul\":10499:10532   */\n      swap2\n      pop\n        /* \"#utility.yul\":10554:10620   */\n      0xffffffffffffffffffffffffffffffffffffffffffffffffffffffffffffffff\n        /* \"#utility.yul\":10547:10552   */\n      dup3\n        /* \"#utility.yul\":10544:10621   */\n      eq\n        /* \"#utility.yul\":10541:10644   */\n      iszero\n      tag_290\n      jumpi\n        /* \"#utility.yul\":10624:10642   */\n      tag_291\n      tag_163\n      jump\t// in\n    tag_291:\n        /* \"#utility.yul\":10541:10644   */\n    tag_290:\n        /* \"#utility.yul\":10671:10672   */\n      0x01\n        /* \"#utility.yul\":10664:10669   */\n      dup3\n        /* \"#utility.yul\":10660:10673   */\n      add\n        /* \"#utility.yul\":10653:10673   */\n      swap1\n      pop\n        /* \"#utility.yul\":10446:10679   */\n      swap2\n      swap1\n      pop\n      jump\t// out\n        /* \"#utility.yul\":10685:10927   */\n    tag_164:\n        /* \"#utility.yul\":10825:10859   */\n      0x596f75206861766520616c726561647920636f6e6669726d6564207468652061\n        /* \"#utility.yul\":10821:10822   */\n      0x00\n        /* \"#utility.yul\":10813:10819   */\n      dup3\n        /* \"#utility.yul\":10809:10823   */\n      add\n        /* \"#utility.yul\":10802:10860   */\n      mstore\n        /* \"#utility.yul\":10894:10919   */\n      0x7070726f76616c206f6620746869732052657175657374000000000000000000\n        /* \"#utility.yul\":10889:10891   */\n      0x20\n        /* \"#utility.yul\":10881:10887   */\n      dup3\n        /* \"#utility.yul\":10877:10892   */\n      add\n        /* \"#utility.yul\":10870:10920   */\n      mstore\n        /* \"#utility.yul\":10685:10927   */\n      pop\n      jump\t// out\n        /* \"#utility.yul\":10933:11299   */\n    tag_165:\n        /* \"#utility.yul\":11075:11078   */\n      0x00\n        /* \"#utility.yul\":11096:11163   */\n      tag_294\n        /* \"#utility.yul\":11160:11162   */\n      0x37\n        /* \"#utility.yul\":11155:11158   */\n      dup4\n        /* \"#utility.yul\":11096:11163   */\n      tag_133\n      jump\t// in\n    tag_294:\n        /* \"#utility.yul\":11089:11163   */\n      swap2\n      pop\n        /* \"#utility.yul\":11172:11265   */\n      tag_295\n        /* \"#utility.yul\":11261:11264   */\n      dup3\n        /* \"#utility.yul\":11172:11265   */\n      tag_164\n      jump\t// in\n    tag_295:\n        /* \"#utility.yul\":11290:11292   */\n      0x40\n        /* \"#utility.yul\":11285:11288   */\n      dup3\n        /* \"#utility.yul\":11281:11293   */\n      add\n        /* \"#utility.yul\":11274:11293   */\n      swap1\n      pop\n        /* \"#utility.yul\":10933:11299   */\n      swap2\n      swap1\n      pop\n      jump\t// out\n        /* \"#utility.yul\":11305:11724   */\n    tag_97:\n        /* \"#utility.yul\":11471:11475   */\n      0x00\n        /* \"#utility.yul\":11509:11511   */\n      0x20\n        /* \"#utility.yul\":11498:11507   */\n      dup3\n        /* \"#utility.yul\":11494:11512   */\n      add\n        /* \"#utility.yul\":11486:11512   */\n      swap1\n      pop\n        /* \"#utility.yul\":11558:11567   */\n      dup2\n        /* \"#utility.yul\":11552:11556   */\n      dup2\n        /* \"#utility.yul\":11548:11568   */\n      sub\n        /* \"#utility.yul\":11544:11545   */\n      0x00\n        /* \"#utility.yul\":11533:11542   */\n      dup4\n        /* \"#utility.yul\":11529:11546   */\n      add\n        /* \"#utility.yul\":11522:11569   */\n      mstore\n        /* \"#utility.yul\":11586:11717   */\n      tag_297\n        /* \"#utility.yul\":11712:11716   */\n      dup2\n        /* \"#utility.yul\":11586:11717   */\n      tag_165\n      jump\t// in\n    tag_297:\n        /* \"#utility.yul\":11578:11717   */\n      swap1\n      pop\n        /* \"#utility.yul\":11305:11724   */\n      swap2\n      swap1\n      pop\n      jump\t// out\n        /* \"#utility.yul\":11730:11910   */\n    tag_166:\n        /* \"#utility.yul\":11778:11855   */\n      0x4e487b7100000000000000000000000000000000000000000000000000000000\n        /* \"#utility.yul\":11775:11776   */\n      0x00\n        /* \"#utility.yul\":11768:11856   */\n      mstore\n        /* \"#utility.yul\":11875:11879   */\n      0x12\n        /* \"#utility.yul\":11872:11873   */\n      0x04\n        /* \"#utility.yul\":11865:11880   */\n      mstore\n        /* \"#utility.yul\":11899:11903   */\n      0x24\n        /* \"#utility.yul\":11896:11897   */\n      0x00\n        /* \"#utility.yul\":11889:11904   */\n      revert\n        /* \"#utility.yul\":11916:12101   */\n    tag_99:\n        /* \"#utility.yul\":11956:11957   */\n      0x00\n        /* \"#utility.yul\":11973:11993   */\n      tag_300\n        /* \"#utility.yul\":11991:11992   */\n      dup3\n        /* \"#utility.yul\":11973:11993   */\n      tag_146\n      jump\t// in\n    tag_300:\n        /* \"#utility.yul\":11968:11993   */\n      swap2\n      pop\n        /* \"#utility.yul\":12007:12027   */\n      tag_301\n        /* \"#utility.yul\":12025:12026   */\n      dup4\n        /* \"#utility.yul\":12007:12027   */\n      tag_146\n      jump\t// in\n    tag_301:\n        /* \"#utility.yul\":12002:12027   */\n      swap3\n      pop\n        /* \"#utility.yul\":12046:12047   */\n      dup3\n        /* \"#utility.yul\":12036:12071   */\n      tag_302\n      jumpi\n        /* \"#utility.yul\":12051:12069   */\n      tag_303\n      tag_166\n      jump\t// in\n    tag_303:\n        /* \"#utility.yul\":12036:12071   */\n    tag_302:\n        /* \"#utility.yul\":12093:12094   */\n      dup3\n        /* \"#utility.yul\":12090:12091   */\n      dup3\n        /* \"#utility.yul\":12086:12095   */\n      div\n        /* \"#utility.yul\":12081:12095   */\n      swap1\n      pop\n        /* \"#utility.yul\":11916:12101   */\n      swap3\n      swap2\n      pop\n      pop\n      jump\t// out\n        /* \"#utility.yul\":12107:12340   */\n    tag_167:\n        /* \"#utility.yul\":12247:12281   */\n      0x4174204c6561737420353025206f6620796f757220636f6e7472696275746f72\n        /* \"#utility.yul\":12243:12244   */\n      0x00\n        /* \"#utility.yul\":12235:12241   */\n      dup3\n        /* \"#utility.yul\":12231:12245   */\n      add\n        /* \"#utility.yul\":12224:12282   */\n      mstore\n        /* \"#utility.yul\":12316:12332   */\n      0x73206d75737420617070726f7665000000000000000000000000000000000000\n        /* \"#utility.yul\":12311:12313   */\n      0x20\n        /* \"#utility.yul\":12303:12309   */\n      dup3\n        /* \"#utility.yul\":12299:12314   */\n      add\n        /* \"#utility.yul\":12292:12333   */\n      mstore\n        /* \"#utility.yul\":12107:12340   */\n      pop\n      jump\t// out\n        /* \"#utility.yul\":12346:12712   */\n    tag_168:\n        /* \"#utility.yul\":12488:12491   */\n      0x00\n        /* \"#utility.yul\":12509:12576   */\n      tag_306\n        /* \"#utility.yul\":12573:12575   */\n      0x2e\n        /* \"#utility.yul\":12568:12571   */\n      dup4\n        /* \"#utility.yul\":12509:12576   */\n      tag_133\n      jump\t// in\n    tag_306:\n        /* \"#utility.yul\":12502:12576   */\n      swap2\n      pop\n        /* \"#utility.yul\":12585:12678   */\n      tag_307\n        /* \"#utility.yul\":12674:12677   */\n      dup3\n        /* \"#utility.yul\":12585:12678   */\n      tag_167\n      jump\t// in\n    tag_307:\n        /* \"#utility.yul\":12703:12705   */\n      0x40\n        /* \"#utility.yul\":12698:12701   */\n      dup3\n        /* \"#utility.yul\":12694:12706   */\n      add\n        /* \"#utility.yul\":12687:12706   */\n      swap1\n      pop\n        /* \"#utility.yul\":12346:12712   */\n      swap2\n      swap1\n      pop\n      jump\t// out\n        /* \"#utility.yul\":12718:13137   */\n    tag_102:\n        /* \"#utility.yul\":12884:12888   */\n      0x00\n        /* \"#utility.yul\":12922:12924   */\n      0x20\n        /* \"#utility.yul\":12911:12920   */\n      dup3\n        /* \"#utility.yul\":12907:12925   */\n      add\n        /* \"#utility.yul\":12899:12925   */\n      swap1\n      pop\n        /* \"#utility.yul\":12971:12980   */\n      dup2\n        /* \"#utility.yul\":12965:12969   */\n      dup2\n        /* \"#utility.yul\":12961:12981   */\n      sub\n        /* \"#utility.yul\":12957:12958   */\n      0x00\n        /* \"#utility.yul\":12946:12955   */\n      dup4\n        /* \"#utility.yul\":12942:12959   */\n      add\n        /* \"#utility.yul\":12935:12982   */\n      mstore\n        /* \"#utility.yul\":12999:13130   */\n      tag_309\n        /* \"#utility.yul\":13125:13129   */\n      dup2\n        /* \"#utility.yul\":12999:13130   */\n      tag_168\n      jump\t// in\n    tag_309:\n        /* \"#utility.yul\":12991:13130   */\n      swap1\n      pop\n        /* \"#utility.yul\":12718:13137   */\n      swap2\n      swap1\n      pop\n      jump\t// out\n        /* \"#utility.yul\":13143:13375   */\n    tag_169:\n        /* \"#utility.yul\":13283:13317   */\n      0x596f757220636f6e747269627574696f6e2069732062656c6f7720746865206d\n        /* \"#utility.yul\":13279:13280   */\n      0x00\n        /* \"#utility.yul\":13271:13277   */\n      dup3\n        /* \"#utility.yul\":13267:13281   */\n      add\n        /* \"#utility.yul\":13260:13318   */\n      mstore\n        /* \"#utility.yul\":13352:13367   */\n      0x696e696d756d20616d6f756e7400000000000000000000000000000000000000\n        /* \"#utility.yul\":13347:13349   */\n      0x20\n        /* \"#utility.yul\":13339:13345   */\n      dup3\n        /* \"#utility.yul\":13335:13350   */\n      add\n        /* \"#utility.yul\":13328:13368   */\n      mstore\n        /* \"#utility.yul\":13143:13375   */\n      pop\n      jump\t// out\n        /* \"#utility.yul\":13381:13747   */\n    tag_170:\n        /* \"#utility.yul\":13523:13526   */\n      0x00\n        /* \"#utility.yul\":13544:13611   */\n      tag_312\n        /* \"#utility.yul\":13608:13610   */\n      0x2d\n        /* \"#utility.yul\":13603:13606   */\n      dup4\n        /* \"#utility.yul\":13544:13611   */\n      tag_133\n      jump\t// in\n    tag_312:\n        /* \"#utility.yul\":13537:13611   */\n      swap2\n      pop\n        /* \"#utility.yul\":13620:13713   */\n      tag_313\n        /* \"#utility.yul\":13709:13712   */\n      dup3\n        /* \"#utility.yul\":13620:13713   */\n      tag_169\n      jump\t// in\n    tag_313:\n        /* \"#utility.yul\":13738:13740   */\n      0x40\n        /* \"#utility.yul\":13733:13736   */\n      dup3\n        /* \"#utility.yul\":13729:13741   */\n      add\n        /* \"#utility.yul\":13722:13741   */\n      swap1\n      pop\n        /* \"#utility.yul\":13381:13747   */\n      swap2\n      swap1\n      pop\n      jump\t// out\n        /* \"#utility.yul\":13753:14172   */\n    tag_109:\n        /* \"#utility.yul\":13919:13923   */\n      0x00\n        /* \"#utility.yul\":13957:13959   */\n      0x20\n        /* \"#utility.yul\":13946:13955   */\n      dup3\n        /* \"#utility.yul\":13942:13960   */\n      add\n        /* \"#utility.yul\":13934:13960   */\n      swap1\n      pop\n        /* \"#utility.yul\":14006:14015   */\n      dup2\n        /* \"#utility.yul\":14000:14004   */\n      dup2\n        /* \"#utility.yul\":13996:14016   */\n      sub\n        /* \"#utility.yul\":13992:13993   */\n      0x00\n        /* \"#utility.yul\":13981:13990   */\n      dup4\n        /* \"#utility.yul\":13977:13994   */\n      add\n        /* \"#utility.yul\":13970:14017   */\n      mstore\n        /* \"#utility.yul\":14034:14165   */\n      tag_315\n        /* \"#utility.yul\":14160:14164   */\n      dup2\n        /* \"#utility.yul\":14034:14165   */\n      tag_170\n      jump\t// in\n    tag_315:\n        /* \"#utility.yul\":14026:14165   */\n      swap1\n      pop\n        /* \"#utility.yul\":13753:14172   */\n      swap2\n      swap1\n      pop\n      jump\t// out\n        /* \"#utility.yul\":14178:14356   */\n    tag_171:\n        /* \"#utility.yul\":14318:14348   */\n      0x596f75206861766520616c726561647920636f6e747269627574656400000000\n        /* \"#utility.yul\":14314:14315   */\n      0x00\n        /* \"#utility.yul\":14306:14312   */\n      dup3\n        /* \"#utility.yul\":14302:14316   */\n      add\n        /* \"#utility.yul\":14295:14349   */\n      mstore\n        /* \"#utility.yul\":14178:14356   */\n      pop\n      jump\t// out\n        /* \"#utility.yul\":14362:14728   */\n    tag_172:\n        /* \"#utility.yul\":14504:14507   */\n      0x00\n        /* \"#utility.yul\":14525:14592   */\n      tag_318\n        /* \"#utility.yul\":14589:14591   */\n      0x1c\n        /* \"#utility.yul\":14584:14587   */\n      dup4\n        /* \"#utility.yul\":14525:14592   */\n      tag_133\n      jump\t// in\n    tag_318:\n        /* \"#utility.yul\":14518:14592   */\n      swap2\n      pop\n        /* \"#utility.yul\":14601:14694   */\n      tag_319\n        /* \"#utility.yul\":14690:14693   */\n      dup3\n        /* \"#utility.yul\":14601:14694   */\n      tag_171\n      jump\t// in\n    tag_319:\n        /* \"#utility.yul\":14719:14721   */\n      0x20\n        /* \"#utility.yul\":14714:14717   */\n      dup3\n        /* \"#utility.yul\":14710:14722   */\n      add\n        /* \"#utility.yul\":14703:14722   */\n      swap1\n      pop\n        /* \"#utility.yul\":14362:14728   */\n      swap2\n      swap1\n      pop\n      jump\t// out\n        /* \"#utility.yul\":14734:15153   */\n    tag_112:\n        /* \"#utility.yul\":14900:14904   */\n      0x00\n        /* \"#utility.yul\":14938:14940   */\n      0x20\n        /* \"#utility.yul\":14927:14936   */\n      dup3\n        /* \"#utility.yul\":14923:14941   */\n      add\n        /* \"#utility.yul\":14915:14941   */\n      swap1\n      pop\n        /* \"#utility.yul\":14987:14996   */\n      dup2\n        /* \"#utility.yul\":14981:14985   */\n      dup2\n        /* \"#utility.yul\":14977:14997   */\n      sub\n        /* \"#utility.yul\":14973:14974   */\n      0x00\n        /* \"#utility.yul\":14962:14971   */\n      dup4\n        /* \"#utility.yul\":14958:14975   */\n      add\n        /* \"#utility.yul\":14951:14998   */\n      mstore\n        /* \"#utility.yul\":15015:15146   */\n      tag_321\n        /* \"#utility.yul\":15141:15145   */\n      dup2\n        /* \"#utility.yul\":15015:15146   */\n      tag_172\n      jump\t// in\n    tag_321:\n        /* \"#utility.yul\":15007:15146   */\n      swap1\n      pop\n        /* \"#utility.yul\":14734:15153   */\n      swap2\n      swap1\n      pop\n      jump\t// out\n        /* \"#utility.yul\":15159:15388   */\n    tag_173:\n        /* \"#utility.yul\":15299:15333   */\n      0x4f6e6c7920436f6e7472696275746f72732063616e20617070726f7665207468\n        /* \"#utility.yul\":15295:15296   */\n      0x00\n        /* \"#utility.yul\":15287:15293   */\n      dup3\n        /* \"#utility.yul\":15283:15297   */\n      add\n        /* \"#utility.yul\":15276:15334   */\n      mstore\n        /* \"#utility.yul\":15368:15380   */\n      0x6973205265717565737400000000000000000000000000000000000000000000\n        /* \"#utility.yul\":15363:15365   */\n      0x20\n        /* \"#utility.yul\":15355:15361   */\n      dup3\n        /* \"#utility.yul\":15351:15366   */\n      add\n        /* \"#utility.yul\":15344:15381   */\n      mstore\n        /* \"#utility.yul\":15159:15388   */\n      pop\n      jump\t// out\n        /* \"#utility.yul\":15394:15760   */\n    tag_174:\n        /* \"#utility.yul\":15536:15539   */\n      0x00\n        /* \"#utility.yul\":15557:15624   */\n      tag_324\n        /* \"#utility.yul\":15621:15623   */\n      0x2a\n        /* \"#utility.yul\":15616:15619   */\n      dup4\n        /* \"#utility.yul\":15557:15624   */\n      tag_133\n      jump\t// in\n    tag_324:\n        /* \"#utility.yul\":15550:15624   */\n      swap2\n      pop\n        /* \"#utility.yul\":15633:15726   */\n      tag_325\n        /* \"#utility.yul\":15722:15725   */\n      dup3\n        /* \"#utility.yul\":15633:15726   */\n      tag_173\n      jump\t// in\n    tag_325:\n        /* \"#utility.yul\":15751:15753   */\n      0x40\n        /* \"#utility.yul\":15746:15749   */\n      dup3\n        /* \"#utility.yul\":15742:15754   */\n      add\n        /* \"#utility.yul\":15735:15754   */\n      swap1\n      pop\n        /* \"#utility.yul\":15394:15760   */\n      swap2\n      swap1\n      pop\n      jump\t// out\n        /* \"#utility.yul\":15766:16185   */\n    tag_117:\n        /* \"#utility.yul\":15932:15936   */\n      0x00\n        /* \"#utility.yul\":15970:15972   */\n      0x20\n        /* \"#utility.yul\":15959:15968   */\n      dup3\n        /* \"#utility.yul\":15955:15973   */\n      add\n        /* \"#utility.yul\":15947:15973   */\n      swap1\n      pop\n        /* \"#utility.yul\":16019:16028   */\n      dup2\n        /* \"#utility.yul\":16013:16017   */\n      dup2\n        /* \"#utility.yul\":16009:16029   */\n      sub\n        /* \"#utility.yul\":16005:16006   */\n      0x00\n        /* \"#utility.yul\":15994:16003   */\n      dup4\n        /* \"#utility.yul\":15990:16007   */\n      add\n        /* \"#utility.yul\":15983:16030   */\n      mstore\n        /* \"#utility.yul\":16047:16178   */\n      tag_327\n        /* \"#utility.yul\":16173:16177   */\n      dup2\n        /* \"#utility.yul\":16047:16178   */\n      tag_174\n      jump\t// in\n    tag_327:\n        /* \"#utility.yul\":16039:16178   */\n      swap1\n      pop\n        /* \"#utility.yul\":15766:16185   */\n      swap2\n      swap1\n      pop\n      jump\t// out\n        /* \"#utility.yul\":16191:16416   */\n    tag_175:\n        /* \"#utility.yul\":16331:16365   */\n      0x596f75206861766520616c726561647920617070726f76656420746869732052\n        /* \"#utility.yul\":16327:16328   */\n      0x00\n        /* \"#utility.yul\":16319:16325   */\n      dup3\n        /* \"#utility.yul\":16315:16329   */\n      add\n        /* \"#utility.yul\":16308:16366   */\n      mstore\n        /* \"#utility.yul\":16400:16408   */\n      0x6571756573740000000000000000000000000000000000000000000000000000\n        /* \"#utility.yul\":16395:16397   */\n      0x20\n        /* \"#utility.yul\":16387:16393   */\n      dup3\n        /* \"#utility.yul\":16383:16398   */\n      add\n        /* \"#utility.yul\":16376:16409   */\n      mstore\n        /* \"#utility.yul\":16191:16416   */\n      pop\n      jump\t// out\n        /* \"#utility.yul\":16422:16788   */\n    tag_176:\n        /* \"#utility.yul\":16564:16567   */\n      0x00\n        /* \"#utility.yul\":16585:16652   */\n      tag_330\n        /* \"#utility.yul\":16649:16651   */\n      0x26\n        /* \"#utility.yul\":16644:16647   */\n      dup4\n        /* \"#utility.yul\":16585:16652   */\n      tag_133\n      jump\t// in\n    tag_330:\n        /* \"#utility.yul\":16578:16652   */\n      swap2\n      pop\n        /* \"#utility.yul\":16661:16754   */\n      tag_331\n        /* \"#utility.yul\":16750:16753   */\n      dup3\n        /* \"#utility.yul\":16661:16754   */\n      tag_175\n      jump\t// in\n    tag_331:\n        /* \"#utility.yul\":16779:16781   */\n      0x40\n        /* \"#utility.yul\":16774:16777   */\n      dup3\n        /* \"#utility.yul\":16770:16782   */\n      add\n        /* \"#utility.yul\":16763:16782   */\n      swap1\n      pop\n        /* \"#utility.yul\":16422:16788   */\n      swap2\n      swap1\n      pop\n      jump\t// out\n        /* \"#utility.yul\":16794:17213   */\n    tag_120:\n        /* \"#utility.yul\":16960:16964   */\n      0x00\n        /* \"#utility.yul\":16998:17000   */\n      0x20\n        /* \"#utility.yul\":16987:16996   */\n      dup3\n        /* \"#utility.yul\":16983:17001   */\n      add\n        /* \"#utility.yul\":16975:17001   */\n      swap1\n      pop\n        /* \"#utility.yul\":17047:17056   */\n      dup2\n        /* \"#utility.yul\":17041:17045   */\n      dup2\n        /* \"#utility.yul\":17037:17057   */\n      sub\n        /* \"#utility.yul\":17033:17034   */\n      0x00\n        /* \"#utility.yul\":17022:17031   */\n      dup4\n        /* \"#utility.yul\":17018:17035   */\n      add\n        /* \"#utility.yul\":17011:17058   */\n      mstore\n        /* \"#utility.yul\":17075:17206   */\n      tag_333\n        /* \"#utility.yul\":17201:17205   */\n      dup2\n        /* \"#utility.yul\":17075:17206   */\n      tag_176\n      jump\t// in\n    tag_333:\n        /* \"#utility.yul\":17067:17206   */\n      swap1\n      pop\n        /* \"#utility.yul\":16794:17213   */\n      swap2\n      swap1\n      pop\n      jump\t// out\n\n    auxdata: 0xa2646970667358221220d6c09647117300bcb22d7895bf4c5d2e00ddfd8e7e44a387d94edb233bc7187964736f6c634300080b0033\n}\n","bytecode":{"linkReferences":{},"object":"60806040523480156200001157600080fd5b5060405162001a3f38038062001a3f83398181016040528101906200003791906200038e565b81600460006101000a81548173ffffffffffffffffffffffffffffffffffffffff021916908373ffffffffffffffffffffffffffffffffffffffff16021790555082600581905550806000908051906020019062000097929190620000a1565b505050506200046e565b828054620000af9062000438565b90600052602060002090601f016020900481019282620000d357600085556200011f565b82601f10620000ee57805160ff19168380011785556200011f565b828001600101855582156200011f579182015b828111156200011e57825182559160200191906001019062000101565b5b5090506200012e919062000132565b5090565b5b808211156200014d57600081600090555060010162000133565b5090565b6000604051905090565b600080fd5b600080fd5b6000819050919050565b6200017a8162000165565b81146200018657600080fd5b50565b6000815190506200019a816200016f565b92915050565b600073ffffffffffffffffffffffffffffffffffffffff82169050919050565b6000620001cd82620001a0565b9050919050565b620001df81620001c0565b8114620001eb57600080fd5b50565b600081519050620001ff81620001d4565b92915050565b600080fd5b600080fd5b6000601f19601f8301169050919050565b7f4e487b7100000000000000000000000000000000000000000000000000000000600052604160045260246000fd5b6200025a826200020f565b810181811067ffffffffffffffff821117156200027c576200027b62000220565b5b80604052505050565b60006200029162000151565b90506200029f82826200024f565b919050565b600067ffffffffffffffff821115620002c257620002c162000220565b5b620002cd826200020f565b9050602081019050919050565b60005b83811015620002fa578082015181840152602081019050620002dd565b838111156200030a576000848401525b50505050565b6000620003276200032184620002a4565b62000285565b9050828152602081018484840111156200034657620003456200020a565b5b62000353848285620002da565b509392505050565b600082601f83011262000373576200037262000205565b5b81516200038584826020860162000310565b91505092915050565b600080600060608486031215620003aa57620003a96200015b565b5b6000620003ba8682870162000189565b9350506020620003cd86828701620001ee565b925050604084015167ffffffffffffffff811115620003f157620003f062000160565b5b620003ff868287016200035b565b9150509250925092565b7f4e487b7100000000000000000000000000000000000000000000000000000000600052602260045260246000fd5b600060028204905060018216806200045157607f821691505b6020821081141562000468576200046762000409565b5b50919050565b6115c1806200047e6000396000f3fe6080604052600436106100a75760003560e01c80638a9cfd55116100645780638a9cfd55146101d65780638f9a6fee146101ff578063937e09b11461021b578063a00c96d714610246578063d7bb99ba14610275578063d7d1bbdb1461027f576100a7565b80630724fda9146100ac5780631f6d4942146100d7578063278d2ee014610114578063481c6a751461013f5780637569b3d71461016a57806381d12c5814610195575b600080fd5b3480156100b857600080fd5b506100c16102a8565b6040516100ce9190610c7b565b60405180910390f35b3480156100e357600080fd5b506100fe60048036038101906100f99190610d0f565b610336565b60405161010b9190610d57565b60405180910390f35b34801561012057600080fd5b50610129610356565b6040516101369190610d8b565b60405180910390f35b34801561014b57600080fd5b5061015461035c565b6040516101619190610db5565b60405180910390f35b34801561017657600080fd5b5061017f610382565b60405161018c9190610d8b565b60405180910390f35b3480156101a157600080fd5b506101bc60048036038101906101b79190610dfc565b610388565b6040516101cd959493929190610e29565b60405180910390f35b3480156101e257600080fd5b506101fd60048036038101906101f89190610fb8565b610473565b005b61021960048036038101906102149190610dfc565b61061c565b005b34801561022757600080fd5b506102306107f9565b60405161023d9190610d8b565b60405180910390f35b34801561025257600080fd5b5061025b6107ff565b60405161026c959493929190611027565b60405180910390f35b61027d610845565b005b34801561028b57600080fd5b506102a660048036038101906102a19190610dfc565b61098e565b005b600080546102b5906110a9565b80601f01602080910402602001604051908101604052809291908181526020018280546102e1906110a9565b801561032e5780601f106103035761010080835404028352916020019161032e565b820191906000526020600020905b81548152906001019060200180831161031157829003601f168201915b505050505081565b60066020528060005260406000206000915054906101000a900460ff1681565b60025481565b600460009054906101000a900473ffffffffffffffffffffffffffffffffffffffff1681565b60015481565b60036020528060005260406000206000915090508060000180546103ab906110a9565b80601f01602080910402602001604051908101604052809291908181526020018280546103d7906110a9565b80156104245780601f106103f957610100808354040283529160200191610424565b820191906000526020600020905b81548152906001019060200180831161040757829003601f168201915b5050505050908060010154908060020160009054906101000a900473ffffffffffffffffffffffffffffffffffffffff16908060020160149054906101000a900460ff16908060030154905085565b600460009054906101000a900473ffffffffffffffffffffffffffffffffffffffff1673ffffffffffffffffffffffffffffffffffffffff163373ffffffffffffffffffffffffffffffffffffffff1614610503576040517f08c379a00000000000000000000000000000000000000000000000000000000081526004016104fa9061114d565b60405180910390fd5b6000600360006002600081548092919061051c9061119c565b919050558152602001908152602001600020905083816000019080519060200190610548929190610b3f565b50828160010181905550818160020160006101000a81548173ffffffffffffffffffffffffffffffffffffffff021916908373ffffffffffffffffffffffffffffffffffffffff16021790555060008160020160146101000a81548160ff0219169083151502179055506000816003018190555060008160040160003373ffffffffffffffffffffffffffffffffffffffff1673ffffffffffffffffffffffffffffffffffffffff16815260200190815260200160002060006101000a81548160ff02191690831515021790555050505050565b600460009054906101000a900473ffffffffffffffffffffffffffffffffffffffff1673ffffffffffffffffffffffffffffffffffffffff163373ffffffffffffffffffffffffffffffffffffffff16146106ac576040517f08c379a00000000000000000000000000000000000000000000000000000000081526004016106a39061114d565b60405180910390fd5b60006003600083815260200190815260200160002090508060020160149054906101000a900460ff1615610715576040517f08c379a000000000000000000000000000000000000000000000000000000000815260040161070c90611257565b60405180910390fd5b600260015461072491906112a6565b816003015411610769576040517f08c379a000000000000000000000000000000000000000000000000000000000815260040161076090611349565b60405180910390fd5b60018160020160146101000a81548160ff0219169083151502179055508060020160009054906101000a900473ffffffffffffffffffffffffffffffffffffffff1673ffffffffffffffffffffffffffffffffffffffff166108fc82600101549081150290604051600060405180830381858888f193505050501580156107f4573d6000803e3d6000fd5b505050565b60055481565b600080600080600060055447600154600254600460009054906101000a900473ffffffffffffffffffffffffffffffffffffffff16945094509450945094509091929394565b6005543411610889576040517f08c379a0000000000000000000000000000000000000000000000000000000008152600401610880906113db565b60405180910390fd5b60001515600660003373ffffffffffffffffffffffffffffffffffffffff1673ffffffffffffffffffffffffffffffffffffffff16815260200190815260200160002060009054906101000a900460ff1615151461091c576040517f08c379a000000000000000000000000000000000000000000000000000000000815260040161091390611447565b60405180910390fd5b6001600660003373ffffffffffffffffffffffffffffffffffffffff1673ffffffffffffffffffffffffffffffffffffffff16815260200190815260200160002060006101000a81548160ff021916908315150217905550600160008154809291906109879061119c565b9190505550565b600060036000838152602001908152602001600020905060011515600660003373ffffffffffffffffffffffffffffffffffffffff1673ffffffffffffffffffffffffffffffffffffffff16815260200190815260200160002060009054906101000a900460ff16151514610a38576040517f08c379a0000000000000000000000000000000000000000000000000000000008152600401610a2f906114d9565b60405180910390fd5b8060040160003373ffffffffffffffffffffffffffffffffffffffff1673ffffffffffffffffffffffffffffffffffffffff16815260200190815260200160002060009054906101000a900460ff1615610ac7576040517f08c379a0000000000000000000000000000000000000000000000000000000008152600401610abe9061156b565b60405180910390fd5b60018160040160003373ffffffffffffffffffffffffffffffffffffffff1673ffffffffffffffffffffffffffffffffffffffff16815260200190815260200160002060006101000a81548160ff021916908315150217905550806003016000815480929190610b369061119c565b91905055505050565b828054610b4b906110a9565b90600052602060002090601f016020900481019282610b6d5760008555610bb4565b82601f10610b8657805160ff1916838001178555610bb4565b82800160010185558215610bb4579182015b82811115610bb3578251825591602001919060010190610b98565b5b509050610bc19190610bc5565b5090565b5b80821115610bde576000816000905550600101610bc6565b5090565b600081519050919050565b600082825260208201905092915050565b60005b83811015610c1c578082015181840152602081019050610c01565b83811115610c2b576000848401525b50505050565b6000601f19601f8301169050919050565b6000610c4d82610be2565b610c578185610bed565b9350610c67818560208601610bfe565b610c7081610c31565b840191505092915050565b60006020820190508181036000830152610c958184610c42565b905092915050565b6000604051905090565b600080fd5b600080fd5b600073ffffffffffffffffffffffffffffffffffffffff82169050919050565b6000610cdc82610cb1565b9050919050565b610cec81610cd1565b8114610cf757600080fd5b50565b600081359050610d0981610ce3565b92915050565b600060208284031215610d2557610d24610ca7565b5b6000610d3384828501610cfa565b91505092915050565b60008115159050919050565b610d5181610d3c565b82525050565b6000602082019050610d6c6000830184610d48565b92915050565b6000819050919050565b610d8581610d72565b82525050565b6000602082019050610da06000830184610d7c565b92915050565b610daf81610cd1565b82525050565b6000602082019050610dca6000830184610da6565b92915050565b610dd981610d72565b8114610de457600080fd5b50565b600081359050610df681610dd0565b92915050565b600060208284031215610e1257610e11610ca7565b5b6000610e2084828501610de7565b91505092915050565b600060a0820190508181036000830152610e438188610c42565b9050610e526020830187610d7c565b610e5f6040830186610da6565b610e6c6060830185610d48565b610e796080830184610d7c565b9695505050505050565b600080fd5b600080fd5b7f4e487b7100000000000000000000000000000000000000000000000000000000600052604160045260246000fd5b610ec582610c31565b810181811067ffffffffffffffff82111715610ee457610ee3610e8d565b5b80604052505050565b6000610ef7610c9d565b9050610f038282610ebc565b919050565b600067ffffffffffffffff821115610f2357610f22610e8d565b5b610f2c82610c31565b9050602081019050919050565b82818337600083830152505050565b6000610f5b610f5684610f08565b610eed565b905082815260208101848484011115610f7757610f76610e88565b5b610f82848285610f39565b509392505050565b600082601f830112610f9f57610f9e610e83565b5b8135610faf848260208601610f48565b91505092915050565b600080600060608486031215610fd157610fd0610ca7565b5b600084013567ffffffffffffffff811115610fef57610fee610cac565b5b610ffb86828701610f8a565b935050602061100c86828701610de7565b925050604061101d86828701610cfa565b9150509250925092565b600060a08201905061103c6000830188610d7c565b6110496020830187610d7c565b6110566040830186610d7c565b6110636060830185610d7c565b6110706080830184610da6565b9695505050505050565b7f4e487b7100000000000000000000000000000000000000000000000000000000600052602260045260246000fd5b600060028204905060018216806110c157607f821691505b602082108114156110d5576110d461107a565b5b50919050565b7f4f6e6c7920746865204d616e616765722063616e20706572666f726d2074686960008201527f7320616374696f6e000000000000000000000000000000000000000000000000602082015250565b6000611137602883610bed565b9150611142826110db565b604082019050919050565b600060208201905081810360008301526111668161112a565b9050919050565b7f4e487b7100000000000000000000000000000000000000000000000000000000600052601160045260246000fd5b60006111a782610d72565b91507fffffffffffffffffffffffffffffffffffffffffffffffffffffffffffffffff8214156111da576111d961116d565b5b600182019050919050565b7f596f75206861766520616c726561647920636f6e6669726d656420746865206160008201527f7070726f76616c206f6620746869732052657175657374000000000000000000602082015250565b6000611241603783610bed565b915061124c826111e5565b604082019050919050565b6000602082019050818103600083015261127081611234565b9050919050565b7f4e487b7100000000000000000000000000000000000000000000000000000000600052601260045260246000fd5b60006112b182610d72565b91506112bc83610d72565b9250826112cc576112cb611277565b5b828204905092915050565b7f4174204c6561737420353025206f6620796f757220636f6e7472696275746f7260008201527f73206d75737420617070726f7665000000000000000000000000000000000000602082015250565b6000611333602e83610bed565b915061133e826112d7565b604082019050919050565b6000602082019050818103600083015261136281611326565b9050919050565b7f596f757220636f6e747269627574696f6e2069732062656c6f7720746865206d60008201527f696e696d756d20616d6f756e7400000000000000000000000000000000000000602082015250565b60006113c5602d83610bed565b91506113d082611369565b604082019050919050565b600060208201905081810360008301526113f4816113b8565b9050919050565b7f596f75206861766520616c726561647920636f6e747269627574656400000000600082015250565b6000611431601c83610bed565b915061143c826113fb565b602082019050919050565b6000602082019050818103600083015261146081611424565b9050919050565b7f4f6e6c7920436f6e7472696275746f72732063616e20617070726f766520746860008201527f6973205265717565737400000000000000000000000000000000000000000000602082015250565b60006114c3602a83610bed565b91506114ce82611467565b604082019050919050565b600060208201905081810360008301526114f2816114b6565b9050919050565b7f596f75206861766520616c726561647920617070726f7665642074686973205260008201527f6571756573740000000000000000000000000000000000000000000000000000602082015250565b6000611555602683610bed565b9150611560826114f9565b604082019050919050565b6000602082019050818103600083015261158481611548565b905091905056fea2646970667358221220d6c09647117300bcb22d7895bf4c5d2e00ddfd8e7e44a387d94edb233bc7187964736f6c634300080b0033","opcodes":"PUSH1 0x80 PUSH1 0x40 MSTORE CALLVALUE DUP1 ISZERO PUSH3 0x11 JUMPI PUSH1 0x0 DUP1 REVERT JUMPDEST POP PUSH1 0x40 MLOAD PUSH3 0x1A3F CODESIZE SUB DUP1 PUSH3 0x1A3F DUP4 CODECOPY DUP2 DUP2 ADD PUSH1 0x40 MSTORE DUP2 ADD SWAP1 PUSH3 0x37 SWAP2 SWAP1 PUSH3 0x38E JUMP JUMPDEST DUP2 PUSH1 0x4 PUSH1 0x0 PUSH2 0x100 EXP DUP2 SLOAD DUP2 PUSH20 0xFFFFFFFFFFFFFFFFFFFFFFFFFFFFFFFFFFFFFFFF MUL NOT AND SWAP1 DUP4 PUSH20 0xFFFFFFFFFFFFFFFFFFFFFFFFFFFFFFFFFFFFFFFF AND MUL OR SWAP1 SSTORE POP DUP3 PUSH1 0x5 DUP2 SWAP1 SSTORE POP DUP1 PUSH1 0x0 SWAP1 DUP1 MLOAD SWAP1 PUSH1 0x20 ADD SWAP1 PUSH3 0x97 SWAP3 SWAP2 SWAP1 PUSH3 0xA1 JUMP JUMPDEST POP POP POP POP PUSH3 0x46E JUMP JUMPDEST DUP3 DUP1 SLOAD PUSH3 0xAF SWAP1 PUSH3 0x438 JUMP JUMPDEST SWAP1 PUSH1 0x0 MSTORE PUSH1 0x20 PUSH1 0x0 KECCAK256 SWAP1 PUSH1 0x1F ADD PUSH1 0x20 SWAP1 DIV DUP2 ADD SWAP3 DUP3 PUSH3 0xD3 JUMPI PUSH1 0x0 DUP6 SSTORE PUSH3 0x11F JUMP JUMPDEST DUP3 PUSH1 0x1F LT PUSH3 0xEE JUMPI DUP1 MLOAD PUSH1 0xFF NOT AND DUP4 DUP1 ADD OR DUP6 SSTORE PUSH3 0x11F JUMP JUMPDEST DUP3 DUP1 ADD PUSH1 0x1 ADD DUP6 SSTORE DUP3 ISZERO PUSH3 0x11F JUMPI SWAP2 DUP3 ADD JUMPDEST DUP3 DUP2 GT ISZERO PUSH3 0x11E JUMPI DUP3 MLOAD DUP3 SSTORE SWAP2 PUSH1 0x20 ADD SWAP2 SWAP1 PUSH1 0x1 ADD SWAP1 PUSH3 0x101 JUMP JUMPDEST JUMPDEST POP SWAP1 POP PUSH3 0x12E SWAP2 SWAP1 PUSH3 0x132 JUMP JUMPDEST POP SWAP1 JUMP JUMPDEST JUMPDEST DUP1 DUP3 GT ISZERO PUSH3 0x14D JUMPI PUSH1 0x0 DUP2 PUSH1 0x0 SWAP1 SSTORE POP PUSH1 0x1 ADD PUSH3 0x133 JUMP JUMPDEST POP SWAP1 JUMP JUMPDEST PUSH1 0x0 PUSH1 0x40 MLOAD SWAP1 POP SWAP1 JUMP JUMPDEST PUSH1 0x0 DUP1 REVERT JUMPDEST PUSH1 0x0 DUP1 REVERT JUMPDEST PUSH1 0x0 DUP2 SWAP1 POP SWAP2 SWAP1 POP JUMP JUMPDEST PUSH3 0x17A DUP2 PUSH3 0x165 JUMP JUMPDEST DUP2 EQ PUSH3 0x186 JUMPI PUSH1 0x0 DUP1 REVERT JUMPDEST POP JUMP JUMPDEST PUSH1 0x0 DUP2 MLOAD SWAP1 POP PUSH3 0x19A DUP2 PUSH3 0x16F JUMP JUMPDEST SWAP3 SWAP2 POP POP JUMP JUMPDEST PUSH1 0x0 PUSH20 0xFFFFFFFFFFFFFFFFFFFFFFFFFFFFFFFFFFFFFFFF DUP3 AND SWAP1 POP SWAP2 SWAP1 POP JUMP JUMPDEST PUSH1 0x0 PUSH3 0x1CD DUP3 PUSH3 0x1A0 JUMP JUMPDEST SWAP1 POP SWAP2 SWAP1 POP JUMP JUMPDEST PUSH3 0x1DF DUP2 PUSH3 0x1C0 JUMP JUMPDEST DUP2 EQ PUSH3 0x1EB JUMPI PUSH1 0x0 DUP1 REVERT JUMPDEST POP JUMP JUMPDEST PUSH1 0x0 DUP2 MLOAD SWAP1 POP PUSH3 0x1FF DUP2 PUSH3 0x1D4 JUMP JUMPDEST SWAP3 SWAP2 POP POP JUMP JUMPDEST PUSH1 0x0 DUP1 REVERT JUMPDEST PUSH1 0x0 DUP1 REVERT JUMPDEST PUSH1 0x0 PUSH1 0x1F NOT PUSH1 0x1F DUP4 ADD AND SWAP1 POP SWAP2 SWAP1 POP JUMP JUMPDEST PUSH32 0x4E487B7100000000000000000000000000000000000000000000000000000000 PUSH1 0x0 MSTORE PUSH1 0x41 PUSH1 0x4 MSTORE PUSH1 0x24 PUSH1 0x0 REVERT JUMPDEST PUSH3 0x25A DUP3 PUSH3 0x20F JUMP JUMPDEST DUP2 ADD DUP2 DUP2 LT PUSH8 0xFFFFFFFFFFFFFFFF DUP3 GT OR ISZERO PUSH3 0x27C JUMPI PUSH3 0x27B PUSH3 0x220 JUMP JUMPDEST JUMPDEST DUP1 PUSH1 0x40 MSTORE POP POP POP JUMP JUMPDEST PUSH1 0x0 PUSH3 0x291 PUSH3 0x151 JUMP JUMPDEST SWAP1 POP PUSH3 0x29F DUP3 DUP3 PUSH3 0x24F JUMP JUMPDEST SWAP2 SWAP1 POP JUMP JUMPDEST PUSH1 0x0 PUSH8 0xFFFFFFFFFFFFFFFF DUP3 GT ISZERO PUSH3 0x2C2 JUMPI PUSH3 0x2C1 PUSH3 0x220 JUMP JUMPDEST JUMPDEST PUSH3 0x2CD DUP3 PUSH3 0x20F JUMP JUMPDEST SWAP1 POP PUSH1 0x20 DUP2 ADD SWAP1 POP SWAP2 SWAP1 POP JUMP JUMPDEST PUSH1 0x0 JUMPDEST DUP4 DUP2 LT ISZERO PUSH3 0x2FA JUMPI DUP1 DUP3 ADD MLOAD DUP2 DUP5 ADD MSTORE PUSH1 0x20 DUP2 ADD SWAP1 POP PUSH3 0x2DD JUMP JUMPDEST DUP4 DUP2 GT ISZERO PUSH3 0x30A JUMPI PUSH1 0x0 DUP5 DUP5 ADD MSTORE JUMPDEST POP POP POP POP JUMP JUMPDEST PUSH1 0x0 PUSH3 0x327 PUSH3 0x321 DUP5 PUSH3 0x2A4 JUMP JUMPDEST PUSH3 0x285 JUMP JUMPDEST SWAP1 POP DUP3 DUP2 MSTORE PUSH1 0x20 DUP2 ADD DUP5 DUP5 DUP5 ADD GT ISZERO PUSH3 0x346 JUMPI PUSH3 0x345 PUSH3 0x20A JUMP JUMPDEST JUMPDEST PUSH3 0x353 DUP5 DUP3 DUP6 PUSH3 0x2DA JUMP JUMPDEST POP SWAP4 SWAP3 POP POP POP JUMP JUMPDEST PUSH1 0x0 DUP3 PUSH1 0x1F DUP4 ADD SLT PUSH3 0x373 JUMPI PUSH3 0x372 PUSH3 0x205 JUMP JUMPDEST JUMPDEST DUP2 MLOAD PUSH3 0x385 DUP5 DUP3 PUSH1 0x20 DUP7 ADD PUSH3 0x310 JUMP JUMPDEST SWAP2 POP POP SWAP3 SWAP2 POP POP JUMP JUMPDEST PUSH1 0x0 DUP1 PUSH1 0x0 PUSH1 0x60 DUP5 DUP7 SUB SLT ISZERO PUSH3 0x3AA JUMPI PUSH3 0x3A9 PUSH3 0x15B JUMP JUMPDEST JUMPDEST PUSH1 0x0 PUSH3 0x3BA DUP7 DUP3 DUP8 ADD PUSH3 0x189 JUMP JUMPDEST SWAP4 POP POP PUSH1 0x20 PUSH3 0x3CD DUP7 DUP3 DUP8 ADD PUSH3 0x1EE JUMP JUMPDEST SWAP3 POP POP PUSH1 0x40 DUP5 ADD MLOAD PUSH8 0xFFFFFFFFFFFFFFFF DUP2 GT ISZERO PUSH3 0x3F1 JUMPI PUSH3 0x3F0 PUSH3 0x160 JUMP JUMPDEST JUMPDEST PUSH3 0x3FF DUP7 DUP3 DUP8 ADD PUSH3 0x35B JUMP JUMPDEST SWAP2 POP POP SWAP3 POP SWAP3 POP SWAP3 JUMP JUMPDEST PUSH32 0x4E487B7100000000000000000000000000000000000000000000000000000000 PUSH1 0x0 MSTORE PUSH1 0x22 PUSH1 0x4 MSTORE PUSH1 0x24 PUSH1 0x0 REVERT JUMPDEST PUSH1 0x0 PUSH1 0x2 DUP3 DIV SWAP1 POP PUSH1 0x1 DUP3 AND DUP1 PUSH3 0x451 JUMPI PUSH1 0x7F DUP3 AND SWAP2 POP JUMPDEST PUSH1 0x20 DUP3 LT DUP2 EQ ISZERO PUSH3 0x468 JUMPI PUSH3 0x467 PUSH3 0x409 JUMP JUMPDEST JUMPDEST POP SWAP2 SWAP1 POP JUMP JUMPDEST PUSH2 0x15C1 DUP1 PUSH3 0x47E PUSH1 0x0 CODECOPY PUSH1 0x0 RETURN INVALID PUSH1 0x80 PUSH1 0x40 MSTORE PUSH1 0x4 CALLDATASIZE LT PUSH2 0xA7 JUMPI PUSH1 0x0 CALLDATALOAD PUSH1 0xE0 SHR DUP1 PUSH4 0x8A9CFD55 GT PUSH2 0x64 JUMPI DUP1 PUSH4 0x8A9CFD55 EQ PUSH2 0x1D6 JUMPI DUP1 PUSH4 0x8F9A6FEE EQ PUSH2 0x1FF JUMPI DUP1 PUSH4 0x937E09B1 EQ PUSH2 0x21B JUMPI DUP1 PUSH4 0xA00C96D7 EQ PUSH2 0x246 JUMPI DUP1 PUSH4 0xD7BB99BA EQ PUSH2 0x275 JUMPI DUP1 PUSH4 0xD7D1BBDB EQ PUSH2 0x27F JUMPI PUSH2 0xA7 JUMP JUMPDEST DUP1 PUSH4 0x724FDA9 EQ PUSH2 0xAC JUMPI DUP1 PUSH4 0x1F6D4942 EQ PUSH2 0xD7 JUMPI DUP1 PUSH4 0x278D2EE0 EQ PUSH2 0x114 JUMPI DUP1 PUSH4 0x481C6A75 EQ PUSH2 0x13F JUMPI DUP1 PUSH4 0x7569B3D7 EQ PUSH2 0x16A JUMPI DUP1 PUSH4 0x81D12C58 EQ PUSH2 0x195 JUMPI JUMPDEST PUSH1 0x0 DUP1 REVERT JUMPDEST CALLVALUE DUP1 ISZERO PUSH2 0xB8 JUMPI PUSH1 0x0 DUP1 REVERT JUMPDEST POP PUSH2 0xC1 PUSH2 0x2A8 JUMP JUMPDEST PUSH1 0x40 MLOAD PUSH2 0xCE SWAP2 SWAP1 PUSH2 0xC7B JUMP JUMPDEST PUSH1 0x40 MLOAD DUP1 SWAP2 SUB SWAP1 RETURN JUMPDEST CALLVALUE DUP1 ISZERO PUSH2 0xE3 JUMPI PUSH1 0x0 DUP1 REVERT JUMPDEST POP PUSH2 0xFE PUSH1 0x4 DUP1 CALLDATASIZE SUB DUP2 ADD SWAP1 PUSH2 0xF9 SWAP2 SWAP1 PUSH2 0xD0F JUMP JUMPDEST PUSH2 0x336 JUMP JUMPDEST PUSH1 0x40 MLOAD PUSH2 0x10B SWAP2 SWAP1 PUSH2 0xD57 JUMP JUMPDEST PUSH1 0x40 MLOAD DUP1 SWAP2 SUB SWAP1 RETURN JUMPDEST CALLVALUE DUP1 ISZERO PUSH2 0x120 JUMPI PUSH1 0x0 DUP1 REVERT JUMPDEST POP PUSH2 0x129 PUSH2 0x356 JUMP JUMPDEST PUSH1 0x40 MLOAD PUSH2 0x136 SWAP2 SWAP1 PUSH2 0xD8B JUMP JUMPDEST PUSH1 0x40 MLOAD DUP1 SWAP2 SUB SWAP1 RETURN JUMPDEST CALLVALUE DUP1 ISZERO PUSH2 0x14B JUMPI PUSH1 0x0 DUP1 REVERT JUMPDEST POP PUSH2 0x154 PUSH2 0x35C JUMP JUMPDEST PUSH1 0x40 MLOAD PUSH2 0x161 SWAP2 SWAP1 PUSH2 0xDB5 JUMP JUMPDEST PUSH1 0x40 MLOAD DUP1 SWAP2 SUB SWAP1 RETURN JUMPDEST CALLVALUE DUP1 ISZERO PUSH2 0x176 JUMPI PUSH1 0x0 DUP1 REVERT JUMPDEST POP PUSH2 0x17F PUSH2 0x382 JUMP JUMPDEST PUSH1 0x40 MLOAD PUSH2 0x18C SWAP2 SWAP1 PUSH2 0xD8B JUMP JUMPDEST PUSH1 0x40 MLOAD DUP1 SWAP2 SUB SWAP1 RETURN JUMPDEST CALLVALUE DUP1 ISZERO PUSH2 0x1A1 JUMPI PUSH1 0x0 DUP1 REVERT JUMPDEST POP PUSH2 0x1BC PUSH1 0x4 DUP1 CALLDATASIZE SUB DUP2 ADD SWAP1 PUSH2 0x1B7 SWAP2 SWAP1 PUSH2 0xDFC JUMP JUMPDEST PUSH2 0x388 JUMP JUMPDEST PUSH1 0x40 MLOAD PUSH2 0x1CD SWAP6 SWAP5 SWAP4 SWAP3 SWAP2 SWAP1 PUSH2 0xE29 JUMP JUMPDEST PUSH1 0x40 MLOAD DUP1 SWAP2 SUB SWAP1 RETURN JUMPDEST CALLVALUE DUP1 ISZERO PUSH2 0x1E2 JUMPI PUSH1 0x0 DUP1 REVERT JUMPDEST POP PUSH2 0x1FD PUSH1 0x4 DUP1 CALLDATASIZE SUB DUP2 ADD SWAP1 PUSH2 0x1F8 SWAP2 SWAP1 PUSH2 0xFB8 JUMP JUMPDEST PUSH2 0x473 JUMP JUMPDEST STOP JUMPDEST PUSH2 0x219 PUSH1 0x4 DUP1 CALLDATASIZE SUB DUP2 ADD SWAP1 PUSH2 0x214 SWAP2 SWAP1 PUSH2 0xDFC JUMP JUMPDEST PUSH2 0x61C JUMP JUMPDEST STOP JUMPDEST CALLVALUE DUP1 ISZERO PUSH2 0x227 JUMPI PUSH1 0x0 DUP1 REVERT JUMPDEST POP PUSH2 0x230 PUSH2 0x7F9 JUMP JUMPDEST PUSH1 0x40 MLOAD PUSH2 0x23D SWAP2 SWAP1 PUSH2 0xD8B JUMP JUMPDEST PUSH1 0x40 MLOAD DUP1 SWAP2 SUB SWAP1 RETURN JUMPDEST CALLVALUE DUP1 ISZERO PUSH2 0x252 JUMPI PUSH1 0x0 DUP1 REVERT JUMPDEST POP PUSH2 0x25B PUSH2 0x7FF JUMP JUMPDEST PUSH1 0x40 MLOAD PUSH2 0x26C SWAP6 SWAP5 SWAP4 SWAP3 SWAP2 SWAP1 PUSH2 0x1027 JUMP JUMPDEST PUSH1 0x40 MLOAD DUP1 SWAP2 SUB SWAP1 RETURN JUMPDEST PUSH2 0x27D PUSH2 0x845 JUMP JUMPDEST STOP JUMPDEST CALLVALUE DUP1 ISZERO PUSH2 0x28B JUMPI PUSH1 0x0 DUP1 REVERT JUMPDEST POP PUSH2 0x2A6 PUSH1 0x4 DUP1 CALLDATASIZE SUB DUP2 ADD SWAP1 PUSH2 0x2A1 SWAP2 SWAP1 PUSH2 0xDFC JUMP JUMPDEST PUSH2 0x98E JUMP JUMPDEST STOP JUMPDEST PUSH1 0x0 DUP1 SLOAD PUSH2 0x2B5 SWAP1 PUSH2 0x10A9 JUMP JUMPDEST DUP1 PUSH1 0x1F ADD PUSH1 0x20 DUP1 SWAP2 DIV MUL PUSH1 0x20 ADD PUSH1 0x40 MLOAD SWAP1 DUP2 ADD PUSH1 0x40 MSTORE DUP1 SWAP3 SWAP2 SWAP1 DUP2 DUP2 MSTORE PUSH1 0x20 ADD DUP3 DUP1 SLOAD PUSH2 0x2E1 SWAP1 PUSH2 0x10A9 JUMP JUMPDEST DUP1 ISZERO PUSH2 0x32E JUMPI DUP1 PUSH1 0x1F LT PUSH2 0x303 JUMPI PUSH2 0x100 DUP1 DUP4 SLOAD DIV MUL DUP4 MSTORE SWAP2 PUSH1 0x20 ADD SWAP2 PUSH2 0x32E JUMP JUMPDEST DUP3 ADD SWAP2 SWAP1 PUSH1 0x0 MSTORE PUSH1 0x20 PUSH1 0x0 KECCAK256 SWAP1 JUMPDEST DUP2 SLOAD DUP2 MSTORE SWAP1 PUSH1 0x1 ADD SWAP1 PUSH1 0x20 ADD DUP1 DUP4 GT PUSH2 0x311 JUMPI DUP3 SWAP1 SUB PUSH1 0x1F AND DUP3 ADD SWAP2 JUMPDEST POP POP POP POP POP DUP2 JUMP JUMPDEST PUSH1 0x6 PUSH1 0x20 MSTORE DUP1 PUSH1 0x0 MSTORE PUSH1 0x40 PUSH1 0x0 KECCAK256 PUSH1 0x0 SWAP2 POP SLOAD SWAP1 PUSH2 0x100 EXP SWAP1 DIV PUSH1 0xFF AND DUP2 JUMP JUMPDEST PUSH1 0x2 SLOAD DUP2 JUMP JUMPDEST PUSH1 0x4 PUSH1 0x0 SWAP1 SLOAD SWAP1 PUSH2 0x100 EXP SWAP1 DIV PUSH20 0xFFFFFFFFFFFFFFFFFFFFFFFFFFFFFFFFFFFFFFFF AND DUP2 JUMP JUMPDEST PUSH1 0x1 SLOAD DUP2 JUMP JUMPDEST PUSH1 0x3 PUSH1 0x20 MSTORE DUP1 PUSH1 0x0 MSTORE PUSH1 0x40 PUSH1 0x0 KECCAK256 PUSH1 0x0 SWAP2 POP SWAP1 POP DUP1 PUSH1 0x0 ADD DUP1 SLOAD PUSH2 0x3AB SWAP1 PUSH2 0x10A9 JUMP JUMPDEST DUP1 PUSH1 0x1F ADD PUSH1 0x20 DUP1 SWAP2 DIV MUL PUSH1 0x20 ADD PUSH1 0x40 MLOAD SWAP1 DUP2 ADD PUSH1 0x40 MSTORE DUP1 SWAP3 SWAP2 SWAP1 DUP2 DUP2 MSTORE PUSH1 0x20 ADD DUP3 DUP1 SLOAD PUSH2 0x3D7 SWAP1 PUSH2 0x10A9 JUMP JUMPDEST DUP1 ISZERO PUSH2 0x424 JUMPI DUP1 PUSH1 0x1F LT PUSH2 0x3F9 JUMPI PUSH2 0x100 DUP1 DUP4 SLOAD DIV MUL DUP4 MSTORE SWAP2 PUSH1 0x20 ADD SWAP2 PUSH2 0x424 JUMP JUMPDEST DUP3 ADD SWAP2 SWAP1 PUSH1 0x0 MSTORE PUSH1 0x20 PUSH1 0x0 KECCAK256 SWAP1 JUMPDEST DUP2 SLOAD DUP2 MSTORE SWAP1 PUSH1 0x1 ADD SWAP1 PUSH1 0x20 ADD DUP1 DUP4 GT PUSH2 0x407 JUMPI DUP3 SWAP1 SUB PUSH1 0x1F AND DUP3 ADD SWAP2 JUMPDEST POP POP POP POP POP SWAP1 DUP1 PUSH1 0x1 ADD SLOAD SWAP1 DUP1 PUSH1 0x2 ADD PUSH1 0x0 SWAP1 SLOAD SWAP1 PUSH2 0x100 EXP SWAP1 DIV PUSH20 0xFFFFFFFFFFFFFFFFFFFFFFFFFFFFFFFFFFFFFFFF AND SWAP1 DUP1 PUSH1 0x2 ADD PUSH1 0x14 SWAP1 SLOAD SWAP1 PUSH2 0x100 EXP SWAP1 DIV PUSH1 0xFF AND SWAP1 DUP1 PUSH1 0x3 ADD SLOAD SWAP1 POP DUP6 JUMP JUMPDEST PUSH1 0x4 PUSH1 0x0 SWAP1 SLOAD SWAP1 PUSH2 0x100 EXP SWAP1 DIV PUSH20 0xFFFFFFFFFFFFFFFFFFFFFFFFFFFFFFFFFFFFFFFF AND PUSH20 0xFFFFFFFFFFFFFFFFFFFFFFFFFFFFFFFFFFFFFFFF AND CALLER PUSH20 0xFFFFFFFFFFFFFFFFFFFFFFFFFFFFFFFFFFFFFFFF AND EQ PUSH2 0x503 JUMPI PUSH1 0x40 MLOAD PUSH32 0x8C379A000000000000000000000000000000000000000000000000000000000 DUP2 MSTORE PUSH1 0x4 ADD PUSH2 0x4FA SWAP1 PUSH2 0x114D JUMP JUMPDEST PUSH1 0x40 MLOAD DUP1 SWAP2 SUB SWAP1 REVERT JUMPDEST PUSH1 0x0 PUSH1 0x3 PUSH1 0x0 PUSH1 0x2 PUSH1 0x0 DUP2 SLOAD DUP1 SWAP3 SWAP2 SWAP1 PUSH2 0x51C SWAP1 PUSH2 0x119C JUMP JUMPDEST SWAP2 SWAP1 POP SSTORE DUP2 MSTORE PUSH1 0x20 ADD SWAP1 DUP2 MSTORE PUSH1 0x20 ADD PUSH1 0x0 KECCAK256 SWAP1 POP DUP4 DUP2 PUSH1 0x0 ADD SWAP1 DUP1 MLOAD SWAP1 PUSH1 0x20 ADD SWAP1 PUSH2 0x548 SWAP3 SWAP2 SWAP1 PUSH2 0xB3F JUMP JUMPDEST POP DUP3 DUP2 PUSH1 0x1 ADD DUP2 SWAP1 SSTORE POP DUP2 DUP2 PUSH1 0x2 ADD PUSH1 0x0 PUSH2 0x100 EXP DUP2 SLOAD DUP2 PUSH20 0xFFFFFFFFFFFFFFFFFFFFFFFFFFFFFFFFFFFFFFFF MUL NOT AND SWAP1 DUP4 PUSH20 0xFFFFFFFFFFFFFFFFFFFFFFFFFFFFFFFFFFFFFFFF AND MUL OR SWAP1 SSTORE POP PUSH1 0x0 DUP2 PUSH1 0x2 ADD PUSH1 0x14 PUSH2 0x100 EXP DUP2 SLOAD DUP2 PUSH1 0xFF MUL NOT AND SWAP1 DUP4 ISZERO ISZERO MUL OR SWAP1 SSTORE POP PUSH1 0x0 DUP2 PUSH1 0x3 ADD DUP2 SWAP1 SSTORE POP PUSH1 0x0 DUP2 PUSH1 0x4 ADD PUSH1 0x0 CALLER PUSH20 0xFFFFFFFFFFFFFFFFFFFFFFFFFFFFFFFFFFFFFFFF AND PUSH20 0xFFFFFFFFFFFFFFFFFFFFFFFFFFFFFFFFFFFFFFFF AND DUP2 MSTORE PUSH1 0x20 ADD SWAP1 DUP2 MSTORE PUSH1 0x20 ADD PUSH1 0x0 KECCAK256 PUSH1 0x0 PUSH2 0x100 EXP DUP2 SLOAD DUP2 PUSH1 0xFF MUL NOT AND SWAP1 DUP4 ISZERO ISZERO MUL OR SWAP1 SSTORE POP POP POP POP POP JUMP JUMPDEST PUSH1 0x4 PUSH1 0x0 SWAP1 SLOAD SWAP1 PUSH2 0x100 EXP SWAP1 DIV PUSH20 0xFFFFFFFFFFFFFFFFFFFFFFFFFFFFFFFFFFFFFFFF AND PUSH20 0xFFFFFFFFFFFFFFFFFFFFFFFFFFFFFFFFFFFFFFFF AND CALLER PUSH20 0xFFFFFFFFFFFFFFFFFFFFFFFFFFFFFFFFFFFFFFFF AND EQ PUSH2 0x6AC JUMPI PUSH1 0x40 MLOAD PUSH32 0x8C379A000000000000000000000000000000000000000000000000000000000 DUP2 MSTORE PUSH1 0x4 ADD PUSH2 0x6A3 SWAP1 PUSH2 0x114D JUMP JUMPDEST PUSH1 0x40 MLOAD DUP1 SWAP2 SUB SWAP1 REVERT JUMPDEST PUSH1 0x0 PUSH1 0x3 PUSH1 0x0 DUP4 DUP2 MSTORE PUSH1 0x20 ADD SWAP1 DUP2 MSTORE PUSH1 0x20 ADD PUSH1 0x0 KECCAK256 SWAP1 POP DUP1 PUSH1 0x2 ADD PUSH1 0x14 SWAP1 SLOAD SWAP1 PUSH2 0x100 EXP SWAP1 DIV PUSH1 0xFF AND ISZERO PUSH2 0x715 JUMPI PUSH1 0x40 MLOAD PUSH32 0x8C379A000000000000000000000000000000000000000000000000000000000 DUP2 MSTORE PUSH1 0x4 ADD PUSH2 0x70C SWAP1 PUSH2 0x1257 JUMP JUMPDEST PUSH1 0x40 MLOAD DUP1 SWAP2 SUB SWAP1 REVERT JUMPDEST PUSH1 0x2 PUSH1 0x1 SLOAD PUSH2 0x724 SWAP2 SWAP1 PUSH2 0x12A6 JUMP JUMPDEST DUP2 PUSH1 0x3 ADD SLOAD GT PUSH2 0x769 JUMPI PUSH1 0x40 MLOAD PUSH32 0x8C379A000000000000000000000000000000000000000000000000000000000 DUP2 MSTORE PUSH1 0x4 ADD PUSH2 0x760 SWAP1 PUSH2 0x1349 JUMP JUMPDEST PUSH1 0x40 MLOAD DUP1 SWAP2 SUB SWAP1 REVERT JUMPDEST PUSH1 0x1 DUP2 PUSH1 0x2 ADD PUSH1 0x14 PUSH2 0x100 EXP DUP2 SLOAD DUP2 PUSH1 0xFF MUL NOT AND SWAP1 DUP4 ISZERO ISZERO MUL OR SWAP1 SSTORE POP DUP1 PUSH1 0x2 ADD PUSH1 0x0 SWAP1 SLOAD SWAP1 PUSH2 0x100 EXP SWAP1 DIV PUSH20 0xFFFFFFFFFFFFFFFFFFFFFFFFFFFFFFFFFFFFFFFF AND PUSH20 0xFFFFFFFFFFFFFFFFFFFFFFFFFFFFFFFFFFFFFFFF AND PUSH2 0x8FC DUP3 PUSH1 0x1 ADD SLOAD SWAP1 DUP2 ISZERO MUL SWAP1 PUSH1 0x40 MLOAD PUSH1 0x0 PUSH1 0x40 MLOAD DUP1 DUP4 SUB DUP2 DUP6 DUP9 DUP9 CALL SWAP4 POP POP POP POP ISZERO DUP1 ISZERO PUSH2 0x7F4 JUMPI RETURNDATASIZE PUSH1 0x0 DUP1 RETURNDATACOPY RETURNDATASIZE PUSH1 0x0 REVERT JUMPDEST POP POP POP JUMP JUMPDEST PUSH1 0x5 SLOAD DUP2 JUMP JUMPDEST PUSH1 0x0 DUP1 PUSH1 0x0 DUP1 PUSH1 0x0 PUSH1 0x5 SLOAD SELFBALANCE PUSH1 0x1 SLOAD PUSH1 0x2 SLOAD PUSH1 0x4 PUSH1 0x0 SWAP1 SLOAD SWAP1 PUSH2 0x100 EXP SWAP1 DIV PUSH20 0xFFFFFFFFFFFFFFFFFFFFFFFFFFFFFFFFFFFFFFFF AND SWAP5 POP SWAP5 POP SWAP5 POP SWAP5 POP SWAP5 POP SWAP1 SWAP2 SWAP3 SWAP4 SWAP5 JUMP JUMPDEST PUSH1 0x5 SLOAD CALLVALUE GT PUSH2 0x889 JUMPI PUSH1 0x40 MLOAD PUSH32 0x8C379A000000000000000000000000000000000000000000000000000000000 DUP2 MSTORE PUSH1 0x4 ADD PUSH2 0x880 SWAP1 PUSH2 0x13DB JUMP JUMPDEST PUSH1 0x40 MLOAD DUP1 SWAP2 SUB SWAP1 REVERT JUMPDEST PUSH1 0x0 ISZERO ISZERO PUSH1 0x6 PUSH1 0x0 CALLER PUSH20 0xFFFFFFFFFFFFFFFFFFFFFFFFFFFFFFFFFFFFFFFF AND PUSH20 0xFFFFFFFFFFFFFFFFFFFFFFFFFFFFFFFFFFFFFFFF AND DUP2 MSTORE PUSH1 0x20 ADD SWAP1 DUP2 MSTORE PUSH1 0x20 ADD PUSH1 0x0 KECCAK256 PUSH1 0x0 SWAP1 SLOAD SWAP1 PUSH2 0x100 EXP SWAP1 DIV PUSH1 0xFF AND ISZERO ISZERO EQ PUSH2 0x91C JUMPI PUSH1 0x40 MLOAD PUSH32 0x8C379A000000000000000000000000000000000000000000000000000000000 DUP2 MSTORE PUSH1 0x4 ADD PUSH2 0x913 SWAP1 PUSH2 0x1447 JUMP JUMPDEST PUSH1 0x40 MLOAD DUP1 SWAP2 SUB SWAP1 REVERT JUMPDEST PUSH1 0x1 PUSH1 0x6 PUSH1 0x0 CALLER PUSH20 0xFFFFFFFFFFFFFFFFFFFFFFFFFFFFFFFFFFFFFFFF AND PUSH20 0xFFFFFFFFFFFFFFFFFFFFFFFFFFFFFFFFFFFFFFFF AND DUP2 MSTORE PUSH1 0x20 ADD SWAP1 DUP2 MSTORE PUSH1 0x20 ADD PUSH1 0x0 KECCAK256 PUSH1 0x0 PUSH2 0x100 EXP DUP2 SLOAD DUP2 PUSH1 0xFF MUL NOT AND SWAP1 DUP4 ISZERO ISZERO MUL OR SWAP1 SSTORE POP PUSH1 0x1 PUSH1 0x0 DUP2 SLOAD DUP1 SWAP3 SWAP2 SWAP1 PUSH2 0x987 SWAP1 PUSH2 0x119C JUMP JUMPDEST SWAP2 SWAP1 POP SSTORE POP JUMP JUMPDEST PUSH1 0x0 PUSH1 0x3 PUSH1 0x0 DUP4 DUP2 MSTORE PUSH1 0x20 ADD SWAP1 DUP2 MSTORE PUSH1 0x20 ADD PUSH1 0x0 KECCAK256 SWAP1 POP PUSH1 0x1 ISZERO ISZERO PUSH1 0x6 PUSH1 0x0 CALLER PUSH20 0xFFFFFFFFFFFFFFFFFFFFFFFFFFFFFFFFFFFFFFFF AND PUSH20 0xFFFFFFFFFFFFFFFFFFFFFFFFFFFFFFFFFFFFFFFF AND DUP2 MSTORE PUSH1 0x20 ADD SWAP1 DUP2 MSTORE PUSH1 0x20 ADD PUSH1 0x0 KECCAK256 PUSH1 0x0 SWAP1 SLOAD SWAP1 PUSH2 0x100 EXP SWAP1 DIV PUSH1 0xFF AND ISZERO ISZERO EQ PUSH2 0xA38 JUMPI PUSH1 0x40 MLOAD PUSH32 0x8C379A000000000000000000000000000000000000000000000000000000000 DUP2 MSTORE PUSH1 0x4 ADD PUSH2 0xA2F SWAP1 PUSH2 0x14D9 JUMP JUMPDEST PUSH1 0x40 MLOAD DUP1 SWAP2 SUB SWAP1 REVERT JUMPDEST DUP1 PUSH1 0x4 ADD PUSH1 0x0 CALLER PUSH20 0xFFFFFFFFFFFFFFFFFFFFFFFFFFFFFFFFFFFFFFFF AND PUSH20 0xFFFFFFFFFFFFFFFFFFFFFFFFFFFFFFFFFFFFFFFF AND DUP2 MSTORE PUSH1 0x20 ADD SWAP1 DUP2 MSTORE PUSH1 0x20 ADD PUSH1 0x0 KECCAK256 PUSH1 0x0 SWAP1 SLOAD SWAP1 PUSH2 0x100 EXP SWAP1 DIV PUSH1 0xFF AND ISZERO PUSH2 0xAC7 JUMPI PUSH1 0x40 MLOAD PUSH32 0x8C379A000000000000000000000000000000000000000000000000000000000 DUP2 MSTORE PUSH1 0x4 ADD PUSH2 0xABE SWAP1 PUSH2 0x156B JUMP JUMPDEST PUSH1 0x40 MLOAD DUP1 SWAP2 SUB SWAP1 REVERT JUMPDEST PUSH1 0x1 DUP2 PUSH1 0x4 ADD PUSH1 0x0 CALLER PUSH20 0xFFFFFFFFFFFFFFFFFFFFFFFFFFFFFFFFFFFFFFFF AND PUSH20 0xFFFFFFFFFFFFFFFFFFFFFFFFFFFFFFFFFFFFFFFF AND DUP2 MSTORE PUSH1 0x20 ADD SWAP1 DUP2 MSTORE PUSH1 0x20 ADD PUSH1 0x0 KECCAK256 PUSH1 0x0 PUSH2 0x100 EXP DUP2 SLOAD DUP2 PUSH1 0xFF MUL NOT AND SWAP1 DUP4 ISZERO ISZERO MUL OR SWAP1 SSTORE POP DUP1 PUSH1 0x3 ADD PUSH1 0x0 DUP2 SLOAD DUP1 SWAP3 SWAP2 SWAP1 PUSH2 0xB36 SWAP1 PUSH2 0x119C JUMP JUMPDEST SWAP2 SWAP1 POP SSTORE POP POP POP JUMP JUMPDEST DUP3 DUP1 SLOAD PUSH2 0xB4B SWAP1 PUSH2 0x10A9 JUMP JUMPDEST SWAP1 PUSH1 0x0 MSTORE PUSH1 0x20 PUSH1 0x0 KECCAK256 SWAP1 PUSH1 0x1F ADD PUSH1 0x20 SWAP1 DIV DUP2 ADD SWAP3 DUP3 PUSH2 0xB6D JUMPI PUSH1 0x0 DUP6 SSTORE PUSH2 0xBB4 JUMP JUMPDEST DUP3 PUSH1 0x1F LT PUSH2 0xB86 JUMPI DUP1 MLOAD PUSH1 0xFF NOT AND DUP4 DUP1 ADD OR DUP6 SSTORE PUSH2 0xBB4 JUMP JUMPDEST DUP3 DUP1 ADD PUSH1 0x1 ADD DUP6 SSTORE DUP3 ISZERO PUSH2 0xBB4 JUMPI SWAP2 DUP3 ADD JUMPDEST DUP3 DUP2 GT ISZERO PUSH2 0xBB3 JUMPI DUP3 MLOAD DUP3 SSTORE SWAP2 PUSH1 0x20 ADD SWAP2 SWAP1 PUSH1 0x1 ADD SWAP1 PUSH2 0xB98 JUMP JUMPDEST JUMPDEST POP SWAP1 POP PUSH2 0xBC1 SWAP2 SWAP1 PUSH2 0xBC5 JUMP JUMPDEST POP SWAP1 JUMP JUMPDEST JUMPDEST DUP1 DUP3 GT ISZERO PUSH2 0xBDE JUMPI PUSH1 0x0 DUP2 PUSH1 0x0 SWAP1 SSTORE POP PUSH1 0x1 ADD PUSH2 0xBC6 JUMP JUMPDEST POP SWAP1 JUMP JUMPDEST PUSH1 0x0 DUP2 MLOAD SWAP1 POP SWAP2 SWAP1 POP JUMP JUMPDEST PUSH1 0x0 DUP3 DUP3 MSTORE PUSH1 0x20 DUP3 ADD SWAP1 POP SWAP3 SWAP2 POP POP JUMP JUMPDEST PUSH1 0x0 JUMPDEST DUP4 DUP2 LT ISZERO PUSH2 0xC1C JUMPI DUP1 DUP3 ADD MLOAD DUP2 DUP5 ADD MSTORE PUSH1 0x20 DUP2 ADD SWAP1 POP PUSH2 0xC01 JUMP JUMPDEST DUP4 DUP2 GT ISZERO PUSH2 0xC2B JUMPI PUSH1 0x0 DUP5 DUP5 ADD MSTORE JUMPDEST POP POP POP POP JUMP JUMPDEST PUSH1 0x0 PUSH1 0x1F NOT PUSH1 0x1F DUP4 ADD AND SWAP1 POP SWAP2 SWAP1 POP JUMP JUMPDEST PUSH1 0x0 PUSH2 0xC4D DUP3 PUSH2 0xBE2 JUMP JUMPDEST PUSH2 0xC57 DUP2 DUP6 PUSH2 0xBED JUMP JUMPDEST SWAP4 POP PUSH2 0xC67 DUP2 DUP6 PUSH1 0x20 DUP7 ADD PUSH2 0xBFE JUMP JUMPDEST PUSH2 0xC70 DUP2 PUSH2 0xC31 JUMP JUMPDEST DUP5 ADD SWAP2 POP POP SWAP3 SWAP2 POP POP JUMP JUMPDEST PUSH1 0x0 PUSH1 0x20 DUP3 ADD SWAP1 POP DUP2 DUP2 SUB PUSH1 0x0 DUP4 ADD MSTORE PUSH2 0xC95 DUP2 DUP5 PUSH2 0xC42 JUMP JUMPDEST SWAP1 POP SWAP3 SWAP2 POP POP JUMP JUMPDEST PUSH1 0x0 PUSH1 0x40 MLOAD SWAP1 POP SWAP1 JUMP JUMPDEST PUSH1 0x0 DUP1 REVERT JUMPDEST PUSH1 0x0 DUP1 REVERT JUMPDEST PUSH1 0x0 PUSH20 0xFFFFFFFFFFFFFFFFFFFFFFFFFFFFFFFFFFFFFFFF DUP3 AND SWAP1 POP SWAP2 SWAP1 POP JUMP JUMPDEST PUSH1 0x0 PUSH2 0xCDC DUP3 PUSH2 0xCB1 JUMP JUMPDEST SWAP1 POP SWAP2 SWAP1 POP JUMP JUMPDEST PUSH2 0xCEC DUP2 PUSH2 0xCD1 JUMP JUMPDEST DUP2 EQ PUSH2 0xCF7 JUMPI PUSH1 0x0 DUP1 REVERT JUMPDEST POP JUMP JUMPDEST PUSH1 0x0 DUP2 CALLDATALOAD SWAP1 POP PUSH2 0xD09 DUP2 PUSH2 0xCE3 JUMP JUMPDEST SWAP3 SWAP2 POP POP JUMP JUMPDEST PUSH1 0x0 PUSH1 0x20 DUP3 DUP5 SUB SLT ISZERO PUSH2 0xD25 JUMPI PUSH2 0xD24 PUSH2 0xCA7 JUMP JUMPDEST JUMPDEST PUSH1 0x0 PUSH2 0xD33 DUP5 DUP3 DUP6 ADD PUSH2 0xCFA JUMP JUMPDEST SWAP2 POP POP SWAP3 SWAP2 POP POP JUMP JUMPDEST PUSH1 0x0 DUP2 ISZERO ISZERO SWAP1 POP SWAP2 SWAP1 POP JUMP JUMPDEST PUSH2 0xD51 DUP2 PUSH2 0xD3C JUMP JUMPDEST DUP3 MSTORE POP POP JUMP JUMPDEST PUSH1 0x0 PUSH1 0x20 DUP3 ADD SWAP1 POP PUSH2 0xD6C PUSH1 0x0 DUP4 ADD DUP5 PUSH2 0xD48 JUMP JUMPDEST SWAP3 SWAP2 POP POP JUMP JUMPDEST PUSH1 0x0 DUP2 SWAP1 POP SWAP2 SWAP1 POP JUMP JUMPDEST PUSH2 0xD85 DUP2 PUSH2 0xD72 JUMP JUMPDEST DUP3 MSTORE POP POP JUMP JUMPDEST PUSH1 0x0 PUSH1 0x20 DUP3 ADD SWAP1 POP PUSH2 0xDA0 PUSH1 0x0 DUP4 ADD DUP5 PUSH2 0xD7C JUMP JUMPDEST SWAP3 SWAP2 POP POP JUMP JUMPDEST PUSH2 0xDAF DUP2 PUSH2 0xCD1 JUMP JUMPDEST DUP3 MSTORE POP POP JUMP JUMPDEST PUSH1 0x0 PUSH1 0x20 DUP3 ADD SWAP1 POP PUSH2 0xDCA PUSH1 0x0 DUP4 ADD DUP5 PUSH2 0xDA6 JUMP JUMPDEST SWAP3 SWAP2 POP POP JUMP JUMPDEST PUSH2 0xDD9 DUP2 PUSH2 0xD72 JUMP JUMPDEST DUP2 EQ PUSH2 0xDE4 JUMPI PUSH1 0x0 DUP1 REVERT JUMPDEST POP JUMP JUMPDEST PUSH1 0x0 DUP2 CALLDATALOAD SWAP1 POP PUSH2 0xDF6 DUP2 PUSH2 0xDD0 JUMP JUMPDEST SWAP3 SWAP2 POP POP JUMP JUMPDEST PUSH1 0x0 PUSH1 0x20 DUP3 DUP5 SUB SLT ISZERO PUSH2 0xE12 JUMPI PUSH2 0xE11 PUSH2 0xCA7 JUMP JUMPDEST JUMPDEST PUSH1 0x0 PUSH2 0xE20 DUP5 DUP3 DUP6 ADD PUSH2 0xDE7 JUMP JUMPDEST SWAP2 POP POP SWAP3 SWAP2 POP POP JUMP JUMPDEST PUSH1 0x0 PUSH1 0xA0 DUP3 ADD SWAP1 POP DUP2 DUP2 SUB PUSH1 0x0 DUP4 ADD MSTORE PUSH2 0xE43 DUP2 DUP9 PUSH2 0xC42 JUMP JUMPDEST SWAP1 POP PUSH2 0xE52 PUSH1 0x20 DUP4 ADD DUP8 PUSH2 0xD7C JUMP JUMPDEST PUSH2 0xE5F PUSH1 0x40 DUP4 ADD DUP7 PUSH2 0xDA6 JUMP JUMPDEST PUSH2 0xE6C PUSH1 0x60 DUP4 ADD DUP6 PUSH2 0xD48 JUMP JUMPDEST PUSH2 0xE79 PUSH1 0x80 DUP4 ADD DUP5 PUSH2 0xD7C JUMP JUMPDEST SWAP7 SWAP6 POP POP POP POP POP POP JUMP JUMPDEST PUSH1 0x0 DUP1 REVERT JUMPDEST PUSH1 0x0 DUP1 REVERT JUMPDEST PUSH32 0x4E487B7100000000000000000000000000000000000000000000000000000000 PUSH1 0x0 MSTORE PUSH1 0x41 PUSH1 0x4 MSTORE PUSH1 0x24 PUSH1 0x0 REVERT JUMPDEST PUSH2 0xEC5 DUP3 PUSH2 0xC31 JUMP JUMPDEST DUP2 ADD DUP2 DUP2 LT PUSH8 0xFFFFFFFFFFFFFFFF DUP3 GT OR ISZERO PUSH2 0xEE4 JUMPI PUSH2 0xEE3 PUSH2 0xE8D JUMP JUMPDEST JUMPDEST DUP1 PUSH1 0x40 MSTORE POP POP POP JUMP JUMPDEST PUSH1 0x0 PUSH2 0xEF7 PUSH2 0xC9D JUMP JUMPDEST SWAP1 POP PUSH2 0xF03 DUP3 DUP3 PUSH2 0xEBC JUMP JUMPDEST SWAP2 SWAP1 POP JUMP JUMPDEST PUSH1 0x0 PUSH8 0xFFFFFFFFFFFFFFFF DUP3 GT ISZERO PUSH2 0xF23 JUMPI PUSH2 0xF22 PUSH2 0xE8D JUMP JUMPDEST JUMPDEST PUSH2 0xF2C DUP3 PUSH2 0xC31 JUMP JUMPDEST SWAP1 POP PUSH1 0x20 DUP2 ADD SWAP1 POP SWAP2 SWAP1 POP JUMP JUMPDEST DUP3 DUP2 DUP4 CALLDATACOPY PUSH1 0x0 DUP4 DUP4 ADD MSTORE POP POP POP JUMP JUMPDEST PUSH1 0x0 PUSH2 0xF5B PUSH2 0xF56 DUP5 PUSH2 0xF08 JUMP JUMPDEST PUSH2 0xEED JUMP JUMPDEST SWAP1 POP DUP3 DUP2 MSTORE PUSH1 0x20 DUP2 ADD DUP5 DUP5 DUP5 ADD GT ISZERO PUSH2 0xF77 JUMPI PUSH2 0xF76 PUSH2 0xE88 JUMP JUMPDEST JUMPDEST PUSH2 0xF82 DUP5 DUP3 DUP6 PUSH2 0xF39 JUMP JUMPDEST POP SWAP4 SWAP3 POP POP POP JUMP JUMPDEST PUSH1 0x0 DUP3 PUSH1 0x1F DUP4 ADD SLT PUSH2 0xF9F JUMPI PUSH2 0xF9E PUSH2 0xE83 JUMP JUMPDEST JUMPDEST DUP2 CALLDATALOAD PUSH2 0xFAF DUP5 DUP3 PUSH1 0x20 DUP7 ADD PUSH2 0xF48 JUMP JUMPDEST SWAP2 POP POP SWAP3 SWAP2 POP POP JUMP JUMPDEST PUSH1 0x0 DUP1 PUSH1 0x0 PUSH1 0x60 DUP5 DUP7 SUB SLT ISZERO PUSH2 0xFD1 JUMPI PUSH2 0xFD0 PUSH2 0xCA7 JUMP JUMPDEST JUMPDEST PUSH1 0x0 DUP5 ADD CALLDATALOAD PUSH8 0xFFFFFFFFFFFFFFFF DUP2 GT ISZERO PUSH2 0xFEF JUMPI PUSH2 0xFEE PUSH2 0xCAC JUMP JUMPDEST JUMPDEST PUSH2 0xFFB DUP7 DUP3 DUP8 ADD PUSH2 0xF8A JUMP JUMPDEST SWAP4 POP POP PUSH1 0x20 PUSH2 0x100C DUP7 DUP3 DUP8 ADD PUSH2 0xDE7 JUMP JUMPDEST SWAP3 POP POP PUSH1 0x40 PUSH2 0x101D DUP7 DUP3 DUP8 ADD PUSH2 0xCFA JUMP JUMPDEST SWAP2 POP POP SWAP3 POP SWAP3 POP SWAP3 JUMP JUMPDEST PUSH1 0x0 PUSH1 0xA0 DUP3 ADD SWAP1 POP PUSH2 0x103C PUSH1 0x0 DUP4 ADD DUP9 PUSH2 0xD7C JUMP JUMPDEST PUSH2 0x1049 PUSH1 0x20 DUP4 ADD DUP8 PUSH2 0xD7C JUMP JUMPDEST PUSH2 0x1056 PUSH1 0x40 DUP4 ADD DUP7 PUSH2 0xD7C JUMP JUMPDEST PUSH2 0x1063 PUSH1 0x60 DUP4 ADD DUP6 PUSH2 0xD7C JUMP JUMPDEST PUSH2 0x1070 PUSH1 0x80 DUP4 ADD DUP5 PUSH2 0xDA6 JUMP JUMPDEST SWAP7 SWAP6 POP POP POP POP POP POP JUMP JUMPDEST PUSH32 0x4E487B7100000000000000000000000000000000000000000000000000000000 PUSH1 0x0 MSTORE PUSH1 0x22 PUSH1 0x4 MSTORE PUSH1 0x24 PUSH1 0x0 REVERT JUMPDEST PUSH1 0x0 PUSH1 0x2 DUP3 DIV SWAP1 POP PUSH1 0x1 DUP3 AND DUP1 PUSH2 0x10C1 JUMPI PUSH1 0x7F DUP3 AND SWAP2 POP JUMPDEST PUSH1 0x20 DUP3 LT DUP2 EQ ISZERO PUSH2 0x10D5 JUMPI PUSH2 0x10D4 PUSH2 0x107A JUMP JUMPDEST JUMPDEST POP SWAP2 SWAP1 POP JUMP JUMPDEST PUSH32 0x4F6E6C7920746865204D616E616765722063616E20706572666F726D20746869 PUSH1 0x0 DUP3 ADD MSTORE PUSH32 0x7320616374696F6E000000000000000000000000000000000000000000000000 PUSH1 0x20 DUP3 ADD MSTORE POP JUMP JUMPDEST PUSH1 0x0 PUSH2 0x1137 PUSH1 0x28 DUP4 PUSH2 0xBED JUMP JUMPDEST SWAP2 POP PUSH2 0x1142 DUP3 PUSH2 0x10DB JUMP JUMPDEST PUSH1 0x40 DUP3 ADD SWAP1 POP SWAP2 SWAP1 POP JUMP JUMPDEST PUSH1 0x0 PUSH1 0x20 DUP3 ADD SWAP1 POP DUP2 DUP2 SUB PUSH1 0x0 DUP4 ADD MSTORE PUSH2 0x1166 DUP2 PUSH2 0x112A JUMP JUMPDEST SWAP1 POP SWAP2 SWAP1 POP JUMP JUMPDEST PUSH32 0x4E487B7100000000000000000000000000000000000000000000000000000000 PUSH1 0x0 MSTORE PUSH1 0x11 PUSH1 0x4 MSTORE PUSH1 0x24 PUSH1 0x0 REVERT JUMPDEST PUSH1 0x0 PUSH2 0x11A7 DUP3 PUSH2 0xD72 JUMP JUMPDEST SWAP2 POP PUSH32 0xFFFFFFFFFFFFFFFFFFFFFFFFFFFFFFFFFFFFFFFFFFFFFFFFFFFFFFFFFFFFFFFF DUP3 EQ ISZERO PUSH2 0x11DA JUMPI PUSH2 0x11D9 PUSH2 0x116D JUMP JUMPDEST JUMPDEST PUSH1 0x1 DUP3 ADD SWAP1 POP SWAP2 SWAP1 POP JUMP JUMPDEST PUSH32 0x596F75206861766520616C726561647920636F6E6669726D6564207468652061 PUSH1 0x0 DUP3 ADD MSTORE PUSH32 0x7070726F76616C206F6620746869732052657175657374000000000000000000 PUSH1 0x20 DUP3 ADD MSTORE POP JUMP JUMPDEST PUSH1 0x0 PUSH2 0x1241 PUSH1 0x37 DUP4 PUSH2 0xBED JUMP JUMPDEST SWAP2 POP PUSH2 0x124C DUP3 PUSH2 0x11E5 JUMP JUMPDEST PUSH1 0x40 DUP3 ADD SWAP1 POP SWAP2 SWAP1 POP JUMP JUMPDEST PUSH1 0x0 PUSH1 0x20 DUP3 ADD SWAP1 POP DUP2 DUP2 SUB PUSH1 0x0 DUP4 ADD MSTORE PUSH2 0x1270 DUP2 PUSH2 0x1234 JUMP JUMPDEST SWAP1 POP SWAP2 SWAP1 POP JUMP JUMPDEST PUSH32 0x4E487B7100000000000000000000000000000000000000000000000000000000 PUSH1 0x0 MSTORE PUSH1 0x12 PUSH1 0x4 MSTORE PUSH1 0x24 PUSH1 0x0 REVERT JUMPDEST PUSH1 0x0 PUSH2 0x12B1 DUP3 PUSH2 0xD72 JUMP JUMPDEST SWAP2 POP PUSH2 0x12BC DUP4 PUSH2 0xD72 JUMP JUMPDEST SWAP3 POP DUP3 PUSH2 0x12CC JUMPI PUSH2 0x12CB PUSH2 0x1277 JUMP JUMPDEST JUMPDEST DUP3 DUP3 DIV SWAP1 POP SWAP3 SWAP2 POP POP JUMP JUMPDEST PUSH32 0x4174204C6561737420353025206F6620796F757220636F6E7472696275746F72 PUSH1 0x0 DUP3 ADD MSTORE PUSH32 0x73206D75737420617070726F7665000000000000000000000000000000000000 PUSH1 0x20 DUP3 ADD MSTORE POP JUMP JUMPDEST PUSH1 0x0 PUSH2 0x1333 PUSH1 0x2E DUP4 PUSH2 0xBED JUMP JUMPDEST SWAP2 POP PUSH2 0x133E DUP3 PUSH2 0x12D7 JUMP JUMPDEST PUSH1 0x40 DUP3 ADD SWAP1 POP SWAP2 SWAP1 POP JUMP JUMPDEST PUSH1 0x0 PUSH1 0x20 DUP3 ADD SWAP1 POP DUP2 DUP2 SUB PUSH1 0x0 DUP4 ADD MSTORE PUSH2 0x1362 DUP2 PUSH2 0x1326 JUMP JUMPDEST SWAP1 POP SWAP2 SWAP1 POP JUMP JUMPDEST PUSH32 0x596F757220636F6E747269627574696F6E2069732062656C6F7720746865206D PUSH1 0x0 DUP3 ADD MSTORE PUSH32 0x696E696D756D20616D6F756E7400000000000000000000000000000000000000 PUSH1 0x20 DUP3 ADD MSTORE POP JUMP JUMPDEST PUSH1 0x0 PUSH2 0x13C5 PUSH1 0x2D DUP4 PUSH2 0xBED JUMP JUMPDEST SWAP2 POP PUSH2 0x13D0 DUP3 PUSH2 0x1369 JUMP JUMPDEST PUSH1 0x40 DUP3 ADD SWAP1 POP SWAP2 SWAP1 POP JUMP JUMPDEST PUSH1 0x0 PUSH1 0x20 DUP3 ADD SWAP1 POP DUP2 DUP2 SUB PUSH1 0x0 DUP4 ADD MSTORE PUSH2 0x13F4 DUP2 PUSH2 0x13B8 JUMP JUMPDEST SWAP1 POP SWAP2 SWAP1 POP JUMP JUMPDEST PUSH32 0x596F75206861766520616C726561647920636F6E747269627574656400000000 PUSH1 0x0 DUP3 ADD MSTORE POP JUMP JUMPDEST PUSH1 0x0 PUSH2 0x1431 PUSH1 0x1C DUP4 PUSH2 0xBED JUMP JUMPDEST SWAP2 POP PUSH2 0x143C DUP3 PUSH2 0x13FB JUMP JUMPDEST PUSH1 0x20 DUP3 ADD SWAP1 POP SWAP2 SWAP1 POP JUMP JUMPDEST PUSH1 0x0 PUSH1 0x20 DUP3 ADD SWAP1 POP DUP2 DUP2 SUB PUSH1 0x0 DUP4 ADD MSTORE PUSH2 0x1460 DUP2 PUSH2 0x1424 JUMP JUMPDEST SWAP1 POP SWAP2 SWAP1 POP JUMP JUMPDEST PUSH32 0x4F6E6C7920436F6E7472696275746F72732063616E20617070726F7665207468 PUSH1 0x0 DUP3 ADD MSTORE PUSH32 0x6973205265717565737400000000000000000000000000000000000000000000 PUSH1 0x20 DUP3 ADD MSTORE POP JUMP JUMPDEST PUSH1 0x0 PUSH2 0x14C3 PUSH1 0x2A DUP4 PUSH2 0xBED JUMP JUMPDEST SWAP2 POP PUSH2 0x14CE DUP3 PUSH2 0x1467 JUMP JUMPDEST PUSH1 0x40 DUP3 ADD SWAP1 POP SWAP2 SWAP1 POP JUMP JUMPDEST PUSH1 0x0 PUSH1 0x20 DUP3 ADD SWAP1 POP DUP2 DUP2 SUB PUSH1 0x0 DUP4 ADD MSTORE PUSH2 0x14F2 DUP2 PUSH2 0x14B6 JUMP JUMPDEST SWAP1 POP SWAP2 SWAP1 POP JUMP JUMPDEST PUSH32 0x596F75206861766520616C726561647920617070726F76656420746869732052 PUSH1 0x0 DUP3 ADD MSTORE PUSH32 0x6571756573740000000000000000000000000000000000000000000000000000 PUSH1 0x20 DUP3 ADD MSTORE POP JUMP JUMPDEST PUSH1 0x0 PUSH2 0x1555 PUSH1 0x26 DUP4 PUSH2 0xBED JUMP JUMPDEST SWAP2 POP PUSH2 0x1560 DUP3 PUSH2 0x14F9 JUMP JUMPDEST PUSH1 0x40 DUP3 ADD SWAP1 POP SWAP2 SWAP1 POP JUMP JUMPDEST PUSH1 0x0 PUSH1 0x20 DUP3 ADD SWAP1 POP DUP2 DUP2 SUB PUSH1 0x0 DUP4 ADD MSTORE PUSH2 0x1584 DUP2 PUSH2 0x1548 JUMP JUMPDEST SWAP1 POP SWAP2 SWAP1 POP JUMP INVALID LOG2 PUSH5 0x6970667358 0x22 SLT KECCAK256 0xD6 0xC0 SWAP7 SELFBALANCE GT PUSH20 0xBCB22D7895BF4C5D2E00DDFD8E7E44A387D94E 0xDB 0x23 EXTCODESIZE 0xC7 XOR PUSH26 0x64736F6C634300080B0033000000000000000000000000000000 "},"gasEstimates":{"creation":{"codeDepositCost":"1113800","executionCost":"infinite","totalCost":"infinite"},"external":{"approveRequest(uint256)":"infinite","campaignName()":"infinite","confirmApproval(uint256)":"infinite","contribute()":"53306","contributors(address)":"2868","contributorsCount()":"2518","createRequest(string,uint256,address)":"infinite","getCampaignSummary()":"infinite","manager()":"2581","minimumContribution()":"2473","numberofRequests()":"2474","requests(uint256)":"infinite"}},"methodIdentifiers":{"approveRequest(uint256)":"d7d1bbdb","campaignName()":"0724fda9","confirmApproval(uint256)":"8f9a6fee","contribute()":"d7bb99ba","contributors(address)":"1f6d4942","contributorsCount()":"7569b3d7","createRequest(string,uint256,address)":"8a9cfd55","getCampaignSummary()":"a00c96d7","manager()":"481c6a75","minimumContribution()":"937e09b1","numberofRequests()":"278d2ee0","requests(uint256)":"81d12c58"}},"storageLayout":{"storage":[{"astId":75,"contract":"Campaign.sol:Campaign","label":"campaignName","offset":0,"slot":"0","type":"t_string_storage"},{"astId":77,"contract":"Campaign.sol:Campaign","label":"contributorsCount","offset":0,"slot":"1","type":"t_uint256"},{"astId":79,"contract":"Campaign.sol:Campaign","label":"numberofRequests","offset":0,"slot":"2","type":"t_uint256"},{"astId":84,"contract":"Campaign.sol:Campaign","label":"requests","offset":0,"slot":"3","type":"t_mapping(t_uint256,t_struct(Request)73_storage)"},{"astId":86,"contract":"Campaign.sol:Campaign","label":"manager","offset":0,"slot":"4","type":"t_address"},{"astId":88,"contract":"Campaign.sol:Campaign","label":"minimumContribution","offset":0,"slot":"5","type":"t_uint256"},{"astId":92,"contract":"Campaign.sol:Campaign","label":"contributors","offset":0,"slot":"6","type":"t_mapping(t_address,t_bool)"}],"types":{"t_address":{"encoding":"inplace","label":"address","numberOfBytes":"20"},"t_bool":{"encoding":"inplace","label":"bool","numberOfBytes":"1"},"t_mapping(t_address,t_bool)":{"encoding":"mapping","key":"t_address","label":"mapping(address => bool)","numberOfBytes":"32","value":"t_bool"},"t_mapping(t_uint256,t_struct(Request)73_storage)":{"encoding":"mapping","key":"t_uint256","label":"mapping(uint256 => struct Campaign.Request)","numberOfBytes":"32","value":"t_struct(Request)73_storage"},"t_string_storage":{"encoding":"bytes","label":"string","numberOfBytes":"32"},"t_struct(Request)73_storage":{"encoding":"inplace","label":"struct Campaign.Request","members":[{"astId":60,"contract":"Campaign.sol:Campaign","label":"description","offset":0,"slot":"0","type":"t_string_storage"},{"astId":62,"contract":"Campaign.sol:Campaign","label":"value","offset":0,"slot":"1","type":"t_uint256"},{"astId":64,"contract":"Campaign.sol:Campaign","label":"receiver","offset":0,"slot":"2","type":"t_address"},{"astId":66,"contract":"Campaign.sol:Campaign","label":"complete","offset":20,"slot":"2","type":"t_bool"},{"astId":68,"contract":"Campaign.sol:Campaign","label":"approvalCount","offset":0,"slot":"3","type":"t_uint256"},{"astId":72,"contract":"Campaign.sol:Campaign","label":"approvals","offset":0,"slot":"4","type":"t_mapping(t_address,t_bool)"}],"numberOfBytes":"160"},"t_uint256":{"encoding":"inplace","label":"uint256","numberOfBytes":"32"}}},"userdoc":{"kind":"user","methods":{},"version":1}}