{"abi":[{"inputs":[{"internalType":"uint256","name":"minimum","type":"uint256"},{"internalType":"address","name":"creator","type":"address"}],"stateMutability":"nonpayable","type":"constructor"},{"inputs":[{"internalType":"uint256","name":"index","type":"uint256"}],"name":"approveRequest","outputs":[],"stateMutability":"nonpayable","type":"function"},{"inputs":[{"internalType":"uint256","name":"index","type":"uint256"}],"name":"confirmApproval","outputs":[],"stateMutability":"payable","type":"function"},{"inputs":[],"name":"contribute","outputs":[],"stateMutability":"payable","type":"function"},{"inputs":[{"internalType":"address","name":"","type":"address"}],"name":"contributors","outputs":[{"internalType":"bool","name":"","type":"bool"}],"stateMutability":"view","type":"function"},{"inputs":[],"name":"contributorsCount","outputs":[{"internalType":"uint256","name":"","type":"uint256"}],"stateMutability":"view","type":"function"},{"inputs":[{"internalType":"string","name":"description","type":"string"},{"internalType":"uint256","name":"value","type":"uint256"},{"internalType":"address","name":"receiver","type":"address"}],"name":"createRequest","outputs":[],"stateMutability":"nonpayable","type":"function"},{"inputs":[],"name":"getCampaignSummary","outputs":[{"internalType":"uint256","name":"","type":"uint256"},{"internalType":"uint256","name":"","type":"uint256"},{"internalType":"uint256","name":"","type":"uint256"},{"internalType":"uint256","name":"","type":"uint256"},{"internalType":"address","name":"","type":"address"}],"stateMutability":"view","type":"function"},{"inputs":[],"name":"manager","outputs":[{"internalType":"address","name":"","type":"address"}],"stateMutability":"view","type":"function"},{"inputs":[],"name":"minimumContribution","outputs":[{"internalType":"uint256","name":"","type":"uint256"}],"stateMutability":"view","type":"function"},{"inputs":[],"name":"numberofRequests","outputs":[{"internalType":"uint256","name":"","type":"uint256"}],"stateMutability":"view","type":"function"},{"inputs":[{"internalType":"uint256","name":"","type":"uint256"}],"name":"requests","outputs":[{"internalType":"string","name":"description","type":"string"},{"internalType":"uint256","name":"value","type":"uint256"},{"internalType":"address","name":"receiver","type":"address"},{"internalType":"bool","name":"complete","type":"bool"},{"internalType":"uint256","name":"approvalCount","type":"uint256"}],"stateMutability":"view","type":"function"}],"devdoc":{"kind":"dev","methods":{},"version":1},"evm":{"assembly":"    /* \"Campaign.sol\":449:3060  contract Campaign {... */\n  mstore(0x40, 0x80)\n    /* \"Campaign.sol\":922:1042  constructor (uint minimum, address creator) {... */\n  callvalue\n  dup1\n  iszero\n  tag_1\n  jumpi\n  0x00\n  dup1\n  revert\ntag_1:\n  pop\n  mload(0x40)\n  sub(codesize, bytecodeSize)\n  dup1\n  bytecodeSize\n  dup4\n  codecopy\n  dup2\n  dup2\n  add\n  0x40\n  mstore\n  dup2\n  add\n  swap1\n  tag_2\n  swap2\n  swap1\n  tag_3\n  jump\t// in\ntag_2:\n    /* \"Campaign.sol\":987:994  creator */\n  dup1\n    /* \"Campaign.sol\":977:984  manager */\n  0x03\n  0x00\n    /* \"Campaign.sol\":977:994  manager = creator */\n  0x0100\n  exp\n  dup2\n  sload\n  dup2\n  0xffffffffffffffffffffffffffffffffffffffff\n  mul\n  not\n  and\n  swap1\n  dup4\n  0xffffffffffffffffffffffffffffffffffffffff\n  and\n  mul\n  or\n  swap1\n  sstore\n  pop\n    /* \"Campaign.sol\":1027:1034  minimum */\n  dup2\n    /* \"Campaign.sol\":1005:1024  minimumContribution */\n  0x04\n    /* \"Campaign.sol\":1005:1034  minimumContribution = minimum */\n  dup2\n  swap1\n  sstore\n  pop\n    /* \"Campaign.sol\":922:1042  constructor (uint minimum, address creator) {... */\n  pop\n  pop\n    /* \"Campaign.sol\":449:3060  contract Campaign {... */\n  jump(tag_6)\n    /* \"#utility.yul\":88:205   */\ntag_8:\n    /* \"#utility.yul\":197:198   */\n  0x00\n    /* \"#utility.yul\":194:195   */\n  dup1\n    /* \"#utility.yul\":187:199   */\n  revert\n    /* \"#utility.yul\":334:411   */\ntag_10:\n    /* \"#utility.yul\":371:378   */\n  0x00\n    /* \"#utility.yul\":400:405   */\n  dup2\n    /* \"#utility.yul\":389:405   */\n  swap1\n  pop\n    /* \"#utility.yul\":334:411   */\n  swap2\n  swap1\n  pop\n  jump\t// out\n    /* \"#utility.yul\":417:539   */\ntag_11:\n    /* \"#utility.yul\":490:514   */\n  tag_23\n    /* \"#utility.yul\":508:513   */\n  dup2\n    /* \"#utility.yul\":490:514   */\n  tag_10\n  jump\t// in\ntag_23:\n    /* \"#utility.yul\":483:488   */\n  dup2\n    /* \"#utility.yul\":480:515   */\n  eq\n    /* \"#utility.yul\":470:533   */\n  tag_24\n  jumpi\n    /* \"#utility.yul\":529:530   */\n  0x00\n    /* \"#utility.yul\":526:527   */\n  dup1\n    /* \"#utility.yul\":519:531   */\n  revert\n    /* \"#utility.yul\":470:533   */\ntag_24:\n    /* \"#utility.yul\":417:539   */\n  pop\n  jump\t// out\n    /* \"#utility.yul\":545:688   */\ntag_12:\n    /* \"#utility.yul\":602:607   */\n  0x00\n    /* \"#utility.yul\":633:639   */\n  dup2\n    /* \"#utility.yul\":627:640   */\n  mload\n    /* \"#utility.yul\":618:640   */\n  swap1\n  pop\n    /* \"#utility.yul\":649:682   */\n  tag_26\n    /* \"#utility.yul\":676:681   */\n  dup2\n    /* \"#utility.yul\":649:682   */\n  tag_11\n  jump\t// in\ntag_26:\n    /* \"#utility.yul\":545:688   */\n  swap3\n  swap2\n  pop\n  pop\n  jump\t// out\n    /* \"#utility.yul\":694:820   */\ntag_13:\n    /* \"#utility.yul\":731:738   */\n  0x00\n    /* \"#utility.yul\":771:813   */\n  0xffffffffffffffffffffffffffffffffffffffff\n    /* \"#utility.yul\":764:769   */\n  dup3\n    /* \"#utility.yul\":760:814   */\n  and\n    /* \"#utility.yul\":749:814   */\n  swap1\n  pop\n    /* \"#utility.yul\":694:820   */\n  swap2\n  swap1\n  pop\n  jump\t// out\n    /* \"#utility.yul\":826:922   */\ntag_14:\n    /* \"#utility.yul\":863:870   */\n  0x00\n    /* \"#utility.yul\":892:916   */\n  tag_29\n    /* \"#utility.yul\":910:915   */\n  dup3\n    /* \"#utility.yul\":892:916   */\n  tag_13\n  jump\t// in\ntag_29:\n    /* \"#utility.yul\":881:916   */\n  swap1\n  pop\n    /* \"#utility.yul\":826:922   */\n  swap2\n  swap1\n  pop\n  jump\t// out\n    /* \"#utility.yul\":928:1050   */\ntag_15:\n    /* \"#utility.yul\":1001:1025   */\n  tag_31\n    /* \"#utility.yul\":1019:1024   */\n  dup2\n    /* \"#utility.yul\":1001:1025   */\n  tag_14\n  jump\t// in\ntag_31:\n    /* \"#utility.yul\":994:999   */\n  dup2\n    /* \"#utility.yul\":991:1026   */\n  eq\n    /* \"#utility.yul\":981:1044   */\n  tag_32\n  jumpi\n    /* \"#utility.yul\":1040:1041   */\n  0x00\n    /* \"#utility.yul\":1037:1038   */\n  dup1\n    /* \"#utility.yul\":1030:1042   */\n  revert\n    /* \"#utility.yul\":981:1044   */\ntag_32:\n    /* \"#utility.yul\":928:1050   */\n  pop\n  jump\t// out\n    /* \"#utility.yul\":1056:1199   */\ntag_16:\n    /* \"#utility.yul\":1113:1118   */\n  0x00\n    /* \"#utility.yul\":1144:1150   */\n  dup2\n    /* \"#utility.yul\":1138:1151   */\n  mload\n    /* \"#utility.yul\":1129:1151   */\n  swap1\n  pop\n    /* \"#utility.yul\":1160:1193   */\n  tag_34\n    /* \"#utility.yul\":1187:1192   */\n  dup2\n    /* \"#utility.yul\":1160:1193   */\n  tag_15\n  jump\t// in\ntag_34:\n    /* \"#utility.yul\":1056:1199   */\n  swap3\n  swap2\n  pop\n  pop\n  jump\t// out\n    /* \"#utility.yul\":1205:1712   */\ntag_3:\n    /* \"#utility.yul\":1284:1290   */\n  0x00\n    /* \"#utility.yul\":1292:1298   */\n  dup1\n    /* \"#utility.yul\":1341:1343   */\n  0x40\n    /* \"#utility.yul\":1329:1338   */\n  dup4\n    /* \"#utility.yul\":1320:1327   */\n  dup6\n    /* \"#utility.yul\":1316:1339   */\n  sub\n    /* \"#utility.yul\":1312:1344   */\n  slt\n    /* \"#utility.yul\":1309:1428   */\n  iszero\n  tag_36\n  jumpi\n    /* \"#utility.yul\":1347:1426   */\n  tag_37\n  tag_8\n  jump\t// in\ntag_37:\n    /* \"#utility.yul\":1309:1428   */\ntag_36:\n    /* \"#utility.yul\":1467:1468   */\n  0x00\n    /* \"#utility.yul\":1492:1556   */\n  tag_38\n    /* \"#utility.yul\":1548:1555   */\n  dup6\n    /* \"#utility.yul\":1539:1545   */\n  dup3\n    /* \"#utility.yul\":1528:1537   */\n  dup7\n    /* \"#utility.yul\":1524:1546   */\n  add\n    /* \"#utility.yul\":1492:1556   */\n  tag_12\n  jump\t// in\ntag_38:\n    /* \"#utility.yul\":1482:1556   */\n  swap3\n  pop\n    /* \"#utility.yul\":1438:1566   */\n  pop\n    /* \"#utility.yul\":1605:1607   */\n  0x20\n    /* \"#utility.yul\":1631:1695   */\n  tag_39\n    /* \"#utility.yul\":1687:1694   */\n  dup6\n    /* \"#utility.yul\":1678:1684   */\n  dup3\n    /* \"#utility.yul\":1667:1676   */\n  dup7\n    /* \"#utility.yul\":1663:1685   */\n  add\n    /* \"#utility.yul\":1631:1695   */\n  tag_16\n  jump\t// in\ntag_39:\n    /* \"#utility.yul\":1621:1695   */\n  swap2\n  pop\n    /* \"#utility.yul\":1576:1705   */\n  pop\n    /* \"#utility.yul\":1205:1712   */\n  swap3\n  pop\n  swap3\n  swap1\n  pop\n  jump\t// out\n    /* \"Campaign.sol\":449:3060  contract Campaign {... */\ntag_6:\n  dataSize(sub_0)\n  dup1\n  dataOffset(sub_0)\n  0x00\n  codecopy\n  0x00\n  return\nstop\n\nsub_0: assembly {\n        /* \"Campaign.sol\":449:3060  contract Campaign {... */\n      mstore(0x40, 0x80)\n      jumpi(tag_1, lt(calldatasize, 0x04))\n      shr(0xe0, calldataload(0x00))\n      dup1\n      0x8a9cfd55\n      gt\n      tag_13\n      jumpi\n      dup1\n      0x8a9cfd55\n      eq\n      tag_7\n      jumpi\n      dup1\n      0x8f9a6fee\n      eq\n      tag_8\n      jumpi\n      dup1\n      0x937e09b1\n      eq\n      tag_9\n      jumpi\n      dup1\n      0xa00c96d7\n      eq\n      tag_10\n      jumpi\n      dup1\n      0xd7bb99ba\n      eq\n      tag_11\n      jumpi\n      dup1\n      0xd7d1bbdb\n      eq\n      tag_12\n      jumpi\n      jump(tag_1)\n    tag_13:\n      dup1\n      0x1f6d4942\n      eq\n      tag_2\n      jumpi\n      dup1\n      0x278d2ee0\n      eq\n      tag_3\n      jumpi\n      dup1\n      0x481c6a75\n      eq\n      tag_4\n      jumpi\n      dup1\n      0x7569b3d7\n      eq\n      tag_5\n      jumpi\n      dup1\n      0x81d12c58\n      eq\n      tag_6\n      jumpi\n    tag_1:\n      0x00\n      dup1\n      revert\n        /* \"Campaign.sol\":865:909  mapping(address => bool) public contributors */\n    tag_2:\n      callvalue\n      dup1\n      iszero\n      tag_14\n      jumpi\n      0x00\n      dup1\n      revert\n    tag_14:\n      pop\n      tag_15\n      0x04\n      dup1\n      calldatasize\n      sub\n      dup2\n      add\n      swap1\n      tag_16\n      swap2\n      swap1\n      tag_17\n      jump\t// in\n    tag_16:\n      tag_18\n      jump\t// in\n    tag_15:\n      mload(0x40)\n      tag_19\n      swap2\n      swap1\n      tag_20\n      jump\t// in\n    tag_19:\n      mload(0x40)\n      dup1\n      swap2\n      sub\n      swap1\n      return\n        /* \"Campaign.sol\":716:744  uint public numberofRequests */\n    tag_3:\n      callvalue\n      dup1\n      iszero\n      tag_21\n      jumpi\n      0x00\n      dup1\n      revert\n    tag_21:\n      pop\n      tag_22\n      tag_23\n      jump\t// in\n    tag_22:\n      mload(0x40)\n      tag_24\n      swap2\n      swap1\n      tag_25\n      jump\t// in\n    tag_24:\n      mload(0x40)\n      dup1\n      swap2\n      sub\n      swap1\n      return\n        /* \"Campaign.sol\":798:820  address public manager */\n    tag_4:\n      callvalue\n      dup1\n      iszero\n      tag_26\n      jumpi\n      0x00\n      dup1\n      revert\n    tag_26:\n      pop\n      tag_27\n      tag_28\n      jump\t// in\n    tag_27:\n      mload(0x40)\n      tag_29\n      swap2\n      swap1\n      tag_30\n      jump\t// in\n    tag_29:\n      mload(0x40)\n      dup1\n      swap2\n      sub\n      swap1\n      return\n        /* \"Campaign.sol\":680:709  uint public contributorsCount */\n    tag_5:\n      callvalue\n      dup1\n      iszero\n      tag_31\n      jumpi\n      0x00\n      dup1\n      revert\n    tag_31:\n      pop\n      tag_32\n      tag_33\n      jump\t// in\n    tag_32:\n      mload(0x40)\n      tag_34\n      swap2\n      swap1\n      tag_25\n      jump\t// in\n    tag_34:\n      mload(0x40)\n      dup1\n      swap2\n      sub\n      swap1\n      return\n        /* \"Campaign.sol\":751:791  mapping(uint => Request) public requests */\n    tag_6:\n      callvalue\n      dup1\n      iszero\n      tag_35\n      jumpi\n      0x00\n      dup1\n      revert\n    tag_35:\n      pop\n      tag_36\n      0x04\n      dup1\n      calldatasize\n      sub\n      dup2\n      add\n      swap1\n      tag_37\n      swap2\n      swap1\n      tag_38\n      jump\t// in\n    tag_37:\n      tag_39\n      jump\t// in\n    tag_36:\n      mload(0x40)\n      tag_40\n      swap6\n      swap5\n      swap4\n      swap3\n      swap2\n      swap1\n      tag_41\n      jump\t// in\n    tag_40:\n      mload(0x40)\n      dup1\n      swap2\n      sub\n      swap1\n      return\n        /* \"Campaign.sol\":1499:1950  function createRequest(string memory description, uint value, address receiver) ... */\n    tag_7:\n      callvalue\n      dup1\n      iszero\n      tag_42\n      jumpi\n      0x00\n      dup1\n      revert\n    tag_42:\n      pop\n      tag_43\n      0x04\n      dup1\n      calldatasize\n      sub\n      dup2\n      add\n      swap1\n      tag_44\n      swap2\n      swap1\n      tag_45\n      jump\t// in\n    tag_44:\n      tag_46\n      jump\t// in\n    tag_43:\n      stop\n        /* \"Campaign.sol\":2340:2768  function confirmApproval(uint index) public restricted payable {... */\n    tag_8:\n      tag_47\n      0x04\n      dup1\n      calldatasize\n      sub\n      dup2\n      add\n      swap1\n      tag_48\n      swap2\n      swap1\n      tag_38\n      jump\t// in\n    tag_48:\n      tag_49\n      jump\t// in\n    tag_47:\n      stop\n        /* \"Campaign.sol\":827:858  uint public minimumContribution */\n    tag_9:\n      callvalue\n      dup1\n      iszero\n      tag_50\n      jumpi\n      0x00\n      dup1\n      revert\n    tag_50:\n      pop\n      tag_51\n      tag_52\n      jump\t// in\n    tag_51:\n      mload(0x40)\n      tag_53\n      swap2\n      swap1\n      tag_25\n      jump\t// in\n    tag_53:\n      mload(0x40)\n      dup1\n      swap2\n      sub\n      swap1\n      return\n        /* \"Campaign.sol\":2777:3053  function getCampaignSummary () public view returns (uint, uint, uint, uint, address){... */\n    tag_10:\n      callvalue\n      dup1\n      iszero\n      tag_54\n      jumpi\n      0x00\n      dup1\n      revert\n    tag_54:\n      pop\n      tag_55\n      tag_56\n      jump\t// in\n    tag_55:\n      mload(0x40)\n      tag_57\n      swap6\n      swap5\n      swap4\n      swap3\n      swap2\n      swap1\n      tag_58\n      jump\t// in\n    tag_57:\n      mload(0x40)\n      dup1\n      swap2\n      sub\n      swap1\n      return\n        /* \"Campaign.sol\":1189:1491  function contribute() public payable {... */\n    tag_11:\n      tag_59\n      tag_60\n      jump\t// in\n    tag_59:\n      stop\n        /* \"Campaign.sol\":1958:2332  function approveRequest(uint index) public {... */\n    tag_12:\n      callvalue\n      dup1\n      iszero\n      tag_61\n      jumpi\n      0x00\n      dup1\n      revert\n    tag_61:\n      pop\n      tag_62\n      0x04\n      dup1\n      calldatasize\n      sub\n      dup2\n      add\n      swap1\n      tag_63\n      swap2\n      swap1\n      tag_38\n      jump\t// in\n    tag_63:\n      tag_64\n      jump\t// in\n    tag_62:\n      stop\n        /* \"Campaign.sol\":865:909  mapping(address => bool) public contributors */\n    tag_18:\n      mstore(0x20, 0x05)\n      dup1\n      0x00\n      mstore\n      keccak256(0x00, 0x40)\n      0x00\n      swap2\n      pop\n      sload\n      swap1\n      0x0100\n      exp\n      swap1\n      div\n      0xff\n      and\n      dup2\n      jump\t// out\n        /* \"Campaign.sol\":716:744  uint public numberofRequests */\n    tag_23:\n      sload(0x01)\n      dup2\n      jump\t// out\n        /* \"Campaign.sol\":798:820  address public manager */\n    tag_28:\n      0x03\n      0x00\n      swap1\n      sload\n      swap1\n      0x0100\n      exp\n      swap1\n      div\n      0xffffffffffffffffffffffffffffffffffffffff\n      and\n      dup2\n      jump\t// out\n        /* \"Campaign.sol\":680:709  uint public contributorsCount */\n    tag_33:\n      sload(0x00)\n      dup2\n      jump\t// out\n        /* \"Campaign.sol\":751:791  mapping(uint => Request) public requests */\n    tag_39:\n      mstore(0x20, 0x02)\n      dup1\n      0x00\n      mstore\n      keccak256(0x00, 0x40)\n      0x00\n      swap2\n      pop\n      swap1\n      pop\n      dup1\n      0x00\n      add\n      dup1\n      sload\n      tag_65\n      swap1\n      tag_66\n      jump\t// in\n    tag_65:\n      dup1\n      0x1f\n      add\n      0x20\n      dup1\n      swap2\n      div\n      mul\n      0x20\n      add\n      mload(0x40)\n      swap1\n      dup2\n      add\n      0x40\n      mstore\n      dup1\n      swap3\n      swap2\n      swap1\n      dup2\n      dup2\n      mstore\n      0x20\n      add\n      dup3\n      dup1\n      sload\n      tag_67\n      swap1\n      tag_66\n      jump\t// in\n    tag_67:\n      dup1\n      iszero\n      tag_68\n      jumpi\n      dup1\n      0x1f\n      lt\n      tag_69\n      jumpi\n      0x0100\n      dup1\n      dup4\n      sload\n      div\n      mul\n      dup4\n      mstore\n      swap2\n      0x20\n      add\n      swap2\n      jump(tag_68)\n    tag_69:\n      dup3\n      add\n      swap2\n      swap1\n      0x00\n      mstore\n      keccak256(0x00, 0x20)\n      swap1\n    tag_70:\n      dup2\n      sload\n      dup2\n      mstore\n      swap1\n      0x01\n      add\n      swap1\n      0x20\n      add\n      dup1\n      dup4\n      gt\n      tag_70\n      jumpi\n      dup3\n      swap1\n      sub\n      0x1f\n      and\n      dup3\n      add\n      swap2\n    tag_68:\n      pop\n      pop\n      pop\n      pop\n      pop\n      swap1\n      dup1\n      0x01\n      add\n      sload\n      swap1\n      dup1\n      0x02\n      add\n      0x00\n      swap1\n      sload\n      swap1\n      0x0100\n      exp\n      swap1\n      div\n      0xffffffffffffffffffffffffffffffffffffffff\n      and\n      swap1\n      dup1\n      0x02\n      add\n      0x14\n      swap1\n      sload\n      swap1\n      0x0100\n      exp\n      swap1\n      div\n      0xff\n      and\n      swap1\n      dup1\n      0x03\n      add\n      sload\n      swap1\n      pop\n      dup6\n      jump\t// out\n        /* \"Campaign.sol\":1499:1950  function createRequest(string memory description, uint value, address receiver) ... */\n    tag_46:\n        /* \"Campaign.sol\":1107:1114  manager */\n      0x03\n      0x00\n      swap1\n      sload\n      swap1\n      0x0100\n      exp\n      swap1\n      div\n      0xffffffffffffffffffffffffffffffffffffffff\n      and\n        /* \"Campaign.sol\":1093:1114  msg.sender == manager */\n      0xffffffffffffffffffffffffffffffffffffffff\n      and\n        /* \"Campaign.sol\":1093:1103  msg.sender */\n      caller\n        /* \"Campaign.sol\":1093:1114  msg.sender == manager */\n      0xffffffffffffffffffffffffffffffffffffffff\n      and\n      eq\n        /* \"Campaign.sol\":1085:1159  require(msg.sender == manager, \"Only the Manager can perform this action\") */\n      tag_72\n      jumpi\n      mload(0x40)\n      0x08c379a000000000000000000000000000000000000000000000000000000000\n      dup2\n      mstore\n      0x04\n      add\n      tag_73\n      swap1\n      tag_74\n      jump\t// in\n    tag_73:\n      mload(0x40)\n      dup1\n      swap2\n      sub\n      swap1\n      revert\n    tag_72:\n        /* \"Campaign.sol\":1617:1643  Request storage newRequest */\n      0x00\n        /* \"Campaign.sol\":1646:1654  requests */\n      0x02\n        /* \"Campaign.sol\":1646:1674  requests[numberofRequests++] */\n      0x00\n        /* \"Campaign.sol\":1655:1671  numberofRequests */\n      0x01\n      0x00\n        /* \"Campaign.sol\":1655:1673  numberofRequests++ */\n      dup2\n      sload\n      dup1\n      swap3\n      swap2\n      swap1\n      tag_76\n      swap1\n      tag_77\n      jump\t// in\n    tag_76:\n      swap2\n      swap1\n      pop\n      sstore\n        /* \"Campaign.sol\":1646:1674  requests[numberofRequests++] */\n      dup2\n      mstore\n      0x20\n      add\n      swap1\n      dup2\n      mstore\n      0x20\n      add\n      0x00\n      keccak256\n        /* \"Campaign.sol\":1617:1674  Request storage newRequest = requests[numberofRequests++] */\n      swap1\n      pop\n        /* \"Campaign.sol\":1711:1722  description */\n      dup4\n        /* \"Campaign.sol\":1686:1696  newRequest */\n      dup2\n        /* \"Campaign.sol\":1686:1708  newRequest.description */\n      0x00\n      add\n        /* \"Campaign.sol\":1686:1722  newRequest.description = description */\n      swap1\n      dup1\n      mload\n      swap1\n      0x20\n      add\n      swap1\n      tag_78\n      swap3\n      swap2\n      swap1\n      tag_79\n      jump\t// in\n    tag_78:\n      pop\n        /* \"Campaign.sol\":1753:1758  value */\n      dup3\n        /* \"Campaign.sol\":1734:1744  newRequest */\n      dup2\n        /* \"Campaign.sol\":1734:1750  newRequest.value */\n      0x01\n      add\n        /* \"Campaign.sol\":1734:1758  newRequest.value = value */\n      dup2\n      swap1\n      sstore\n      pop\n        /* \"Campaign.sol\":1792:1800  receiver */\n      dup2\n        /* \"Campaign.sol\":1770:1780  newRequest */\n      dup2\n        /* \"Campaign.sol\":1770:1789  newRequest.receiver */\n      0x02\n      add\n      0x00\n        /* \"Campaign.sol\":1770:1800  newRequest.receiver = receiver */\n      0x0100\n      exp\n      dup2\n      sload\n      dup2\n      0xffffffffffffffffffffffffffffffffffffffff\n      mul\n      not\n      and\n      swap1\n      dup4\n      0xffffffffffffffffffffffffffffffffffffffff\n      and\n      mul\n      or\n      swap1\n      sstore\n      pop\n        /* \"Campaign.sol\":1834:1839  false */\n      0x00\n        /* \"Campaign.sol\":1812:1822  newRequest */\n      dup2\n        /* \"Campaign.sol\":1812:1831  newRequest.complete */\n      0x02\n      add\n      0x14\n        /* \"Campaign.sol\":1812:1839  newRequest.complete = false */\n      0x0100\n      exp\n      dup2\n      sload\n      dup2\n      0xff\n      mul\n      not\n      and\n      swap1\n      dup4\n      iszero\n      iszero\n      mul\n      or\n      swap1\n      sstore\n      pop\n        /* \"Campaign.sol\":1878:1879  0 */\n      0x00\n        /* \"Campaign.sol\":1851:1861  newRequest */\n      dup2\n        /* \"Campaign.sol\":1851:1875  newRequest.approvalCount */\n      0x03\n      add\n        /* \"Campaign.sol\":1851:1879  newRequest.approvalCount = 0 */\n      dup2\n      swap1\n      sstore\n      pop\n        /* \"Campaign.sol\":1926:1931  false */\n      0x00\n        /* \"Campaign.sol\":1891:1901  newRequest */\n      dup2\n        /* \"Campaign.sol\":1891:1911  newRequest.approvals */\n      0x04\n      add\n        /* \"Campaign.sol\":1891:1923  newRequest.approvals[msg.sender] */\n      0x00\n        /* \"Campaign.sol\":1912:1922  msg.sender */\n      caller\n        /* \"Campaign.sol\":1891:1923  newRequest.approvals[msg.sender] */\n      0xffffffffffffffffffffffffffffffffffffffff\n      and\n      0xffffffffffffffffffffffffffffffffffffffff\n      and\n      dup2\n      mstore\n      0x20\n      add\n      swap1\n      dup2\n      mstore\n      0x20\n      add\n      0x00\n      keccak256\n      0x00\n        /* \"Campaign.sol\":1891:1931  newRequest.approvals[msg.sender] = false */\n      0x0100\n      exp\n      dup2\n      sload\n      dup2\n      0xff\n      mul\n      not\n      and\n      swap1\n      dup4\n      iszero\n      iszero\n      mul\n      or\n      swap1\n      sstore\n      pop\n        /* \"Campaign.sol\":1603:1950  {... */\n      pop\n        /* \"Campaign.sol\":1499:1950  function createRequest(string memory description, uint value, address receiver) ... */\n      pop\n      pop\n      pop\n      jump\t// out\n        /* \"Campaign.sol\":2340:2768  function confirmApproval(uint index) public restricted payable {... */\n    tag_49:\n        /* \"Campaign.sol\":1107:1114  manager */\n      0x03\n      0x00\n      swap1\n      sload\n      swap1\n      0x0100\n      exp\n      swap1\n      div\n      0xffffffffffffffffffffffffffffffffffffffff\n      and\n        /* \"Campaign.sol\":1093:1114  msg.sender == manager */\n      0xffffffffffffffffffffffffffffffffffffffff\n      and\n        /* \"Campaign.sol\":1093:1103  msg.sender */\n      caller\n        /* \"Campaign.sol\":1093:1114  msg.sender == manager */\n      0xffffffffffffffffffffffffffffffffffffffff\n      and\n      eq\n        /* \"Campaign.sol\":1085:1159  require(msg.sender == manager, \"Only the Manager can perform this action\") */\n      tag_81\n      jumpi\n      mload(0x40)\n      0x08c379a000000000000000000000000000000000000000000000000000000000\n      dup2\n      mstore\n      0x04\n      add\n      tag_82\n      swap1\n      tag_74\n      jump\t// in\n    tag_82:\n      mload(0x40)\n      dup1\n      swap2\n      sub\n      swap1\n      revert\n    tag_81:\n        /* \"Campaign.sol\":2414:2437  Request storage request */\n      0x00\n        /* \"Campaign.sol\":2440:2448  requests */\n      0x02\n        /* \"Campaign.sol\":2440:2455  requests[index] */\n      0x00\n        /* \"Campaign.sol\":2449:2454  index */\n      dup4\n        /* \"Campaign.sol\":2440:2455  requests[index] */\n      dup2\n      mstore\n      0x20\n      add\n      swap1\n      dup2\n      mstore\n      0x20\n      add\n      0x00\n      keccak256\n        /* \"Campaign.sol\":2414:2455  Request storage request = requests[index] */\n      swap1\n      pop\n        /* \"Campaign.sol\":2475:2482  request */\n      dup1\n        /* \"Campaign.sol\":2475:2491  request.complete */\n      0x02\n      add\n      0x14\n      swap1\n      sload\n      swap1\n      0x0100\n      exp\n      swap1\n      div\n      0xff\n      and\n        /* \"Campaign.sol\":2474:2491  !request.complete */\n      iszero\n        /* \"Campaign.sol\":2466:2551  require(!request.complete, \"You have already confirmed the approval of this Request\") */\n      tag_84\n      jumpi\n      mload(0x40)\n      0x08c379a000000000000000000000000000000000000000000000000000000000\n      dup2\n      mstore\n      0x04\n      add\n      tag_85\n      swap1\n      tag_86\n      jump\t// in\n    tag_85:\n      mload(0x40)\n      dup1\n      swap2\n      sub\n      swap1\n      revert\n    tag_84:\n        /* \"Campaign.sol\":2613:2614  2 */\n      0x02\n        /* \"Campaign.sol\":2595:2612  contributorsCount */\n      sload(0x00)\n        /* \"Campaign.sol\":2595:2614  contributorsCount/2 */\n      tag_87\n      swap2\n      swap1\n      tag_88\n      jump\t// in\n    tag_87:\n        /* \"Campaign.sol\":2570:2577  request */\n      dup2\n        /* \"Campaign.sol\":2570:2591  request.approvalCount */\n      0x03\n      add\n      sload\n        /* \"Campaign.sol\":2570:2615  request.approvalCount > (contributorsCount/2) */\n      gt\n        /* \"Campaign.sol\":2562:2666  require(request.approvalCount > (contributorsCount/2), \"At Least 50% of your contributors must approve\") */\n      tag_89\n      jumpi\n      mload(0x40)\n      0x08c379a000000000000000000000000000000000000000000000000000000000\n      dup2\n      mstore\n      0x04\n      add\n      tag_90\n      swap1\n      tag_91\n      jump\t// in\n    tag_90:\n      mload(0x40)\n      dup1\n      swap2\n      sub\n      swap1\n      revert\n    tag_89:\n        /* \"Campaign.sol\":2696:2700  true */\n      0x01\n        /* \"Campaign.sol\":2677:2684  request */\n      dup2\n        /* \"Campaign.sol\":2677:2693  request.complete */\n      0x02\n      add\n      0x14\n        /* \"Campaign.sol\":2677:2700  request.complete = true */\n      0x0100\n      exp\n      dup2\n      sload\n      dup2\n      0xff\n      mul\n      not\n      and\n      swap1\n      dup4\n      iszero\n      iszero\n      mul\n      or\n      swap1\n      sstore\n      pop\n        /* \"Campaign.sol\":2719:2726  request */\n      dup1\n        /* \"Campaign.sol\":2719:2735  request.receiver */\n      0x02\n      add\n      0x00\n      swap1\n      sload\n      swap1\n      0x0100\n      exp\n      swap1\n      div\n      0xffffffffffffffffffffffffffffffffffffffff\n      and\n        /* \"Campaign.sol\":2711:2745  payable(request.receiver).transfer */\n      0xffffffffffffffffffffffffffffffffffffffff\n      and\n        /* \"Campaign.sol\":2711:2760  payable(request.receiver).transfer(request.value) */\n      0x08fc\n        /* \"Campaign.sol\":2746:2753  request */\n      dup3\n        /* \"Campaign.sol\":2746:2759  request.value */\n      0x01\n      add\n      sload\n        /* \"Campaign.sol\":2711:2760  payable(request.receiver).transfer(request.value) */\n      swap1\n      dup2\n      iszero\n      mul\n      swap1\n      mload(0x40)\n      0x00\n      mload(0x40)\n      dup1\n      dup4\n      sub\n      dup2\n      dup6\n      dup9\n      dup9\n      call\n      swap4\n      pop\n      pop\n      pop\n      pop\n      iszero\n      dup1\n      iszero\n      tag_93\n      jumpi\n      returndatasize\n      0x00\n      dup1\n      returndatacopy\n      revert(0x00, returndatasize)\n    tag_93:\n      pop\n        /* \"Campaign.sol\":2403:2768  {... */\n      pop\n        /* \"Campaign.sol\":2340:2768  function confirmApproval(uint index) public restricted payable {... */\n      pop\n      jump\t// out\n        /* \"Campaign.sol\":827:858  uint public minimumContribution */\n    tag_52:\n      sload(0x04)\n      dup2\n      jump\t// out\n        /* \"Campaign.sol\":2777:3053  function getCampaignSummary () public view returns (uint, uint, uint, uint, address){... */\n    tag_56:\n        /* \"Campaign.sol\":2829:2833  uint */\n      0x00\n        /* \"Campaign.sol\":2835:2839  uint */\n      dup1\n        /* \"Campaign.sol\":2841:2845  uint */\n      0x00\n        /* \"Campaign.sol\":2847:2851  uint */\n      dup1\n        /* \"Campaign.sol\":2853:2860  address */\n      0x00\n        /* \"Campaign.sol\":2894:2913  minimumContribution */\n      sload(0x04)\n        /* \"Campaign.sol\":2928:2949  address(this).balance */\n      selfbalance\n        /* \"Campaign.sol\":2964:2981  contributorsCount */\n      sload(0x00)\n        /* \"Campaign.sol\":2996:3012  numberofRequests */\n      sload(0x01)\n        /* \"Campaign.sol\":3027:3034  manager */\n      0x03\n      0x00\n      swap1\n      sload\n      swap1\n      0x0100\n      exp\n      swap1\n      div\n      0xffffffffffffffffffffffffffffffffffffffff\n      and\n        /* \"Campaign.sol\":2872:3045  return (... */\n      swap5\n      pop\n      swap5\n      pop\n      swap5\n      pop\n      swap5\n      pop\n      swap5\n      pop\n        /* \"Campaign.sol\":2777:3053  function getCampaignSummary () public view returns (uint, uint, uint, uint, address){... */\n      swap1\n      swap2\n      swap3\n      swap4\n      swap5\n      jump\t// out\n        /* \"Campaign.sol\":1189:1491  function contribute() public payable {... */\n    tag_60:\n        /* \"Campaign.sol\":1257:1276  minimumContribution */\n      sload(0x04)\n        /* \"Campaign.sol\":1245:1254  msg.value */\n      callvalue\n        /* \"Campaign.sol\":1245:1276  msg.value > minimumContribution */\n      gt\n        /* \"Campaign.sol\":1237:1326  require(msg.value > minimumContribution, \"Your contribution is below the minimum amount\") */\n      tag_96\n      jumpi\n      mload(0x40)\n      0x08c379a000000000000000000000000000000000000000000000000000000000\n      dup2\n      mstore\n      0x04\n      add\n      tag_97\n      swap1\n      tag_98\n      jump\t// in\n    tag_97:\n      mload(0x40)\n      dup1\n      swap2\n      sub\n      swap1\n      revert\n    tag_96:\n        /* \"Campaign.sol\":1373:1378  false */\n      0x00\n        /* \"Campaign.sol\":1345:1378  contributors[msg.sender] == false */\n      iszero\n      iszero\n        /* \"Campaign.sol\":1345:1357  contributors */\n      0x05\n        /* \"Campaign.sol\":1345:1369  contributors[msg.sender] */\n      0x00\n        /* \"Campaign.sol\":1358:1368  msg.sender */\n      caller\n        /* \"Campaign.sol\":1345:1369  contributors[msg.sender] */\n      0xffffffffffffffffffffffffffffffffffffffff\n      and\n      0xffffffffffffffffffffffffffffffffffffffff\n      and\n      dup2\n      mstore\n      0x20\n      add\n      swap1\n      dup2\n      mstore\n      0x20\n      add\n      0x00\n      keccak256\n      0x00\n      swap1\n      sload\n      swap1\n      0x0100\n      exp\n      swap1\n      div\n      0xff\n      and\n        /* \"Campaign.sol\":1345:1378  contributors[msg.sender] == false */\n      iszero\n      iszero\n      eq\n        /* \"Campaign.sol\":1337:1411  require(contributors[msg.sender] == false, \"You have already contributed\") */\n      tag_99\n      jumpi\n      mload(0x40)\n      0x08c379a000000000000000000000000000000000000000000000000000000000\n      dup2\n      mstore\n      0x04\n      add\n      tag_100\n      swap1\n      tag_101\n      jump\t// in\n    tag_100:\n      mload(0x40)\n      dup1\n      swap2\n      sub\n      swap1\n      revert\n    tag_99:\n        /* \"Campaign.sol\":1449:1453  true */\n      0x01\n        /* \"Campaign.sol\":1422:1434  contributors */\n      0x05\n        /* \"Campaign.sol\":1422:1446  contributors[msg.sender] */\n      0x00\n        /* \"Campaign.sol\":1435:1445  msg.sender */\n      caller\n        /* \"Campaign.sol\":1422:1446  contributors[msg.sender] */\n      0xffffffffffffffffffffffffffffffffffffffff\n      and\n      0xffffffffffffffffffffffffffffffffffffffff\n      and\n      dup2\n      mstore\n      0x20\n      add\n      swap1\n      dup2\n      mstore\n      0x20\n      add\n      0x00\n      keccak256\n      0x00\n        /* \"Campaign.sol\":1422:1453  contributors[msg.sender] = true */\n      0x0100\n      exp\n      dup2\n      sload\n      dup2\n      0xff\n      mul\n      not\n      and\n      swap1\n      dup4\n      iszero\n      iszero\n      mul\n      or\n      swap1\n      sstore\n      pop\n        /* \"Campaign.sol\":1464:1481  contributorsCount */\n      0x00\n      dup1\n        /* \"Campaign.sol\":1464:1483  contributorsCount++ */\n      dup2\n      sload\n      dup1\n      swap3\n      swap2\n      swap1\n      tag_102\n      swap1\n      tag_77\n      jump\t// in\n    tag_102:\n      swap2\n      swap1\n      pop\n      sstore\n      pop\n        /* \"Campaign.sol\":1189:1491  function contribute() public payable {... */\n      jump\t// out\n        /* \"Campaign.sol\":1958:2332  function approveRequest(uint index) public {... */\n    tag_64:\n        /* \"Campaign.sol\":2012:2035  Request storage request */\n      0x00\n        /* \"Campaign.sol\":2038:2046  requests */\n      0x02\n        /* \"Campaign.sol\":2038:2053  requests[index] */\n      0x00\n        /* \"Campaign.sol\":2047:2052  index */\n      dup4\n        /* \"Campaign.sol\":2038:2053  requests[index] */\n      dup2\n      mstore\n      0x20\n      add\n      swap1\n      dup2\n      mstore\n      0x20\n      add\n      0x00\n      keccak256\n        /* \"Campaign.sol\":2012:2053  Request storage request = requests[index] */\n      swap1\n      pop\n        /* \"Campaign.sol\":2100:2104  true */\n      0x01\n        /* \"Campaign.sol\":2072:2104  contributors[msg.sender] == true */\n      iszero\n      iszero\n        /* \"Campaign.sol\":2072:2084  contributors */\n      0x05\n        /* \"Campaign.sol\":2072:2096  contributors[msg.sender] */\n      0x00\n        /* \"Campaign.sol\":2085:2095  msg.sender */\n      caller\n        /* \"Campaign.sol\":2072:2096  contributors[msg.sender] */\n      0xffffffffffffffffffffffffffffffffffffffff\n      and\n      0xffffffffffffffffffffffffffffffffffffffff\n      and\n      dup2\n      mstore\n      0x20\n      add\n      swap1\n      dup2\n      mstore\n      0x20\n      add\n      0x00\n      keccak256\n      0x00\n      swap1\n      sload\n      swap1\n      0x0100\n      exp\n      swap1\n      div\n      0xff\n      and\n        /* \"Campaign.sol\":2072:2104  contributors[msg.sender] == true */\n      iszero\n      iszero\n      eq\n        /* \"Campaign.sol\":2064:2151  require(contributors[msg.sender] == true, \"Only Contributors can approve this Request\") */\n      tag_104\n      jumpi\n      mload(0x40)\n      0x08c379a000000000000000000000000000000000000000000000000000000000\n      dup2\n      mstore\n      0x04\n      add\n      tag_105\n      swap1\n      tag_106\n      jump\t// in\n    tag_105:\n      mload(0x40)\n      dup1\n      swap2\n      sub\n      swap1\n      revert\n    tag_104:\n        /* \"Campaign.sol\":2171:2178  request */\n      dup1\n        /* \"Campaign.sol\":2171:2188  request.approvals */\n      0x04\n      add\n        /* \"Campaign.sol\":2171:2200  request.approvals[msg.sender] */\n      0x00\n        /* \"Campaign.sol\":2189:2199  msg.sender */\n      caller\n        /* \"Campaign.sol\":2171:2200  request.approvals[msg.sender] */\n      0xffffffffffffffffffffffffffffffffffffffff\n      and\n      0xffffffffffffffffffffffffffffffffffffffff\n      and\n      dup2\n      mstore\n      0x20\n      add\n      swap1\n      dup2\n      mstore\n      0x20\n      add\n      0x00\n      keccak256\n      0x00\n      swap1\n      sload\n      swap1\n      0x0100\n      exp\n      swap1\n      div\n      0xff\n      and\n        /* \"Campaign.sol\":2170:2200  !request.approvals[msg.sender] */\n      iszero\n        /* \"Campaign.sol\":2162:2243  require(!request.approvals[msg.sender], \"You have already approved this Request\") */\n      tag_107\n      jumpi\n      mload(0x40)\n      0x08c379a000000000000000000000000000000000000000000000000000000000\n      dup2\n      mstore\n      0x04\n      add\n      tag_108\n      swap1\n      tag_109\n      jump\t// in\n    tag_108:\n      mload(0x40)\n      dup1\n      swap2\n      sub\n      swap1\n      revert\n    tag_107:\n        /* \"Campaign.sol\":2286:2290  true */\n      0x01\n        /* \"Campaign.sol\":2254:2261  request */\n      dup2\n        /* \"Campaign.sol\":2254:2271  request.approvals */\n      0x04\n      add\n        /* \"Campaign.sol\":2254:2283  request.approvals[msg.sender] */\n      0x00\n        /* \"Campaign.sol\":2272:2282  msg.sender */\n      caller\n        /* \"Campaign.sol\":2254:2283  request.approvals[msg.sender] */\n      0xffffffffffffffffffffffffffffffffffffffff\n      and\n      0xffffffffffffffffffffffffffffffffffffffff\n      and\n      dup2\n      mstore\n      0x20\n      add\n      swap1\n      dup2\n      mstore\n      0x20\n      add\n      0x00\n      keccak256\n      0x00\n        /* \"Campaign.sol\":2254:2290  request.approvals[msg.sender] = true */\n      0x0100\n      exp\n      dup2\n      sload\n      dup2\n      0xff\n      mul\n      not\n      and\n      swap1\n      dup4\n      iszero\n      iszero\n      mul\n      or\n      swap1\n      sstore\n      pop\n        /* \"Campaign.sol\":2301:2308  request */\n      dup1\n        /* \"Campaign.sol\":2301:2322  request.approvalCount */\n      0x03\n      add\n      0x00\n        /* \"Campaign.sol\":2301:2324  request.approvalCount++ */\n      dup2\n      sload\n      dup1\n      swap3\n      swap2\n      swap1\n      tag_110\n      swap1\n      tag_77\n      jump\t// in\n    tag_110:\n      swap2\n      swap1\n      pop\n      sstore\n      pop\n        /* \"Campaign.sol\":2001:2332  {... */\n      pop\n        /* \"Campaign.sol\":1958:2332  function approveRequest(uint index) public {... */\n      pop\n      jump\t// out\n    tag_79:\n      dup3\n      dup1\n      sload\n      tag_111\n      swap1\n      tag_66\n      jump\t// in\n    tag_111:\n      swap1\n      0x00\n      mstore\n      keccak256(0x00, 0x20)\n      swap1\n      0x1f\n      add\n      0x20\n      swap1\n      div\n      dup2\n      add\n      swap3\n      dup3\n      tag_113\n      jumpi\n      0x00\n      dup6\n      sstore\n      jump(tag_112)\n    tag_113:\n      dup3\n      0x1f\n      lt\n      tag_114\n      jumpi\n      dup1\n      mload\n      not(0xff)\n      and\n      dup4\n      dup1\n      add\n      or\n      dup6\n      sstore\n      jump(tag_112)\n    tag_114:\n      dup3\n      dup1\n      add\n      0x01\n      add\n      dup6\n      sstore\n      dup3\n      iszero\n      tag_112\n      jumpi\n      swap2\n      dup3\n      add\n    tag_115:\n      dup3\n      dup2\n      gt\n      iszero\n      tag_116\n      jumpi\n      dup3\n      mload\n      dup3\n      sstore\n      swap2\n      0x20\n      add\n      swap2\n      swap1\n      0x01\n      add\n      swap1\n      jump(tag_115)\n    tag_116:\n    tag_112:\n      pop\n      swap1\n      pop\n      tag_117\n      swap2\n      swap1\n      tag_118\n      jump\t// in\n    tag_117:\n      pop\n      swap1\n      jump\t// out\n    tag_118:\n    tag_119:\n      dup1\n      dup3\n      gt\n      iszero\n      tag_120\n      jumpi\n      0x00\n      dup2\n      0x00\n      swap1\n      sstore\n      pop\n      0x01\n      add\n      jump(tag_119)\n    tag_120:\n      pop\n      swap1\n      jump\t// out\n        /* \"#utility.yul\":7:82   */\n    tag_121:\n        /* \"#utility.yul\":40:46   */\n      0x00\n        /* \"#utility.yul\":73:75   */\n      0x40\n        /* \"#utility.yul\":67:76   */\n      mload\n        /* \"#utility.yul\":57:76   */\n      swap1\n      pop\n        /* \"#utility.yul\":7:82   */\n      swap1\n      jump\t// out\n        /* \"#utility.yul\":88:205   */\n    tag_122:\n        /* \"#utility.yul\":197:198   */\n      0x00\n        /* \"#utility.yul\":194:195   */\n      dup1\n        /* \"#utility.yul\":187:199   */\n      revert\n        /* \"#utility.yul\":211:328   */\n    tag_123:\n        /* \"#utility.yul\":320:321   */\n      0x00\n        /* \"#utility.yul\":317:318   */\n      dup1\n        /* \"#utility.yul\":310:322   */\n      revert\n        /* \"#utility.yul\":334:460   */\n    tag_124:\n        /* \"#utility.yul\":371:378   */\n      0x00\n        /* \"#utility.yul\":411:453   */\n      0xffffffffffffffffffffffffffffffffffffffff\n        /* \"#utility.yul\":404:409   */\n      dup3\n        /* \"#utility.yul\":400:454   */\n      and\n        /* \"#utility.yul\":389:454   */\n      swap1\n      pop\n        /* \"#utility.yul\":334:460   */\n      swap2\n      swap1\n      pop\n      jump\t// out\n        /* \"#utility.yul\":466:562   */\n    tag_125:\n        /* \"#utility.yul\":503:510   */\n      0x00\n        /* \"#utility.yul\":532:556   */\n      tag_172\n        /* \"#utility.yul\":550:555   */\n      dup3\n        /* \"#utility.yul\":532:556   */\n      tag_124\n      jump\t// in\n    tag_172:\n        /* \"#utility.yul\":521:556   */\n      swap1\n      pop\n        /* \"#utility.yul\":466:562   */\n      swap2\n      swap1\n      pop\n      jump\t// out\n        /* \"#utility.yul\":568:690   */\n    tag_126:\n        /* \"#utility.yul\":641:665   */\n      tag_174\n        /* \"#utility.yul\":659:664   */\n      dup2\n        /* \"#utility.yul\":641:665   */\n      tag_125\n      jump\t// in\n    tag_174:\n        /* \"#utility.yul\":634:639   */\n      dup2\n        /* \"#utility.yul\":631:666   */\n      eq\n        /* \"#utility.yul\":621:684   */\n      tag_175\n      jumpi\n        /* \"#utility.yul\":680:681   */\n      0x00\n        /* \"#utility.yul\":677:678   */\n      dup1\n        /* \"#utility.yul\":670:682   */\n      revert\n        /* \"#utility.yul\":621:684   */\n    tag_175:\n        /* \"#utility.yul\":568:690   */\n      pop\n      jump\t// out\n        /* \"#utility.yul\":696:835   */\n    tag_127:\n        /* \"#utility.yul\":742:747   */\n      0x00\n        /* \"#utility.yul\":780:786   */\n      dup2\n        /* \"#utility.yul\":767:787   */\n      calldataload\n        /* \"#utility.yul\":758:787   */\n      swap1\n      pop\n        /* \"#utility.yul\":796:829   */\n      tag_177\n        /* \"#utility.yul\":823:828   */\n      dup2\n        /* \"#utility.yul\":796:829   */\n      tag_126\n      jump\t// in\n    tag_177:\n        /* \"#utility.yul\":696:835   */\n      swap3\n      swap2\n      pop\n      pop\n      jump\t// out\n        /* \"#utility.yul\":841:1170   */\n    tag_17:\n        /* \"#utility.yul\":900:906   */\n      0x00\n        /* \"#utility.yul\":949:951   */\n      0x20\n        /* \"#utility.yul\":937:946   */\n      dup3\n        /* \"#utility.yul\":928:935   */\n      dup5\n        /* \"#utility.yul\":924:947   */\n      sub\n        /* \"#utility.yul\":920:952   */\n      slt\n        /* \"#utility.yul\":917:1036   */\n      iszero\n      tag_179\n      jumpi\n        /* \"#utility.yul\":955:1034   */\n      tag_180\n      tag_122\n      jump\t// in\n    tag_180:\n        /* \"#utility.yul\":917:1036   */\n    tag_179:\n        /* \"#utility.yul\":1075:1076   */\n      0x00\n        /* \"#utility.yul\":1100:1153   */\n      tag_181\n        /* \"#utility.yul\":1145:1152   */\n      dup5\n        /* \"#utility.yul\":1136:1142   */\n      dup3\n        /* \"#utility.yul\":1125:1134   */\n      dup6\n        /* \"#utility.yul\":1121:1143   */\n      add\n        /* \"#utility.yul\":1100:1153   */\n      tag_127\n      jump\t// in\n    tag_181:\n        /* \"#utility.yul\":1090:1153   */\n      swap2\n      pop\n        /* \"#utility.yul\":1046:1163   */\n      pop\n        /* \"#utility.yul\":841:1170   */\n      swap3\n      swap2\n      pop\n      pop\n      jump\t// out\n        /* \"#utility.yul\":1176:1266   */\n    tag_128:\n        /* \"#utility.yul\":1210:1217   */\n      0x00\n        /* \"#utility.yul\":1253:1258   */\n      dup2\n        /* \"#utility.yul\":1246:1259   */\n      iszero\n        /* \"#utility.yul\":1239:1260   */\n      iszero\n        /* \"#utility.yul\":1228:1260   */\n      swap1\n      pop\n        /* \"#utility.yul\":1176:1266   */\n      swap2\n      swap1\n      pop\n      jump\t// out\n        /* \"#utility.yul\":1272:1381   */\n    tag_129:\n        /* \"#utility.yul\":1353:1374   */\n      tag_184\n        /* \"#utility.yul\":1368:1373   */\n      dup2\n        /* \"#utility.yul\":1353:1374   */\n      tag_128\n      jump\t// in\n    tag_184:\n        /* \"#utility.yul\":1348:1351   */\n      dup3\n        /* \"#utility.yul\":1341:1375   */\n      mstore\n        /* \"#utility.yul\":1272:1381   */\n      pop\n      pop\n      jump\t// out\n        /* \"#utility.yul\":1387:1597   */\n    tag_20:\n        /* \"#utility.yul\":1474:1478   */\n      0x00\n        /* \"#utility.yul\":1512:1514   */\n      0x20\n        /* \"#utility.yul\":1501:1510   */\n      dup3\n        /* \"#utility.yul\":1497:1515   */\n      add\n        /* \"#utility.yul\":1489:1515   */\n      swap1\n      pop\n        /* \"#utility.yul\":1525:1590   */\n      tag_186\n        /* \"#utility.yul\":1587:1588   */\n      0x00\n        /* \"#utility.yul\":1576:1585   */\n      dup4\n        /* \"#utility.yul\":1572:1589   */\n      add\n        /* \"#utility.yul\":1563:1569   */\n      dup5\n        /* \"#utility.yul\":1525:1590   */\n      tag_129\n      jump\t// in\n    tag_186:\n        /* \"#utility.yul\":1387:1597   */\n      swap3\n      swap2\n      pop\n      pop\n      jump\t// out\n        /* \"#utility.yul\":1603:1680   */\n    tag_130:\n        /* \"#utility.yul\":1640:1647   */\n      0x00\n        /* \"#utility.yul\":1669:1674   */\n      dup2\n        /* \"#utility.yul\":1658:1674   */\n      swap1\n      pop\n        /* \"#utility.yul\":1603:1680   */\n      swap2\n      swap1\n      pop\n      jump\t// out\n        /* \"#utility.yul\":1686:1804   */\n    tag_131:\n        /* \"#utility.yul\":1773:1797   */\n      tag_189\n        /* \"#utility.yul\":1791:1796   */\n      dup2\n        /* \"#utility.yul\":1773:1797   */\n      tag_130\n      jump\t// in\n    tag_189:\n        /* \"#utility.yul\":1768:1771   */\n      dup3\n        /* \"#utility.yul\":1761:1798   */\n      mstore\n        /* \"#utility.yul\":1686:1804   */\n      pop\n      pop\n      jump\t// out\n        /* \"#utility.yul\":1810:2032   */\n    tag_25:\n        /* \"#utility.yul\":1903:1907   */\n      0x00\n        /* \"#utility.yul\":1941:1943   */\n      0x20\n        /* \"#utility.yul\":1930:1939   */\n      dup3\n        /* \"#utility.yul\":1926:1944   */\n      add\n        /* \"#utility.yul\":1918:1944   */\n      swap1\n      pop\n        /* \"#utility.yul\":1954:2025   */\n      tag_191\n        /* \"#utility.yul\":2022:2023   */\n      0x00\n        /* \"#utility.yul\":2011:2020   */\n      dup4\n        /* \"#utility.yul\":2007:2024   */\n      add\n        /* \"#utility.yul\":1998:2004   */\n      dup5\n        /* \"#utility.yul\":1954:2025   */\n      tag_131\n      jump\t// in\n    tag_191:\n        /* \"#utility.yul\":1810:2032   */\n      swap3\n      swap2\n      pop\n      pop\n      jump\t// out\n        /* \"#utility.yul\":2038:2156   */\n    tag_132:\n        /* \"#utility.yul\":2125:2149   */\n      tag_193\n        /* \"#utility.yul\":2143:2148   */\n      dup2\n        /* \"#utility.yul\":2125:2149   */\n      tag_125\n      jump\t// in\n    tag_193:\n        /* \"#utility.yul\":2120:2123   */\n      dup3\n        /* \"#utility.yul\":2113:2150   */\n      mstore\n        /* \"#utility.yul\":2038:2156   */\n      pop\n      pop\n      jump\t// out\n        /* \"#utility.yul\":2162:2384   */\n    tag_30:\n        /* \"#utility.yul\":2255:2259   */\n      0x00\n        /* \"#utility.yul\":2293:2295   */\n      0x20\n        /* \"#utility.yul\":2282:2291   */\n      dup3\n        /* \"#utility.yul\":2278:2296   */\n      add\n        /* \"#utility.yul\":2270:2296   */\n      swap1\n      pop\n        /* \"#utility.yul\":2306:2377   */\n      tag_195\n        /* \"#utility.yul\":2374:2375   */\n      0x00\n        /* \"#utility.yul\":2363:2372   */\n      dup4\n        /* \"#utility.yul\":2359:2376   */\n      add\n        /* \"#utility.yul\":2350:2356   */\n      dup5\n        /* \"#utility.yul\":2306:2377   */\n      tag_132\n      jump\t// in\n    tag_195:\n        /* \"#utility.yul\":2162:2384   */\n      swap3\n      swap2\n      pop\n      pop\n      jump\t// out\n        /* \"#utility.yul\":2390:2512   */\n    tag_133:\n        /* \"#utility.yul\":2463:2487   */\n      tag_197\n        /* \"#utility.yul\":2481:2486   */\n      dup2\n        /* \"#utility.yul\":2463:2487   */\n      tag_130\n      jump\t// in\n    tag_197:\n        /* \"#utility.yul\":2456:2461   */\n      dup2\n        /* \"#utility.yul\":2453:2488   */\n      eq\n        /* \"#utility.yul\":2443:2506   */\n      tag_198\n      jumpi\n        /* \"#utility.yul\":2502:2503   */\n      0x00\n        /* \"#utility.yul\":2499:2500   */\n      dup1\n        /* \"#utility.yul\":2492:2504   */\n      revert\n        /* \"#utility.yul\":2443:2506   */\n    tag_198:\n        /* \"#utility.yul\":2390:2512   */\n      pop\n      jump\t// out\n        /* \"#utility.yul\":2518:2657   */\n    tag_134:\n        /* \"#utility.yul\":2564:2569   */\n      0x00\n        /* \"#utility.yul\":2602:2608   */\n      dup2\n        /* \"#utility.yul\":2589:2609   */\n      calldataload\n        /* \"#utility.yul\":2580:2609   */\n      swap1\n      pop\n        /* \"#utility.yul\":2618:2651   */\n      tag_200\n        /* \"#utility.yul\":2645:2650   */\n      dup2\n        /* \"#utility.yul\":2618:2651   */\n      tag_133\n      jump\t// in\n    tag_200:\n        /* \"#utility.yul\":2518:2657   */\n      swap3\n      swap2\n      pop\n      pop\n      jump\t// out\n        /* \"#utility.yul\":2663:2992   */\n    tag_38:\n        /* \"#utility.yul\":2722:2728   */\n      0x00\n        /* \"#utility.yul\":2771:2773   */\n      0x20\n        /* \"#utility.yul\":2759:2768   */\n      dup3\n        /* \"#utility.yul\":2750:2757   */\n      dup5\n        /* \"#utility.yul\":2746:2769   */\n      sub\n        /* \"#utility.yul\":2742:2774   */\n      slt\n        /* \"#utility.yul\":2739:2858   */\n      iszero\n      tag_202\n      jumpi\n        /* \"#utility.yul\":2777:2856   */\n      tag_203\n      tag_122\n      jump\t// in\n    tag_203:\n        /* \"#utility.yul\":2739:2858   */\n    tag_202:\n        /* \"#utility.yul\":2897:2898   */\n      0x00\n        /* \"#utility.yul\":2922:2975   */\n      tag_204\n        /* \"#utility.yul\":2967:2974   */\n      dup5\n        /* \"#utility.yul\":2958:2964   */\n      dup3\n        /* \"#utility.yul\":2947:2956   */\n      dup6\n        /* \"#utility.yul\":2943:2965   */\n      add\n        /* \"#utility.yul\":2922:2975   */\n      tag_134\n      jump\t// in\n    tag_204:\n        /* \"#utility.yul\":2912:2975   */\n      swap2\n      pop\n        /* \"#utility.yul\":2868:2985   */\n      pop\n        /* \"#utility.yul\":2663:2992   */\n      swap3\n      swap2\n      pop\n      pop\n      jump\t// out\n        /* \"#utility.yul\":2998:3097   */\n    tag_135:\n        /* \"#utility.yul\":3050:3056   */\n      0x00\n        /* \"#utility.yul\":3084:3089   */\n      dup2\n        /* \"#utility.yul\":3078:3090   */\n      mload\n        /* \"#utility.yul\":3068:3090   */\n      swap1\n      pop\n        /* \"#utility.yul\":2998:3097   */\n      swap2\n      swap1\n      pop\n      jump\t// out\n        /* \"#utility.yul\":3103:3272   */\n    tag_136:\n        /* \"#utility.yul\":3187:3198   */\n      0x00\n        /* \"#utility.yul\":3221:3227   */\n      dup3\n        /* \"#utility.yul\":3216:3219   */\n      dup3\n        /* \"#utility.yul\":3209:3228   */\n      mstore\n        /* \"#utility.yul\":3261:3265   */\n      0x20\n        /* \"#utility.yul\":3256:3259   */\n      dup3\n        /* \"#utility.yul\":3252:3266   */\n      add\n        /* \"#utility.yul\":3237:3266   */\n      swap1\n      pop\n        /* \"#utility.yul\":3103:3272   */\n      swap3\n      swap2\n      pop\n      pop\n      jump\t// out\n        /* \"#utility.yul\":3278:3585   */\n    tag_137:\n        /* \"#utility.yul\":3346:3347   */\n      0x00\n        /* \"#utility.yul\":3356:3469   */\n    tag_208:\n        /* \"#utility.yul\":3370:3376   */\n      dup4\n        /* \"#utility.yul\":3367:3368   */\n      dup2\n        /* \"#utility.yul\":3364:3377   */\n      lt\n        /* \"#utility.yul\":3356:3469   */\n      iszero\n      tag_210\n      jumpi\n        /* \"#utility.yul\":3455:3456   */\n      dup1\n        /* \"#utility.yul\":3450:3453   */\n      dup3\n        /* \"#utility.yul\":3446:3457   */\n      add\n        /* \"#utility.yul\":3440:3458   */\n      mload\n        /* \"#utility.yul\":3436:3437   */\n      dup2\n        /* \"#utility.yul\":3431:3434   */\n      dup5\n        /* \"#utility.yul\":3427:3438   */\n      add\n        /* \"#utility.yul\":3420:3459   */\n      mstore\n        /* \"#utility.yul\":3392:3394   */\n      0x20\n        /* \"#utility.yul\":3389:3390   */\n      dup2\n        /* \"#utility.yul\":3385:3395   */\n      add\n        /* \"#utility.yul\":3380:3395   */\n      swap1\n      pop\n        /* \"#utility.yul\":3356:3469   */\n      jump(tag_208)\n    tag_210:\n        /* \"#utility.yul\":3487:3493   */\n      dup4\n        /* \"#utility.yul\":3484:3485   */\n      dup2\n        /* \"#utility.yul\":3481:3494   */\n      gt\n        /* \"#utility.yul\":3478:3579   */\n      iszero\n      tag_211\n      jumpi\n        /* \"#utility.yul\":3567:3568   */\n      0x00\n        /* \"#utility.yul\":3558:3564   */\n      dup5\n        /* \"#utility.yul\":3553:3556   */\n      dup5\n        /* \"#utility.yul\":3549:3565   */\n      add\n        /* \"#utility.yul\":3542:3569   */\n      mstore\n        /* \"#utility.yul\":3478:3579   */\n    tag_211:\n        /* \"#utility.yul\":3327:3585   */\n      pop\n        /* \"#utility.yul\":3278:3585   */\n      pop\n      pop\n      pop\n      jump\t// out\n        /* \"#utility.yul\":3591:3693   */\n    tag_138:\n        /* \"#utility.yul\":3632:3638   */\n      0x00\n        /* \"#utility.yul\":3683:3685   */\n      0x1f\n        /* \"#utility.yul\":3679:3686   */\n      not\n        /* \"#utility.yul\":3674:3676   */\n      0x1f\n        /* \"#utility.yul\":3667:3672   */\n      dup4\n        /* \"#utility.yul\":3663:3677   */\n      add\n        /* \"#utility.yul\":3659:3687   */\n      and\n        /* \"#utility.yul\":3649:3687   */\n      swap1\n      pop\n        /* \"#utility.yul\":3591:3693   */\n      swap2\n      swap1\n      pop\n      jump\t// out\n        /* \"#utility.yul\":3699:4063   */\n    tag_139:\n        /* \"#utility.yul\":3787:3790   */\n      0x00\n        /* \"#utility.yul\":3815:3854   */\n      tag_214\n        /* \"#utility.yul\":3848:3853   */\n      dup3\n        /* \"#utility.yul\":3815:3854   */\n      tag_135\n      jump\t// in\n    tag_214:\n        /* \"#utility.yul\":3870:3941   */\n      tag_215\n        /* \"#utility.yul\":3934:3940   */\n      dup2\n        /* \"#utility.yul\":3929:3932   */\n      dup6\n        /* \"#utility.yul\":3870:3941   */\n      tag_136\n      jump\t// in\n    tag_215:\n        /* \"#utility.yul\":3863:3941   */\n      swap4\n      pop\n        /* \"#utility.yul\":3950:4002   */\n      tag_216\n        /* \"#utility.yul\":3995:4001   */\n      dup2\n        /* \"#utility.yul\":3990:3993   */\n      dup6\n        /* \"#utility.yul\":3983:3987   */\n      0x20\n        /* \"#utility.yul\":3976:3981   */\n      dup7\n        /* \"#utility.yul\":3972:3988   */\n      add\n        /* \"#utility.yul\":3950:4002   */\n      tag_137\n      jump\t// in\n    tag_216:\n        /* \"#utility.yul\":4027:4056   */\n      tag_217\n        /* \"#utility.yul\":4049:4055   */\n      dup2\n        /* \"#utility.yul\":4027:4056   */\n      tag_138\n      jump\t// in\n    tag_217:\n        /* \"#utility.yul\":4022:4025   */\n      dup5\n        /* \"#utility.yul\":4018:4057   */\n      add\n        /* \"#utility.yul\":4011:4057   */\n      swap2\n      pop\n        /* \"#utility.yul\":3791:4063   */\n      pop\n        /* \"#utility.yul\":3699:4063   */\n      swap3\n      swap2\n      pop\n      pop\n      jump\t// out\n        /* \"#utility.yul\":4069:4812   */\n    tag_41:\n        /* \"#utility.yul\":4288:4292   */\n      0x00\n        /* \"#utility.yul\":4326:4329   */\n      0xa0\n        /* \"#utility.yul\":4315:4324   */\n      dup3\n        /* \"#utility.yul\":4311:4330   */\n      add\n        /* \"#utility.yul\":4303:4330   */\n      swap1\n      pop\n        /* \"#utility.yul\":4376:4385   */\n      dup2\n        /* \"#utility.yul\":4370:4374   */\n      dup2\n        /* \"#utility.yul\":4366:4386   */\n      sub\n        /* \"#utility.yul\":4362:4363   */\n      0x00\n        /* \"#utility.yul\":4351:4360   */\n      dup4\n        /* \"#utility.yul\":4347:4364   */\n      add\n        /* \"#utility.yul\":4340:4387   */\n      mstore\n        /* \"#utility.yul\":4404:4482   */\n      tag_219\n        /* \"#utility.yul\":4477:4481   */\n      dup2\n        /* \"#utility.yul\":4468:4474   */\n      dup9\n        /* \"#utility.yul\":4404:4482   */\n      tag_139\n      jump\t// in\n    tag_219:\n        /* \"#utility.yul\":4396:4482   */\n      swap1\n      pop\n        /* \"#utility.yul\":4492:4564   */\n      tag_220\n        /* \"#utility.yul\":4560:4562   */\n      0x20\n        /* \"#utility.yul\":4549:4558   */\n      dup4\n        /* \"#utility.yul\":4545:4563   */\n      add\n        /* \"#utility.yul\":4536:4542   */\n      dup8\n        /* \"#utility.yul\":4492:4564   */\n      tag_131\n      jump\t// in\n    tag_220:\n        /* \"#utility.yul\":4574:4646   */\n      tag_221\n        /* \"#utility.yul\":4642:4644   */\n      0x40\n        /* \"#utility.yul\":4631:4640   */\n      dup4\n        /* \"#utility.yul\":4627:4645   */\n      add\n        /* \"#utility.yul\":4618:4624   */\n      dup7\n        /* \"#utility.yul\":4574:4646   */\n      tag_132\n      jump\t// in\n    tag_221:\n        /* \"#utility.yul\":4656:4722   */\n      tag_222\n        /* \"#utility.yul\":4718:4720   */\n      0x60\n        /* \"#utility.yul\":4707:4716   */\n      dup4\n        /* \"#utility.yul\":4703:4721   */\n      add\n        /* \"#utility.yul\":4694:4700   */\n      dup6\n        /* \"#utility.yul\":4656:4722   */\n      tag_129\n      jump\t// in\n    tag_222:\n        /* \"#utility.yul\":4732:4805   */\n      tag_223\n        /* \"#utility.yul\":4800:4803   */\n      0x80\n        /* \"#utility.yul\":4789:4798   */\n      dup4\n        /* \"#utility.yul\":4785:4804   */\n      add\n        /* \"#utility.yul\":4776:4782   */\n      dup5\n        /* \"#utility.yul\":4732:4805   */\n      tag_131\n      jump\t// in\n    tag_223:\n        /* \"#utility.yul\":4069:4812   */\n      swap7\n      swap6\n      pop\n      pop\n      pop\n      pop\n      pop\n      pop\n      jump\t// out\n        /* \"#utility.yul\":4818:4935   */\n    tag_140:\n        /* \"#utility.yul\":4927:4928   */\n      0x00\n        /* \"#utility.yul\":4924:4925   */\n      dup1\n        /* \"#utility.yul\":4917:4929   */\n      revert\n        /* \"#utility.yul\":4941:5058   */\n    tag_141:\n        /* \"#utility.yul\":5050:5051   */\n      0x00\n        /* \"#utility.yul\":5047:5048   */\n      dup1\n        /* \"#utility.yul\":5040:5052   */\n      revert\n        /* \"#utility.yul\":5064:5244   */\n    tag_142:\n        /* \"#utility.yul\":5112:5189   */\n      0x4e487b7100000000000000000000000000000000000000000000000000000000\n        /* \"#utility.yul\":5109:5110   */\n      0x00\n        /* \"#utility.yul\":5102:5190   */\n      mstore\n        /* \"#utility.yul\":5209:5213   */\n      0x41\n        /* \"#utility.yul\":5206:5207   */\n      0x04\n        /* \"#utility.yul\":5199:5214   */\n      mstore\n        /* \"#utility.yul\":5233:5237   */\n      0x24\n        /* \"#utility.yul\":5230:5231   */\n      0x00\n        /* \"#utility.yul\":5223:5238   */\n      revert\n        /* \"#utility.yul\":5250:5531   */\n    tag_143:\n        /* \"#utility.yul\":5333:5360   */\n      tag_228\n        /* \"#utility.yul\":5355:5359   */\n      dup3\n        /* \"#utility.yul\":5333:5360   */\n      tag_138\n      jump\t// in\n    tag_228:\n        /* \"#utility.yul\":5325:5331   */\n      dup2\n        /* \"#utility.yul\":5321:5361   */\n      add\n        /* \"#utility.yul\":5463:5469   */\n      dup2\n        /* \"#utility.yul\":5451:5461   */\n      dup2\n        /* \"#utility.yul\":5448:5470   */\n      lt\n        /* \"#utility.yul\":5427:5445   */\n      0xffffffffffffffff\n        /* \"#utility.yul\":5415:5425   */\n      dup3\n        /* \"#utility.yul\":5412:5446   */\n      gt\n        /* \"#utility.yul\":5409:5471   */\n      or\n        /* \"#utility.yul\":5406:5494   */\n      iszero\n      tag_229\n      jumpi\n        /* \"#utility.yul\":5474:5492   */\n      tag_230\n      tag_142\n      jump\t// in\n    tag_230:\n        /* \"#utility.yul\":5406:5494   */\n    tag_229:\n        /* \"#utility.yul\":5514:5524   */\n      dup1\n        /* \"#utility.yul\":5510:5512   */\n      0x40\n        /* \"#utility.yul\":5503:5525   */\n      mstore\n        /* \"#utility.yul\":5293:5531   */\n      pop\n        /* \"#utility.yul\":5250:5531   */\n      pop\n      pop\n      jump\t// out\n        /* \"#utility.yul\":5537:5666   */\n    tag_144:\n        /* \"#utility.yul\":5571:5577   */\n      0x00\n        /* \"#utility.yul\":5598:5618   */\n      tag_232\n      tag_121\n      jump\t// in\n    tag_232:\n        /* \"#utility.yul\":5588:5618   */\n      swap1\n      pop\n        /* \"#utility.yul\":5627:5660   */\n      tag_233\n        /* \"#utility.yul\":5655:5659   */\n      dup3\n        /* \"#utility.yul\":5647:5653   */\n      dup3\n        /* \"#utility.yul\":5627:5660   */\n      tag_143\n      jump\t// in\n    tag_233:\n        /* \"#utility.yul\":5537:5666   */\n      swap2\n      swap1\n      pop\n      jump\t// out\n        /* \"#utility.yul\":5672:5980   */\n    tag_145:\n        /* \"#utility.yul\":5734:5738   */\n      0x00\n        /* \"#utility.yul\":5824:5842   */\n      0xffffffffffffffff\n        /* \"#utility.yul\":5816:5822   */\n      dup3\n        /* \"#utility.yul\":5813:5843   */\n      gt\n        /* \"#utility.yul\":5810:5866   */\n      iszero\n      tag_235\n      jumpi\n        /* \"#utility.yul\":5846:5864   */\n      tag_236\n      tag_142\n      jump\t// in\n    tag_236:\n        /* \"#utility.yul\":5810:5866   */\n    tag_235:\n        /* \"#utility.yul\":5884:5913   */\n      tag_237\n        /* \"#utility.yul\":5906:5912   */\n      dup3\n        /* \"#utility.yul\":5884:5913   */\n      tag_138\n      jump\t// in\n    tag_237:\n        /* \"#utility.yul\":5876:5913   */\n      swap1\n      pop\n        /* \"#utility.yul\":5968:5972   */\n      0x20\n        /* \"#utility.yul\":5962:5966   */\n      dup2\n        /* \"#utility.yul\":5958:5973   */\n      add\n        /* \"#utility.yul\":5950:5973   */\n      swap1\n      pop\n        /* \"#utility.yul\":5672:5980   */\n      swap2\n      swap1\n      pop\n      jump\t// out\n        /* \"#utility.yul\":5986:6140   */\n    tag_146:\n        /* \"#utility.yul\":6070:6076   */\n      dup3\n        /* \"#utility.yul\":6065:6068   */\n      dup2\n        /* \"#utility.yul\":6060:6063   */\n      dup4\n        /* \"#utility.yul\":6047:6077   */\n      calldatacopy\n        /* \"#utility.yul\":6132:6133   */\n      0x00\n        /* \"#utility.yul\":6123:6129   */\n      dup4\n        /* \"#utility.yul\":6118:6121   */\n      dup4\n        /* \"#utility.yul\":6114:6130   */\n      add\n        /* \"#utility.yul\":6107:6134   */\n      mstore\n        /* \"#utility.yul\":5986:6140   */\n      pop\n      pop\n      pop\n      jump\t// out\n        /* \"#utility.yul\":6146:6558   */\n    tag_147:\n        /* \"#utility.yul\":6224:6229   */\n      0x00\n        /* \"#utility.yul\":6249:6315   */\n      tag_240\n        /* \"#utility.yul\":6265:6314   */\n      tag_241\n        /* \"#utility.yul\":6307:6313   */\n      dup5\n        /* \"#utility.yul\":6265:6314   */\n      tag_145\n      jump\t// in\n    tag_241:\n        /* \"#utility.yul\":6249:6315   */\n      tag_144\n      jump\t// in\n    tag_240:\n        /* \"#utility.yul\":6240:6315   */\n      swap1\n      pop\n        /* \"#utility.yul\":6338:6344   */\n      dup3\n        /* \"#utility.yul\":6331:6336   */\n      dup2\n        /* \"#utility.yul\":6324:6345   */\n      mstore\n        /* \"#utility.yul\":6376:6380   */\n      0x20\n        /* \"#utility.yul\":6369:6374   */\n      dup2\n        /* \"#utility.yul\":6365:6381   */\n      add\n        /* \"#utility.yul\":6414:6417   */\n      dup5\n        /* \"#utility.yul\":6405:6411   */\n      dup5\n        /* \"#utility.yul\":6400:6403   */\n      dup5\n        /* \"#utility.yul\":6396:6412   */\n      add\n        /* \"#utility.yul\":6393:6418   */\n      gt\n        /* \"#utility.yul\":6390:6502   */\n      iszero\n      tag_242\n      jumpi\n        /* \"#utility.yul\":6421:6500   */\n      tag_243\n      tag_141\n      jump\t// in\n    tag_243:\n        /* \"#utility.yul\":6390:6502   */\n    tag_242:\n        /* \"#utility.yul\":6511:6552   */\n      tag_244\n        /* \"#utility.yul\":6545:6551   */\n      dup5\n        /* \"#utility.yul\":6540:6543   */\n      dup3\n        /* \"#utility.yul\":6535:6538   */\n      dup6\n        /* \"#utility.yul\":6511:6552   */\n      tag_146\n      jump\t// in\n    tag_244:\n        /* \"#utility.yul\":6230:6558   */\n      pop\n        /* \"#utility.yul\":6146:6558   */\n      swap4\n      swap3\n      pop\n      pop\n      pop\n      jump\t// out\n        /* \"#utility.yul\":6578:6918   */\n    tag_148:\n        /* \"#utility.yul\":6634:6639   */\n      0x00\n        /* \"#utility.yul\":6683:6686   */\n      dup3\n        /* \"#utility.yul\":6676:6680   */\n      0x1f\n        /* \"#utility.yul\":6668:6674   */\n      dup4\n        /* \"#utility.yul\":6664:6681   */\n      add\n        /* \"#utility.yul\":6660:6687   */\n      slt\n        /* \"#utility.yul\":6650:6772   */\n      tag_246\n      jumpi\n        /* \"#utility.yul\":6691:6770   */\n      tag_247\n      tag_140\n      jump\t// in\n    tag_247:\n        /* \"#utility.yul\":6650:6772   */\n    tag_246:\n        /* \"#utility.yul\":6808:6814   */\n      dup2\n        /* \"#utility.yul\":6795:6815   */\n      calldataload\n        /* \"#utility.yul\":6833:6912   */\n      tag_248\n        /* \"#utility.yul\":6908:6911   */\n      dup5\n        /* \"#utility.yul\":6900:6906   */\n      dup3\n        /* \"#utility.yul\":6893:6897   */\n      0x20\n        /* \"#utility.yul\":6885:6891   */\n      dup7\n        /* \"#utility.yul\":6881:6898   */\n      add\n        /* \"#utility.yul\":6833:6912   */\n      tag_147\n      jump\t// in\n    tag_248:\n        /* \"#utility.yul\":6824:6912   */\n      swap2\n      pop\n        /* \"#utility.yul\":6640:6918   */\n      pop\n        /* \"#utility.yul\":6578:6918   */\n      swap3\n      swap2\n      pop\n      pop\n      jump\t// out\n        /* \"#utility.yul\":6924:7723   */\n    tag_45:\n        /* \"#utility.yul\":7011:7017   */\n      0x00\n        /* \"#utility.yul\":7019:7025   */\n      dup1\n        /* \"#utility.yul\":7027:7033   */\n      0x00\n        /* \"#utility.yul\":7076:7078   */\n      0x60\n        /* \"#utility.yul\":7064:7073   */\n      dup5\n        /* \"#utility.yul\":7055:7062   */\n      dup7\n        /* \"#utility.yul\":7051:7074   */\n      sub\n        /* \"#utility.yul\":7047:7079   */\n      slt\n        /* \"#utility.yul\":7044:7163   */\n      iszero\n      tag_250\n      jumpi\n        /* \"#utility.yul\":7082:7161   */\n      tag_251\n      tag_122\n      jump\t// in\n    tag_251:\n        /* \"#utility.yul\":7044:7163   */\n    tag_250:\n        /* \"#utility.yul\":7230:7231   */\n      0x00\n        /* \"#utility.yul\":7219:7228   */\n      dup5\n        /* \"#utility.yul\":7215:7232   */\n      add\n        /* \"#utility.yul\":7202:7233   */\n      calldataload\n        /* \"#utility.yul\":7260:7278   */\n      0xffffffffffffffff\n        /* \"#utility.yul\":7252:7258   */\n      dup2\n        /* \"#utility.yul\":7249:7279   */\n      gt\n        /* \"#utility.yul\":7246:7363   */\n      iszero\n      tag_252\n      jumpi\n        /* \"#utility.yul\":7282:7361   */\n      tag_253\n      tag_123\n      jump\t// in\n    tag_253:\n        /* \"#utility.yul\":7246:7363   */\n    tag_252:\n        /* \"#utility.yul\":7387:7450   */\n      tag_254\n        /* \"#utility.yul\":7442:7449   */\n      dup7\n        /* \"#utility.yul\":7433:7439   */\n      dup3\n        /* \"#utility.yul\":7422:7431   */\n      dup8\n        /* \"#utility.yul\":7418:7440   */\n      add\n        /* \"#utility.yul\":7387:7450   */\n      tag_148\n      jump\t// in\n    tag_254:\n        /* \"#utility.yul\":7377:7450   */\n      swap4\n      pop\n        /* \"#utility.yul\":7173:7460   */\n      pop\n        /* \"#utility.yul\":7499:7501   */\n      0x20\n        /* \"#utility.yul\":7525:7578   */\n      tag_255\n        /* \"#utility.yul\":7570:7577   */\n      dup7\n        /* \"#utility.yul\":7561:7567   */\n      dup3\n        /* \"#utility.yul\":7550:7559   */\n      dup8\n        /* \"#utility.yul\":7546:7568   */\n      add\n        /* \"#utility.yul\":7525:7578   */\n      tag_134\n      jump\t// in\n    tag_255:\n        /* \"#utility.yul\":7515:7578   */\n      swap3\n      pop\n        /* \"#utility.yul\":7470:7588   */\n      pop\n        /* \"#utility.yul\":7627:7629   */\n      0x40\n        /* \"#utility.yul\":7653:7706   */\n      tag_256\n        /* \"#utility.yul\":7698:7705   */\n      dup7\n        /* \"#utility.yul\":7689:7695   */\n      dup3\n        /* \"#utility.yul\":7678:7687   */\n      dup8\n        /* \"#utility.yul\":7674:7696   */\n      add\n        /* \"#utility.yul\":7653:7706   */\n      tag_127\n      jump\t// in\n    tag_256:\n        /* \"#utility.yul\":7643:7706   */\n      swap2\n      pop\n        /* \"#utility.yul\":7598:7716   */\n      pop\n        /* \"#utility.yul\":6924:7723   */\n      swap3\n      pop\n      swap3\n      pop\n      swap3\n      jump\t// out\n        /* \"#utility.yul\":7729:8393   */\n    tag_58:\n        /* \"#utility.yul\":7934:7938   */\n      0x00\n        /* \"#utility.yul\":7972:7975   */\n      0xa0\n        /* \"#utility.yul\":7961:7970   */\n      dup3\n        /* \"#utility.yul\":7957:7976   */\n      add\n        /* \"#utility.yul\":7949:7976   */\n      swap1\n      pop\n        /* \"#utility.yul\":7986:8057   */\n      tag_258\n        /* \"#utility.yul\":8054:8055   */\n      0x00\n        /* \"#utility.yul\":8043:8052   */\n      dup4\n        /* \"#utility.yul\":8039:8056   */\n      add\n        /* \"#utility.yul\":8030:8036   */\n      dup9\n        /* \"#utility.yul\":7986:8057   */\n      tag_131\n      jump\t// in\n    tag_258:\n        /* \"#utility.yul\":8067:8139   */\n      tag_259\n        /* \"#utility.yul\":8135:8137   */\n      0x20\n        /* \"#utility.yul\":8124:8133   */\n      dup4\n        /* \"#utility.yul\":8120:8138   */\n      add\n        /* \"#utility.yul\":8111:8117   */\n      dup8\n        /* \"#utility.yul\":8067:8139   */\n      tag_131\n      jump\t// in\n    tag_259:\n        /* \"#utility.yul\":8149:8221   */\n      tag_260\n        /* \"#utility.yul\":8217:8219   */\n      0x40\n        /* \"#utility.yul\":8206:8215   */\n      dup4\n        /* \"#utility.yul\":8202:8220   */\n      add\n        /* \"#utility.yul\":8193:8199   */\n      dup7\n        /* \"#utility.yul\":8149:8221   */\n      tag_131\n      jump\t// in\n    tag_260:\n        /* \"#utility.yul\":8231:8303   */\n      tag_261\n        /* \"#utility.yul\":8299:8301   */\n      0x60\n        /* \"#utility.yul\":8288:8297   */\n      dup4\n        /* \"#utility.yul\":8284:8302   */\n      add\n        /* \"#utility.yul\":8275:8281   */\n      dup6\n        /* \"#utility.yul\":8231:8303   */\n      tag_131\n      jump\t// in\n    tag_261:\n        /* \"#utility.yul\":8313:8386   */\n      tag_262\n        /* \"#utility.yul\":8381:8384   */\n      0x80\n        /* \"#utility.yul\":8370:8379   */\n      dup4\n        /* \"#utility.yul\":8366:8385   */\n      add\n        /* \"#utility.yul\":8357:8363   */\n      dup5\n        /* \"#utility.yul\":8313:8386   */\n      tag_132\n      jump\t// in\n    tag_262:\n        /* \"#utility.yul\":7729:8393   */\n      swap7\n      swap6\n      pop\n      pop\n      pop\n      pop\n      pop\n      pop\n      jump\t// out\n        /* \"#utility.yul\":8399:8579   */\n    tag_149:\n        /* \"#utility.yul\":8447:8524   */\n      0x4e487b7100000000000000000000000000000000000000000000000000000000\n        /* \"#utility.yul\":8444:8445   */\n      0x00\n        /* \"#utility.yul\":8437:8525   */\n      mstore\n        /* \"#utility.yul\":8544:8548   */\n      0x22\n        /* \"#utility.yul\":8541:8542   */\n      0x04\n        /* \"#utility.yul\":8534:8549   */\n      mstore\n        /* \"#utility.yul\":8568:8572   */\n      0x24\n        /* \"#utility.yul\":8565:8566   */\n      0x00\n        /* \"#utility.yul\":8558:8573   */\n      revert\n        /* \"#utility.yul\":8585:8905   */\n    tag_66:\n        /* \"#utility.yul\":8629:8635   */\n      0x00\n        /* \"#utility.yul\":8666:8667   */\n      0x02\n        /* \"#utility.yul\":8660:8664   */\n      dup3\n        /* \"#utility.yul\":8656:8668   */\n      div\n        /* \"#utility.yul\":8646:8668   */\n      swap1\n      pop\n        /* \"#utility.yul\":8713:8714   */\n      0x01\n        /* \"#utility.yul\":8707:8711   */\n      dup3\n        /* \"#utility.yul\":8703:8715   */\n      and\n        /* \"#utility.yul\":8734:8752   */\n      dup1\n        /* \"#utility.yul\":8724:8805   */\n      tag_265\n      jumpi\n        /* \"#utility.yul\":8790:8794   */\n      0x7f\n        /* \"#utility.yul\":8782:8788   */\n      dup3\n        /* \"#utility.yul\":8778:8795   */\n      and\n        /* \"#utility.yul\":8768:8795   */\n      swap2\n      pop\n        /* \"#utility.yul\":8724:8805   */\n    tag_265:\n        /* \"#utility.yul\":8852:8854   */\n      0x20\n        /* \"#utility.yul\":8844:8850   */\n      dup3\n        /* \"#utility.yul\":8841:8855   */\n      lt\n        /* \"#utility.yul\":8821:8839   */\n      dup2\n        /* \"#utility.yul\":8818:8856   */\n      eq\n        /* \"#utility.yul\":8815:8899   */\n      iszero\n      tag_266\n      jumpi\n        /* \"#utility.yul\":8871:8889   */\n      tag_267\n      tag_149\n      jump\t// in\n    tag_267:\n        /* \"#utility.yul\":8815:8899   */\n    tag_266:\n        /* \"#utility.yul\":8636:8905   */\n      pop\n        /* \"#utility.yul\":8585:8905   */\n      swap2\n      swap1\n      pop\n      jump\t// out\n        /* \"#utility.yul\":8911:9138   */\n    tag_150:\n        /* \"#utility.yul\":9051:9085   */\n      0x4f6e6c7920746865204d616e616765722063616e20706572666f726d20746869\n        /* \"#utility.yul\":9047:9048   */\n      0x00\n        /* \"#utility.yul\":9039:9045   */\n      dup3\n        /* \"#utility.yul\":9035:9049   */\n      add\n        /* \"#utility.yul\":9028:9086   */\n      mstore\n        /* \"#utility.yul\":9120:9130   */\n      0x7320616374696f6e000000000000000000000000000000000000000000000000\n        /* \"#utility.yul\":9115:9117   */\n      0x20\n        /* \"#utility.yul\":9107:9113   */\n      dup3\n        /* \"#utility.yul\":9103:9118   */\n      add\n        /* \"#utility.yul\":9096:9131   */\n      mstore\n        /* \"#utility.yul\":8911:9138   */\n      pop\n      jump\t// out\n        /* \"#utility.yul\":9144:9510   */\n    tag_151:\n        /* \"#utility.yul\":9286:9289   */\n      0x00\n        /* \"#utility.yul\":9307:9374   */\n      tag_270\n        /* \"#utility.yul\":9371:9373   */\n      0x28\n        /* \"#utility.yul\":9366:9369   */\n      dup4\n        /* \"#utility.yul\":9307:9374   */\n      tag_136\n      jump\t// in\n    tag_270:\n        /* \"#utility.yul\":9300:9374   */\n      swap2\n      pop\n        /* \"#utility.yul\":9383:9476   */\n      tag_271\n        /* \"#utility.yul\":9472:9475   */\n      dup3\n        /* \"#utility.yul\":9383:9476   */\n      tag_150\n      jump\t// in\n    tag_271:\n        /* \"#utility.yul\":9501:9503   */\n      0x40\n        /* \"#utility.yul\":9496:9499   */\n      dup3\n        /* \"#utility.yul\":9492:9504   */\n      add\n        /* \"#utility.yul\":9485:9504   */\n      swap1\n      pop\n        /* \"#utility.yul\":9144:9510   */\n      swap2\n      swap1\n      pop\n      jump\t// out\n        /* \"#utility.yul\":9516:9935   */\n    tag_74:\n        /* \"#utility.yul\":9682:9686   */\n      0x00\n        /* \"#utility.yul\":9720:9722   */\n      0x20\n        /* \"#utility.yul\":9709:9718   */\n      dup3\n        /* \"#utility.yul\":9705:9723   */\n      add\n        /* \"#utility.yul\":9697:9723   */\n      swap1\n      pop\n        /* \"#utility.yul\":9769:9778   */\n      dup2\n        /* \"#utility.yul\":9763:9767   */\n      dup2\n        /* \"#utility.yul\":9759:9779   */\n      sub\n        /* \"#utility.yul\":9755:9756   */\n      0x00\n        /* \"#utility.yul\":9744:9753   */\n      dup4\n        /* \"#utility.yul\":9740:9757   */\n      add\n        /* \"#utility.yul\":9733:9780   */\n      mstore\n        /* \"#utility.yul\":9797:9928   */\n      tag_273\n        /* \"#utility.yul\":9923:9927   */\n      dup2\n        /* \"#utility.yul\":9797:9928   */\n      tag_151\n      jump\t// in\n    tag_273:\n        /* \"#utility.yul\":9789:9928   */\n      swap1\n      pop\n        /* \"#utility.yul\":9516:9935   */\n      swap2\n      swap1\n      pop\n      jump\t// out\n        /* \"#utility.yul\":9941:10121   */\n    tag_152:\n        /* \"#utility.yul\":9989:10066   */\n      0x4e487b7100000000000000000000000000000000000000000000000000000000\n        /* \"#utility.yul\":9986:9987   */\n      0x00\n        /* \"#utility.yul\":9979:10067   */\n      mstore\n        /* \"#utility.yul\":10086:10090   */\n      0x11\n        /* \"#utility.yul\":10083:10084   */\n      0x04\n        /* \"#utility.yul\":10076:10091   */\n      mstore\n        /* \"#utility.yul\":10110:10114   */\n      0x24\n        /* \"#utility.yul\":10107:10108   */\n      0x00\n        /* \"#utility.yul\":10100:10115   */\n      revert\n        /* \"#utility.yul\":10127:10360   */\n    tag_77:\n        /* \"#utility.yul\":10166:10169   */\n      0x00\n        /* \"#utility.yul\":10189:10213   */\n      tag_276\n        /* \"#utility.yul\":10207:10212   */\n      dup3\n        /* \"#utility.yul\":10189:10213   */\n      tag_130\n      jump\t// in\n    tag_276:\n        /* \"#utility.yul\":10180:10213   */\n      swap2\n      pop\n        /* \"#utility.yul\":10235:10301   */\n      0xffffffffffffffffffffffffffffffffffffffffffffffffffffffffffffffff\n        /* \"#utility.yul\":10228:10233   */\n      dup3\n        /* \"#utility.yul\":10225:10302   */\n      eq\n        /* \"#utility.yul\":10222:10325   */\n      iszero\n      tag_277\n      jumpi\n        /* \"#utility.yul\":10305:10323   */\n      tag_278\n      tag_152\n      jump\t// in\n    tag_278:\n        /* \"#utility.yul\":10222:10325   */\n    tag_277:\n        /* \"#utility.yul\":10352:10353   */\n      0x01\n        /* \"#utility.yul\":10345:10350   */\n      dup3\n        /* \"#utility.yul\":10341:10354   */\n      add\n        /* \"#utility.yul\":10334:10354   */\n      swap1\n      pop\n        /* \"#utility.yul\":10127:10360   */\n      swap2\n      swap1\n      pop\n      jump\t// out\n        /* \"#utility.yul\":10366:10608   */\n    tag_153:\n        /* \"#utility.yul\":10506:10540   */\n      0x596f75206861766520616c726561647920636f6e6669726d6564207468652061\n        /* \"#utility.yul\":10502:10503   */\n      0x00\n        /* \"#utility.yul\":10494:10500   */\n      dup3\n        /* \"#utility.yul\":10490:10504   */\n      add\n        /* \"#utility.yul\":10483:10541   */\n      mstore\n        /* \"#utility.yul\":10575:10600   */\n      0x7070726f76616c206f6620746869732052657175657374000000000000000000\n        /* \"#utility.yul\":10570:10572   */\n      0x20\n        /* \"#utility.yul\":10562:10568   */\n      dup3\n        /* \"#utility.yul\":10558:10573   */\n      add\n        /* \"#utility.yul\":10551:10601   */\n      mstore\n        /* \"#utility.yul\":10366:10608   */\n      pop\n      jump\t// out\n        /* \"#utility.yul\":10614:10980   */\n    tag_154:\n        /* \"#utility.yul\":10756:10759   */\n      0x00\n        /* \"#utility.yul\":10777:10844   */\n      tag_281\n        /* \"#utility.yul\":10841:10843   */\n      0x37\n        /* \"#utility.yul\":10836:10839   */\n      dup4\n        /* \"#utility.yul\":10777:10844   */\n      tag_136\n      jump\t// in\n    tag_281:\n        /* \"#utility.yul\":10770:10844   */\n      swap2\n      pop\n        /* \"#utility.yul\":10853:10946   */\n      tag_282\n        /* \"#utility.yul\":10942:10945   */\n      dup3\n        /* \"#utility.yul\":10853:10946   */\n      tag_153\n      jump\t// in\n    tag_282:\n        /* \"#utility.yul\":10971:10973   */\n      0x40\n        /* \"#utility.yul\":10966:10969   */\n      dup3\n        /* \"#utility.yul\":10962:10974   */\n      add\n        /* \"#utility.yul\":10955:10974   */\n      swap1\n      pop\n        /* \"#utility.yul\":10614:10980   */\n      swap2\n      swap1\n      pop\n      jump\t// out\n        /* \"#utility.yul\":10986:11405   */\n    tag_86:\n        /* \"#utility.yul\":11152:11156   */\n      0x00\n        /* \"#utility.yul\":11190:11192   */\n      0x20\n        /* \"#utility.yul\":11179:11188   */\n      dup3\n        /* \"#utility.yul\":11175:11193   */\n      add\n        /* \"#utility.yul\":11167:11193   */\n      swap1\n      pop\n        /* \"#utility.yul\":11239:11248   */\n      dup2\n        /* \"#utility.yul\":11233:11237   */\n      dup2\n        /* \"#utility.yul\":11229:11249   */\n      sub\n        /* \"#utility.yul\":11225:11226   */\n      0x00\n        /* \"#utility.yul\":11214:11223   */\n      dup4\n        /* \"#utility.yul\":11210:11227   */\n      add\n        /* \"#utility.yul\":11203:11250   */\n      mstore\n        /* \"#utility.yul\":11267:11398   */\n      tag_284\n        /* \"#utility.yul\":11393:11397   */\n      dup2\n        /* \"#utility.yul\":11267:11398   */\n      tag_154\n      jump\t// in\n    tag_284:\n        /* \"#utility.yul\":11259:11398   */\n      swap1\n      pop\n        /* \"#utility.yul\":10986:11405   */\n      swap2\n      swap1\n      pop\n      jump\t// out\n        /* \"#utility.yul\":11411:11591   */\n    tag_155:\n        /* \"#utility.yul\":11459:11536   */\n      0x4e487b7100000000000000000000000000000000000000000000000000000000\n        /* \"#utility.yul\":11456:11457   */\n      0x00\n        /* \"#utility.yul\":11449:11537   */\n      mstore\n        /* \"#utility.yul\":11556:11560   */\n      0x12\n        /* \"#utility.yul\":11553:11554   */\n      0x04\n        /* \"#utility.yul\":11546:11561   */\n      mstore\n        /* \"#utility.yul\":11580:11584   */\n      0x24\n        /* \"#utility.yul\":11577:11578   */\n      0x00\n        /* \"#utility.yul\":11570:11585   */\n      revert\n        /* \"#utility.yul\":11597:11782   */\n    tag_88:\n        /* \"#utility.yul\":11637:11638   */\n      0x00\n        /* \"#utility.yul\":11654:11674   */\n      tag_287\n        /* \"#utility.yul\":11672:11673   */\n      dup3\n        /* \"#utility.yul\":11654:11674   */\n      tag_130\n      jump\t// in\n    tag_287:\n        /* \"#utility.yul\":11649:11674   */\n      swap2\n      pop\n        /* \"#utility.yul\":11688:11708   */\n      tag_288\n        /* \"#utility.yul\":11706:11707   */\n      dup4\n        /* \"#utility.yul\":11688:11708   */\n      tag_130\n      jump\t// in\n    tag_288:\n        /* \"#utility.yul\":11683:11708   */\n      swap3\n      pop\n        /* \"#utility.yul\":11727:11728   */\n      dup3\n        /* \"#utility.yul\":11717:11752   */\n      tag_289\n      jumpi\n        /* \"#utility.yul\":11732:11750   */\n      tag_290\n      tag_155\n      jump\t// in\n    tag_290:\n        /* \"#utility.yul\":11717:11752   */\n    tag_289:\n        /* \"#utility.yul\":11774:11775   */\n      dup3\n        /* \"#utility.yul\":11771:11772   */\n      dup3\n        /* \"#utility.yul\":11767:11776   */\n      div\n        /* \"#utility.yul\":11762:11776   */\n      swap1\n      pop\n        /* \"#utility.yul\":11597:11782   */\n      swap3\n      swap2\n      pop\n      pop\n      jump\t// out\n        /* \"#utility.yul\":11788:12021   */\n    tag_156:\n        /* \"#utility.yul\":11928:11962   */\n      0x4174204c6561737420353025206f6620796f757220636f6e7472696275746f72\n        /* \"#utility.yul\":11924:11925   */\n      0x00\n        /* \"#utility.yul\":11916:11922   */\n      dup3\n        /* \"#utility.yul\":11912:11926   */\n      add\n        /* \"#utility.yul\":11905:11963   */\n      mstore\n        /* \"#utility.yul\":11997:12013   */\n      0x73206d75737420617070726f7665000000000000000000000000000000000000\n        /* \"#utility.yul\":11992:11994   */\n      0x20\n        /* \"#utility.yul\":11984:11990   */\n      dup3\n        /* \"#utility.yul\":11980:11995   */\n      add\n        /* \"#utility.yul\":11973:12014   */\n      mstore\n        /* \"#utility.yul\":11788:12021   */\n      pop\n      jump\t// out\n        /* \"#utility.yul\":12027:12393   */\n    tag_157:\n        /* \"#utility.yul\":12169:12172   */\n      0x00\n        /* \"#utility.yul\":12190:12257   */\n      tag_293\n        /* \"#utility.yul\":12254:12256   */\n      0x2e\n        /* \"#utility.yul\":12249:12252   */\n      dup4\n        /* \"#utility.yul\":12190:12257   */\n      tag_136\n      jump\t// in\n    tag_293:\n        /* \"#utility.yul\":12183:12257   */\n      swap2\n      pop\n        /* \"#utility.yul\":12266:12359   */\n      tag_294\n        /* \"#utility.yul\":12355:12358   */\n      dup3\n        /* \"#utility.yul\":12266:12359   */\n      tag_156\n      jump\t// in\n    tag_294:\n        /* \"#utility.yul\":12384:12386   */\n      0x40\n        /* \"#utility.yul\":12379:12382   */\n      dup3\n        /* \"#utility.yul\":12375:12387   */\n      add\n        /* \"#utility.yul\":12368:12387   */\n      swap1\n      pop\n        /* \"#utility.yul\":12027:12393   */\n      swap2\n      swap1\n      pop\n      jump\t// out\n        /* \"#utility.yul\":12399:12818   */\n    tag_91:\n        /* \"#utility.yul\":12565:12569   */\n      0x00\n        /* \"#utility.yul\":12603:12605   */\n      0x20\n        /* \"#utility.yul\":12592:12601   */\n      dup3\n        /* \"#utility.yul\":12588:12606   */\n      add\n        /* \"#utility.yul\":12580:12606   */\n      swap1\n      pop\n        /* \"#utility.yul\":12652:12661   */\n      dup2\n        /* \"#utility.yul\":12646:12650   */\n      dup2\n        /* \"#utility.yul\":12642:12662   */\n      sub\n        /* \"#utility.yul\":12638:12639   */\n      0x00\n        /* \"#utility.yul\":12627:12636   */\n      dup4\n        /* \"#utility.yul\":12623:12640   */\n      add\n        /* \"#utility.yul\":12616:12663   */\n      mstore\n        /* \"#utility.yul\":12680:12811   */\n      tag_296\n        /* \"#utility.yul\":12806:12810   */\n      dup2\n        /* \"#utility.yul\":12680:12811   */\n      tag_157\n      jump\t// in\n    tag_296:\n        /* \"#utility.yul\":12672:12811   */\n      swap1\n      pop\n        /* \"#utility.yul\":12399:12818   */\n      swap2\n      swap1\n      pop\n      jump\t// out\n        /* \"#utility.yul\":12824:13056   */\n    tag_158:\n        /* \"#utility.yul\":12964:12998   */\n      0x596f757220636f6e747269627574696f6e2069732062656c6f7720746865206d\n        /* \"#utility.yul\":12960:12961   */\n      0x00\n        /* \"#utility.yul\":12952:12958   */\n      dup3\n        /* \"#utility.yul\":12948:12962   */\n      add\n        /* \"#utility.yul\":12941:12999   */\n      mstore\n        /* \"#utility.yul\":13033:13048   */\n      0x696e696d756d20616d6f756e7400000000000000000000000000000000000000\n        /* \"#utility.yul\":13028:13030   */\n      0x20\n        /* \"#utility.yul\":13020:13026   */\n      dup3\n        /* \"#utility.yul\":13016:13031   */\n      add\n        /* \"#utility.yul\":13009:13049   */\n      mstore\n        /* \"#utility.yul\":12824:13056   */\n      pop\n      jump\t// out\n        /* \"#utility.yul\":13062:13428   */\n    tag_159:\n        /* \"#utility.yul\":13204:13207   */\n      0x00\n        /* \"#utility.yul\":13225:13292   */\n      tag_299\n        /* \"#utility.yul\":13289:13291   */\n      0x2d\n        /* \"#utility.yul\":13284:13287   */\n      dup4\n        /* \"#utility.yul\":13225:13292   */\n      tag_136\n      jump\t// in\n    tag_299:\n        /* \"#utility.yul\":13218:13292   */\n      swap2\n      pop\n        /* \"#utility.yul\":13301:13394   */\n      tag_300\n        /* \"#utility.yul\":13390:13393   */\n      dup3\n        /* \"#utility.yul\":13301:13394   */\n      tag_158\n      jump\t// in\n    tag_300:\n        /* \"#utility.yul\":13419:13421   */\n      0x40\n        /* \"#utility.yul\":13414:13417   */\n      dup3\n        /* \"#utility.yul\":13410:13422   */\n      add\n        /* \"#utility.yul\":13403:13422   */\n      swap1\n      pop\n        /* \"#utility.yul\":13062:13428   */\n      swap2\n      swap1\n      pop\n      jump\t// out\n        /* \"#utility.yul\":13434:13853   */\n    tag_98:\n        /* \"#utility.yul\":13600:13604   */\n      0x00\n        /* \"#utility.yul\":13638:13640   */\n      0x20\n        /* \"#utility.yul\":13627:13636   */\n      dup3\n        /* \"#utility.yul\":13623:13641   */\n      add\n        /* \"#utility.yul\":13615:13641   */\n      swap1\n      pop\n        /* \"#utility.yul\":13687:13696   */\n      dup2\n        /* \"#utility.yul\":13681:13685   */\n      dup2\n        /* \"#utility.yul\":13677:13697   */\n      sub\n        /* \"#utility.yul\":13673:13674   */\n      0x00\n        /* \"#utility.yul\":13662:13671   */\n      dup4\n        /* \"#utility.yul\":13658:13675   */\n      add\n        /* \"#utility.yul\":13651:13698   */\n      mstore\n        /* \"#utility.yul\":13715:13846   */\n      tag_302\n        /* \"#utility.yul\":13841:13845   */\n      dup2\n        /* \"#utility.yul\":13715:13846   */\n      tag_159\n      jump\t// in\n    tag_302:\n        /* \"#utility.yul\":13707:13846   */\n      swap1\n      pop\n        /* \"#utility.yul\":13434:13853   */\n      swap2\n      swap1\n      pop\n      jump\t// out\n        /* \"#utility.yul\":13859:14037   */\n    tag_160:\n        /* \"#utility.yul\":13999:14029   */\n      0x596f75206861766520616c726561647920636f6e747269627574656400000000\n        /* \"#utility.yul\":13995:13996   */\n      0x00\n        /* \"#utility.yul\":13987:13993   */\n      dup3\n        /* \"#utility.yul\":13983:13997   */\n      add\n        /* \"#utility.yul\":13976:14030   */\n      mstore\n        /* \"#utility.yul\":13859:14037   */\n      pop\n      jump\t// out\n        /* \"#utility.yul\":14043:14409   */\n    tag_161:\n        /* \"#utility.yul\":14185:14188   */\n      0x00\n        /* \"#utility.yul\":14206:14273   */\n      tag_305\n        /* \"#utility.yul\":14270:14272   */\n      0x1c\n        /* \"#utility.yul\":14265:14268   */\n      dup4\n        /* \"#utility.yul\":14206:14273   */\n      tag_136\n      jump\t// in\n    tag_305:\n        /* \"#utility.yul\":14199:14273   */\n      swap2\n      pop\n        /* \"#utility.yul\":14282:14375   */\n      tag_306\n        /* \"#utility.yul\":14371:14374   */\n      dup3\n        /* \"#utility.yul\":14282:14375   */\n      tag_160\n      jump\t// in\n    tag_306:\n        /* \"#utility.yul\":14400:14402   */\n      0x20\n        /* \"#utility.yul\":14395:14398   */\n      dup3\n        /* \"#utility.yul\":14391:14403   */\n      add\n        /* \"#utility.yul\":14384:14403   */\n      swap1\n      pop\n        /* \"#utility.yul\":14043:14409   */\n      swap2\n      swap1\n      pop\n      jump\t// out\n        /* \"#utility.yul\":14415:14834   */\n    tag_101:\n        /* \"#utility.yul\":14581:14585   */\n      0x00\n        /* \"#utility.yul\":14619:14621   */\n      0x20\n        /* \"#utility.yul\":14608:14617   */\n      dup3\n        /* \"#utility.yul\":14604:14622   */\n      add\n        /* \"#utility.yul\":14596:14622   */\n      swap1\n      pop\n        /* \"#utility.yul\":14668:14677   */\n      dup2\n        /* \"#utility.yul\":14662:14666   */\n      dup2\n        /* \"#utility.yul\":14658:14678   */\n      sub\n        /* \"#utility.yul\":14654:14655   */\n      0x00\n        /* \"#utility.yul\":14643:14652   */\n      dup4\n        /* \"#utility.yul\":14639:14656   */\n      add\n        /* \"#utility.yul\":14632:14679   */\n      mstore\n        /* \"#utility.yul\":14696:14827   */\n      tag_308\n        /* \"#utility.yul\":14822:14826   */\n      dup2\n        /* \"#utility.yul\":14696:14827   */\n      tag_161\n      jump\t// in\n    tag_308:\n        /* \"#utility.yul\":14688:14827   */\n      swap1\n      pop\n        /* \"#utility.yul\":14415:14834   */\n      swap2\n      swap1\n      pop\n      jump\t// out\n        /* \"#utility.yul\":14840:15069   */\n    tag_162:\n        /* \"#utility.yul\":14980:15014   */\n      0x4f6e6c7920436f6e7472696275746f72732063616e20617070726f7665207468\n        /* \"#utility.yul\":14976:14977   */\n      0x00\n        /* \"#utility.yul\":14968:14974   */\n      dup3\n        /* \"#utility.yul\":14964:14978   */\n      add\n        /* \"#utility.yul\":14957:15015   */\n      mstore\n        /* \"#utility.yul\":15049:15061   */\n      0x6973205265717565737400000000000000000000000000000000000000000000\n        /* \"#utility.yul\":15044:15046   */\n      0x20\n        /* \"#utility.yul\":15036:15042   */\n      dup3\n        /* \"#utility.yul\":15032:15047   */\n      add\n        /* \"#utility.yul\":15025:15062   */\n      mstore\n        /* \"#utility.yul\":14840:15069   */\n      pop\n      jump\t// out\n        /* \"#utility.yul\":15075:15441   */\n    tag_163:\n        /* \"#utility.yul\":15217:15220   */\n      0x00\n        /* \"#utility.yul\":15238:15305   */\n      tag_311\n        /* \"#utility.yul\":15302:15304   */\n      0x2a\n        /* \"#utility.yul\":15297:15300   */\n      dup4\n        /* \"#utility.yul\":15238:15305   */\n      tag_136\n      jump\t// in\n    tag_311:\n        /* \"#utility.yul\":15231:15305   */\n      swap2\n      pop\n        /* \"#utility.yul\":15314:15407   */\n      tag_312\n        /* \"#utility.yul\":15403:15406   */\n      dup3\n        /* \"#utility.yul\":15314:15407   */\n      tag_162\n      jump\t// in\n    tag_312:\n        /* \"#utility.yul\":15432:15434   */\n      0x40\n        /* \"#utility.yul\":15427:15430   */\n      dup3\n        /* \"#utility.yul\":15423:15435   */\n      add\n        /* \"#utility.yul\":15416:15435   */\n      swap1\n      pop\n        /* \"#utility.yul\":15075:15441   */\n      swap2\n      swap1\n      pop\n      jump\t// out\n        /* \"#utility.yul\":15447:15866   */\n    tag_106:\n        /* \"#utility.yul\":15613:15617   */\n      0x00\n        /* \"#utility.yul\":15651:15653   */\n      0x20\n        /* \"#utility.yul\":15640:15649   */\n      dup3\n        /* \"#utility.yul\":15636:15654   */\n      add\n        /* \"#utility.yul\":15628:15654   */\n      swap1\n      pop\n        /* \"#utility.yul\":15700:15709   */\n      dup2\n        /* \"#utility.yul\":15694:15698   */\n      dup2\n        /* \"#utility.yul\":15690:15710   */\n      sub\n        /* \"#utility.yul\":15686:15687   */\n      0x00\n        /* \"#utility.yul\":15675:15684   */\n      dup4\n        /* \"#utility.yul\":15671:15688   */\n      add\n        /* \"#utility.yul\":15664:15711   */\n      mstore\n        /* \"#utility.yul\":15728:15859   */\n      tag_314\n        /* \"#utility.yul\":15854:15858   */\n      dup2\n        /* \"#utility.yul\":15728:15859   */\n      tag_163\n      jump\t// in\n    tag_314:\n        /* \"#utility.yul\":15720:15859   */\n      swap1\n      pop\n        /* \"#utility.yul\":15447:15866   */\n      swap2\n      swap1\n      pop\n      jump\t// out\n        /* \"#utility.yul\":15872:16097   */\n    tag_164:\n        /* \"#utility.yul\":16012:16046   */\n      0x596f75206861766520616c726561647920617070726f76656420746869732052\n        /* \"#utility.yul\":16008:16009   */\n      0x00\n        /* \"#utility.yul\":16000:16006   */\n      dup3\n        /* \"#utility.yul\":15996:16010   */\n      add\n        /* \"#utility.yul\":15989:16047   */\n      mstore\n        /* \"#utility.yul\":16081:16089   */\n      0x6571756573740000000000000000000000000000000000000000000000000000\n        /* \"#utility.yul\":16076:16078   */\n      0x20\n        /* \"#utility.yul\":16068:16074   */\n      dup3\n        /* \"#utility.yul\":16064:16079   */\n      add\n        /* \"#utility.yul\":16057:16090   */\n      mstore\n        /* \"#utility.yul\":15872:16097   */\n      pop\n      jump\t// out\n        /* \"#utility.yul\":16103:16469   */\n    tag_165:\n        /* \"#utility.yul\":16245:16248   */\n      0x00\n        /* \"#utility.yul\":16266:16333   */\n      tag_317\n        /* \"#utility.yul\":16330:16332   */\n      0x26\n        /* \"#utility.yul\":16325:16328   */\n      dup4\n        /* \"#utility.yul\":16266:16333   */\n      tag_136\n      jump\t// in\n    tag_317:\n        /* \"#utility.yul\":16259:16333   */\n      swap2\n      pop\n        /* \"#utility.yul\":16342:16435   */\n      tag_318\n        /* \"#utility.yul\":16431:16434   */\n      dup3\n        /* \"#utility.yul\":16342:16435   */\n      tag_164\n      jump\t// in\n    tag_318:\n        /* \"#utility.yul\":16460:16462   */\n      0x40\n        /* \"#utility.yul\":16455:16458   */\n      dup3\n        /* \"#utility.yul\":16451:16463   */\n      add\n        /* \"#utility.yul\":16444:16463   */\n      swap1\n      pop\n        /* \"#utility.yul\":16103:16469   */\n      swap2\n      swap1\n      pop\n      jump\t// out\n        /* \"#utility.yul\":16475:16894   */\n    tag_109:\n        /* \"#utility.yul\":16641:16645   */\n      0x00\n        /* \"#utility.yul\":16679:16681   */\n      0x20\n        /* \"#utility.yul\":16668:16677   */\n      dup3\n        /* \"#utility.yul\":16664:16682   */\n      add\n        /* \"#utility.yul\":16656:16682   */\n      swap1\n      pop\n        /* \"#utility.yul\":16728:16737   */\n      dup2\n        /* \"#utility.yul\":16722:16726   */\n      dup2\n        /* \"#utility.yul\":16718:16738   */\n      sub\n        /* \"#utility.yul\":16714:16715   */\n      0x00\n        /* \"#utility.yul\":16703:16712   */\n      dup4\n        /* \"#utility.yul\":16699:16716   */\n      add\n        /* \"#utility.yul\":16692:16739   */\n      mstore\n        /* \"#utility.yul\":16756:16887   */\n      tag_320\n        /* \"#utility.yul\":16882:16886   */\n      dup2\n        /* \"#utility.yul\":16756:16887   */\n      tag_165\n      jump\t// in\n    tag_320:\n        /* \"#utility.yul\":16748:16887   */\n      swap1\n      pop\n        /* \"#utility.yul\":16475:16894   */\n      swap2\n      swap1\n      pop\n      jump\t// out\n\n    auxdata: 0xa264697066735822122078fff4062e551a1adbb79e5e2fecd0605cce5eb1af39b4aad9e25ddcdfff50c764736f6c634300080b0033\n}\n","bytecode":{"linkReferences":{},"object":"60806040523480156200001157600080fd5b506040516200165d3803806200165d83398181016040528101906200003791906200012c565b80600360006101000a81548173ffffffffffffffffffffffffffffffffffffffff021916908373ffffffffffffffffffffffffffffffffffffffff16021790555081600481905550505062000173565b600080fd5b6000819050919050565b620000a1816200008c565b8114620000ad57600080fd5b50565b600081519050620000c18162000096565b92915050565b600073ffffffffffffffffffffffffffffffffffffffff82169050919050565b6000620000f482620000c7565b9050919050565b6200010681620000e7565b81146200011257600080fd5b50565b6000815190506200012681620000fb565b92915050565b6000806040838503121562000146576200014562000087565b5b60006200015685828601620000b0565b9250506020620001698582860162000115565b9150509250929050565b6114da80620001836000396000f3fe60806040526004361061009c5760003560e01c80638a9cfd55116100645780638a9cfd55146101a05780638f9a6fee146101c9578063937e09b1146101e5578063a00c96d714610210578063d7bb99ba1461023f578063d7d1bbdb146102495761009c565b80631f6d4942146100a1578063278d2ee0146100de578063481c6a75146101095780637569b3d71461013457806381d12c581461015f575b600080fd5b3480156100ad57600080fd5b506100c860048036038101906100c39190610b8f565b610272565b6040516100d59190610bd7565b60405180910390f35b3480156100ea57600080fd5b506100f3610292565b6040516101009190610c0b565b60405180910390f35b34801561011557600080fd5b5061011e610298565b60405161012b9190610c35565b60405180910390f35b34801561014057600080fd5b506101496102be565b6040516101569190610c0b565b60405180910390f35b34801561016b57600080fd5b5061018660048036038101906101819190610c7c565b6102c4565b604051610197959493929190610d42565b60405180910390f35b3480156101ac57600080fd5b506101c760048036038101906101c29190610ed1565b6103af565b005b6101e360048036038101906101de9190610c7c565b610558565b005b3480156101f157600080fd5b506101fa610735565b6040516102079190610c0b565b60405180910390f35b34801561021c57600080fd5b5061022561073b565b604051610236959493929190610f40565b60405180910390f35b610247610781565b005b34801561025557600080fd5b50610270600480360381019061026b9190610c7c565b6108c9565b005b60056020528060005260406000206000915054906101000a900460ff1681565b60015481565b600360009054906101000a900473ffffffffffffffffffffffffffffffffffffffff1681565b60005481565b60026020528060005260406000206000915090508060000180546102e790610fc2565b80601f016020809104026020016040519081016040528092919081815260200182805461031390610fc2565b80156103605780601f1061033557610100808354040283529160200191610360565b820191906000526020600020905b81548152906001019060200180831161034357829003601f168201915b5050505050908060010154908060020160009054906101000a900473ffffffffffffffffffffffffffffffffffffffff16908060020160149054906101000a900460ff16908060030154905085565b600360009054906101000a900473ffffffffffffffffffffffffffffffffffffffff1673ffffffffffffffffffffffffffffffffffffffff163373ffffffffffffffffffffffffffffffffffffffff161461043f576040517f08c379a000000000000000000000000000000000000000000000000000000000815260040161043690611066565b60405180910390fd5b60006002600060016000815480929190610458906110b5565b919050558152602001908152602001600020905083816000019080519060200190610484929190610a7a565b50828160010181905550818160020160006101000a81548173ffffffffffffffffffffffffffffffffffffffff021916908373ffffffffffffffffffffffffffffffffffffffff16021790555060008160020160146101000a81548160ff0219169083151502179055506000816003018190555060008160040160003373ffffffffffffffffffffffffffffffffffffffff1673ffffffffffffffffffffffffffffffffffffffff16815260200190815260200160002060006101000a81548160ff02191690831515021790555050505050565b600360009054906101000a900473ffffffffffffffffffffffffffffffffffffffff1673ffffffffffffffffffffffffffffffffffffffff163373ffffffffffffffffffffffffffffffffffffffff16146105e8576040517f08c379a00000000000000000000000000000000000000000000000000000000081526004016105df90611066565b60405180910390fd5b60006002600083815260200190815260200160002090508060020160149054906101000a900460ff1615610651576040517f08c379a000000000000000000000000000000000000000000000000000000000815260040161064890611170565b60405180910390fd5b600260005461066091906111bf565b8160030154116106a5576040517f08c379a000000000000000000000000000000000000000000000000000000000815260040161069c90611262565b60405180910390fd5b60018160020160146101000a81548160ff0219169083151502179055508060020160009054906101000a900473ffffffffffffffffffffffffffffffffffffffff1673ffffffffffffffffffffffffffffffffffffffff166108fc82600101549081150290604051600060405180830381858888f19350505050158015610730573d6000803e3d6000fd5b505050565b60045481565b600080600080600060045447600054600154600360009054906101000a900473ffffffffffffffffffffffffffffffffffffffff16945094509450945094509091929394565b60045434116107c5576040517f08c379a00000000000000000000000000000000000000000000000000000000081526004016107bc906112f4565b60405180910390fd5b60001515600560003373ffffffffffffffffffffffffffffffffffffffff1673ffffffffffffffffffffffffffffffffffffffff16815260200190815260200160002060009054906101000a900460ff16151514610858576040517f08c379a000000000000000000000000000000000000000000000000000000000815260040161084f90611360565b60405180910390fd5b6001600560003373ffffffffffffffffffffffffffffffffffffffff1673ffffffffffffffffffffffffffffffffffffffff16815260200190815260200160002060006101000a81548160ff0219169083151502179055506000808154809291906108c2906110b5565b9190505550565b600060026000838152602001908152602001600020905060011515600560003373ffffffffffffffffffffffffffffffffffffffff1673ffffffffffffffffffffffffffffffffffffffff16815260200190815260200160002060009054906101000a900460ff16151514610973576040517f08c379a000000000000000000000000000000000000000000000000000000000815260040161096a906113f2565b60405180910390fd5b8060040160003373ffffffffffffffffffffffffffffffffffffffff1673ffffffffffffffffffffffffffffffffffffffff16815260200190815260200160002060009054906101000a900460ff1615610a02576040517f08c379a00000000000000000000000000000000000000000000000000000000081526004016109f990611484565b60405180910390fd5b60018160040160003373ffffffffffffffffffffffffffffffffffffffff1673ffffffffffffffffffffffffffffffffffffffff16815260200190815260200160002060006101000a81548160ff021916908315150217905550806003016000815480929190610a71906110b5565b91905055505050565b828054610a8690610fc2565b90600052602060002090601f016020900481019282610aa85760008555610aef565b82601f10610ac157805160ff1916838001178555610aef565b82800160010185558215610aef579182015b82811115610aee578251825591602001919060010190610ad3565b5b509050610afc9190610b00565b5090565b5b80821115610b19576000816000905550600101610b01565b5090565b6000604051905090565b600080fd5b600080fd5b600073ffffffffffffffffffffffffffffffffffffffff82169050919050565b6000610b5c82610b31565b9050919050565b610b6c81610b51565b8114610b7757600080fd5b50565b600081359050610b8981610b63565b92915050565b600060208284031215610ba557610ba4610b27565b5b6000610bb384828501610b7a565b91505092915050565b60008115159050919050565b610bd181610bbc565b82525050565b6000602082019050610bec6000830184610bc8565b92915050565b6000819050919050565b610c0581610bf2565b82525050565b6000602082019050610c206000830184610bfc565b92915050565b610c2f81610b51565b82525050565b6000602082019050610c4a6000830184610c26565b92915050565b610c5981610bf2565b8114610c6457600080fd5b50565b600081359050610c7681610c50565b92915050565b600060208284031215610c9257610c91610b27565b5b6000610ca084828501610c67565b91505092915050565b600081519050919050565b600082825260208201905092915050565b60005b83811015610ce3578082015181840152602081019050610cc8565b83811115610cf2576000848401525b50505050565b6000601f19601f8301169050919050565b6000610d1482610ca9565b610d1e8185610cb4565b9350610d2e818560208601610cc5565b610d3781610cf8565b840191505092915050565b600060a0820190508181036000830152610d5c8188610d09565b9050610d6b6020830187610bfc565b610d786040830186610c26565b610d856060830185610bc8565b610d926080830184610bfc565b9695505050505050565b600080fd5b600080fd5b7f4e487b7100000000000000000000000000000000000000000000000000000000600052604160045260246000fd5b610dde82610cf8565b810181811067ffffffffffffffff82111715610dfd57610dfc610da6565b5b80604052505050565b6000610e10610b1d565b9050610e1c8282610dd5565b919050565b600067ffffffffffffffff821115610e3c57610e3b610da6565b5b610e4582610cf8565b9050602081019050919050565b82818337600083830152505050565b6000610e74610e6f84610e21565b610e06565b905082815260208101848484011115610e9057610e8f610da1565b5b610e9b848285610e52565b509392505050565b600082601f830112610eb857610eb7610d9c565b5b8135610ec8848260208601610e61565b91505092915050565b600080600060608486031215610eea57610ee9610b27565b5b600084013567ffffffffffffffff811115610f0857610f07610b2c565b5b610f1486828701610ea3565b9350506020610f2586828701610c67565b9250506040610f3686828701610b7a565b9150509250925092565b600060a082019050610f556000830188610bfc565b610f626020830187610bfc565b610f6f6040830186610bfc565b610f7c6060830185610bfc565b610f896080830184610c26565b9695505050505050565b7f4e487b7100000000000000000000000000000000000000000000000000000000600052602260045260246000fd5b60006002820490506001821680610fda57607f821691505b60208210811415610fee57610fed610f93565b5b50919050565b7f4f6e6c7920746865204d616e616765722063616e20706572666f726d2074686960008201527f7320616374696f6e000000000000000000000000000000000000000000000000602082015250565b6000611050602883610cb4565b915061105b82610ff4565b604082019050919050565b6000602082019050818103600083015261107f81611043565b9050919050565b7f4e487b7100000000000000000000000000000000000000000000000000000000600052601160045260246000fd5b60006110c082610bf2565b91507fffffffffffffffffffffffffffffffffffffffffffffffffffffffffffffffff8214156110f3576110f2611086565b5b600182019050919050565b7f596f75206861766520616c726561647920636f6e6669726d656420746865206160008201527f7070726f76616c206f6620746869732052657175657374000000000000000000602082015250565b600061115a603783610cb4565b9150611165826110fe565b604082019050919050565b600060208201905081810360008301526111898161114d565b9050919050565b7f4e487b7100000000000000000000000000000000000000000000000000000000600052601260045260246000fd5b60006111ca82610bf2565b91506111d583610bf2565b9250826111e5576111e4611190565b5b828204905092915050565b7f4174204c6561737420353025206f6620796f757220636f6e7472696275746f7260008201527f73206d75737420617070726f7665000000000000000000000000000000000000602082015250565b600061124c602e83610cb4565b9150611257826111f0565b604082019050919050565b6000602082019050818103600083015261127b8161123f565b9050919050565b7f596f757220636f6e747269627574696f6e2069732062656c6f7720746865206d60008201527f696e696d756d20616d6f756e7400000000000000000000000000000000000000602082015250565b60006112de602d83610cb4565b91506112e982611282565b604082019050919050565b6000602082019050818103600083015261130d816112d1565b9050919050565b7f596f75206861766520616c726561647920636f6e747269627574656400000000600082015250565b600061134a601c83610cb4565b915061135582611314565b602082019050919050565b600060208201905081810360008301526113798161133d565b9050919050565b7f4f6e6c7920436f6e7472696275746f72732063616e20617070726f766520746860008201527f6973205265717565737400000000000000000000000000000000000000000000602082015250565b60006113dc602a83610cb4565b91506113e782611380565b604082019050919050565b6000602082019050818103600083015261140b816113cf565b9050919050565b7f596f75206861766520616c726561647920617070726f7665642074686973205260008201527f6571756573740000000000000000000000000000000000000000000000000000602082015250565b600061146e602683610cb4565b915061147982611412565b604082019050919050565b6000602082019050818103600083015261149d81611461565b905091905056fea264697066735822122078fff4062e551a1adbb79e5e2fecd0605cce5eb1af39b4aad9e25ddcdfff50c764736f6c634300080b0033","opcodes":"PUSH1 0x80 PUSH1 0x40 MSTORE CALLVALUE DUP1 ISZERO PUSH3 0x11 JUMPI PUSH1 0x0 DUP1 REVERT JUMPDEST POP PUSH1 0x40 MLOAD PUSH3 0x165D CODESIZE SUB DUP1 PUSH3 0x165D DUP4 CODECOPY DUP2 DUP2 ADD PUSH1 0x40 MSTORE DUP2 ADD SWAP1 PUSH3 0x37 SWAP2 SWAP1 PUSH3 0x12C JUMP JUMPDEST DUP1 PUSH1 0x3 PUSH1 0x0 PUSH2 0x100 EXP DUP2 SLOAD DUP2 PUSH20 0xFFFFFFFFFFFFFFFFFFFFFFFFFFFFFFFFFFFFFFFF MUL NOT AND SWAP1 DUP4 PUSH20 0xFFFFFFFFFFFFFFFFFFFFFFFFFFFFFFFFFFFFFFFF AND MUL OR SWAP1 SSTORE POP DUP2 PUSH1 0x4 DUP2 SWAP1 SSTORE POP POP POP PUSH3 0x173 JUMP JUMPDEST PUSH1 0x0 DUP1 REVERT JUMPDEST PUSH1 0x0 DUP2 SWAP1 POP SWAP2 SWAP1 POP JUMP JUMPDEST PUSH3 0xA1 DUP2 PUSH3 0x8C JUMP JUMPDEST DUP2 EQ PUSH3 0xAD JUMPI PUSH1 0x0 DUP1 REVERT JUMPDEST POP JUMP JUMPDEST PUSH1 0x0 DUP2 MLOAD SWAP1 POP PUSH3 0xC1 DUP2 PUSH3 0x96 JUMP JUMPDEST SWAP3 SWAP2 POP POP JUMP JUMPDEST PUSH1 0x0 PUSH20 0xFFFFFFFFFFFFFFFFFFFFFFFFFFFFFFFFFFFFFFFF DUP3 AND SWAP1 POP SWAP2 SWAP1 POP JUMP JUMPDEST PUSH1 0x0 PUSH3 0xF4 DUP3 PUSH3 0xC7 JUMP JUMPDEST SWAP1 POP SWAP2 SWAP1 POP JUMP JUMPDEST PUSH3 0x106 DUP2 PUSH3 0xE7 JUMP JUMPDEST DUP2 EQ PUSH3 0x112 JUMPI PUSH1 0x0 DUP1 REVERT JUMPDEST POP JUMP JUMPDEST PUSH1 0x0 DUP2 MLOAD SWAP1 POP PUSH3 0x126 DUP2 PUSH3 0xFB JUMP JUMPDEST SWAP3 SWAP2 POP POP JUMP JUMPDEST PUSH1 0x0 DUP1 PUSH1 0x40 DUP4 DUP6 SUB SLT ISZERO PUSH3 0x146 JUMPI PUSH3 0x145 PUSH3 0x87 JUMP JUMPDEST JUMPDEST PUSH1 0x0 PUSH3 0x156 DUP6 DUP3 DUP7 ADD PUSH3 0xB0 JUMP JUMPDEST SWAP3 POP POP PUSH1 0x20 PUSH3 0x169 DUP6 DUP3 DUP7 ADD PUSH3 0x115 JUMP JUMPDEST SWAP2 POP POP SWAP3 POP SWAP3 SWAP1 POP JUMP JUMPDEST PUSH2 0x14DA DUP1 PUSH3 0x183 PUSH1 0x0 CODECOPY PUSH1 0x0 RETURN INVALID PUSH1 0x80 PUSH1 0x40 MSTORE PUSH1 0x4 CALLDATASIZE LT PUSH2 0x9C JUMPI PUSH1 0x0 CALLDATALOAD PUSH1 0xE0 SHR DUP1 PUSH4 0x8A9CFD55 GT PUSH2 0x64 JUMPI DUP1 PUSH4 0x8A9CFD55 EQ PUSH2 0x1A0 JUMPI DUP1 PUSH4 0x8F9A6FEE EQ PUSH2 0x1C9 JUMPI DUP1 PUSH4 0x937E09B1 EQ PUSH2 0x1E5 JUMPI DUP1 PUSH4 0xA00C96D7 EQ PUSH2 0x210 JUMPI DUP1 PUSH4 0xD7BB99BA EQ PUSH2 0x23F JUMPI DUP1 PUSH4 0xD7D1BBDB EQ PUSH2 0x249 JUMPI PUSH2 0x9C JUMP JUMPDEST DUP1 PUSH4 0x1F6D4942 EQ PUSH2 0xA1 JUMPI DUP1 PUSH4 0x278D2EE0 EQ PUSH2 0xDE JUMPI DUP1 PUSH4 0x481C6A75 EQ PUSH2 0x109 JUMPI DUP1 PUSH4 0x7569B3D7 EQ PUSH2 0x134 JUMPI DUP1 PUSH4 0x81D12C58 EQ PUSH2 0x15F JUMPI JUMPDEST PUSH1 0x0 DUP1 REVERT JUMPDEST CALLVALUE DUP1 ISZERO PUSH2 0xAD JUMPI PUSH1 0x0 DUP1 REVERT JUMPDEST POP PUSH2 0xC8 PUSH1 0x4 DUP1 CALLDATASIZE SUB DUP2 ADD SWAP1 PUSH2 0xC3 SWAP2 SWAP1 PUSH2 0xB8F JUMP JUMPDEST PUSH2 0x272 JUMP JUMPDEST PUSH1 0x40 MLOAD PUSH2 0xD5 SWAP2 SWAP1 PUSH2 0xBD7 JUMP JUMPDEST PUSH1 0x40 MLOAD DUP1 SWAP2 SUB SWAP1 RETURN JUMPDEST CALLVALUE DUP1 ISZERO PUSH2 0xEA JUMPI PUSH1 0x0 DUP1 REVERT JUMPDEST POP PUSH2 0xF3 PUSH2 0x292 JUMP JUMPDEST PUSH1 0x40 MLOAD PUSH2 0x100 SWAP2 SWAP1 PUSH2 0xC0B JUMP JUMPDEST PUSH1 0x40 MLOAD DUP1 SWAP2 SUB SWAP1 RETURN JUMPDEST CALLVALUE DUP1 ISZERO PUSH2 0x115 JUMPI PUSH1 0x0 DUP1 REVERT JUMPDEST POP PUSH2 0x11E PUSH2 0x298 JUMP JUMPDEST PUSH1 0x40 MLOAD PUSH2 0x12B SWAP2 SWAP1 PUSH2 0xC35 JUMP JUMPDEST PUSH1 0x40 MLOAD DUP1 SWAP2 SUB SWAP1 RETURN JUMPDEST CALLVALUE DUP1 ISZERO PUSH2 0x140 JUMPI PUSH1 0x0 DUP1 REVERT JUMPDEST POP PUSH2 0x149 PUSH2 0x2BE JUMP JUMPDEST PUSH1 0x40 MLOAD PUSH2 0x156 SWAP2 SWAP1 PUSH2 0xC0B JUMP JUMPDEST PUSH1 0x40 MLOAD DUP1 SWAP2 SUB SWAP1 RETURN JUMPDEST CALLVALUE DUP1 ISZERO PUSH2 0x16B JUMPI PUSH1 0x0 DUP1 REVERT JUMPDEST POP PUSH2 0x186 PUSH1 0x4 DUP1 CALLDATASIZE SUB DUP2 ADD SWAP1 PUSH2 0x181 SWAP2 SWAP1 PUSH2 0xC7C JUMP JUMPDEST PUSH2 0x2C4 JUMP JUMPDEST PUSH1 0x40 MLOAD PUSH2 0x197 SWAP6 SWAP5 SWAP4 SWAP3 SWAP2 SWAP1 PUSH2 0xD42 JUMP JUMPDEST PUSH1 0x40 MLOAD DUP1 SWAP2 SUB SWAP1 RETURN JUMPDEST CALLVALUE DUP1 ISZERO PUSH2 0x1AC JUMPI PUSH1 0x0 DUP1 REVERT JUMPDEST POP PUSH2 0x1C7 PUSH1 0x4 DUP1 CALLDATASIZE SUB DUP2 ADD SWAP1 PUSH2 0x1C2 SWAP2 SWAP1 PUSH2 0xED1 JUMP JUMPDEST PUSH2 0x3AF JUMP JUMPDEST STOP JUMPDEST PUSH2 0x1E3 PUSH1 0x4 DUP1 CALLDATASIZE SUB DUP2 ADD SWAP1 PUSH2 0x1DE SWAP2 SWAP1 PUSH2 0xC7C JUMP JUMPDEST PUSH2 0x558 JUMP JUMPDEST STOP JUMPDEST CALLVALUE DUP1 ISZERO PUSH2 0x1F1 JUMPI PUSH1 0x0 DUP1 REVERT JUMPDEST POP PUSH2 0x1FA PUSH2 0x735 JUMP JUMPDEST PUSH1 0x40 MLOAD PUSH2 0x207 SWAP2 SWAP1 PUSH2 0xC0B JUMP JUMPDEST PUSH1 0x40 MLOAD DUP1 SWAP2 SUB SWAP1 RETURN JUMPDEST CALLVALUE DUP1 ISZERO PUSH2 0x21C JUMPI PUSH1 0x0 DUP1 REVERT JUMPDEST POP PUSH2 0x225 PUSH2 0x73B JUMP JUMPDEST PUSH1 0x40 MLOAD PUSH2 0x236 SWAP6 SWAP5 SWAP4 SWAP3 SWAP2 SWAP1 PUSH2 0xF40 JUMP JUMPDEST PUSH1 0x40 MLOAD DUP1 SWAP2 SUB SWAP1 RETURN JUMPDEST PUSH2 0x247 PUSH2 0x781 JUMP JUMPDEST STOP JUMPDEST CALLVALUE DUP1 ISZERO PUSH2 0x255 JUMPI PUSH1 0x0 DUP1 REVERT JUMPDEST POP PUSH2 0x270 PUSH1 0x4 DUP1 CALLDATASIZE SUB DUP2 ADD SWAP1 PUSH2 0x26B SWAP2 SWAP1 PUSH2 0xC7C JUMP JUMPDEST PUSH2 0x8C9 JUMP JUMPDEST STOP JUMPDEST PUSH1 0x5 PUSH1 0x20 MSTORE DUP1 PUSH1 0x0 MSTORE PUSH1 0x40 PUSH1 0x0 KECCAK256 PUSH1 0x0 SWAP2 POP SLOAD SWAP1 PUSH2 0x100 EXP SWAP1 DIV PUSH1 0xFF AND DUP2 JUMP JUMPDEST PUSH1 0x1 SLOAD DUP2 JUMP JUMPDEST PUSH1 0x3 PUSH1 0x0 SWAP1 SLOAD SWAP1 PUSH2 0x100 EXP SWAP1 DIV PUSH20 0xFFFFFFFFFFFFFFFFFFFFFFFFFFFFFFFFFFFFFFFF AND DUP2 JUMP JUMPDEST PUSH1 0x0 SLOAD DUP2 JUMP JUMPDEST PUSH1 0x2 PUSH1 0x20 MSTORE DUP1 PUSH1 0x0 MSTORE PUSH1 0x40 PUSH1 0x0 KECCAK256 PUSH1 0x0 SWAP2 POP SWAP1 POP DUP1 PUSH1 0x0 ADD DUP1 SLOAD PUSH2 0x2E7 SWAP1 PUSH2 0xFC2 JUMP JUMPDEST DUP1 PUSH1 0x1F ADD PUSH1 0x20 DUP1 SWAP2 DIV MUL PUSH1 0x20 ADD PUSH1 0x40 MLOAD SWAP1 DUP2 ADD PUSH1 0x40 MSTORE DUP1 SWAP3 SWAP2 SWAP1 DUP2 DUP2 MSTORE PUSH1 0x20 ADD DUP3 DUP1 SLOAD PUSH2 0x313 SWAP1 PUSH2 0xFC2 JUMP JUMPDEST DUP1 ISZERO PUSH2 0x360 JUMPI DUP1 PUSH1 0x1F LT PUSH2 0x335 JUMPI PUSH2 0x100 DUP1 DUP4 SLOAD DIV MUL DUP4 MSTORE SWAP2 PUSH1 0x20 ADD SWAP2 PUSH2 0x360 JUMP JUMPDEST DUP3 ADD SWAP2 SWAP1 PUSH1 0x0 MSTORE PUSH1 0x20 PUSH1 0x0 KECCAK256 SWAP1 JUMPDEST DUP2 SLOAD DUP2 MSTORE SWAP1 PUSH1 0x1 ADD SWAP1 PUSH1 0x20 ADD DUP1 DUP4 GT PUSH2 0x343 JUMPI DUP3 SWAP1 SUB PUSH1 0x1F AND DUP3 ADD SWAP2 JUMPDEST POP POP POP POP POP SWAP1 DUP1 PUSH1 0x1 ADD SLOAD SWAP1 DUP1 PUSH1 0x2 ADD PUSH1 0x0 SWAP1 SLOAD SWAP1 PUSH2 0x100 EXP SWAP1 DIV PUSH20 0xFFFFFFFFFFFFFFFFFFFFFFFFFFFFFFFFFFFFFFFF AND SWAP1 DUP1 PUSH1 0x2 ADD PUSH1 0x14 SWAP1 SLOAD SWAP1 PUSH2 0x100 EXP SWAP1 DIV PUSH1 0xFF AND SWAP1 DUP1 PUSH1 0x3 ADD SLOAD SWAP1 POP DUP6 JUMP JUMPDEST PUSH1 0x3 PUSH1 0x0 SWAP1 SLOAD SWAP1 PUSH2 0x100 EXP SWAP1 DIV PUSH20 0xFFFFFFFFFFFFFFFFFFFFFFFFFFFFFFFFFFFFFFFF AND PUSH20 0xFFFFFFFFFFFFFFFFFFFFFFFFFFFFFFFFFFFFFFFF AND CALLER PUSH20 0xFFFFFFFFFFFFFFFFFFFFFFFFFFFFFFFFFFFFFFFF AND EQ PUSH2 0x43F JUMPI PUSH1 0x40 MLOAD PUSH32 0x8C379A000000000000000000000000000000000000000000000000000000000 DUP2 MSTORE PUSH1 0x4 ADD PUSH2 0x436 SWAP1 PUSH2 0x1066 JUMP JUMPDEST PUSH1 0x40 MLOAD DUP1 SWAP2 SUB SWAP1 REVERT JUMPDEST PUSH1 0x0 PUSH1 0x2 PUSH1 0x0 PUSH1 0x1 PUSH1 0x0 DUP2 SLOAD DUP1 SWAP3 SWAP2 SWAP1 PUSH2 0x458 SWAP1 PUSH2 0x10B5 JUMP JUMPDEST SWAP2 SWAP1 POP SSTORE DUP2 MSTORE PUSH1 0x20 ADD SWAP1 DUP2 MSTORE PUSH1 0x20 ADD PUSH1 0x0 KECCAK256 SWAP1 POP DUP4 DUP2 PUSH1 0x0 ADD SWAP1 DUP1 MLOAD SWAP1 PUSH1 0x20 ADD SWAP1 PUSH2 0x484 SWAP3 SWAP2 SWAP1 PUSH2 0xA7A JUMP JUMPDEST POP DUP3 DUP2 PUSH1 0x1 ADD DUP2 SWAP1 SSTORE POP DUP2 DUP2 PUSH1 0x2 ADD PUSH1 0x0 PUSH2 0x100 EXP DUP2 SLOAD DUP2 PUSH20 0xFFFFFFFFFFFFFFFFFFFFFFFFFFFFFFFFFFFFFFFF MUL NOT AND SWAP1 DUP4 PUSH20 0xFFFFFFFFFFFFFFFFFFFFFFFFFFFFFFFFFFFFFFFF AND MUL OR SWAP1 SSTORE POP PUSH1 0x0 DUP2 PUSH1 0x2 ADD PUSH1 0x14 PUSH2 0x100 EXP DUP2 SLOAD DUP2 PUSH1 0xFF MUL NOT AND SWAP1 DUP4 ISZERO ISZERO MUL OR SWAP1 SSTORE POP PUSH1 0x0 DUP2 PUSH1 0x3 ADD DUP2 SWAP1 SSTORE POP PUSH1 0x0 DUP2 PUSH1 0x4 ADD PUSH1 0x0 CALLER PUSH20 0xFFFFFFFFFFFFFFFFFFFFFFFFFFFFFFFFFFFFFFFF AND PUSH20 0xFFFFFFFFFFFFFFFFFFFFFFFFFFFFFFFFFFFFFFFF AND DUP2 MSTORE PUSH1 0x20 ADD SWAP1 DUP2 MSTORE PUSH1 0x20 ADD PUSH1 0x0 KECCAK256 PUSH1 0x0 PUSH2 0x100 EXP DUP2 SLOAD DUP2 PUSH1 0xFF MUL NOT AND SWAP1 DUP4 ISZERO ISZERO MUL OR SWAP1 SSTORE POP POP POP POP POP JUMP JUMPDEST PUSH1 0x3 PUSH1 0x0 SWAP1 SLOAD SWAP1 PUSH2 0x100 EXP SWAP1 DIV PUSH20 0xFFFFFFFFFFFFFFFFFFFFFFFFFFFFFFFFFFFFFFFF AND PUSH20 0xFFFFFFFFFFFFFFFFFFFFFFFFFFFFFFFFFFFFFFFF AND CALLER PUSH20 0xFFFFFFFFFFFFFFFFFFFFFFFFFFFFFFFFFFFFFFFF AND EQ PUSH2 0x5E8 JUMPI PUSH1 0x40 MLOAD PUSH32 0x8C379A000000000000000000000000000000000000000000000000000000000 DUP2 MSTORE PUSH1 0x4 ADD PUSH2 0x5DF SWAP1 PUSH2 0x1066 JUMP JUMPDEST PUSH1 0x40 MLOAD DUP1 SWAP2 SUB SWAP1 REVERT JUMPDEST PUSH1 0x0 PUSH1 0x2 PUSH1 0x0 DUP4 DUP2 MSTORE PUSH1 0x20 ADD SWAP1 DUP2 MSTORE PUSH1 0x20 ADD PUSH1 0x0 KECCAK256 SWAP1 POP DUP1 PUSH1 0x2 ADD PUSH1 0x14 SWAP1 SLOAD SWAP1 PUSH2 0x100 EXP SWAP1 DIV PUSH1 0xFF AND ISZERO PUSH2 0x651 JUMPI PUSH1 0x40 MLOAD PUSH32 0x8C379A000000000000000000000000000000000000000000000000000000000 DUP2 MSTORE PUSH1 0x4 ADD PUSH2 0x648 SWAP1 PUSH2 0x1170 JUMP JUMPDEST PUSH1 0x40 MLOAD DUP1 SWAP2 SUB SWAP1 REVERT JUMPDEST PUSH1 0x2 PUSH1 0x0 SLOAD PUSH2 0x660 SWAP2 SWAP1 PUSH2 0x11BF JUMP JUMPDEST DUP2 PUSH1 0x3 ADD SLOAD GT PUSH2 0x6A5 JUMPI PUSH1 0x40 MLOAD PUSH32 0x8C379A000000000000000000000000000000000000000000000000000000000 DUP2 MSTORE PUSH1 0x4 ADD PUSH2 0x69C SWAP1 PUSH2 0x1262 JUMP JUMPDEST PUSH1 0x40 MLOAD DUP1 SWAP2 SUB SWAP1 REVERT JUMPDEST PUSH1 0x1 DUP2 PUSH1 0x2 ADD PUSH1 0x14 PUSH2 0x100 EXP DUP2 SLOAD DUP2 PUSH1 0xFF MUL NOT AND SWAP1 DUP4 ISZERO ISZERO MUL OR SWAP1 SSTORE POP DUP1 PUSH1 0x2 ADD PUSH1 0x0 SWAP1 SLOAD SWAP1 PUSH2 0x100 EXP SWAP1 DIV PUSH20 0xFFFFFFFFFFFFFFFFFFFFFFFFFFFFFFFFFFFFFFFF AND PUSH20 0xFFFFFFFFFFFFFFFFFFFFFFFFFFFFFFFFFFFFFFFF AND PUSH2 0x8FC DUP3 PUSH1 0x1 ADD SLOAD SWAP1 DUP2 ISZERO MUL SWAP1 PUSH1 0x40 MLOAD PUSH1 0x0 PUSH1 0x40 MLOAD DUP1 DUP4 SUB DUP2 DUP6 DUP9 DUP9 CALL SWAP4 POP POP POP POP ISZERO DUP1 ISZERO PUSH2 0x730 JUMPI RETURNDATASIZE PUSH1 0x0 DUP1 RETURNDATACOPY RETURNDATASIZE PUSH1 0x0 REVERT JUMPDEST POP POP POP JUMP JUMPDEST PUSH1 0x4 SLOAD DUP2 JUMP JUMPDEST PUSH1 0x0 DUP1 PUSH1 0x0 DUP1 PUSH1 0x0 PUSH1 0x4 SLOAD SELFBALANCE PUSH1 0x0 SLOAD PUSH1 0x1 SLOAD PUSH1 0x3 PUSH1 0x0 SWAP1 SLOAD SWAP1 PUSH2 0x100 EXP SWAP1 DIV PUSH20 0xFFFFFFFFFFFFFFFFFFFFFFFFFFFFFFFFFFFFFFFF AND SWAP5 POP SWAP5 POP SWAP5 POP SWAP5 POP SWAP5 POP SWAP1 SWAP2 SWAP3 SWAP4 SWAP5 JUMP JUMPDEST PUSH1 0x4 SLOAD CALLVALUE GT PUSH2 0x7C5 JUMPI PUSH1 0x40 MLOAD PUSH32 0x8C379A000000000000000000000000000000000000000000000000000000000 DUP2 MSTORE PUSH1 0x4 ADD PUSH2 0x7BC SWAP1 PUSH2 0x12F4 JUMP JUMPDEST PUSH1 0x40 MLOAD DUP1 SWAP2 SUB SWAP1 REVERT JUMPDEST PUSH1 0x0 ISZERO ISZERO PUSH1 0x5 PUSH1 0x0 CALLER PUSH20 0xFFFFFFFFFFFFFFFFFFFFFFFFFFFFFFFFFFFFFFFF AND PUSH20 0xFFFFFFFFFFFFFFFFFFFFFFFFFFFFFFFFFFFFFFFF AND DUP2 MSTORE PUSH1 0x20 ADD SWAP1 DUP2 MSTORE PUSH1 0x20 ADD PUSH1 0x0 KECCAK256 PUSH1 0x0 SWAP1 SLOAD SWAP1 PUSH2 0x100 EXP SWAP1 DIV PUSH1 0xFF AND ISZERO ISZERO EQ PUSH2 0x858 JUMPI PUSH1 0x40 MLOAD PUSH32 0x8C379A000000000000000000000000000000000000000000000000000000000 DUP2 MSTORE PUSH1 0x4 ADD PUSH2 0x84F SWAP1 PUSH2 0x1360 JUMP JUMPDEST PUSH1 0x40 MLOAD DUP1 SWAP2 SUB SWAP1 REVERT JUMPDEST PUSH1 0x1 PUSH1 0x5 PUSH1 0x0 CALLER PUSH20 0xFFFFFFFFFFFFFFFFFFFFFFFFFFFFFFFFFFFFFFFF AND PUSH20 0xFFFFFFFFFFFFFFFFFFFFFFFFFFFFFFFFFFFFFFFF AND DUP2 MSTORE PUSH1 0x20 ADD SWAP1 DUP2 MSTORE PUSH1 0x20 ADD PUSH1 0x0 KECCAK256 PUSH1 0x0 PUSH2 0x100 EXP DUP2 SLOAD DUP2 PUSH1 0xFF MUL NOT AND SWAP1 DUP4 ISZERO ISZERO MUL OR SWAP1 SSTORE POP PUSH1 0x0 DUP1 DUP2 SLOAD DUP1 SWAP3 SWAP2 SWAP1 PUSH2 0x8C2 SWAP1 PUSH2 0x10B5 JUMP JUMPDEST SWAP2 SWAP1 POP SSTORE POP JUMP JUMPDEST PUSH1 0x0 PUSH1 0x2 PUSH1 0x0 DUP4 DUP2 MSTORE PUSH1 0x20 ADD SWAP1 DUP2 MSTORE PUSH1 0x20 ADD PUSH1 0x0 KECCAK256 SWAP1 POP PUSH1 0x1 ISZERO ISZERO PUSH1 0x5 PUSH1 0x0 CALLER PUSH20 0xFFFFFFFFFFFFFFFFFFFFFFFFFFFFFFFFFFFFFFFF AND PUSH20 0xFFFFFFFFFFFFFFFFFFFFFFFFFFFFFFFFFFFFFFFF AND DUP2 MSTORE PUSH1 0x20 ADD SWAP1 DUP2 MSTORE PUSH1 0x20 ADD PUSH1 0x0 KECCAK256 PUSH1 0x0 SWAP1 SLOAD SWAP1 PUSH2 0x100 EXP SWAP1 DIV PUSH1 0xFF AND ISZERO ISZERO EQ PUSH2 0x973 JUMPI PUSH1 0x40 MLOAD PUSH32 0x8C379A000000000000000000000000000000000000000000000000000000000 DUP2 MSTORE PUSH1 0x4 ADD PUSH2 0x96A SWAP1 PUSH2 0x13F2 JUMP JUMPDEST PUSH1 0x40 MLOAD DUP1 SWAP2 SUB SWAP1 REVERT JUMPDEST DUP1 PUSH1 0x4 ADD PUSH1 0x0 CALLER PUSH20 0xFFFFFFFFFFFFFFFFFFFFFFFFFFFFFFFFFFFFFFFF AND PUSH20 0xFFFFFFFFFFFFFFFFFFFFFFFFFFFFFFFFFFFFFFFF AND DUP2 MSTORE PUSH1 0x20 ADD SWAP1 DUP2 MSTORE PUSH1 0x20 ADD PUSH1 0x0 KECCAK256 PUSH1 0x0 SWAP1 SLOAD SWAP1 PUSH2 0x100 EXP SWAP1 DIV PUSH1 0xFF AND ISZERO PUSH2 0xA02 JUMPI PUSH1 0x40 MLOAD PUSH32 0x8C379A000000000000000000000000000000000000000000000000000000000 DUP2 MSTORE PUSH1 0x4 ADD PUSH2 0x9F9 SWAP1 PUSH2 0x1484 JUMP JUMPDEST PUSH1 0x40 MLOAD DUP1 SWAP2 SUB SWAP1 REVERT JUMPDEST PUSH1 0x1 DUP2 PUSH1 0x4 ADD PUSH1 0x0 CALLER PUSH20 0xFFFFFFFFFFFFFFFFFFFFFFFFFFFFFFFFFFFFFFFF AND PUSH20 0xFFFFFFFFFFFFFFFFFFFFFFFFFFFFFFFFFFFFFFFF AND DUP2 MSTORE PUSH1 0x20 ADD SWAP1 DUP2 MSTORE PUSH1 0x20 ADD PUSH1 0x0 KECCAK256 PUSH1 0x0 PUSH2 0x100 EXP DUP2 SLOAD DUP2 PUSH1 0xFF MUL NOT AND SWAP1 DUP4 ISZERO ISZERO MUL OR SWAP1 SSTORE POP DUP1 PUSH1 0x3 ADD PUSH1 0x0 DUP2 SLOAD DUP1 SWAP3 SWAP2 SWAP1 PUSH2 0xA71 SWAP1 PUSH2 0x10B5 JUMP JUMPDEST SWAP2 SWAP1 POP SSTORE POP POP POP JUMP JUMPDEST DUP3 DUP1 SLOAD PUSH2 0xA86 SWAP1 PUSH2 0xFC2 JUMP JUMPDEST SWAP1 PUSH1 0x0 MSTORE PUSH1 0x20 PUSH1 0x0 KECCAK256 SWAP1 PUSH1 0x1F ADD PUSH1 0x20 SWAP1 DIV DUP2 ADD SWAP3 DUP3 PUSH2 0xAA8 JUMPI PUSH1 0x0 DUP6 SSTORE PUSH2 0xAEF JUMP JUMPDEST DUP3 PUSH1 0x1F LT PUSH2 0xAC1 JUMPI DUP1 MLOAD PUSH1 0xFF NOT AND DUP4 DUP1 ADD OR DUP6 SSTORE PUSH2 0xAEF JUMP JUMPDEST DUP3 DUP1 ADD PUSH1 0x1 ADD DUP6 SSTORE DUP3 ISZERO PUSH2 0xAEF JUMPI SWAP2 DUP3 ADD JUMPDEST DUP3 DUP2 GT ISZERO PUSH2 0xAEE JUMPI DUP3 MLOAD DUP3 SSTORE SWAP2 PUSH1 0x20 ADD SWAP2 SWAP1 PUSH1 0x1 ADD SWAP1 PUSH2 0xAD3 JUMP JUMPDEST JUMPDEST POP SWAP1 POP PUSH2 0xAFC SWAP2 SWAP1 PUSH2 0xB00 JUMP JUMPDEST POP SWAP1 JUMP JUMPDEST JUMPDEST DUP1 DUP3 GT ISZERO PUSH2 0xB19 JUMPI PUSH1 0x0 DUP2 PUSH1 0x0 SWAP1 SSTORE POP PUSH1 0x1 ADD PUSH2 0xB01 JUMP JUMPDEST POP SWAP1 JUMP JUMPDEST PUSH1 0x0 PUSH1 0x40 MLOAD SWAP1 POP SWAP1 JUMP JUMPDEST PUSH1 0x0 DUP1 REVERT JUMPDEST PUSH1 0x0 DUP1 REVERT JUMPDEST PUSH1 0x0 PUSH20 0xFFFFFFFFFFFFFFFFFFFFFFFFFFFFFFFFFFFFFFFF DUP3 AND SWAP1 POP SWAP2 SWAP1 POP JUMP JUMPDEST PUSH1 0x0 PUSH2 0xB5C DUP3 PUSH2 0xB31 JUMP JUMPDEST SWAP1 POP SWAP2 SWAP1 POP JUMP JUMPDEST PUSH2 0xB6C DUP2 PUSH2 0xB51 JUMP JUMPDEST DUP2 EQ PUSH2 0xB77 JUMPI PUSH1 0x0 DUP1 REVERT JUMPDEST POP JUMP JUMPDEST PUSH1 0x0 DUP2 CALLDATALOAD SWAP1 POP PUSH2 0xB89 DUP2 PUSH2 0xB63 JUMP JUMPDEST SWAP3 SWAP2 POP POP JUMP JUMPDEST PUSH1 0x0 PUSH1 0x20 DUP3 DUP5 SUB SLT ISZERO PUSH2 0xBA5 JUMPI PUSH2 0xBA4 PUSH2 0xB27 JUMP JUMPDEST JUMPDEST PUSH1 0x0 PUSH2 0xBB3 DUP5 DUP3 DUP6 ADD PUSH2 0xB7A JUMP JUMPDEST SWAP2 POP POP SWAP3 SWAP2 POP POP JUMP JUMPDEST PUSH1 0x0 DUP2 ISZERO ISZERO SWAP1 POP SWAP2 SWAP1 POP JUMP JUMPDEST PUSH2 0xBD1 DUP2 PUSH2 0xBBC JUMP JUMPDEST DUP3 MSTORE POP POP JUMP JUMPDEST PUSH1 0x0 PUSH1 0x20 DUP3 ADD SWAP1 POP PUSH2 0xBEC PUSH1 0x0 DUP4 ADD DUP5 PUSH2 0xBC8 JUMP JUMPDEST SWAP3 SWAP2 POP POP JUMP JUMPDEST PUSH1 0x0 DUP2 SWAP1 POP SWAP2 SWAP1 POP JUMP JUMPDEST PUSH2 0xC05 DUP2 PUSH2 0xBF2 JUMP JUMPDEST DUP3 MSTORE POP POP JUMP JUMPDEST PUSH1 0x0 PUSH1 0x20 DUP3 ADD SWAP1 POP PUSH2 0xC20 PUSH1 0x0 DUP4 ADD DUP5 PUSH2 0xBFC JUMP JUMPDEST SWAP3 SWAP2 POP POP JUMP JUMPDEST PUSH2 0xC2F DUP2 PUSH2 0xB51 JUMP JUMPDEST DUP3 MSTORE POP POP JUMP JUMPDEST PUSH1 0x0 PUSH1 0x20 DUP3 ADD SWAP1 POP PUSH2 0xC4A PUSH1 0x0 DUP4 ADD DUP5 PUSH2 0xC26 JUMP JUMPDEST SWAP3 SWAP2 POP POP JUMP JUMPDEST PUSH2 0xC59 DUP2 PUSH2 0xBF2 JUMP JUMPDEST DUP2 EQ PUSH2 0xC64 JUMPI PUSH1 0x0 DUP1 REVERT JUMPDEST POP JUMP JUMPDEST PUSH1 0x0 DUP2 CALLDATALOAD SWAP1 POP PUSH2 0xC76 DUP2 PUSH2 0xC50 JUMP JUMPDEST SWAP3 SWAP2 POP POP JUMP JUMPDEST PUSH1 0x0 PUSH1 0x20 DUP3 DUP5 SUB SLT ISZERO PUSH2 0xC92 JUMPI PUSH2 0xC91 PUSH2 0xB27 JUMP JUMPDEST JUMPDEST PUSH1 0x0 PUSH2 0xCA0 DUP5 DUP3 DUP6 ADD PUSH2 0xC67 JUMP JUMPDEST SWAP2 POP POP SWAP3 SWAP2 POP POP JUMP JUMPDEST PUSH1 0x0 DUP2 MLOAD SWAP1 POP SWAP2 SWAP1 POP JUMP JUMPDEST PUSH1 0x0 DUP3 DUP3 MSTORE PUSH1 0x20 DUP3 ADD SWAP1 POP SWAP3 SWAP2 POP POP JUMP JUMPDEST PUSH1 0x0 JUMPDEST DUP4 DUP2 LT ISZERO PUSH2 0xCE3 JUMPI DUP1 DUP3 ADD MLOAD DUP2 DUP5 ADD MSTORE PUSH1 0x20 DUP2 ADD SWAP1 POP PUSH2 0xCC8 JUMP JUMPDEST DUP4 DUP2 GT ISZERO PUSH2 0xCF2 JUMPI PUSH1 0x0 DUP5 DUP5 ADD MSTORE JUMPDEST POP POP POP POP JUMP JUMPDEST PUSH1 0x0 PUSH1 0x1F NOT PUSH1 0x1F DUP4 ADD AND SWAP1 POP SWAP2 SWAP1 POP JUMP JUMPDEST PUSH1 0x0 PUSH2 0xD14 DUP3 PUSH2 0xCA9 JUMP JUMPDEST PUSH2 0xD1E DUP2 DUP6 PUSH2 0xCB4 JUMP JUMPDEST SWAP4 POP PUSH2 0xD2E DUP2 DUP6 PUSH1 0x20 DUP7 ADD PUSH2 0xCC5 JUMP JUMPDEST PUSH2 0xD37 DUP2 PUSH2 0xCF8 JUMP JUMPDEST DUP5 ADD SWAP2 POP POP SWAP3 SWAP2 POP POP JUMP JUMPDEST PUSH1 0x0 PUSH1 0xA0 DUP3 ADD SWAP1 POP DUP2 DUP2 SUB PUSH1 0x0 DUP4 ADD MSTORE PUSH2 0xD5C DUP2 DUP9 PUSH2 0xD09 JUMP JUMPDEST SWAP1 POP PUSH2 0xD6B PUSH1 0x20 DUP4 ADD DUP8 PUSH2 0xBFC JUMP JUMPDEST PUSH2 0xD78 PUSH1 0x40 DUP4 ADD DUP7 PUSH2 0xC26 JUMP JUMPDEST PUSH2 0xD85 PUSH1 0x60 DUP4 ADD DUP6 PUSH2 0xBC8 JUMP JUMPDEST PUSH2 0xD92 PUSH1 0x80 DUP4 ADD DUP5 PUSH2 0xBFC JUMP JUMPDEST SWAP7 SWAP6 POP POP POP POP POP POP JUMP JUMPDEST PUSH1 0x0 DUP1 REVERT JUMPDEST PUSH1 0x0 DUP1 REVERT JUMPDEST PUSH32 0x4E487B7100000000000000000000000000000000000000000000000000000000 PUSH1 0x0 MSTORE PUSH1 0x41 PUSH1 0x4 MSTORE PUSH1 0x24 PUSH1 0x0 REVERT JUMPDEST PUSH2 0xDDE DUP3 PUSH2 0xCF8 JUMP JUMPDEST DUP2 ADD DUP2 DUP2 LT PUSH8 0xFFFFFFFFFFFFFFFF DUP3 GT OR ISZERO PUSH2 0xDFD JUMPI PUSH2 0xDFC PUSH2 0xDA6 JUMP JUMPDEST JUMPDEST DUP1 PUSH1 0x40 MSTORE POP POP POP JUMP JUMPDEST PUSH1 0x0 PUSH2 0xE10 PUSH2 0xB1D JUMP JUMPDEST SWAP1 POP PUSH2 0xE1C DUP3 DUP3 PUSH2 0xDD5 JUMP JUMPDEST SWAP2 SWAP1 POP JUMP JUMPDEST PUSH1 0x0 PUSH8 0xFFFFFFFFFFFFFFFF DUP3 GT ISZERO PUSH2 0xE3C JUMPI PUSH2 0xE3B PUSH2 0xDA6 JUMP JUMPDEST JUMPDEST PUSH2 0xE45 DUP3 PUSH2 0xCF8 JUMP JUMPDEST SWAP1 POP PUSH1 0x20 DUP2 ADD SWAP1 POP SWAP2 SWAP1 POP JUMP JUMPDEST DUP3 DUP2 DUP4 CALLDATACOPY PUSH1 0x0 DUP4 DUP4 ADD MSTORE POP POP POP JUMP JUMPDEST PUSH1 0x0 PUSH2 0xE74 PUSH2 0xE6F DUP5 PUSH2 0xE21 JUMP JUMPDEST PUSH2 0xE06 JUMP JUMPDEST SWAP1 POP DUP3 DUP2 MSTORE PUSH1 0x20 DUP2 ADD DUP5 DUP5 DUP5 ADD GT ISZERO PUSH2 0xE90 JUMPI PUSH2 0xE8F PUSH2 0xDA1 JUMP JUMPDEST JUMPDEST PUSH2 0xE9B DUP5 DUP3 DUP6 PUSH2 0xE52 JUMP JUMPDEST POP SWAP4 SWAP3 POP POP POP JUMP JUMPDEST PUSH1 0x0 DUP3 PUSH1 0x1F DUP4 ADD SLT PUSH2 0xEB8 JUMPI PUSH2 0xEB7 PUSH2 0xD9C JUMP JUMPDEST JUMPDEST DUP2 CALLDATALOAD PUSH2 0xEC8 DUP5 DUP3 PUSH1 0x20 DUP7 ADD PUSH2 0xE61 JUMP JUMPDEST SWAP2 POP POP SWAP3 SWAP2 POP POP JUMP JUMPDEST PUSH1 0x0 DUP1 PUSH1 0x0 PUSH1 0x60 DUP5 DUP7 SUB SLT ISZERO PUSH2 0xEEA JUMPI PUSH2 0xEE9 PUSH2 0xB27 JUMP JUMPDEST JUMPDEST PUSH1 0x0 DUP5 ADD CALLDATALOAD PUSH8 0xFFFFFFFFFFFFFFFF DUP2 GT ISZERO PUSH2 0xF08 JUMPI PUSH2 0xF07 PUSH2 0xB2C JUMP JUMPDEST JUMPDEST PUSH2 0xF14 DUP7 DUP3 DUP8 ADD PUSH2 0xEA3 JUMP JUMPDEST SWAP4 POP POP PUSH1 0x20 PUSH2 0xF25 DUP7 DUP3 DUP8 ADD PUSH2 0xC67 JUMP JUMPDEST SWAP3 POP POP PUSH1 0x40 PUSH2 0xF36 DUP7 DUP3 DUP8 ADD PUSH2 0xB7A JUMP JUMPDEST SWAP2 POP POP SWAP3 POP SWAP3 POP SWAP3 JUMP JUMPDEST PUSH1 0x0 PUSH1 0xA0 DUP3 ADD SWAP1 POP PUSH2 0xF55 PUSH1 0x0 DUP4 ADD DUP9 PUSH2 0xBFC JUMP JUMPDEST PUSH2 0xF62 PUSH1 0x20 DUP4 ADD DUP8 PUSH2 0xBFC JUMP JUMPDEST PUSH2 0xF6F PUSH1 0x40 DUP4 ADD DUP7 PUSH2 0xBFC JUMP JUMPDEST PUSH2 0xF7C PUSH1 0x60 DUP4 ADD DUP6 PUSH2 0xBFC JUMP JUMPDEST PUSH2 0xF89 PUSH1 0x80 DUP4 ADD DUP5 PUSH2 0xC26 JUMP JUMPDEST SWAP7 SWAP6 POP POP POP POP POP POP JUMP JUMPDEST PUSH32 0x4E487B7100000000000000000000000000000000000000000000000000000000 PUSH1 0x0 MSTORE PUSH1 0x22 PUSH1 0x4 MSTORE PUSH1 0x24 PUSH1 0x0 REVERT JUMPDEST PUSH1 0x0 PUSH1 0x2 DUP3 DIV SWAP1 POP PUSH1 0x1 DUP3 AND DUP1 PUSH2 0xFDA JUMPI PUSH1 0x7F DUP3 AND SWAP2 POP JUMPDEST PUSH1 0x20 DUP3 LT DUP2 EQ ISZERO PUSH2 0xFEE JUMPI PUSH2 0xFED PUSH2 0xF93 JUMP JUMPDEST JUMPDEST POP SWAP2 SWAP1 POP JUMP JUMPDEST PUSH32 0x4F6E6C7920746865204D616E616765722063616E20706572666F726D20746869 PUSH1 0x0 DUP3 ADD MSTORE PUSH32 0x7320616374696F6E000000000000000000000000000000000000000000000000 PUSH1 0x20 DUP3 ADD MSTORE POP JUMP JUMPDEST PUSH1 0x0 PUSH2 0x1050 PUSH1 0x28 DUP4 PUSH2 0xCB4 JUMP JUMPDEST SWAP2 POP PUSH2 0x105B DUP3 PUSH2 0xFF4 JUMP JUMPDEST PUSH1 0x40 DUP3 ADD SWAP1 POP SWAP2 SWAP1 POP JUMP JUMPDEST PUSH1 0x0 PUSH1 0x20 DUP3 ADD SWAP1 POP DUP2 DUP2 SUB PUSH1 0x0 DUP4 ADD MSTORE PUSH2 0x107F DUP2 PUSH2 0x1043 JUMP JUMPDEST SWAP1 POP SWAP2 SWAP1 POP JUMP JUMPDEST PUSH32 0x4E487B7100000000000000000000000000000000000000000000000000000000 PUSH1 0x0 MSTORE PUSH1 0x11 PUSH1 0x4 MSTORE PUSH1 0x24 PUSH1 0x0 REVERT JUMPDEST PUSH1 0x0 PUSH2 0x10C0 DUP3 PUSH2 0xBF2 JUMP JUMPDEST SWAP2 POP PUSH32 0xFFFFFFFFFFFFFFFFFFFFFFFFFFFFFFFFFFFFFFFFFFFFFFFFFFFFFFFFFFFFFFFF DUP3 EQ ISZERO PUSH2 0x10F3 JUMPI PUSH2 0x10F2 PUSH2 0x1086 JUMP JUMPDEST JUMPDEST PUSH1 0x1 DUP3 ADD SWAP1 POP SWAP2 SWAP1 POP JUMP JUMPDEST PUSH32 0x596F75206861766520616C726561647920636F6E6669726D6564207468652061 PUSH1 0x0 DUP3 ADD MSTORE PUSH32 0x7070726F76616C206F6620746869732052657175657374000000000000000000 PUSH1 0x20 DUP3 ADD MSTORE POP JUMP JUMPDEST PUSH1 0x0 PUSH2 0x115A PUSH1 0x37 DUP4 PUSH2 0xCB4 JUMP JUMPDEST SWAP2 POP PUSH2 0x1165 DUP3 PUSH2 0x10FE JUMP JUMPDEST PUSH1 0x40 DUP3 ADD SWAP1 POP SWAP2 SWAP1 POP JUMP JUMPDEST PUSH1 0x0 PUSH1 0x20 DUP3 ADD SWAP1 POP DUP2 DUP2 SUB PUSH1 0x0 DUP4 ADD MSTORE PUSH2 0x1189 DUP2 PUSH2 0x114D JUMP JUMPDEST SWAP1 POP SWAP2 SWAP1 POP JUMP JUMPDEST PUSH32 0x4E487B7100000000000000000000000000000000000000000000000000000000 PUSH1 0x0 MSTORE PUSH1 0x12 PUSH1 0x4 MSTORE PUSH1 0x24 PUSH1 0x0 REVERT JUMPDEST PUSH1 0x0 PUSH2 0x11CA DUP3 PUSH2 0xBF2 JUMP JUMPDEST SWAP2 POP PUSH2 0x11D5 DUP4 PUSH2 0xBF2 JUMP JUMPDEST SWAP3 POP DUP3 PUSH2 0x11E5 JUMPI PUSH2 0x11E4 PUSH2 0x1190 JUMP JUMPDEST JUMPDEST DUP3 DUP3 DIV SWAP1 POP SWAP3 SWAP2 POP POP JUMP JUMPDEST PUSH32 0x4174204C6561737420353025206F6620796F757220636F6E7472696275746F72 PUSH1 0x0 DUP3 ADD MSTORE PUSH32 0x73206D75737420617070726F7665000000000000000000000000000000000000 PUSH1 0x20 DUP3 ADD MSTORE POP JUMP JUMPDEST PUSH1 0x0 PUSH2 0x124C PUSH1 0x2E DUP4 PUSH2 0xCB4 JUMP JUMPDEST SWAP2 POP PUSH2 0x1257 DUP3 PUSH2 0x11F0 JUMP JUMPDEST PUSH1 0x40 DUP3 ADD SWAP1 POP SWAP2 SWAP1 POP JUMP JUMPDEST PUSH1 0x0 PUSH1 0x20 DUP3 ADD SWAP1 POP DUP2 DUP2 SUB PUSH1 0x0 DUP4 ADD MSTORE PUSH2 0x127B DUP2 PUSH2 0x123F JUMP JUMPDEST SWAP1 POP SWAP2 SWAP1 POP JUMP JUMPDEST PUSH32 0x596F757220636F6E747269627574696F6E2069732062656C6F7720746865206D PUSH1 0x0 DUP3 ADD MSTORE PUSH32 0x696E696D756D20616D6F756E7400000000000000000000000000000000000000 PUSH1 0x20 DUP3 ADD MSTORE POP JUMP JUMPDEST PUSH1 0x0 PUSH2 0x12DE PUSH1 0x2D DUP4 PUSH2 0xCB4 JUMP JUMPDEST SWAP2 POP PUSH2 0x12E9 DUP3 PUSH2 0x1282 JUMP JUMPDEST PUSH1 0x40 DUP3 ADD SWAP1 POP SWAP2 SWAP1 POP JUMP JUMPDEST PUSH1 0x0 PUSH1 0x20 DUP3 ADD SWAP1 POP DUP2 DUP2 SUB PUSH1 0x0 DUP4 ADD MSTORE PUSH2 0x130D DUP2 PUSH2 0x12D1 JUMP JUMPDEST SWAP1 POP SWAP2 SWAP1 POP JUMP JUMPDEST PUSH32 0x596F75206861766520616C726561647920636F6E747269627574656400000000 PUSH1 0x0 DUP3 ADD MSTORE POP JUMP JUMPDEST PUSH1 0x0 PUSH2 0x134A PUSH1 0x1C DUP4 PUSH2 0xCB4 JUMP JUMPDEST SWAP2 POP PUSH2 0x1355 DUP3 PUSH2 0x1314 JUMP JUMPDEST PUSH1 0x20 DUP3 ADD SWAP1 POP SWAP2 SWAP1 POP JUMP JUMPDEST PUSH1 0x0 PUSH1 0x20 DUP3 ADD SWAP1 POP DUP2 DUP2 SUB PUSH1 0x0 DUP4 ADD MSTORE PUSH2 0x1379 DUP2 PUSH2 0x133D JUMP JUMPDEST SWAP1 POP SWAP2 SWAP1 POP JUMP JUMPDEST PUSH32 0x4F6E6C7920436F6E7472696275746F72732063616E20617070726F7665207468 PUSH1 0x0 DUP3 ADD MSTORE PUSH32 0x6973205265717565737400000000000000000000000000000000000000000000 PUSH1 0x20 DUP3 ADD MSTORE POP JUMP JUMPDEST PUSH1 0x0 PUSH2 0x13DC PUSH1 0x2A DUP4 PUSH2 0xCB4 JUMP JUMPDEST SWAP2 POP PUSH2 0x13E7 DUP3 PUSH2 0x1380 JUMP JUMPDEST PUSH1 0x40 DUP3 ADD SWAP1 POP SWAP2 SWAP1 POP JUMP JUMPDEST PUSH1 0x0 PUSH1 0x20 DUP3 ADD SWAP1 POP DUP2 DUP2 SUB PUSH1 0x0 DUP4 ADD MSTORE PUSH2 0x140B DUP2 PUSH2 0x13CF JUMP JUMPDEST SWAP1 POP SWAP2 SWAP1 POP JUMP JUMPDEST PUSH32 0x596F75206861766520616C726561647920617070726F76656420746869732052 PUSH1 0x0 DUP3 ADD MSTORE PUSH32 0x6571756573740000000000000000000000000000000000000000000000000000 PUSH1 0x20 DUP3 ADD MSTORE POP JUMP JUMPDEST PUSH1 0x0 PUSH2 0x146E PUSH1 0x26 DUP4 PUSH2 0xCB4 JUMP JUMPDEST SWAP2 POP PUSH2 0x1479 DUP3 PUSH2 0x1412 JUMP JUMPDEST PUSH1 0x40 DUP3 ADD SWAP1 POP SWAP2 SWAP1 POP JUMP JUMPDEST PUSH1 0x0 PUSH1 0x20 DUP3 ADD SWAP1 POP DUP2 DUP2 SUB PUSH1 0x0 DUP4 ADD MSTORE PUSH2 0x149D DUP2 PUSH2 0x1461 JUMP JUMPDEST SWAP1 POP SWAP2 SWAP1 POP JUMP INVALID LOG2 PUSH5 0x6970667358 0x22 SLT KECCAK256 PUSH25 0xFFF4062E551A1ADBB79E5E2FECD0605CCE5EB1AF39B4AAD9E2 0x5D 0xDC 0xDF SELFDESTRUCT POP 0xC7 PUSH5 0x736F6C6343 STOP ADDMOD SIGNEXTEND STOP CALLER "},"gasEstimates":{"creation":{"codeDepositCost":"1067600","executionCost":"infinite","totalCost":"infinite"},"external":{"approveRequest(uint256)":"infinite","confirmApproval(uint256)":"infinite","contribute()":"53306","contributors(address)":"2846","contributorsCount()":"2496","createRequest(string,uint256,address)":"infinite","getCampaignSummary()":"infinite","manager()":"2559","minimumContribution()":"2473","numberofRequests()":"2452","requests(uint256)":"infinite"}},"methodIdentifiers":{"approveRequest(uint256)":"d7d1bbdb","confirmApproval(uint256)":"8f9a6fee","contribute()":"d7bb99ba","contributors(address)":"1f6d4942","contributorsCount()":"7569b3d7","createRequest(string,uint256,address)":"8a9cfd55","getCampaignSummary()":"a00c96d7","manager()":"481c6a75","minimumContribution()":"937e09b1","numberofRequests()":"278d2ee0","requests(uint256)":"81d12c58"}},"storageLayout":{"storage":[{"astId":56,"contract":"Campaign.sol:Campaign","label":"contributorsCount","offset":0,"slot":"0","type":"t_uint256"},{"astId":58,"contract":"Campaign.sol:Campaign","label":"numberofRequests","offset":0,"slot":"1","type":"t_uint256"},{"astId":63,"contract":"Campaign.sol:Campaign","label":"requests","offset":0,"slot":"2","type":"t_mapping(t_uint256,t_struct(Request)54_storage)"},{"astId":65,"contract":"Campaign.sol:Campaign","label":"manager","offset":0,"slot":"3","type":"t_address"},{"astId":67,"contract":"Campaign.sol:Campaign","label":"minimumContribution","offset":0,"slot":"4","type":"t_uint256"},{"astId":71,"contract":"Campaign.sol:Campaign","label":"contributors","offset":0,"slot":"5","type":"t_mapping(t_address,t_bool)"}],"types":{"t_address":{"encoding":"inplace","label":"address","numberOfBytes":"20"},"t_bool":{"encoding":"inplace","label":"bool","numberOfBytes":"1"},"t_mapping(t_address,t_bool)":{"encoding":"mapping","key":"t_address","label":"mapping(address => bool)","numberOfBytes":"32","value":"t_bool"},"t_mapping(t_uint256,t_struct(Request)54_storage)":{"encoding":"mapping","key":"t_uint256","label":"mapping(uint256 => struct Campaign.Request)","numberOfBytes":"32","value":"t_struct(Request)54_storage"},"t_string_storage":{"encoding":"bytes","label":"string","numberOfBytes":"32"},"t_struct(Request)54_storage":{"encoding":"inplace","label":"struct Campaign.Request","members":[{"astId":41,"contract":"Campaign.sol:Campaign","label":"description","offset":0,"slot":"0","type":"t_string_storage"},{"astId":43,"contract":"Campaign.sol:Campaign","label":"value","offset":0,"slot":"1","type":"t_uint256"},{"astId":45,"contract":"Campaign.sol:Campaign","label":"receiver","offset":0,"slot":"2","type":"t_address"},{"astId":47,"contract":"Campaign.sol:Campaign","label":"complete","offset":20,"slot":"2","type":"t_bool"},{"astId":49,"contract":"Campaign.sol:Campaign","label":"approvalCount","offset":0,"slot":"3","type":"t_uint256"},{"astId":53,"contract":"Campaign.sol:Campaign","label":"approvals","offset":0,"slot":"4","type":"t_mapping(t_address,t_bool)"}],"numberOfBytes":"160"},"t_uint256":{"encoding":"inplace","label":"uint256","numberOfBytes":"32"}}},"userdoc":{"kind":"user","methods":{},"version":1}}