{"abi":[{"inputs":[],"name":"campaignName","outputs":[{"internalType":"string","name":"","type":"string"}],"stateMutability":"view","type":"function"},{"inputs":[{"internalType":"uint256","name":"minimum","type":"uint256"},{"internalType":"string","name":"name","type":"string"}],"name":"createCampaign","outputs":[],"stateMutability":"nonpayable","type":"function"},{"inputs":[{"internalType":"uint256","name":"","type":"uint256"}],"name":"deployedCampaignAddresses","outputs":[{"internalType":"address","name":"","type":"address"}],"stateMutability":"view","type":"function"},{"inputs":[{"internalType":"address","name":"","type":"address"}],"name":"deployedCampaigns","outputs":[{"internalType":"string","name":"","type":"string"}],"stateMutability":"view","type":"function"},{"inputs":[],"name":"getDeployedCampaigns","outputs":[{"internalType":"address[]","name":"","type":"address[]"}],"stateMutability":"view","type":"function"}],"devdoc":{"kind":"dev","methods":{},"version":1},"evm":{"assembly":"    /* \"Campaign.sol\":68:665  contract CampaignFactory {... */\n  mstore(0x40, 0x80)\n  callvalue\n  dup1\n  iszero\n  tag_1\n  jumpi\n  0x00\n  dup1\n  revert\ntag_1:\n  pop\n  dataSize(sub_0)\n  dup1\n  dataOffset(sub_0)\n  0x00\n  codecopy\n  0x00\n  return\nstop\n\nsub_0: assembly {\n        /* \"Campaign.sol\":68:665  contract CampaignFactory {... */\n      mstore(0x40, 0x80)\n      callvalue\n      dup1\n      iszero\n      tag_1\n      jumpi\n      0x00\n      dup1\n      revert\n    tag_1:\n      pop\n      jumpi(tag_2, lt(calldatasize, 0x04))\n      shr(0xe0, calldataload(0x00))\n      dup1\n      0x0724fda9\n      eq\n      tag_3\n      jumpi\n      dup1\n      0x34d4ab2b\n      eq\n      tag_4\n      jumpi\n      dup1\n      0x4220d656\n      eq\n      tag_5\n      jumpi\n      dup1\n      0x4acb9d4f\n      eq\n      tag_6\n      jumpi\n      dup1\n      0x5ce01441\n      eq\n      tag_7\n      jumpi\n    tag_2:\n      0x00\n      dup1\n      revert\n        /* \"Campaign.sol\":100:126  string public campaignName */\n    tag_3:\n      tag_8\n      tag_9\n      jump\t// in\n    tag_8:\n      mload(0x40)\n      tag_10\n      swap2\n      swap1\n      tag_11\n      jump\t// in\n    tag_10:\n      mload(0x40)\n      dup1\n      swap2\n      sub\n      swap1\n      return\n        /* \"Campaign.sol\":182:233  mapping(address => string) public deployedCampaigns */\n    tag_4:\n      tag_12\n      0x04\n      dup1\n      calldatasize\n      sub\n      dup2\n      add\n      swap1\n      tag_13\n      swap2\n      swap1\n      tag_14\n      jump\t// in\n    tag_13:\n      tag_15\n      jump\t// in\n    tag_12:\n      mload(0x40)\n      tag_16\n      swap2\n      swap1\n      tag_11\n      jump\t// in\n    tag_16:\n      mload(0x40)\n      dup1\n      swap2\n      sub\n      swap1\n      return\n        /* \"Campaign.sol\":242:528  function createCampaign(uint minimum, string memory name) public {... */\n    tag_5:\n      tag_17\n      0x04\n      dup1\n      calldatasize\n      sub\n      dup2\n      add\n      swap1\n      tag_18\n      swap2\n      swap1\n      tag_19\n      jump\t// in\n    tag_18:\n      tag_20\n      jump\t// in\n    tag_17:\n      stop\n        /* \"Campaign.sol\":537:660  function getDeployedCampaigns () public view returns (address[] memory) {... */\n    tag_6:\n      tag_21\n      tag_22\n      jump\t// in\n    tag_21:\n      mload(0x40)\n      tag_23\n      swap2\n      swap1\n      tag_24\n      jump\t// in\n    tag_23:\n      mload(0x40)\n      dup1\n      swap2\n      sub\n      swap1\n      return\n        /* \"Campaign.sol\":133:175  address[] public deployedCampaignAddresses */\n    tag_7:\n      tag_25\n      0x04\n      dup1\n      calldatasize\n      sub\n      dup2\n      add\n      swap1\n      tag_26\n      swap2\n      swap1\n      tag_27\n      jump\t// in\n    tag_26:\n      tag_28\n      jump\t// in\n    tag_25:\n      mload(0x40)\n      tag_29\n      swap2\n      swap1\n      tag_30\n      jump\t// in\n    tag_29:\n      mload(0x40)\n      dup1\n      swap2\n      sub\n      swap1\n      return\n        /* \"Campaign.sol\":100:126  string public campaignName */\n    tag_9:\n      0x00\n      dup1\n      sload\n      tag_31\n      swap1\n      tag_32\n      jump\t// in\n    tag_31:\n      dup1\n      0x1f\n      add\n      0x20\n      dup1\n      swap2\n      div\n      mul\n      0x20\n      add\n      mload(0x40)\n      swap1\n      dup2\n      add\n      0x40\n      mstore\n      dup1\n      swap3\n      swap2\n      swap1\n      dup2\n      dup2\n      mstore\n      0x20\n      add\n      dup3\n      dup1\n      sload\n      tag_33\n      swap1\n      tag_32\n      jump\t// in\n    tag_33:\n      dup1\n      iszero\n      tag_34\n      jumpi\n      dup1\n      0x1f\n      lt\n      tag_35\n      jumpi\n      0x0100\n      dup1\n      dup4\n      sload\n      div\n      mul\n      dup4\n      mstore\n      swap2\n      0x20\n      add\n      swap2\n      jump(tag_34)\n    tag_35:\n      dup3\n      add\n      swap2\n      swap1\n      0x00\n      mstore\n      keccak256(0x00, 0x20)\n      swap1\n    tag_36:\n      dup2\n      sload\n      dup2\n      mstore\n      swap1\n      0x01\n      add\n      swap1\n      0x20\n      add\n      dup1\n      dup4\n      gt\n      tag_36\n      jumpi\n      dup3\n      swap1\n      sub\n      0x1f\n      and\n      dup3\n      add\n      swap2\n    tag_34:\n      pop\n      pop\n      pop\n      pop\n      pop\n      dup2\n      jump\t// out\n        /* \"Campaign.sol\":182:233  mapping(address => string) public deployedCampaigns */\n    tag_15:\n      mstore(0x20, 0x02)\n      dup1\n      0x00\n      mstore\n      keccak256(0x00, 0x40)\n      0x00\n      swap2\n      pop\n      swap1\n      pop\n      dup1\n      sload\n      tag_37\n      swap1\n      tag_32\n      jump\t// in\n    tag_37:\n      dup1\n      0x1f\n      add\n      0x20\n      dup1\n      swap2\n      div\n      mul\n      0x20\n      add\n      mload(0x40)\n      swap1\n      dup2\n      add\n      0x40\n      mstore\n      dup1\n      swap3\n      swap2\n      swap1\n      dup2\n      dup2\n      mstore\n      0x20\n      add\n      dup3\n      dup1\n      sload\n      tag_38\n      swap1\n      tag_32\n      jump\t// in\n    tag_38:\n      dup1\n      iszero\n      tag_39\n      jumpi\n      dup1\n      0x1f\n      lt\n      tag_40\n      jumpi\n      0x0100\n      dup1\n      dup4\n      sload\n      div\n      mul\n      dup4\n      mstore\n      swap2\n      0x20\n      add\n      swap2\n      jump(tag_39)\n    tag_40:\n      dup3\n      add\n      swap2\n      swap1\n      0x00\n      mstore\n      keccak256(0x00, 0x20)\n      swap1\n    tag_41:\n      dup2\n      sload\n      dup2\n      mstore\n      swap1\n      0x01\n      add\n      swap1\n      0x20\n      add\n      dup1\n      dup4\n      gt\n      tag_41\n      jumpi\n      dup3\n      swap1\n      sub\n      0x1f\n      and\n      dup3\n      add\n      swap2\n    tag_39:\n      pop\n      pop\n      pop\n      pop\n      pop\n      dup2\n      jump\t// out\n        /* \"Campaign.sol\":242:528  function createCampaign(uint minimum, string memory name) public {... */\n    tag_20:\n        /* \"Campaign.sol\":333:337  name */\n      dup1\n        /* \"Campaign.sol\":318:330  campaignName */\n      0x00\n        /* \"Campaign.sol\":318:337  campaignName = name */\n      swap1\n      dup1\n      mload\n      swap1\n      0x20\n      add\n      swap1\n      tag_43\n      swap3\n      swap2\n      swap1\n      tag_44\n      jump\t// in\n    tag_43:\n      pop\n        /* \"Campaign.sol\":348:367  address newCampaign */\n      0x00\n        /* \"Campaign.sol\":391:398  minimum */\n      dup3\n        /* \"Campaign.sol\":400:410  msg.sender */\n      caller\n        /* \"Campaign.sol\":412:416  name */\n      dup4\n        /* \"Campaign.sol\":378:417  new Campaign(minimum, msg.sender, name) */\n      mload(0x40)\n      tag_45\n      swap1\n      tag_46\n      jump\t// in\n    tag_45:\n      tag_47\n      swap4\n      swap3\n      swap2\n      swap1\n      tag_48\n      jump\t// in\n    tag_47:\n      mload(0x40)\n      dup1\n      swap2\n      sub\n      swap1\n      0x00\n      create\n      dup1\n      iszero\n      dup1\n      iszero\n      tag_49\n      jumpi\n      returndatasize\n      0x00\n      dup1\n      returndatacopy\n      revert(0x00, returndatasize)\n    tag_49:\n      pop\n        /* \"Campaign.sol\":348:418  address newCampaign = address(new Campaign(minimum, msg.sender, name)) */\n      swap1\n      pop\n        /* \"Campaign.sol\":429:454  deployedCampaignAddresses */\n      0x01\n        /* \"Campaign.sol\":460:471  newCampaign */\n      dup2\n        /* \"Campaign.sol\":429:472  deployedCampaignAddresses.push(newCampaign) */\n      swap1\n      dup1\n      0x01\n      dup2\n      sload\n      add\n      dup1\n      dup3\n      sstore\n      dup1\n      swap2\n      pop\n      pop\n      0x01\n      swap1\n      sub\n      swap1\n      0x00\n      mstore\n      keccak256(0x00, 0x20)\n      add\n      0x00\n      swap1\n      swap2\n      swap1\n      swap2\n      swap1\n      swap2\n      0x0100\n      exp\n      dup2\n      sload\n      dup2\n      0xffffffffffffffffffffffffffffffffffffffff\n      mul\n      not\n      and\n      swap1\n      dup4\n      0xffffffffffffffffffffffffffffffffffffffff\n      and\n      mul\n      or\n      swap1\n      sstore\n      pop\n        /* \"Campaign.sol\":516:520  name */\n      dup2\n        /* \"Campaign.sol\":483:500  deployedCampaigns */\n      0x02\n        /* \"Campaign.sol\":483:513  deployedCampaigns[newCampaign] */\n      0x00\n        /* \"Campaign.sol\":501:512  newCampaign */\n      dup4\n        /* \"Campaign.sol\":483:513  deployedCampaigns[newCampaign] */\n      0xffffffffffffffffffffffffffffffffffffffff\n      and\n      0xffffffffffffffffffffffffffffffffffffffff\n      and\n      dup2\n      mstore\n      0x20\n      add\n      swap1\n      dup2\n      mstore\n      0x20\n      add\n      0x00\n      keccak256\n        /* \"Campaign.sol\":483:520  deployedCampaigns[newCampaign] = name */\n      swap1\n      dup1\n      mload\n      swap1\n      0x20\n      add\n      swap1\n      tag_51\n      swap3\n      swap2\n      swap1\n      tag_44\n      jump\t// in\n    tag_51:\n      pop\n        /* \"Campaign.sol\":307:528  {... */\n      pop\n        /* \"Campaign.sol\":242:528  function createCampaign(uint minimum, string memory name) public {... */\n      pop\n      pop\n      jump\t// out\n        /* \"Campaign.sol\":537:660  function getDeployedCampaigns () public view returns (address[] memory) {... */\n    tag_22:\n        /* \"Campaign.sol\":591:607  address[] memory */\n      0x60\n        /* \"Campaign.sol\":627:652  deployedCampaignAddresses */\n      0x01\n        /* \"Campaign.sol\":620:652  return deployedCampaignAddresses */\n      dup1\n      sload\n      dup1\n      0x20\n      mul\n      0x20\n      add\n      mload(0x40)\n      swap1\n      dup2\n      add\n      0x40\n      mstore\n      dup1\n      swap3\n      swap2\n      swap1\n      dup2\n      dup2\n      mstore\n      0x20\n      add\n      dup3\n      dup1\n      sload\n      dup1\n      iszero\n      tag_53\n      jumpi\n      0x20\n      mul\n      dup3\n      add\n      swap2\n      swap1\n      0x00\n      mstore\n      keccak256(0x00, 0x20)\n      swap1\n    tag_54:\n      dup2\n      0x00\n      swap1\n      sload\n      swap1\n      0x0100\n      exp\n      swap1\n      div\n      0xffffffffffffffffffffffffffffffffffffffff\n      and\n      0xffffffffffffffffffffffffffffffffffffffff\n      and\n      dup2\n      mstore\n      0x20\n      add\n      swap1\n      0x01\n      add\n      swap1\n      dup1\n      dup4\n      gt\n      tag_54\n      jumpi\n    tag_53:\n      pop\n      pop\n      pop\n      pop\n      pop\n      swap1\n      pop\n        /* \"Campaign.sol\":537:660  function getDeployedCampaigns () public view returns (address[] memory) {... */\n      swap1\n      jump\t// out\n        /* \"Campaign.sol\":133:175  address[] public deployedCampaignAddresses */\n    tag_28:\n      0x01\n      dup2\n      dup2\n      sload\n      dup2\n      lt\n      tag_55\n      jumpi\n      0x00\n      dup1\n      revert\n    tag_55:\n      swap1\n      0x00\n      mstore\n      keccak256(0x00, 0x20)\n      add\n      0x00\n      swap2\n      pop\n      sload\n      swap1\n      0x0100\n      exp\n      swap1\n      div\n      0xffffffffffffffffffffffffffffffffffffffff\n      and\n      dup2\n      jump\t// out\n    tag_44:\n      dup3\n      dup1\n      sload\n      tag_57\n      swap1\n      tag_32\n      jump\t// in\n    tag_57:\n      swap1\n      0x00\n      mstore\n      keccak256(0x00, 0x20)\n      swap1\n      0x1f\n      add\n      0x20\n      swap1\n      div\n      dup2\n      add\n      swap3\n      dup3\n      tag_59\n      jumpi\n      0x00\n      dup6\n      sstore\n      jump(tag_58)\n    tag_59:\n      dup3\n      0x1f\n      lt\n      tag_60\n      jumpi\n      dup1\n      mload\n      not(0xff)\n      and\n      dup4\n      dup1\n      add\n      or\n      dup6\n      sstore\n      jump(tag_58)\n    tag_60:\n      dup3\n      dup1\n      add\n      0x01\n      add\n      dup6\n      sstore\n      dup3\n      iszero\n      tag_58\n      jumpi\n      swap2\n      dup3\n      add\n    tag_61:\n      dup3\n      dup2\n      gt\n      iszero\n      tag_62\n      jumpi\n      dup3\n      mload\n      dup3\n      sstore\n      swap2\n      0x20\n      add\n      swap2\n      swap1\n      0x01\n      add\n      swap1\n      jump(tag_61)\n    tag_62:\n    tag_58:\n      pop\n      swap1\n      pop\n      tag_63\n      swap2\n      swap1\n      tag_64\n      jump\t// in\n    tag_63:\n      pop\n      swap1\n      jump\t// out\n    tag_46:\n      dataSize(sub_0)\n      dup1\n      dataOffset(sub_0)\n      dup4\n      codecopy\n      add\n      swap1\n      jump\t// out\n    tag_64:\n    tag_65:\n      dup1\n      dup3\n      gt\n      iszero\n      tag_66\n      jumpi\n      0x00\n      dup2\n      0x00\n      swap1\n      sstore\n      pop\n      0x01\n      add\n      jump(tag_65)\n    tag_66:\n      pop\n      swap1\n      jump\t// out\n        /* \"#utility.yul\":7:106   */\n    tag_67:\n        /* \"#utility.yul\":59:65   */\n      0x00\n        /* \"#utility.yul\":93:98   */\n      dup2\n        /* \"#utility.yul\":87:99   */\n      mload\n        /* \"#utility.yul\":77:99   */\n      swap1\n      pop\n        /* \"#utility.yul\":7:106   */\n      swap2\n      swap1\n      pop\n      jump\t// out\n        /* \"#utility.yul\":112:281   */\n    tag_68:\n        /* \"#utility.yul\":196:207   */\n      0x00\n        /* \"#utility.yul\":230:236   */\n      dup3\n        /* \"#utility.yul\":225:228   */\n      dup3\n        /* \"#utility.yul\":218:237   */\n      mstore\n        /* \"#utility.yul\":270:274   */\n      0x20\n        /* \"#utility.yul\":265:268   */\n      dup3\n        /* \"#utility.yul\":261:275   */\n      add\n        /* \"#utility.yul\":246:275   */\n      swap1\n      pop\n        /* \"#utility.yul\":112:281   */\n      swap3\n      swap2\n      pop\n      pop\n      jump\t// out\n        /* \"#utility.yul\":287:594   */\n    tag_69:\n        /* \"#utility.yul\":355:356   */\n      0x00\n        /* \"#utility.yul\":365:478   */\n    tag_105:\n        /* \"#utility.yul\":379:385   */\n      dup4\n        /* \"#utility.yul\":376:377   */\n      dup2\n        /* \"#utility.yul\":373:386   */\n      lt\n        /* \"#utility.yul\":365:478   */\n      iszero\n      tag_107\n      jumpi\n        /* \"#utility.yul\":464:465   */\n      dup1\n        /* \"#utility.yul\":459:462   */\n      dup3\n        /* \"#utility.yul\":455:466   */\n      add\n        /* \"#utility.yul\":449:467   */\n      mload\n        /* \"#utility.yul\":445:446   */\n      dup2\n        /* \"#utility.yul\":440:443   */\n      dup5\n        /* \"#utility.yul\":436:447   */\n      add\n        /* \"#utility.yul\":429:468   */\n      mstore\n        /* \"#utility.yul\":401:403   */\n      0x20\n        /* \"#utility.yul\":398:399   */\n      dup2\n        /* \"#utility.yul\":394:404   */\n      add\n        /* \"#utility.yul\":389:404   */\n      swap1\n      pop\n        /* \"#utility.yul\":365:478   */\n      jump(tag_105)\n    tag_107:\n        /* \"#utility.yul\":496:502   */\n      dup4\n        /* \"#utility.yul\":493:494   */\n      dup2\n        /* \"#utility.yul\":490:503   */\n      gt\n        /* \"#utility.yul\":487:588   */\n      iszero\n      tag_108\n      jumpi\n        /* \"#utility.yul\":576:577   */\n      0x00\n        /* \"#utility.yul\":567:573   */\n      dup5\n        /* \"#utility.yul\":562:565   */\n      dup5\n        /* \"#utility.yul\":558:574   */\n      add\n        /* \"#utility.yul\":551:578   */\n      mstore\n        /* \"#utility.yul\":487:588   */\n    tag_108:\n        /* \"#utility.yul\":336:594   */\n      pop\n        /* \"#utility.yul\":287:594   */\n      pop\n      pop\n      pop\n      jump\t// out\n        /* \"#utility.yul\":600:702   */\n    tag_70:\n        /* \"#utility.yul\":641:647   */\n      0x00\n        /* \"#utility.yul\":692:694   */\n      0x1f\n        /* \"#utility.yul\":688:695   */\n      not\n        /* \"#utility.yul\":683:685   */\n      0x1f\n        /* \"#utility.yul\":676:681   */\n      dup4\n        /* \"#utility.yul\":672:686   */\n      add\n        /* \"#utility.yul\":668:696   */\n      and\n        /* \"#utility.yul\":658:696   */\n      swap1\n      pop\n        /* \"#utility.yul\":600:702   */\n      swap2\n      swap1\n      pop\n      jump\t// out\n        /* \"#utility.yul\":708:1072   */\n    tag_71:\n        /* \"#utility.yul\":796:799   */\n      0x00\n        /* \"#utility.yul\":824:863   */\n      tag_111\n        /* \"#utility.yul\":857:862   */\n      dup3\n        /* \"#utility.yul\":824:863   */\n      tag_67\n      jump\t// in\n    tag_111:\n        /* \"#utility.yul\":879:950   */\n      tag_112\n        /* \"#utility.yul\":943:949   */\n      dup2\n        /* \"#utility.yul\":938:941   */\n      dup6\n        /* \"#utility.yul\":879:950   */\n      tag_68\n      jump\t// in\n    tag_112:\n        /* \"#utility.yul\":872:950   */\n      swap4\n      pop\n        /* \"#utility.yul\":959:1011   */\n      tag_113\n        /* \"#utility.yul\":1004:1010   */\n      dup2\n        /* \"#utility.yul\":999:1002   */\n      dup6\n        /* \"#utility.yul\":992:996   */\n      0x20\n        /* \"#utility.yul\":985:990   */\n      dup7\n        /* \"#utility.yul\":981:997   */\n      add\n        /* \"#utility.yul\":959:1011   */\n      tag_69\n      jump\t// in\n    tag_113:\n        /* \"#utility.yul\":1036:1065   */\n      tag_114\n        /* \"#utility.yul\":1058:1064   */\n      dup2\n        /* \"#utility.yul\":1036:1065   */\n      tag_70\n      jump\t// in\n    tag_114:\n        /* \"#utility.yul\":1031:1034   */\n      dup5\n        /* \"#utility.yul\":1027:1066   */\n      add\n        /* \"#utility.yul\":1020:1066   */\n      swap2\n      pop\n        /* \"#utility.yul\":800:1072   */\n      pop\n        /* \"#utility.yul\":708:1072   */\n      swap3\n      swap2\n      pop\n      pop\n      jump\t// out\n        /* \"#utility.yul\":1078:1391   */\n    tag_11:\n        /* \"#utility.yul\":1191:1195   */\n      0x00\n        /* \"#utility.yul\":1229:1231   */\n      0x20\n        /* \"#utility.yul\":1218:1227   */\n      dup3\n        /* \"#utility.yul\":1214:1232   */\n      add\n        /* \"#utility.yul\":1206:1232   */\n      swap1\n      pop\n        /* \"#utility.yul\":1278:1287   */\n      dup2\n        /* \"#utility.yul\":1272:1276   */\n      dup2\n        /* \"#utility.yul\":1268:1288   */\n      sub\n        /* \"#utility.yul\":1264:1265   */\n      0x00\n        /* \"#utility.yul\":1253:1262   */\n      dup4\n        /* \"#utility.yul\":1249:1266   */\n      add\n        /* \"#utility.yul\":1242:1289   */\n      mstore\n        /* \"#utility.yul\":1306:1384   */\n      tag_116\n        /* \"#utility.yul\":1379:1383   */\n      dup2\n        /* \"#utility.yul\":1370:1376   */\n      dup5\n        /* \"#utility.yul\":1306:1384   */\n      tag_71\n      jump\t// in\n    tag_116:\n        /* \"#utility.yul\":1298:1384   */\n      swap1\n      pop\n        /* \"#utility.yul\":1078:1391   */\n      swap3\n      swap2\n      pop\n      pop\n      jump\t// out\n        /* \"#utility.yul\":1397:1472   */\n    tag_72:\n        /* \"#utility.yul\":1430:1436   */\n      0x00\n        /* \"#utility.yul\":1463:1465   */\n      0x40\n        /* \"#utility.yul\":1457:1466   */\n      mload\n        /* \"#utility.yul\":1447:1466   */\n      swap1\n      pop\n        /* \"#utility.yul\":1397:1472   */\n      swap1\n      jump\t// out\n        /* \"#utility.yul\":1478:1595   */\n    tag_73:\n        /* \"#utility.yul\":1587:1588   */\n      0x00\n        /* \"#utility.yul\":1584:1585   */\n      dup1\n        /* \"#utility.yul\":1577:1589   */\n      revert\n        /* \"#utility.yul\":1601:1718   */\n    tag_74:\n        /* \"#utility.yul\":1710:1711   */\n      0x00\n        /* \"#utility.yul\":1707:1708   */\n      dup1\n        /* \"#utility.yul\":1700:1712   */\n      revert\n        /* \"#utility.yul\":1724:1850   */\n    tag_75:\n        /* \"#utility.yul\":1761:1768   */\n      0x00\n        /* \"#utility.yul\":1801:1843   */\n      0xffffffffffffffffffffffffffffffffffffffff\n        /* \"#utility.yul\":1794:1799   */\n      dup3\n        /* \"#utility.yul\":1790:1844   */\n      and\n        /* \"#utility.yul\":1779:1844   */\n      swap1\n      pop\n        /* \"#utility.yul\":1724:1850   */\n      swap2\n      swap1\n      pop\n      jump\t// out\n        /* \"#utility.yul\":1856:1952   */\n    tag_76:\n        /* \"#utility.yul\":1893:1900   */\n      0x00\n        /* \"#utility.yul\":1922:1946   */\n      tag_122\n        /* \"#utility.yul\":1940:1945   */\n      dup3\n        /* \"#utility.yul\":1922:1946   */\n      tag_75\n      jump\t// in\n    tag_122:\n        /* \"#utility.yul\":1911:1946   */\n      swap1\n      pop\n        /* \"#utility.yul\":1856:1952   */\n      swap2\n      swap1\n      pop\n      jump\t// out\n        /* \"#utility.yul\":1958:2080   */\n    tag_77:\n        /* \"#utility.yul\":2031:2055   */\n      tag_124\n        /* \"#utility.yul\":2049:2054   */\n      dup2\n        /* \"#utility.yul\":2031:2055   */\n      tag_76\n      jump\t// in\n    tag_124:\n        /* \"#utility.yul\":2024:2029   */\n      dup2\n        /* \"#utility.yul\":2021:2056   */\n      eq\n        /* \"#utility.yul\":2011:2074   */\n      tag_125\n      jumpi\n        /* \"#utility.yul\":2070:2071   */\n      0x00\n        /* \"#utility.yul\":2067:2068   */\n      dup1\n        /* \"#utility.yul\":2060:2072   */\n      revert\n        /* \"#utility.yul\":2011:2074   */\n    tag_125:\n        /* \"#utility.yul\":1958:2080   */\n      pop\n      jump\t// out\n        /* \"#utility.yul\":2086:2225   */\n    tag_78:\n        /* \"#utility.yul\":2132:2137   */\n      0x00\n        /* \"#utility.yul\":2170:2176   */\n      dup2\n        /* \"#utility.yul\":2157:2177   */\n      calldataload\n        /* \"#utility.yul\":2148:2177   */\n      swap1\n      pop\n        /* \"#utility.yul\":2186:2219   */\n      tag_127\n        /* \"#utility.yul\":2213:2218   */\n      dup2\n        /* \"#utility.yul\":2186:2219   */\n      tag_77\n      jump\t// in\n    tag_127:\n        /* \"#utility.yul\":2086:2225   */\n      swap3\n      swap2\n      pop\n      pop\n      jump\t// out\n        /* \"#utility.yul\":2231:2560   */\n    tag_14:\n        /* \"#utility.yul\":2290:2296   */\n      0x00\n        /* \"#utility.yul\":2339:2341   */\n      0x20\n        /* \"#utility.yul\":2327:2336   */\n      dup3\n        /* \"#utility.yul\":2318:2325   */\n      dup5\n        /* \"#utility.yul\":2314:2337   */\n      sub\n        /* \"#utility.yul\":2310:2342   */\n      slt\n        /* \"#utility.yul\":2307:2426   */\n      iszero\n      tag_129\n      jumpi\n        /* \"#utility.yul\":2345:2424   */\n      tag_130\n      tag_73\n      jump\t// in\n    tag_130:\n        /* \"#utility.yul\":2307:2426   */\n    tag_129:\n        /* \"#utility.yul\":2465:2466   */\n      0x00\n        /* \"#utility.yul\":2490:2543   */\n      tag_131\n        /* \"#utility.yul\":2535:2542   */\n      dup5\n        /* \"#utility.yul\":2526:2532   */\n      dup3\n        /* \"#utility.yul\":2515:2524   */\n      dup6\n        /* \"#utility.yul\":2511:2533   */\n      add\n        /* \"#utility.yul\":2490:2543   */\n      tag_78\n      jump\t// in\n    tag_131:\n        /* \"#utility.yul\":2480:2543   */\n      swap2\n      pop\n        /* \"#utility.yul\":2436:2553   */\n      pop\n        /* \"#utility.yul\":2231:2560   */\n      swap3\n      swap2\n      pop\n      pop\n      jump\t// out\n        /* \"#utility.yul\":2566:2643   */\n    tag_79:\n        /* \"#utility.yul\":2603:2610   */\n      0x00\n        /* \"#utility.yul\":2632:2637   */\n      dup2\n        /* \"#utility.yul\":2621:2637   */\n      swap1\n      pop\n        /* \"#utility.yul\":2566:2643   */\n      swap2\n      swap1\n      pop\n      jump\t// out\n        /* \"#utility.yul\":2649:2771   */\n    tag_80:\n        /* \"#utility.yul\":2722:2746   */\n      tag_134\n        /* \"#utility.yul\":2740:2745   */\n      dup2\n        /* \"#utility.yul\":2722:2746   */\n      tag_79\n      jump\t// in\n    tag_134:\n        /* \"#utility.yul\":2715:2720   */\n      dup2\n        /* \"#utility.yul\":2712:2747   */\n      eq\n        /* \"#utility.yul\":2702:2765   */\n      tag_135\n      jumpi\n        /* \"#utility.yul\":2761:2762   */\n      0x00\n        /* \"#utility.yul\":2758:2759   */\n      dup1\n        /* \"#utility.yul\":2751:2763   */\n      revert\n        /* \"#utility.yul\":2702:2765   */\n    tag_135:\n        /* \"#utility.yul\":2649:2771   */\n      pop\n      jump\t// out\n        /* \"#utility.yul\":2777:2916   */\n    tag_81:\n        /* \"#utility.yul\":2823:2828   */\n      0x00\n        /* \"#utility.yul\":2861:2867   */\n      dup2\n        /* \"#utility.yul\":2848:2868   */\n      calldataload\n        /* \"#utility.yul\":2839:2868   */\n      swap1\n      pop\n        /* \"#utility.yul\":2877:2910   */\n      tag_137\n        /* \"#utility.yul\":2904:2909   */\n      dup2\n        /* \"#utility.yul\":2877:2910   */\n      tag_80\n      jump\t// in\n    tag_137:\n        /* \"#utility.yul\":2777:2916   */\n      swap3\n      swap2\n      pop\n      pop\n      jump\t// out\n        /* \"#utility.yul\":2922:3039   */\n    tag_82:\n        /* \"#utility.yul\":3031:3032   */\n      0x00\n        /* \"#utility.yul\":3028:3029   */\n      dup1\n        /* \"#utility.yul\":3021:3033   */\n      revert\n        /* \"#utility.yul\":3045:3162   */\n    tag_83:\n        /* \"#utility.yul\":3154:3155   */\n      0x00\n        /* \"#utility.yul\":3151:3152   */\n      dup1\n        /* \"#utility.yul\":3144:3156   */\n      revert\n        /* \"#utility.yul\":3168:3348   */\n    tag_84:\n        /* \"#utility.yul\":3216:3293   */\n      0x4e487b7100000000000000000000000000000000000000000000000000000000\n        /* \"#utility.yul\":3213:3214   */\n      0x00\n        /* \"#utility.yul\":3206:3294   */\n      mstore\n        /* \"#utility.yul\":3313:3317   */\n      0x41\n        /* \"#utility.yul\":3310:3311   */\n      0x04\n        /* \"#utility.yul\":3303:3318   */\n      mstore\n        /* \"#utility.yul\":3337:3341   */\n      0x24\n        /* \"#utility.yul\":3334:3335   */\n      0x00\n        /* \"#utility.yul\":3327:3342   */\n      revert\n        /* \"#utility.yul\":3354:3635   */\n    tag_85:\n        /* \"#utility.yul\":3437:3464   */\n      tag_142\n        /* \"#utility.yul\":3459:3463   */\n      dup3\n        /* \"#utility.yul\":3437:3464   */\n      tag_70\n      jump\t// in\n    tag_142:\n        /* \"#utility.yul\":3429:3435   */\n      dup2\n        /* \"#utility.yul\":3425:3465   */\n      add\n        /* \"#utility.yul\":3567:3573   */\n      dup2\n        /* \"#utility.yul\":3555:3565   */\n      dup2\n        /* \"#utility.yul\":3552:3574   */\n      lt\n        /* \"#utility.yul\":3531:3549   */\n      0xffffffffffffffff\n        /* \"#utility.yul\":3519:3529   */\n      dup3\n        /* \"#utility.yul\":3516:3550   */\n      gt\n        /* \"#utility.yul\":3513:3575   */\n      or\n        /* \"#utility.yul\":3510:3598   */\n      iszero\n      tag_143\n      jumpi\n        /* \"#utility.yul\":3578:3596   */\n      tag_144\n      tag_84\n      jump\t// in\n    tag_144:\n        /* \"#utility.yul\":3510:3598   */\n    tag_143:\n        /* \"#utility.yul\":3618:3628   */\n      dup1\n        /* \"#utility.yul\":3614:3616   */\n      0x40\n        /* \"#utility.yul\":3607:3629   */\n      mstore\n        /* \"#utility.yul\":3397:3635   */\n      pop\n        /* \"#utility.yul\":3354:3635   */\n      pop\n      pop\n      jump\t// out\n        /* \"#utility.yul\":3641:3770   */\n    tag_86:\n        /* \"#utility.yul\":3675:3681   */\n      0x00\n        /* \"#utility.yul\":3702:3722   */\n      tag_146\n      tag_72\n      jump\t// in\n    tag_146:\n        /* \"#utility.yul\":3692:3722   */\n      swap1\n      pop\n        /* \"#utility.yul\":3731:3764   */\n      tag_147\n        /* \"#utility.yul\":3759:3763   */\n      dup3\n        /* \"#utility.yul\":3751:3757   */\n      dup3\n        /* \"#utility.yul\":3731:3764   */\n      tag_85\n      jump\t// in\n    tag_147:\n        /* \"#utility.yul\":3641:3770   */\n      swap2\n      swap1\n      pop\n      jump\t// out\n        /* \"#utility.yul\":3776:4084   */\n    tag_87:\n        /* \"#utility.yul\":3838:3842   */\n      0x00\n        /* \"#utility.yul\":3928:3946   */\n      0xffffffffffffffff\n        /* \"#utility.yul\":3920:3926   */\n      dup3\n        /* \"#utility.yul\":3917:3947   */\n      gt\n        /* \"#utility.yul\":3914:3970   */\n      iszero\n      tag_149\n      jumpi\n        /* \"#utility.yul\":3950:3968   */\n      tag_150\n      tag_84\n      jump\t// in\n    tag_150:\n        /* \"#utility.yul\":3914:3970   */\n    tag_149:\n        /* \"#utility.yul\":3988:4017   */\n      tag_151\n        /* \"#utility.yul\":4010:4016   */\n      dup3\n        /* \"#utility.yul\":3988:4017   */\n      tag_70\n      jump\t// in\n    tag_151:\n        /* \"#utility.yul\":3980:4017   */\n      swap1\n      pop\n        /* \"#utility.yul\":4072:4076   */\n      0x20\n        /* \"#utility.yul\":4066:4070   */\n      dup2\n        /* \"#utility.yul\":4062:4077   */\n      add\n        /* \"#utility.yul\":4054:4077   */\n      swap1\n      pop\n        /* \"#utility.yul\":3776:4084   */\n      swap2\n      swap1\n      pop\n      jump\t// out\n        /* \"#utility.yul\":4090:4244   */\n    tag_88:\n        /* \"#utility.yul\":4174:4180   */\n      dup3\n        /* \"#utility.yul\":4169:4172   */\n      dup2\n        /* \"#utility.yul\":4164:4167   */\n      dup4\n        /* \"#utility.yul\":4151:4181   */\n      calldatacopy\n        /* \"#utility.yul\":4236:4237   */\n      0x00\n        /* \"#utility.yul\":4227:4233   */\n      dup4\n        /* \"#utility.yul\":4222:4225   */\n      dup4\n        /* \"#utility.yul\":4218:4234   */\n      add\n        /* \"#utility.yul\":4211:4238   */\n      mstore\n        /* \"#utility.yul\":4090:4244   */\n      pop\n      pop\n      pop\n      jump\t// out\n        /* \"#utility.yul\":4250:4662   */\n    tag_89:\n        /* \"#utility.yul\":4328:4333   */\n      0x00\n        /* \"#utility.yul\":4353:4419   */\n      tag_154\n        /* \"#utility.yul\":4369:4418   */\n      tag_155\n        /* \"#utility.yul\":4411:4417   */\n      dup5\n        /* \"#utility.yul\":4369:4418   */\n      tag_87\n      jump\t// in\n    tag_155:\n        /* \"#utility.yul\":4353:4419   */\n      tag_86\n      jump\t// in\n    tag_154:\n        /* \"#utility.yul\":4344:4419   */\n      swap1\n      pop\n        /* \"#utility.yul\":4442:4448   */\n      dup3\n        /* \"#utility.yul\":4435:4440   */\n      dup2\n        /* \"#utility.yul\":4428:4449   */\n      mstore\n        /* \"#utility.yul\":4480:4484   */\n      0x20\n        /* \"#utility.yul\":4473:4478   */\n      dup2\n        /* \"#utility.yul\":4469:4485   */\n      add\n        /* \"#utility.yul\":4518:4521   */\n      dup5\n        /* \"#utility.yul\":4509:4515   */\n      dup5\n        /* \"#utility.yul\":4504:4507   */\n      dup5\n        /* \"#utility.yul\":4500:4516   */\n      add\n        /* \"#utility.yul\":4497:4522   */\n      gt\n        /* \"#utility.yul\":4494:4606   */\n      iszero\n      tag_156\n      jumpi\n        /* \"#utility.yul\":4525:4604   */\n      tag_157\n      tag_83\n      jump\t// in\n    tag_157:\n        /* \"#utility.yul\":4494:4606   */\n    tag_156:\n        /* \"#utility.yul\":4615:4656   */\n      tag_158\n        /* \"#utility.yul\":4649:4655   */\n      dup5\n        /* \"#utility.yul\":4644:4647   */\n      dup3\n        /* \"#utility.yul\":4639:4642   */\n      dup6\n        /* \"#utility.yul\":4615:4656   */\n      tag_88\n      jump\t// in\n    tag_158:\n        /* \"#utility.yul\":4334:4662   */\n      pop\n        /* \"#utility.yul\":4250:4662   */\n      swap4\n      swap3\n      pop\n      pop\n      pop\n      jump\t// out\n        /* \"#utility.yul\":4682:5022   */\n    tag_90:\n        /* \"#utility.yul\":4738:4743   */\n      0x00\n        /* \"#utility.yul\":4787:4790   */\n      dup3\n        /* \"#utility.yul\":4780:4784   */\n      0x1f\n        /* \"#utility.yul\":4772:4778   */\n      dup4\n        /* \"#utility.yul\":4768:4785   */\n      add\n        /* \"#utility.yul\":4764:4791   */\n      slt\n        /* \"#utility.yul\":4754:4876   */\n      tag_160\n      jumpi\n        /* \"#utility.yul\":4795:4874   */\n      tag_161\n      tag_82\n      jump\t// in\n    tag_161:\n        /* \"#utility.yul\":4754:4876   */\n    tag_160:\n        /* \"#utility.yul\":4912:4918   */\n      dup2\n        /* \"#utility.yul\":4899:4919   */\n      calldataload\n        /* \"#utility.yul\":4937:5016   */\n      tag_162\n        /* \"#utility.yul\":5012:5015   */\n      dup5\n        /* \"#utility.yul\":5004:5010   */\n      dup3\n        /* \"#utility.yul\":4997:5001   */\n      0x20\n        /* \"#utility.yul\":4989:4995   */\n      dup7\n        /* \"#utility.yul\":4985:5002   */\n      add\n        /* \"#utility.yul\":4937:5016   */\n      tag_89\n      jump\t// in\n    tag_162:\n        /* \"#utility.yul\":4928:5016   */\n      swap2\n      pop\n        /* \"#utility.yul\":4744:5022   */\n      pop\n        /* \"#utility.yul\":4682:5022   */\n      swap3\n      swap2\n      pop\n      pop\n      jump\t// out\n        /* \"#utility.yul\":5028:5682   */\n    tag_19:\n        /* \"#utility.yul\":5106:5112   */\n      0x00\n        /* \"#utility.yul\":5114:5120   */\n      dup1\n        /* \"#utility.yul\":5163:5165   */\n      0x40\n        /* \"#utility.yul\":5151:5160   */\n      dup4\n        /* \"#utility.yul\":5142:5149   */\n      dup6\n        /* \"#utility.yul\":5138:5161   */\n      sub\n        /* \"#utility.yul\":5134:5166   */\n      slt\n        /* \"#utility.yul\":5131:5250   */\n      iszero\n      tag_164\n      jumpi\n        /* \"#utility.yul\":5169:5248   */\n      tag_165\n      tag_73\n      jump\t// in\n    tag_165:\n        /* \"#utility.yul\":5131:5250   */\n    tag_164:\n        /* \"#utility.yul\":5289:5290   */\n      0x00\n        /* \"#utility.yul\":5314:5367   */\n      tag_166\n        /* \"#utility.yul\":5359:5366   */\n      dup6\n        /* \"#utility.yul\":5350:5356   */\n      dup3\n        /* \"#utility.yul\":5339:5348   */\n      dup7\n        /* \"#utility.yul\":5335:5357   */\n      add\n        /* \"#utility.yul\":5314:5367   */\n      tag_81\n      jump\t// in\n    tag_166:\n        /* \"#utility.yul\":5304:5367   */\n      swap3\n      pop\n        /* \"#utility.yul\":5260:5377   */\n      pop\n        /* \"#utility.yul\":5444:5446   */\n      0x20\n        /* \"#utility.yul\":5433:5442   */\n      dup4\n        /* \"#utility.yul\":5429:5447   */\n      add\n        /* \"#utility.yul\":5416:5448   */\n      calldataload\n        /* \"#utility.yul\":5475:5493   */\n      0xffffffffffffffff\n        /* \"#utility.yul\":5467:5473   */\n      dup2\n        /* \"#utility.yul\":5464:5494   */\n      gt\n        /* \"#utility.yul\":5461:5578   */\n      iszero\n      tag_167\n      jumpi\n        /* \"#utility.yul\":5497:5576   */\n      tag_168\n      tag_74\n      jump\t// in\n    tag_168:\n        /* \"#utility.yul\":5461:5578   */\n    tag_167:\n        /* \"#utility.yul\":5602:5665   */\n      tag_169\n        /* \"#utility.yul\":5657:5664   */\n      dup6\n        /* \"#utility.yul\":5648:5654   */\n      dup3\n        /* \"#utility.yul\":5637:5646   */\n      dup7\n        /* \"#utility.yul\":5633:5655   */\n      add\n        /* \"#utility.yul\":5602:5665   */\n      tag_90\n      jump\t// in\n    tag_169:\n        /* \"#utility.yul\":5592:5665   */\n      swap2\n      pop\n        /* \"#utility.yul\":5387:5675   */\n      pop\n        /* \"#utility.yul\":5028:5682   */\n      swap3\n      pop\n      swap3\n      swap1\n      pop\n      jump\t// out\n        /* \"#utility.yul\":5688:5802   */\n    tag_91:\n        /* \"#utility.yul\":5755:5761   */\n      0x00\n        /* \"#utility.yul\":5789:5794   */\n      dup2\n        /* \"#utility.yul\":5783:5795   */\n      mload\n        /* \"#utility.yul\":5773:5795   */\n      swap1\n      pop\n        /* \"#utility.yul\":5688:5802   */\n      swap2\n      swap1\n      pop\n      jump\t// out\n        /* \"#utility.yul\":5808:5992   */\n    tag_92:\n        /* \"#utility.yul\":5907:5918   */\n      0x00\n        /* \"#utility.yul\":5941:5947   */\n      dup3\n        /* \"#utility.yul\":5936:5939   */\n      dup3\n        /* \"#utility.yul\":5929:5948   */\n      mstore\n        /* \"#utility.yul\":5981:5985   */\n      0x20\n        /* \"#utility.yul\":5976:5979   */\n      dup3\n        /* \"#utility.yul\":5972:5986   */\n      add\n        /* \"#utility.yul\":5957:5986   */\n      swap1\n      pop\n        /* \"#utility.yul\":5808:5992   */\n      swap3\n      swap2\n      pop\n      pop\n      jump\t// out\n        /* \"#utility.yul\":5998:6130   */\n    tag_93:\n        /* \"#utility.yul\":6065:6069   */\n      0x00\n        /* \"#utility.yul\":6088:6091   */\n      dup2\n        /* \"#utility.yul\":6080:6091   */\n      swap1\n      pop\n        /* \"#utility.yul\":6118:6122   */\n      0x20\n        /* \"#utility.yul\":6113:6116   */\n      dup3\n        /* \"#utility.yul\":6109:6123   */\n      add\n        /* \"#utility.yul\":6101:6123   */\n      swap1\n      pop\n        /* \"#utility.yul\":5998:6130   */\n      swap2\n      swap1\n      pop\n      jump\t// out\n        /* \"#utility.yul\":6136:6244   */\n    tag_94:\n        /* \"#utility.yul\":6213:6237   */\n      tag_174\n        /* \"#utility.yul\":6231:6236   */\n      dup2\n        /* \"#utility.yul\":6213:6237   */\n      tag_76\n      jump\t// in\n    tag_174:\n        /* \"#utility.yul\":6208:6211   */\n      dup3\n        /* \"#utility.yul\":6201:6238   */\n      mstore\n        /* \"#utility.yul\":6136:6244   */\n      pop\n      pop\n      jump\t// out\n        /* \"#utility.yul\":6250:6429   */\n    tag_95:\n        /* \"#utility.yul\":6319:6329   */\n      0x00\n        /* \"#utility.yul\":6340:6386   */\n      tag_176\n        /* \"#utility.yul\":6382:6385   */\n      dup4\n        /* \"#utility.yul\":6374:6380   */\n      dup4\n        /* \"#utility.yul\":6340:6386   */\n      tag_94\n      jump\t// in\n    tag_176:\n        /* \"#utility.yul\":6418:6422   */\n      0x20\n        /* \"#utility.yul\":6413:6416   */\n      dup4\n        /* \"#utility.yul\":6409:6423   */\n      add\n        /* \"#utility.yul\":6395:6423   */\n      swap1\n      pop\n        /* \"#utility.yul\":6250:6429   */\n      swap3\n      swap2\n      pop\n      pop\n      jump\t// out\n        /* \"#utility.yul\":6435:6548   */\n    tag_96:\n        /* \"#utility.yul\":6505:6509   */\n      0x00\n        /* \"#utility.yul\":6537:6541   */\n      0x20\n        /* \"#utility.yul\":6532:6535   */\n      dup3\n        /* \"#utility.yul\":6528:6542   */\n      add\n        /* \"#utility.yul\":6520:6542   */\n      swap1\n      pop\n        /* \"#utility.yul\":6435:6548   */\n      swap2\n      swap1\n      pop\n      jump\t// out\n        /* \"#utility.yul\":6584:7316   */\n    tag_97:\n        /* \"#utility.yul\":6703:6706   */\n      0x00\n        /* \"#utility.yul\":6732:6786   */\n      tag_179\n        /* \"#utility.yul\":6780:6785   */\n      dup3\n        /* \"#utility.yul\":6732:6786   */\n      tag_91\n      jump\t// in\n    tag_179:\n        /* \"#utility.yul\":6802:6888   */\n      tag_180\n        /* \"#utility.yul\":6881:6887   */\n      dup2\n        /* \"#utility.yul\":6876:6879   */\n      dup6\n        /* \"#utility.yul\":6802:6888   */\n      tag_92\n      jump\t// in\n    tag_180:\n        /* \"#utility.yul\":6795:6888   */\n      swap4\n      pop\n        /* \"#utility.yul\":6912:6968   */\n      tag_181\n        /* \"#utility.yul\":6962:6967   */\n      dup4\n        /* \"#utility.yul\":6912:6968   */\n      tag_93\n      jump\t// in\n    tag_181:\n        /* \"#utility.yul\":6991:6998   */\n      dup1\n        /* \"#utility.yul\":7022:7023   */\n      0x00\n        /* \"#utility.yul\":7007:7291   */\n    tag_182:\n        /* \"#utility.yul\":7032:7038   */\n      dup4\n        /* \"#utility.yul\":7029:7030   */\n      dup2\n        /* \"#utility.yul\":7026:7039   */\n      lt\n        /* \"#utility.yul\":7007:7291   */\n      iszero\n      tag_184\n      jumpi\n        /* \"#utility.yul\":7108:7114   */\n      dup2\n        /* \"#utility.yul\":7102:7115   */\n      mload\n        /* \"#utility.yul\":7135:7198   */\n      tag_185\n        /* \"#utility.yul\":7194:7197   */\n      dup9\n        /* \"#utility.yul\":7179:7192   */\n      dup3\n        /* \"#utility.yul\":7135:7198   */\n      tag_95\n      jump\t// in\n    tag_185:\n        /* \"#utility.yul\":7128:7198   */\n      swap8\n      pop\n        /* \"#utility.yul\":7221:7281   */\n      tag_186\n        /* \"#utility.yul\":7274:7280   */\n      dup4\n        /* \"#utility.yul\":7221:7281   */\n      tag_96\n      jump\t// in\n    tag_186:\n        /* \"#utility.yul\":7211:7281   */\n      swap3\n      pop\n        /* \"#utility.yul\":7067:7291   */\n      pop\n        /* \"#utility.yul\":7054:7055   */\n      0x01\n        /* \"#utility.yul\":7051:7052   */\n      dup2\n        /* \"#utility.yul\":7047:7056   */\n      add\n        /* \"#utility.yul\":7042:7056   */\n      swap1\n      pop\n        /* \"#utility.yul\":7007:7291   */\n      jump(tag_182)\n    tag_184:\n        /* \"#utility.yul\":7011:7025   */\n      pop\n        /* \"#utility.yul\":7307:7310   */\n      dup6\n        /* \"#utility.yul\":7300:7310   */\n      swap4\n      pop\n        /* \"#utility.yul\":6708:7316   */\n      pop\n      pop\n      pop\n        /* \"#utility.yul\":6584:7316   */\n      swap3\n      swap2\n      pop\n      pop\n      jump\t// out\n        /* \"#utility.yul\":7322:7695   */\n    tag_24:\n        /* \"#utility.yul\":7465:7469   */\n      0x00\n        /* \"#utility.yul\":7503:7505   */\n      0x20\n        /* \"#utility.yul\":7492:7501   */\n      dup3\n        /* \"#utility.yul\":7488:7506   */\n      add\n        /* \"#utility.yul\":7480:7506   */\n      swap1\n      pop\n        /* \"#utility.yul\":7552:7561   */\n      dup2\n        /* \"#utility.yul\":7546:7550   */\n      dup2\n        /* \"#utility.yul\":7542:7562   */\n      sub\n        /* \"#utility.yul\":7538:7539   */\n      0x00\n        /* \"#utility.yul\":7527:7536   */\n      dup4\n        /* \"#utility.yul\":7523:7540   */\n      add\n        /* \"#utility.yul\":7516:7563   */\n      mstore\n        /* \"#utility.yul\":7580:7688   */\n      tag_188\n        /* \"#utility.yul\":7683:7687   */\n      dup2\n        /* \"#utility.yul\":7674:7680   */\n      dup5\n        /* \"#utility.yul\":7580:7688   */\n      tag_97\n      jump\t// in\n    tag_188:\n        /* \"#utility.yul\":7572:7688   */\n      swap1\n      pop\n        /* \"#utility.yul\":7322:7695   */\n      swap3\n      swap2\n      pop\n      pop\n      jump\t// out\n        /* \"#utility.yul\":7701:8030   */\n    tag_27:\n        /* \"#utility.yul\":7760:7766   */\n      0x00\n        /* \"#utility.yul\":7809:7811   */\n      0x20\n        /* \"#utility.yul\":7797:7806   */\n      dup3\n        /* \"#utility.yul\":7788:7795   */\n      dup5\n        /* \"#utility.yul\":7784:7807   */\n      sub\n        /* \"#utility.yul\":7780:7812   */\n      slt\n        /* \"#utility.yul\":7777:7896   */\n      iszero\n      tag_190\n      jumpi\n        /* \"#utility.yul\":7815:7894   */\n      tag_191\n      tag_73\n      jump\t// in\n    tag_191:\n        /* \"#utility.yul\":7777:7896   */\n    tag_190:\n        /* \"#utility.yul\":7935:7936   */\n      0x00\n        /* \"#utility.yul\":7960:8013   */\n      tag_192\n        /* \"#utility.yul\":8005:8012   */\n      dup5\n        /* \"#utility.yul\":7996:8002   */\n      dup3\n        /* \"#utility.yul\":7985:7994   */\n      dup6\n        /* \"#utility.yul\":7981:8003   */\n      add\n        /* \"#utility.yul\":7960:8013   */\n      tag_81\n      jump\t// in\n    tag_192:\n        /* \"#utility.yul\":7950:8013   */\n      swap2\n      pop\n        /* \"#utility.yul\":7906:8023   */\n      pop\n        /* \"#utility.yul\":7701:8030   */\n      swap3\n      swap2\n      pop\n      pop\n      jump\t// out\n        /* \"#utility.yul\":8036:8154   */\n    tag_98:\n        /* \"#utility.yul\":8123:8147   */\n      tag_194\n        /* \"#utility.yul\":8141:8146   */\n      dup2\n        /* \"#utility.yul\":8123:8147   */\n      tag_76\n      jump\t// in\n    tag_194:\n        /* \"#utility.yul\":8118:8121   */\n      dup3\n        /* \"#utility.yul\":8111:8148   */\n      mstore\n        /* \"#utility.yul\":8036:8154   */\n      pop\n      pop\n      jump\t// out\n        /* \"#utility.yul\":8160:8382   */\n    tag_30:\n        /* \"#utility.yul\":8253:8257   */\n      0x00\n        /* \"#utility.yul\":8291:8293   */\n      0x20\n        /* \"#utility.yul\":8280:8289   */\n      dup3\n        /* \"#utility.yul\":8276:8294   */\n      add\n        /* \"#utility.yul\":8268:8294   */\n      swap1\n      pop\n        /* \"#utility.yul\":8304:8375   */\n      tag_196\n        /* \"#utility.yul\":8372:8373   */\n      0x00\n        /* \"#utility.yul\":8361:8370   */\n      dup4\n        /* \"#utility.yul\":8357:8374   */\n      add\n        /* \"#utility.yul\":8348:8354   */\n      dup5\n        /* \"#utility.yul\":8304:8375   */\n      tag_98\n      jump\t// in\n    tag_196:\n        /* \"#utility.yul\":8160:8382   */\n      swap3\n      swap2\n      pop\n      pop\n      jump\t// out\n        /* \"#utility.yul\":8388:8568   */\n    tag_99:\n        /* \"#utility.yul\":8436:8513   */\n      0x4e487b7100000000000000000000000000000000000000000000000000000000\n        /* \"#utility.yul\":8433:8434   */\n      0x00\n        /* \"#utility.yul\":8426:8514   */\n      mstore\n        /* \"#utility.yul\":8533:8537   */\n      0x22\n        /* \"#utility.yul\":8530:8531   */\n      0x04\n        /* \"#utility.yul\":8523:8538   */\n      mstore\n        /* \"#utility.yul\":8557:8561   */\n      0x24\n        /* \"#utility.yul\":8554:8555   */\n      0x00\n        /* \"#utility.yul\":8547:8562   */\n      revert\n        /* \"#utility.yul\":8574:8894   */\n    tag_32:\n        /* \"#utility.yul\":8618:8624   */\n      0x00\n        /* \"#utility.yul\":8655:8656   */\n      0x02\n        /* \"#utility.yul\":8649:8653   */\n      dup3\n        /* \"#utility.yul\":8645:8657   */\n      div\n        /* \"#utility.yul\":8635:8657   */\n      swap1\n      pop\n        /* \"#utility.yul\":8702:8703   */\n      0x01\n        /* \"#utility.yul\":8696:8700   */\n      dup3\n        /* \"#utility.yul\":8692:8704   */\n      and\n        /* \"#utility.yul\":8723:8741   */\n      dup1\n        /* \"#utility.yul\":8713:8794   */\n      tag_199\n      jumpi\n        /* \"#utility.yul\":8779:8783   */\n      0x7f\n        /* \"#utility.yul\":8771:8777   */\n      dup3\n        /* \"#utility.yul\":8767:8784   */\n      and\n        /* \"#utility.yul\":8757:8784   */\n      swap2\n      pop\n        /* \"#utility.yul\":8713:8794   */\n    tag_199:\n        /* \"#utility.yul\":8841:8843   */\n      0x20\n        /* \"#utility.yul\":8833:8839   */\n      dup3\n        /* \"#utility.yul\":8830:8844   */\n      lt\n        /* \"#utility.yul\":8810:8828   */\n      dup2\n        /* \"#utility.yul\":8807:8845   */\n      eq\n        /* \"#utility.yul\":8804:8888   */\n      iszero\n      tag_200\n      jumpi\n        /* \"#utility.yul\":8860:8878   */\n      tag_201\n      tag_99\n      jump\t// in\n    tag_201:\n        /* \"#utility.yul\":8804:8888   */\n    tag_200:\n        /* \"#utility.yul\":8625:8894   */\n      pop\n        /* \"#utility.yul\":8574:8894   */\n      swap2\n      swap1\n      pop\n      jump\t// out\n        /* \"#utility.yul\":8900:9018   */\n    tag_100:\n        /* \"#utility.yul\":8987:9011   */\n      tag_203\n        /* \"#utility.yul\":9005:9010   */\n      dup2\n        /* \"#utility.yul\":8987:9011   */\n      tag_79\n      jump\t// in\n    tag_203:\n        /* \"#utility.yul\":8982:8985   */\n      dup3\n        /* \"#utility.yul\":8975:9012   */\n      mstore\n        /* \"#utility.yul\":8900:9018   */\n      pop\n      pop\n      jump\t// out\n        /* \"#utility.yul\":9024:9557   */\n    tag_48:\n        /* \"#utility.yul\":9193:9197   */\n      0x00\n        /* \"#utility.yul\":9231:9233   */\n      0x60\n        /* \"#utility.yul\":9220:9229   */\n      dup3\n        /* \"#utility.yul\":9216:9234   */\n      add\n        /* \"#utility.yul\":9208:9234   */\n      swap1\n      pop\n        /* \"#utility.yul\":9244:9315   */\n      tag_205\n        /* \"#utility.yul\":9312:9313   */\n      0x00\n        /* \"#utility.yul\":9301:9310   */\n      dup4\n        /* \"#utility.yul\":9297:9314   */\n      add\n        /* \"#utility.yul\":9288:9294   */\n      dup7\n        /* \"#utility.yul\":9244:9315   */\n      tag_100\n      jump\t// in\n    tag_205:\n        /* \"#utility.yul\":9325:9397   */\n      tag_206\n        /* \"#utility.yul\":9393:9395   */\n      0x20\n        /* \"#utility.yul\":9382:9391   */\n      dup4\n        /* \"#utility.yul\":9378:9396   */\n      add\n        /* \"#utility.yul\":9369:9375   */\n      dup6\n        /* \"#utility.yul\":9325:9397   */\n      tag_98\n      jump\t// in\n    tag_206:\n        /* \"#utility.yul\":9444:9453   */\n      dup2\n        /* \"#utility.yul\":9438:9442   */\n      dup2\n        /* \"#utility.yul\":9434:9454   */\n      sub\n        /* \"#utility.yul\":9429:9431   */\n      0x40\n        /* \"#utility.yul\":9418:9427   */\n      dup4\n        /* \"#utility.yul\":9414:9432   */\n      add\n        /* \"#utility.yul\":9407:9455   */\n      mstore\n        /* \"#utility.yul\":9472:9550   */\n      tag_207\n        /* \"#utility.yul\":9545:9549   */\n      dup2\n        /* \"#utility.yul\":9536:9542   */\n      dup5\n        /* \"#utility.yul\":9472:9550   */\n      tag_71\n      jump\t// in\n    tag_207:\n        /* \"#utility.yul\":9464:9550   */\n      swap1\n      pop\n        /* \"#utility.yul\":9024:9557   */\n      swap5\n      swap4\n      pop\n      pop\n      pop\n      pop\n      jump\t// out\n    stop\n\n    sub_0: assembly {\n            /* \"Campaign.sol\":669:3231  contract Campaign {... */\n          mstore(0x40, 0x80)\n            /* \"Campaign.sol\":1211:1381  constructor (uint minimum, address creator, string memory name) {... */\n          callvalue\n          dup1\n          iszero\n          tag_1\n          jumpi\n          0x00\n          dup1\n          revert\n        tag_1:\n          pop\n          mload(0x40)\n          sub(codesize, bytecodeSize)\n          dup1\n          bytecodeSize\n          dup4\n          codecopy\n          dup2\n          dup2\n          add\n          0x40\n          mstore\n          dup2\n          add\n          swap1\n          tag_2\n          swap2\n          swap1\n          tag_3\n          jump\t// in\n        tag_2:\n            /* \"Campaign.sol\":1296:1303  creator */\n          dup2\n            /* \"Campaign.sol\":1286:1293  manager */\n          0x05\n          0x00\n            /* \"Campaign.sol\":1286:1303  manager = creator */\n          0x0100\n          exp\n          dup2\n          sload\n          dup2\n          0xffffffffffffffffffffffffffffffffffffffff\n          mul\n          not\n          and\n          swap1\n          dup4\n          0xffffffffffffffffffffffffffffffffffffffff\n          and\n          mul\n          or\n          swap1\n          sstore\n          pop\n            /* \"Campaign.sol\":1336:1343  minimum */\n          dup3\n            /* \"Campaign.sol\":1314:1333  minimumContribution */\n          0x06\n            /* \"Campaign.sol\":1314:1343  minimumContribution = minimum */\n          dup2\n          swap1\n          sstore\n          pop\n            /* \"Campaign.sol\":1369:1373  name */\n          dup1\n            /* \"Campaign.sol\":1354:1366  campaignName */\n          0x00\n            /* \"Campaign.sol\":1354:1373  campaignName = name */\n          swap1\n          dup1\n          mload\n          swap1\n          0x20\n          add\n          swap1\n          tag_6\n          swap3\n          swap2\n          swap1\n          tag_7\n          jump\t// in\n        tag_6:\n          pop\n            /* \"Campaign.sol\":1211:1381  constructor (uint minimum, address creator, string memory name) {... */\n          pop\n          pop\n          pop\n            /* \"Campaign.sol\":669:3231  contract Campaign {... */\n          jump(tag_8)\n        tag_7:\n          dup3\n          dup1\n          sload\n          tag_9\n          swap1\n          tag_10\n          jump\t// in\n        tag_9:\n          swap1\n          0x00\n          mstore\n          keccak256(0x00, 0x20)\n          swap1\n          0x1f\n          add\n          0x20\n          swap1\n          div\n          dup2\n          add\n          swap3\n          dup3\n          tag_12\n          jumpi\n          0x00\n          dup6\n          sstore\n          jump(tag_11)\n        tag_12:\n          dup3\n          0x1f\n          lt\n          tag_13\n          jumpi\n          dup1\n          mload\n          not(0xff)\n          and\n          dup4\n          dup1\n          add\n          or\n          dup6\n          sstore\n          jump(tag_11)\n        tag_13:\n          dup3\n          dup1\n          add\n          0x01\n          add\n          dup6\n          sstore\n          dup3\n          iszero\n          tag_11\n          jumpi\n          swap2\n          dup3\n          add\n        tag_14:\n          dup3\n          dup2\n          gt\n          iszero\n          tag_15\n          jumpi\n          dup3\n          mload\n          dup3\n          sstore\n          swap2\n          0x20\n          add\n          swap2\n          swap1\n          0x01\n          add\n          swap1\n          jump(tag_14)\n        tag_15:\n        tag_11:\n          pop\n          swap1\n          pop\n          tag_16\n          swap2\n          swap1\n          tag_17\n          jump\t// in\n        tag_16:\n          pop\n          swap1\n          jump\t// out\n        tag_17:\n        tag_18:\n          dup1\n          dup3\n          gt\n          iszero\n          tag_19\n          jumpi\n          0x00\n          dup2\n          0x00\n          swap1\n          sstore\n          pop\n          0x01\n          add\n          jump(tag_18)\n        tag_19:\n          pop\n          swap1\n          jump\t// out\n            /* \"#utility.yul\":7:82   */\n        tag_20:\n            /* \"#utility.yul\":40:46   */\n          0x00\n            /* \"#utility.yul\":73:75   */\n          0x40\n            /* \"#utility.yul\":67:76   */\n          mload\n            /* \"#utility.yul\":57:76   */\n          swap1\n          pop\n            /* \"#utility.yul\":7:82   */\n          swap1\n          jump\t// out\n            /* \"#utility.yul\":88:205   */\n        tag_21:\n            /* \"#utility.yul\":197:198   */\n          0x00\n            /* \"#utility.yul\":194:195   */\n          dup1\n            /* \"#utility.yul\":187:199   */\n          revert\n            /* \"#utility.yul\":211:328   */\n        tag_22:\n            /* \"#utility.yul\":320:321   */\n          0x00\n            /* \"#utility.yul\":317:318   */\n          dup1\n            /* \"#utility.yul\":310:322   */\n          revert\n            /* \"#utility.yul\":334:411   */\n        tag_23:\n            /* \"#utility.yul\":371:378   */\n          0x00\n            /* \"#utility.yul\":400:405   */\n          dup2\n            /* \"#utility.yul\":389:405   */\n          swap1\n          pop\n            /* \"#utility.yul\":334:411   */\n          swap2\n          swap1\n          pop\n          jump\t// out\n            /* \"#utility.yul\":417:539   */\n        tag_24:\n            /* \"#utility.yul\":490:514   */\n          tag_47\n            /* \"#utility.yul\":508:513   */\n          dup2\n            /* \"#utility.yul\":490:514   */\n          tag_23\n          jump\t// in\n        tag_47:\n            /* \"#utility.yul\":483:488   */\n          dup2\n            /* \"#utility.yul\":480:515   */\n          eq\n            /* \"#utility.yul\":470:533   */\n          tag_48\n          jumpi\n            /* \"#utility.yul\":529:530   */\n          0x00\n            /* \"#utility.yul\":526:527   */\n          dup1\n            /* \"#utility.yul\":519:531   */\n          revert\n            /* \"#utility.yul\":470:533   */\n        tag_48:\n            /* \"#utility.yul\":417:539   */\n          pop\n          jump\t// out\n            /* \"#utility.yul\":545:688   */\n        tag_25:\n            /* \"#utility.yul\":602:607   */\n          0x00\n            /* \"#utility.yul\":633:639   */\n          dup2\n            /* \"#utility.yul\":627:640   */\n          mload\n            /* \"#utility.yul\":618:640   */\n          swap1\n          pop\n            /* \"#utility.yul\":649:682   */\n          tag_50\n            /* \"#utility.yul\":676:681   */\n          dup2\n            /* \"#utility.yul\":649:682   */\n          tag_24\n          jump\t// in\n        tag_50:\n            /* \"#utility.yul\":545:688   */\n          swap3\n          swap2\n          pop\n          pop\n          jump\t// out\n            /* \"#utility.yul\":694:820   */\n        tag_26:\n            /* \"#utility.yul\":731:738   */\n          0x00\n            /* \"#utility.yul\":771:813   */\n          0xffffffffffffffffffffffffffffffffffffffff\n            /* \"#utility.yul\":764:769   */\n          dup3\n            /* \"#utility.yul\":760:814   */\n          and\n            /* \"#utility.yul\":749:814   */\n          swap1\n          pop\n            /* \"#utility.yul\":694:820   */\n          swap2\n          swap1\n          pop\n          jump\t// out\n            /* \"#utility.yul\":826:922   */\n        tag_27:\n            /* \"#utility.yul\":863:870   */\n          0x00\n            /* \"#utility.yul\":892:916   */\n          tag_53\n            /* \"#utility.yul\":910:915   */\n          dup3\n            /* \"#utility.yul\":892:916   */\n          tag_26\n          jump\t// in\n        tag_53:\n            /* \"#utility.yul\":881:916   */\n          swap1\n          pop\n            /* \"#utility.yul\":826:922   */\n          swap2\n          swap1\n          pop\n          jump\t// out\n            /* \"#utility.yul\":928:1050   */\n        tag_28:\n            /* \"#utility.yul\":1001:1025   */\n          tag_55\n            /* \"#utility.yul\":1019:1024   */\n          dup2\n            /* \"#utility.yul\":1001:1025   */\n          tag_27\n          jump\t// in\n        tag_55:\n            /* \"#utility.yul\":994:999   */\n          dup2\n            /* \"#utility.yul\":991:1026   */\n          eq\n            /* \"#utility.yul\":981:1044   */\n          tag_56\n          jumpi\n            /* \"#utility.yul\":1040:1041   */\n          0x00\n            /* \"#utility.yul\":1037:1038   */\n          dup1\n            /* \"#utility.yul\":1030:1042   */\n          revert\n            /* \"#utility.yul\":981:1044   */\n        tag_56:\n            /* \"#utility.yul\":928:1050   */\n          pop\n          jump\t// out\n            /* \"#utility.yul\":1056:1199   */\n        tag_29:\n            /* \"#utility.yul\":1113:1118   */\n          0x00\n            /* \"#utility.yul\":1144:1150   */\n          dup2\n            /* \"#utility.yul\":1138:1151   */\n          mload\n            /* \"#utility.yul\":1129:1151   */\n          swap1\n          pop\n            /* \"#utility.yul\":1160:1193   */\n          tag_58\n            /* \"#utility.yul\":1187:1192   */\n          dup2\n            /* \"#utility.yul\":1160:1193   */\n          tag_28\n          jump\t// in\n        tag_58:\n            /* \"#utility.yul\":1056:1199   */\n          swap3\n          swap2\n          pop\n          pop\n          jump\t// out\n            /* \"#utility.yul\":1205:1322   */\n        tag_30:\n            /* \"#utility.yul\":1314:1315   */\n          0x00\n            /* \"#utility.yul\":1311:1312   */\n          dup1\n            /* \"#utility.yul\":1304:1316   */\n          revert\n            /* \"#utility.yul\":1328:1445   */\n        tag_31:\n            /* \"#utility.yul\":1437:1438   */\n          0x00\n            /* \"#utility.yul\":1434:1435   */\n          dup1\n            /* \"#utility.yul\":1427:1439   */\n          revert\n            /* \"#utility.yul\":1451:1553   */\n        tag_32:\n            /* \"#utility.yul\":1492:1498   */\n          0x00\n            /* \"#utility.yul\":1543:1545   */\n          0x1f\n            /* \"#utility.yul\":1539:1546   */\n          not\n            /* \"#utility.yul\":1534:1536   */\n          0x1f\n            /* \"#utility.yul\":1527:1532   */\n          dup4\n            /* \"#utility.yul\":1523:1537   */\n          add\n            /* \"#utility.yul\":1519:1547   */\n          and\n            /* \"#utility.yul\":1509:1547   */\n          swap1\n          pop\n            /* \"#utility.yul\":1451:1553   */\n          swap2\n          swap1\n          pop\n          jump\t// out\n            /* \"#utility.yul\":1559:1739   */\n        tag_33:\n            /* \"#utility.yul\":1607:1684   */\n          0x4e487b7100000000000000000000000000000000000000000000000000000000\n            /* \"#utility.yul\":1604:1605   */\n          0x00\n            /* \"#utility.yul\":1597:1685   */\n          mstore\n            /* \"#utility.yul\":1704:1708   */\n          0x41\n            /* \"#utility.yul\":1701:1702   */\n          0x04\n            /* \"#utility.yul\":1694:1709   */\n          mstore\n            /* \"#utility.yul\":1728:1732   */\n          0x24\n            /* \"#utility.yul\":1725:1726   */\n          0x00\n            /* \"#utility.yul\":1718:1733   */\n          revert\n            /* \"#utility.yul\":1745:2026   */\n        tag_34:\n            /* \"#utility.yul\":1828:1855   */\n          tag_64\n            /* \"#utility.yul\":1850:1854   */\n          dup3\n            /* \"#utility.yul\":1828:1855   */\n          tag_32\n          jump\t// in\n        tag_64:\n            /* \"#utility.yul\":1820:1826   */\n          dup2\n            /* \"#utility.yul\":1816:1856   */\n          add\n            /* \"#utility.yul\":1958:1964   */\n          dup2\n            /* \"#utility.yul\":1946:1956   */\n          dup2\n            /* \"#utility.yul\":1943:1965   */\n          lt\n            /* \"#utility.yul\":1922:1940   */\n          0xffffffffffffffff\n            /* \"#utility.yul\":1910:1920   */\n          dup3\n            /* \"#utility.yul\":1907:1941   */\n          gt\n            /* \"#utility.yul\":1904:1966   */\n          or\n            /* \"#utility.yul\":1901:1989   */\n          iszero\n          tag_65\n          jumpi\n            /* \"#utility.yul\":1969:1987   */\n          tag_66\n          tag_33\n          jump\t// in\n        tag_66:\n            /* \"#utility.yul\":1901:1989   */\n        tag_65:\n            /* \"#utility.yul\":2009:2019   */\n          dup1\n            /* \"#utility.yul\":2005:2007   */\n          0x40\n            /* \"#utility.yul\":1998:2020   */\n          mstore\n            /* \"#utility.yul\":1788:2026   */\n          pop\n            /* \"#utility.yul\":1745:2026   */\n          pop\n          pop\n          jump\t// out\n            /* \"#utility.yul\":2032:2161   */\n        tag_35:\n            /* \"#utility.yul\":2066:2072   */\n          0x00\n            /* \"#utility.yul\":2093:2113   */\n          tag_68\n          tag_20\n          jump\t// in\n        tag_68:\n            /* \"#utility.yul\":2083:2113   */\n          swap1\n          pop\n            /* \"#utility.yul\":2122:2155   */\n          tag_69\n            /* \"#utility.yul\":2150:2154   */\n          dup3\n            /* \"#utility.yul\":2142:2148   */\n          dup3\n            /* \"#utility.yul\":2122:2155   */\n          tag_34\n          jump\t// in\n        tag_69:\n            /* \"#utility.yul\":2032:2161   */\n          swap2\n          swap1\n          pop\n          jump\t// out\n            /* \"#utility.yul\":2167:2475   */\n        tag_36:\n            /* \"#utility.yul\":2229:2233   */\n          0x00\n            /* \"#utility.yul\":2319:2337   */\n          0xffffffffffffffff\n            /* \"#utility.yul\":2311:2317   */\n          dup3\n            /* \"#utility.yul\":2308:2338   */\n          gt\n            /* \"#utility.yul\":2305:2361   */\n          iszero\n          tag_71\n          jumpi\n            /* \"#utility.yul\":2341:2359   */\n          tag_72\n          tag_33\n          jump\t// in\n        tag_72:\n            /* \"#utility.yul\":2305:2361   */\n        tag_71:\n            /* \"#utility.yul\":2379:2408   */\n          tag_73\n            /* \"#utility.yul\":2401:2407   */\n          dup3\n            /* \"#utility.yul\":2379:2408   */\n          tag_32\n          jump\t// in\n        tag_73:\n            /* \"#utility.yul\":2371:2408   */\n          swap1\n          pop\n            /* \"#utility.yul\":2463:2467   */\n          0x20\n            /* \"#utility.yul\":2457:2461   */\n          dup2\n            /* \"#utility.yul\":2453:2468   */\n          add\n            /* \"#utility.yul\":2445:2468   */\n          swap1\n          pop\n            /* \"#utility.yul\":2167:2475   */\n          swap2\n          swap1\n          pop\n          jump\t// out\n            /* \"#utility.yul\":2481:2788   */\n        tag_37:\n            /* \"#utility.yul\":2549:2550   */\n          0x00\n            /* \"#utility.yul\":2559:2672   */\n        tag_75:\n            /* \"#utility.yul\":2573:2579   */\n          dup4\n            /* \"#utility.yul\":2570:2571   */\n          dup2\n            /* \"#utility.yul\":2567:2580   */\n          lt\n            /* \"#utility.yul\":2559:2672   */\n          iszero\n          tag_77\n          jumpi\n            /* \"#utility.yul\":2658:2659   */\n          dup1\n            /* \"#utility.yul\":2653:2656   */\n          dup3\n            /* \"#utility.yul\":2649:2660   */\n          add\n            /* \"#utility.yul\":2643:2661   */\n          mload\n            /* \"#utility.yul\":2639:2640   */\n          dup2\n            /* \"#utility.yul\":2634:2637   */\n          dup5\n            /* \"#utility.yul\":2630:2641   */\n          add\n            /* \"#utility.yul\":2623:2662   */\n          mstore\n            /* \"#utility.yul\":2595:2597   */\n          0x20\n            /* \"#utility.yul\":2592:2593   */\n          dup2\n            /* \"#utility.yul\":2588:2598   */\n          add\n            /* \"#utility.yul\":2583:2598   */\n          swap1\n          pop\n            /* \"#utility.yul\":2559:2672   */\n          jump(tag_75)\n        tag_77:\n            /* \"#utility.yul\":2690:2696   */\n          dup4\n            /* \"#utility.yul\":2687:2688   */\n          dup2\n            /* \"#utility.yul\":2684:2697   */\n          gt\n            /* \"#utility.yul\":2681:2782   */\n          iszero\n          tag_78\n          jumpi\n            /* \"#utility.yul\":2770:2771   */\n          0x00\n            /* \"#utility.yul\":2761:2767   */\n          dup5\n            /* \"#utility.yul\":2756:2759   */\n          dup5\n            /* \"#utility.yul\":2752:2768   */\n          add\n            /* \"#utility.yul\":2745:2772   */\n          mstore\n            /* \"#utility.yul\":2681:2782   */\n        tag_78:\n            /* \"#utility.yul\":2530:2788   */\n          pop\n            /* \"#utility.yul\":2481:2788   */\n          pop\n          pop\n          pop\n          jump\t// out\n            /* \"#utility.yul\":2794:3215   */\n        tag_38:\n            /* \"#utility.yul\":2883:2888   */\n          0x00\n            /* \"#utility.yul\":2908:2974   */\n          tag_80\n            /* \"#utility.yul\":2924:2973   */\n          tag_81\n            /* \"#utility.yul\":2966:2972   */\n          dup5\n            /* \"#utility.yul\":2924:2973   */\n          tag_36\n          jump\t// in\n        tag_81:\n            /* \"#utility.yul\":2908:2974   */\n          tag_35\n          jump\t// in\n        tag_80:\n            /* \"#utility.yul\":2899:2974   */\n          swap1\n          pop\n            /* \"#utility.yul\":2997:3003   */\n          dup3\n            /* \"#utility.yul\":2990:2995   */\n          dup2\n            /* \"#utility.yul\":2983:3004   */\n          mstore\n            /* \"#utility.yul\":3035:3039   */\n          0x20\n            /* \"#utility.yul\":3028:3033   */\n          dup2\n            /* \"#utility.yul\":3024:3040   */\n          add\n            /* \"#utility.yul\":3073:3076   */\n          dup5\n            /* \"#utility.yul\":3064:3070   */\n          dup5\n            /* \"#utility.yul\":3059:3062   */\n          dup5\n            /* \"#utility.yul\":3055:3071   */\n          add\n            /* \"#utility.yul\":3052:3077   */\n          gt\n            /* \"#utility.yul\":3049:3161   */\n          iszero\n          tag_82\n          jumpi\n            /* \"#utility.yul\":3080:3159   */\n          tag_83\n          tag_31\n          jump\t// in\n        tag_83:\n            /* \"#utility.yul\":3049:3161   */\n        tag_82:\n            /* \"#utility.yul\":3170:3209   */\n          tag_84\n            /* \"#utility.yul\":3202:3208   */\n          dup5\n            /* \"#utility.yul\":3197:3200   */\n          dup3\n            /* \"#utility.yul\":3192:3195   */\n          dup6\n            /* \"#utility.yul\":3170:3209   */\n          tag_37\n          jump\t// in\n        tag_84:\n            /* \"#utility.yul\":2889:3215   */\n          pop\n            /* \"#utility.yul\":2794:3215   */\n          swap4\n          swap3\n          pop\n          pop\n          pop\n          jump\t// out\n            /* \"#utility.yul\":3235:3590   */\n        tag_39:\n            /* \"#utility.yul\":3302:3307   */\n          0x00\n            /* \"#utility.yul\":3351:3354   */\n          dup3\n            /* \"#utility.yul\":3344:3348   */\n          0x1f\n            /* \"#utility.yul\":3336:3342   */\n          dup4\n            /* \"#utility.yul\":3332:3349   */\n          add\n            /* \"#utility.yul\":3328:3355   */\n          slt\n            /* \"#utility.yul\":3318:3440   */\n          tag_86\n          jumpi\n            /* \"#utility.yul\":3359:3438   */\n          tag_87\n          tag_30\n          jump\t// in\n        tag_87:\n            /* \"#utility.yul\":3318:3440   */\n        tag_86:\n            /* \"#utility.yul\":3469:3475   */\n          dup2\n            /* \"#utility.yul\":3463:3476   */\n          mload\n            /* \"#utility.yul\":3494:3584   */\n          tag_88\n            /* \"#utility.yul\":3580:3583   */\n          dup5\n            /* \"#utility.yul\":3572:3578   */\n          dup3\n            /* \"#utility.yul\":3565:3569   */\n          0x20\n            /* \"#utility.yul\":3557:3563   */\n          dup7\n            /* \"#utility.yul\":3553:3570   */\n          add\n            /* \"#utility.yul\":3494:3584   */\n          tag_38\n          jump\t// in\n        tag_88:\n            /* \"#utility.yul\":3485:3584   */\n          swap2\n          pop\n            /* \"#utility.yul\":3308:3590   */\n          pop\n            /* \"#utility.yul\":3235:3590   */\n          swap3\n          swap2\n          pop\n          pop\n          jump\t// out\n            /* \"#utility.yul\":3596:4432   */\n        tag_3:\n            /* \"#utility.yul\":3694:3700   */\n          0x00\n            /* \"#utility.yul\":3702:3708   */\n          dup1\n            /* \"#utility.yul\":3710:3716   */\n          0x00\n            /* \"#utility.yul\":3759:3761   */\n          0x60\n            /* \"#utility.yul\":3747:3756   */\n          dup5\n            /* \"#utility.yul\":3738:3745   */\n          dup7\n            /* \"#utility.yul\":3734:3757   */\n          sub\n            /* \"#utility.yul\":3730:3762   */\n          slt\n            /* \"#utility.yul\":3727:3846   */\n          iszero\n          tag_90\n          jumpi\n            /* \"#utility.yul\":3765:3844   */\n          tag_91\n          tag_21\n          jump\t// in\n        tag_91:\n            /* \"#utility.yul\":3727:3846   */\n        tag_90:\n            /* \"#utility.yul\":3885:3886   */\n          0x00\n            /* \"#utility.yul\":3910:3974   */\n          tag_92\n            /* \"#utility.yul\":3966:3973   */\n          dup7\n            /* \"#utility.yul\":3957:3963   */\n          dup3\n            /* \"#utility.yul\":3946:3955   */\n          dup8\n            /* \"#utility.yul\":3942:3964   */\n          add\n            /* \"#utility.yul\":3910:3974   */\n          tag_25\n          jump\t// in\n        tag_92:\n            /* \"#utility.yul\":3900:3974   */\n          swap4\n          pop\n            /* \"#utility.yul\":3856:3984   */\n          pop\n            /* \"#utility.yul\":4023:4025   */\n          0x20\n            /* \"#utility.yul\":4049:4113   */\n          tag_93\n            /* \"#utility.yul\":4105:4112   */\n          dup7\n            /* \"#utility.yul\":4096:4102   */\n          dup3\n            /* \"#utility.yul\":4085:4094   */\n          dup8\n            /* \"#utility.yul\":4081:4103   */\n          add\n            /* \"#utility.yul\":4049:4113   */\n          tag_29\n          jump\t// in\n        tag_93:\n            /* \"#utility.yul\":4039:4113   */\n          swap3\n          pop\n            /* \"#utility.yul\":3994:4123   */\n          pop\n            /* \"#utility.yul\":4183:4185   */\n          0x40\n            /* \"#utility.yul\":4172:4181   */\n          dup5\n            /* \"#utility.yul\":4168:4186   */\n          add\n            /* \"#utility.yul\":4162:4187   */\n          mload\n            /* \"#utility.yul\":4214:4232   */\n          0xffffffffffffffff\n            /* \"#utility.yul\":4206:4212   */\n          dup2\n            /* \"#utility.yul\":4203:4233   */\n          gt\n            /* \"#utility.yul\":4200:4317   */\n          iszero\n          tag_94\n          jumpi\n            /* \"#utility.yul\":4236:4315   */\n          tag_95\n          tag_22\n          jump\t// in\n        tag_95:\n            /* \"#utility.yul\":4200:4317   */\n        tag_94:\n            /* \"#utility.yul\":4341:4415   */\n          tag_96\n            /* \"#utility.yul\":4407:4414   */\n          dup7\n            /* \"#utility.yul\":4398:4404   */\n          dup3\n            /* \"#utility.yul\":4387:4396   */\n          dup8\n            /* \"#utility.yul\":4383:4405   */\n          add\n            /* \"#utility.yul\":4341:4415   */\n          tag_39\n          jump\t// in\n        tag_96:\n            /* \"#utility.yul\":4331:4415   */\n          swap2\n          pop\n            /* \"#utility.yul\":4133:4425   */\n          pop\n            /* \"#utility.yul\":3596:4432   */\n          swap3\n          pop\n          swap3\n          pop\n          swap3\n          jump\t// out\n            /* \"#utility.yul\":4438:4618   */\n        tag_40:\n            /* \"#utility.yul\":4486:4563   */\n          0x4e487b7100000000000000000000000000000000000000000000000000000000\n            /* \"#utility.yul\":4483:4484   */\n          0x00\n            /* \"#utility.yul\":4476:4564   */\n          mstore\n            /* \"#utility.yul\":4583:4587   */\n          0x22\n            /* \"#utility.yul\":4580:4581   */\n          0x04\n            /* \"#utility.yul\":4573:4588   */\n          mstore\n            /* \"#utility.yul\":4607:4611   */\n          0x24\n            /* \"#utility.yul\":4604:4605   */\n          0x00\n            /* \"#utility.yul\":4597:4612   */\n          revert\n            /* \"#utility.yul\":4624:4944   */\n        tag_10:\n            /* \"#utility.yul\":4668:4674   */\n          0x00\n            /* \"#utility.yul\":4705:4706   */\n          0x02\n            /* \"#utility.yul\":4699:4703   */\n          dup3\n            /* \"#utility.yul\":4695:4707   */\n          div\n            /* \"#utility.yul\":4685:4707   */\n          swap1\n          pop\n            /* \"#utility.yul\":4752:4753   */\n          0x01\n            /* \"#utility.yul\":4746:4750   */\n          dup3\n            /* \"#utility.yul\":4742:4754   */\n          and\n            /* \"#utility.yul\":4773:4791   */\n          dup1\n            /* \"#utility.yul\":4763:4844   */\n          tag_99\n          jumpi\n            /* \"#utility.yul\":4829:4833   */\n          0x7f\n            /* \"#utility.yul\":4821:4827   */\n          dup3\n            /* \"#utility.yul\":4817:4834   */\n          and\n            /* \"#utility.yul\":4807:4834   */\n          swap2\n          pop\n            /* \"#utility.yul\":4763:4844   */\n        tag_99:\n            /* \"#utility.yul\":4891:4893   */\n          0x20\n            /* \"#utility.yul\":4883:4889   */\n          dup3\n            /* \"#utility.yul\":4880:4894   */\n          lt\n            /* \"#utility.yul\":4860:4878   */\n          dup2\n            /* \"#utility.yul\":4857:4895   */\n          eq\n            /* \"#utility.yul\":4854:4938   */\n          iszero\n          tag_100\n          jumpi\n            /* \"#utility.yul\":4910:4928   */\n          tag_101\n          tag_40\n          jump\t// in\n        tag_101:\n            /* \"#utility.yul\":4854:4938   */\n        tag_100:\n            /* \"#utility.yul\":4675:4944   */\n          pop\n            /* \"#utility.yul\":4624:4944   */\n          swap2\n          swap1\n          pop\n          jump\t// out\n            /* \"Campaign.sol\":669:3231  contract Campaign {... */\n        tag_8:\n          dataSize(sub_0)\n          dup1\n          dataOffset(sub_0)\n          0x00\n          codecopy\n          0x00\n          return\n        stop\n\n        sub_0: assembly {\n                /* \"Campaign.sol\":669:3231  contract Campaign {... */\n              mstore(0x40, 0x80)\n              jumpi(tag_1, lt(calldatasize, 0x04))\n              shr(0xe0, calldataload(0x00))\n              dup1\n              0x81d12c58\n              gt\n              tag_14\n              jumpi\n              dup1\n              0x81d12c58\n              eq\n              tag_8\n              jumpi\n              dup1\n              0x8a9cfd55\n              eq\n              tag_9\n              jumpi\n              dup1\n              0x937e09b1\n              eq\n              tag_10\n              jumpi\n              dup1\n              0xa00c96d7\n              eq\n              tag_11\n              jumpi\n              dup1\n              0xd7bb99ba\n              eq\n              tag_12\n              jumpi\n              dup1\n              0xd7d1bbdb\n              eq\n              tag_13\n              jumpi\n              jump(tag_1)\n            tag_14:\n              dup1\n              0x0724fda9\n              eq\n              tag_2\n              jumpi\n              dup1\n              0x08f438f7\n              eq\n              tag_3\n              jumpi\n              dup1\n              0x1f6d4942\n              eq\n              tag_4\n              jumpi\n              dup1\n              0x278d2ee0\n              eq\n              tag_5\n              jumpi\n              dup1\n              0x481c6a75\n              eq\n              tag_6\n              jumpi\n              dup1\n              0x7569b3d7\n              eq\n              tag_7\n              jumpi\n            tag_1:\n              0x00\n              dup1\n              revert\n                /* \"Campaign.sol\":900:926  string public campaignName */\n            tag_2:\n              callvalue\n              dup1\n              iszero\n              tag_15\n              jumpi\n              0x00\n              dup1\n              revert\n            tag_15:\n              pop\n              tag_16\n              tag_17\n              jump\t// in\n            tag_16:\n              mload(0x40)\n              tag_18\n              swap2\n              swap1\n              tag_19\n              jump\t// in\n            tag_18:\n              mload(0x40)\n              dup1\n              swap2\n              sub\n              swap1\n              return\n                /* \"Campaign.sol\":1004:1033  uint public completedRequests */\n            tag_3:\n              callvalue\n              dup1\n              iszero\n              tag_20\n              jumpi\n              0x00\n              dup1\n              revert\n            tag_20:\n              pop\n              tag_21\n              tag_22\n              jump\t// in\n            tag_21:\n              mload(0x40)\n              tag_23\n              swap2\n              swap1\n              tag_24\n              jump\t// in\n            tag_23:\n              mload(0x40)\n              dup1\n              swap2\n              sub\n              swap1\n              return\n                /* \"Campaign.sol\":1154:1198  mapping(address => bool) public contributors */\n            tag_4:\n              callvalue\n              dup1\n              iszero\n              tag_25\n              jumpi\n              0x00\n              dup1\n              revert\n            tag_25:\n              pop\n              tag_26\n              0x04\n              dup1\n              calldatasize\n              sub\n              dup2\n              add\n              swap1\n              tag_27\n              swap2\n              swap1\n              tag_28\n              jump\t// in\n            tag_27:\n              tag_29\n              jump\t// in\n            tag_26:\n              mload(0x40)\n              tag_30\n              swap2\n              swap1\n              tag_31\n              jump\t// in\n            tag_30:\n              mload(0x40)\n              dup1\n              swap2\n              sub\n              swap1\n              return\n                /* \"Campaign.sol\":969:997  uint public numberofRequests */\n            tag_5:\n              callvalue\n              dup1\n              iszero\n              tag_32\n              jumpi\n              0x00\n              dup1\n              revert\n            tag_32:\n              pop\n              tag_33\n              tag_34\n              jump\t// in\n            tag_33:\n              mload(0x40)\n              tag_35\n              swap2\n              swap1\n              tag_24\n              jump\t// in\n            tag_35:\n              mload(0x40)\n              dup1\n              swap2\n              sub\n              swap1\n              return\n                /* \"Campaign.sol\":1087:1109  address public manager */\n            tag_6:\n              callvalue\n              dup1\n              iszero\n              tag_36\n              jumpi\n              0x00\n              dup1\n              revert\n            tag_36:\n              pop\n              tag_37\n              tag_38\n              jump\t// in\n            tag_37:\n              mload(0x40)\n              tag_39\n              swap2\n              swap1\n              tag_40\n              jump\t// in\n            tag_39:\n              mload(0x40)\n              dup1\n              swap2\n              sub\n              swap1\n              return\n                /* \"Campaign.sol\":933:962  uint public contributorsCount */\n            tag_7:\n              callvalue\n              dup1\n              iszero\n              tag_41\n              jumpi\n              0x00\n              dup1\n              revert\n            tag_41:\n              pop\n              tag_42\n              tag_43\n              jump\t// in\n            tag_42:\n              mload(0x40)\n              tag_44\n              swap2\n              swap1\n              tag_24\n              jump\t// in\n            tag_44:\n              mload(0x40)\n              dup1\n              swap2\n              sub\n              swap1\n              return\n                /* \"Campaign.sol\":1040:1080  mapping(uint => Request) public requests */\n            tag_8:\n              callvalue\n              dup1\n              iszero\n              tag_45\n              jumpi\n              0x00\n              dup1\n              revert\n            tag_45:\n              pop\n              tag_46\n              0x04\n              dup1\n              calldatasize\n              sub\n              dup2\n              add\n              swap1\n              tag_47\n              swap2\n              swap1\n              tag_48\n              jump\t// in\n            tag_47:\n              tag_49\n              jump\t// in\n            tag_46:\n              mload(0x40)\n              tag_50\n              swap6\n              swap5\n              swap4\n              swap3\n              swap2\n              swap1\n              tag_51\n              jump\t// in\n            tag_50:\n              mload(0x40)\n              dup1\n              swap2\n              sub\n              swap1\n              return\n                /* \"Campaign.sol\":1838:2289  function createRequest(string memory description, uint value, address receiver) ... */\n            tag_9:\n              callvalue\n              dup1\n              iszero\n              tag_52\n              jumpi\n              0x00\n              dup1\n              revert\n            tag_52:\n              pop\n              tag_53\n              0x04\n              dup1\n              calldatasize\n              sub\n              dup2\n              add\n              swap1\n              tag_54\n              swap2\n              swap1\n              tag_55\n              jump\t// in\n            tag_54:\n              tag_56\n              jump\t// in\n            tag_53:\n              stop\n                /* \"Campaign.sol\":1116:1147  uint public minimumContribution */\n            tag_10:\n              callvalue\n              dup1\n              iszero\n              tag_57\n              jumpi\n              0x00\n              dup1\n              revert\n            tag_57:\n              pop\n              tag_58\n              tag_59\n              jump\t// in\n            tag_58:\n              mload(0x40)\n              tag_60\n              swap2\n              swap1\n              tag_24\n              jump\t// in\n            tag_60:\n              mload(0x40)\n              dup1\n              swap2\n              sub\n              swap1\n              return\n                /* \"Campaign.sol\":2910:3224  function getCampaignSummary () public view returns (uint, uint, uint, uint, address, uint){... */\n            tag_11:\n              callvalue\n              dup1\n              iszero\n              tag_61\n              jumpi\n              0x00\n              dup1\n              revert\n            tag_61:\n              pop\n              tag_62\n              tag_63\n              jump\t// in\n            tag_62:\n              mload(0x40)\n              tag_64\n              swap7\n              swap6\n              swap5\n              swap4\n              swap3\n              swap2\n              swap1\n              tag_65\n              jump\t// in\n            tag_64:\n              mload(0x40)\n              dup1\n              swap2\n              sub\n              swap1\n              return\n                /* \"Campaign.sol\":1528:1830  function contribute() public payable {... */\n            tag_12:\n              tag_66\n              tag_67\n              jump\t// in\n            tag_66:\n              stop\n                /* \"Campaign.sol\":2297:2901  function approveRequest(uint index) public {... */\n            tag_13:\n              callvalue\n              dup1\n              iszero\n              tag_68\n              jumpi\n              0x00\n              dup1\n              revert\n            tag_68:\n              pop\n              tag_69\n              0x04\n              dup1\n              calldatasize\n              sub\n              dup2\n              add\n              swap1\n              tag_70\n              swap2\n              swap1\n              tag_48\n              jump\t// in\n            tag_70:\n              tag_71\n              jump\t// in\n            tag_69:\n              stop\n                /* \"Campaign.sol\":900:926  string public campaignName */\n            tag_17:\n              0x00\n              dup1\n              sload\n              tag_72\n              swap1\n              tag_73\n              jump\t// in\n            tag_72:\n              dup1\n              0x1f\n              add\n              0x20\n              dup1\n              swap2\n              div\n              mul\n              0x20\n              add\n              mload(0x40)\n              swap1\n              dup2\n              add\n              0x40\n              mstore\n              dup1\n              swap3\n              swap2\n              swap1\n              dup2\n              dup2\n              mstore\n              0x20\n              add\n              dup3\n              dup1\n              sload\n              tag_74\n              swap1\n              tag_73\n              jump\t// in\n            tag_74:\n              dup1\n              iszero\n              tag_75\n              jumpi\n              dup1\n              0x1f\n              lt\n              tag_76\n              jumpi\n              0x0100\n              dup1\n              dup4\n              sload\n              div\n              mul\n              dup4\n              mstore\n              swap2\n              0x20\n              add\n              swap2\n              jump(tag_75)\n            tag_76:\n              dup3\n              add\n              swap2\n              swap1\n              0x00\n              mstore\n              keccak256(0x00, 0x20)\n              swap1\n            tag_77:\n              dup2\n              sload\n              dup2\n              mstore\n              swap1\n              0x01\n              add\n              swap1\n              0x20\n              add\n              dup1\n              dup4\n              gt\n              tag_77\n              jumpi\n              dup3\n              swap1\n              sub\n              0x1f\n              and\n              dup3\n              add\n              swap2\n            tag_75:\n              pop\n              pop\n              pop\n              pop\n              pop\n              dup2\n              jump\t// out\n                /* \"Campaign.sol\":1004:1033  uint public completedRequests */\n            tag_22:\n              sload(0x03)\n              dup2\n              jump\t// out\n                /* \"Campaign.sol\":1154:1198  mapping(address => bool) public contributors */\n            tag_29:\n              mstore(0x20, 0x07)\n              dup1\n              0x00\n              mstore\n              keccak256(0x00, 0x40)\n              0x00\n              swap2\n              pop\n              sload\n              swap1\n              0x0100\n              exp\n              swap1\n              div\n              0xff\n              and\n              dup2\n              jump\t// out\n                /* \"Campaign.sol\":969:997  uint public numberofRequests */\n            tag_34:\n              sload(0x02)\n              dup2\n              jump\t// out\n                /* \"Campaign.sol\":1087:1109  address public manager */\n            tag_38:\n              0x05\n              0x00\n              swap1\n              sload\n              swap1\n              0x0100\n              exp\n              swap1\n              div\n              0xffffffffffffffffffffffffffffffffffffffff\n              and\n              dup2\n              jump\t// out\n                /* \"Campaign.sol\":933:962  uint public contributorsCount */\n            tag_43:\n              sload(0x01)\n              dup2\n              jump\t// out\n                /* \"Campaign.sol\":1040:1080  mapping(uint => Request) public requests */\n            tag_49:\n              mstore(0x20, 0x04)\n              dup1\n              0x00\n              mstore\n              keccak256(0x00, 0x40)\n              0x00\n              swap2\n              pop\n              swap1\n              pop\n              dup1\n              0x00\n              add\n              dup1\n              sload\n              tag_78\n              swap1\n              tag_73\n              jump\t// in\n            tag_78:\n              dup1\n              0x1f\n              add\n              0x20\n              dup1\n              swap2\n              div\n              mul\n              0x20\n              add\n              mload(0x40)\n              swap1\n              dup2\n              add\n              0x40\n              mstore\n              dup1\n              swap3\n              swap2\n              swap1\n              dup2\n              dup2\n              mstore\n              0x20\n              add\n              dup3\n              dup1\n              sload\n              tag_79\n              swap1\n              tag_73\n              jump\t// in\n            tag_79:\n              dup1\n              iszero\n              tag_80\n              jumpi\n              dup1\n              0x1f\n              lt\n              tag_81\n              jumpi\n              0x0100\n              dup1\n              dup4\n              sload\n              div\n              mul\n              dup4\n              mstore\n              swap2\n              0x20\n              add\n              swap2\n              jump(tag_80)\n            tag_81:\n              dup3\n              add\n              swap2\n              swap1\n              0x00\n              mstore\n              keccak256(0x00, 0x20)\n              swap1\n            tag_82:\n              dup2\n              sload\n              dup2\n              mstore\n              swap1\n              0x01\n              add\n              swap1\n              0x20\n              add\n              dup1\n              dup4\n              gt\n              tag_82\n              jumpi\n              dup3\n              swap1\n              sub\n              0x1f\n              and\n              dup3\n              add\n              swap2\n            tag_80:\n              pop\n              pop\n              pop\n              pop\n              pop\n              swap1\n              dup1\n              0x01\n              add\n              sload\n              swap1\n              dup1\n              0x02\n              add\n              0x00\n              swap1\n              sload\n              swap1\n              0x0100\n              exp\n              swap1\n              div\n              0xffffffffffffffffffffffffffffffffffffffff\n              and\n              swap1\n              dup1\n              0x02\n              add\n              0x14\n              swap1\n              sload\n              swap1\n              0x0100\n              exp\n              swap1\n              div\n              0xff\n              and\n              swap1\n              dup1\n              0x03\n              add\n              sload\n              swap1\n              pop\n              dup6\n              jump\t// out\n                /* \"Campaign.sol\":1838:2289  function createRequest(string memory description, uint value, address receiver) ... */\n            tag_56:\n                /* \"Campaign.sol\":1446:1453  manager */\n              0x05\n              0x00\n              swap1\n              sload\n              swap1\n              0x0100\n              exp\n              swap1\n              div\n              0xffffffffffffffffffffffffffffffffffffffff\n              and\n                /* \"Campaign.sol\":1432:1453  msg.sender == manager */\n              0xffffffffffffffffffffffffffffffffffffffff\n              and\n                /* \"Campaign.sol\":1432:1442  msg.sender */\n              caller\n                /* \"Campaign.sol\":1432:1453  msg.sender == manager */\n              0xffffffffffffffffffffffffffffffffffffffff\n              and\n              eq\n                /* \"Campaign.sol\":1424:1498  require(msg.sender == manager, \"Only the Manager can perform this action\") */\n              tag_84\n              jumpi\n              mload(0x40)\n              0x08c379a000000000000000000000000000000000000000000000000000000000\n              dup2\n              mstore\n              0x04\n              add\n              tag_85\n              swap1\n              tag_86\n              jump\t// in\n            tag_85:\n              mload(0x40)\n              dup1\n              swap2\n              sub\n              swap1\n              revert\n            tag_84:\n                /* \"Campaign.sol\":1956:1982  Request storage newRequest */\n              0x00\n                /* \"Campaign.sol\":1985:1993  requests */\n              0x04\n                /* \"Campaign.sol\":1985:2013  requests[numberofRequests++] */\n              0x00\n                /* \"Campaign.sol\":1994:2010  numberofRequests */\n              0x02\n              0x00\n                /* \"Campaign.sol\":1994:2012  numberofRequests++ */\n              dup2\n              sload\n              dup1\n              swap3\n              swap2\n              swap1\n              tag_88\n              swap1\n              tag_89\n              jump\t// in\n            tag_88:\n              swap2\n              swap1\n              pop\n              sstore\n                /* \"Campaign.sol\":1985:2013  requests[numberofRequests++] */\n              dup2\n              mstore\n              0x20\n              add\n              swap1\n              dup2\n              mstore\n              0x20\n              add\n              0x00\n              keccak256\n                /* \"Campaign.sol\":1956:2013  Request storage newRequest = requests[numberofRequests++] */\n              swap1\n              pop\n                /* \"Campaign.sol\":2050:2061  description */\n              dup4\n                /* \"Campaign.sol\":2025:2035  newRequest */\n              dup2\n                /* \"Campaign.sol\":2025:2047  newRequest.description */\n              0x00\n              add\n                /* \"Campaign.sol\":2025:2061  newRequest.description = description */\n              swap1\n              dup1\n              mload\n              swap1\n              0x20\n              add\n              swap1\n              tag_90\n              swap3\n              swap2\n              swap1\n              tag_91\n              jump\t// in\n            tag_90:\n              pop\n                /* \"Campaign.sol\":2092:2097  value */\n              dup3\n                /* \"Campaign.sol\":2073:2083  newRequest */\n              dup2\n                /* \"Campaign.sol\":2073:2089  newRequest.value */\n              0x01\n              add\n                /* \"Campaign.sol\":2073:2097  newRequest.value = value */\n              dup2\n              swap1\n              sstore\n              pop\n                /* \"Campaign.sol\":2131:2139  receiver */\n              dup2\n                /* \"Campaign.sol\":2109:2119  newRequest */\n              dup2\n                /* \"Campaign.sol\":2109:2128  newRequest.receiver */\n              0x02\n              add\n              0x00\n                /* \"Campaign.sol\":2109:2139  newRequest.receiver = receiver */\n              0x0100\n              exp\n              dup2\n              sload\n              dup2\n              0xffffffffffffffffffffffffffffffffffffffff\n              mul\n              not\n              and\n              swap1\n              dup4\n              0xffffffffffffffffffffffffffffffffffffffff\n              and\n              mul\n              or\n              swap1\n              sstore\n              pop\n                /* \"Campaign.sol\":2173:2178  false */\n              0x00\n                /* \"Campaign.sol\":2151:2161  newRequest */\n              dup2\n                /* \"Campaign.sol\":2151:2170  newRequest.complete */\n              0x02\n              add\n              0x14\n                /* \"Campaign.sol\":2151:2178  newRequest.complete = false */\n              0x0100\n              exp\n              dup2\n              sload\n              dup2\n              0xff\n              mul\n              not\n              and\n              swap1\n              dup4\n              iszero\n              iszero\n              mul\n              or\n              swap1\n              sstore\n              pop\n                /* \"Campaign.sol\":2217:2218  0 */\n              0x00\n                /* \"Campaign.sol\":2190:2200  newRequest */\n              dup2\n                /* \"Campaign.sol\":2190:2214  newRequest.approvalCount */\n              0x03\n              add\n                /* \"Campaign.sol\":2190:2218  newRequest.approvalCount = 0 */\n              dup2\n              swap1\n              sstore\n              pop\n                /* \"Campaign.sol\":2265:2270  false */\n              0x00\n                /* \"Campaign.sol\":2230:2240  newRequest */\n              dup2\n                /* \"Campaign.sol\":2230:2250  newRequest.approvals */\n              0x04\n              add\n                /* \"Campaign.sol\":2230:2262  newRequest.approvals[msg.sender] */\n              0x00\n                /* \"Campaign.sol\":2251:2261  msg.sender */\n              caller\n                /* \"Campaign.sol\":2230:2262  newRequest.approvals[msg.sender] */\n              0xffffffffffffffffffffffffffffffffffffffff\n              and\n              0xffffffffffffffffffffffffffffffffffffffff\n              and\n              dup2\n              mstore\n              0x20\n              add\n              swap1\n              dup2\n              mstore\n              0x20\n              add\n              0x00\n              keccak256\n              0x00\n                /* \"Campaign.sol\":2230:2270  newRequest.approvals[msg.sender] = false */\n              0x0100\n              exp\n              dup2\n              sload\n              dup2\n              0xff\n              mul\n              not\n              and\n              swap1\n              dup4\n              iszero\n              iszero\n              mul\n              or\n              swap1\n              sstore\n              pop\n                /* \"Campaign.sol\":1942:2289  {... */\n              pop\n                /* \"Campaign.sol\":1838:2289  function createRequest(string memory description, uint value, address receiver) ... */\n              pop\n              pop\n              pop\n              jump\t// out\n                /* \"Campaign.sol\":1116:1147  uint public minimumContribution */\n            tag_59:\n              sload(0x06)\n              dup2\n              jump\t// out\n                /* \"Campaign.sol\":2910:3224  function getCampaignSummary () public view returns (uint, uint, uint, uint, address, uint){... */\n            tag_63:\n                /* \"Campaign.sol\":2962:2966  uint */\n              0x00\n                /* \"Campaign.sol\":2968:2972  uint */\n              dup1\n                /* \"Campaign.sol\":2974:2978  uint */\n              0x00\n                /* \"Campaign.sol\":2980:2984  uint */\n              dup1\n                /* \"Campaign.sol\":2986:2993  address */\n              0x00\n                /* \"Campaign.sol\":2995:2999  uint */\n              dup1\n                /* \"Campaign.sol\":3033:3052  minimumContribution */\n              sload(0x06)\n                /* \"Campaign.sol\":3067:3088  address(this).balance */\n              selfbalance\n                /* \"Campaign.sol\":3103:3120  contributorsCount */\n              sload(0x01)\n                /* \"Campaign.sol\":3135:3151  numberofRequests */\n              sload(0x02)\n                /* \"Campaign.sol\":3166:3173  manager */\n              0x05\n              0x00\n              swap1\n              sload\n              swap1\n              0x0100\n              exp\n              swap1\n              div\n              0xffffffffffffffffffffffffffffffffffffffff\n              and\n                /* \"Campaign.sol\":3188:3205  completedRequests */\n              sload(0x03)\n                /* \"Campaign.sol\":3011:3216  return (... */\n              swap6\n              pop\n              swap6\n              pop\n              swap6\n              pop\n              swap6\n              pop\n              swap6\n              pop\n              swap6\n              pop\n                /* \"Campaign.sol\":2910:3224  function getCampaignSummary () public view returns (uint, uint, uint, uint, address, uint){... */\n              swap1\n              swap2\n              swap3\n              swap4\n              swap5\n              swap6\n              jump\t// out\n                /* \"Campaign.sol\":1528:1830  function contribute() public payable {... */\n            tag_67:\n                /* \"Campaign.sol\":1596:1615  minimumContribution */\n              sload(0x06)\n                /* \"Campaign.sol\":1584:1593  msg.value */\n              callvalue\n                /* \"Campaign.sol\":1584:1615  msg.value > minimumContribution */\n              gt\n                /* \"Campaign.sol\":1576:1665  require(msg.value > minimumContribution, \"Your contribution is below the minimum amount\") */\n              tag_94\n              jumpi\n              mload(0x40)\n              0x08c379a000000000000000000000000000000000000000000000000000000000\n              dup2\n              mstore\n              0x04\n              add\n              tag_95\n              swap1\n              tag_96\n              jump\t// in\n            tag_95:\n              mload(0x40)\n              dup1\n              swap2\n              sub\n              swap1\n              revert\n            tag_94:\n                /* \"Campaign.sol\":1712:1717  false */\n              0x00\n                /* \"Campaign.sol\":1684:1717  contributors[msg.sender] == false */\n              iszero\n              iszero\n                /* \"Campaign.sol\":1684:1696  contributors */\n              0x07\n                /* \"Campaign.sol\":1684:1708  contributors[msg.sender] */\n              0x00\n                /* \"Campaign.sol\":1697:1707  msg.sender */\n              caller\n                /* \"Campaign.sol\":1684:1708  contributors[msg.sender] */\n              0xffffffffffffffffffffffffffffffffffffffff\n              and\n              0xffffffffffffffffffffffffffffffffffffffff\n              and\n              dup2\n              mstore\n              0x20\n              add\n              swap1\n              dup2\n              mstore\n              0x20\n              add\n              0x00\n              keccak256\n              0x00\n              swap1\n              sload\n              swap1\n              0x0100\n              exp\n              swap1\n              div\n              0xff\n              and\n                /* \"Campaign.sol\":1684:1717  contributors[msg.sender] == false */\n              iszero\n              iszero\n              eq\n                /* \"Campaign.sol\":1676:1750  require(contributors[msg.sender] == false, \"You have already contributed\") */\n              tag_97\n              jumpi\n              mload(0x40)\n              0x08c379a000000000000000000000000000000000000000000000000000000000\n              dup2\n              mstore\n              0x04\n              add\n              tag_98\n              swap1\n              tag_99\n              jump\t// in\n            tag_98:\n              mload(0x40)\n              dup1\n              swap2\n              sub\n              swap1\n              revert\n            tag_97:\n                /* \"Campaign.sol\":1788:1792  true */\n              0x01\n                /* \"Campaign.sol\":1761:1773  contributors */\n              0x07\n                /* \"Campaign.sol\":1761:1785  contributors[msg.sender] */\n              0x00\n                /* \"Campaign.sol\":1774:1784  msg.sender */\n              caller\n                /* \"Campaign.sol\":1761:1785  contributors[msg.sender] */\n              0xffffffffffffffffffffffffffffffffffffffff\n              and\n              0xffffffffffffffffffffffffffffffffffffffff\n              and\n              dup2\n              mstore\n              0x20\n              add\n              swap1\n              dup2\n              mstore\n              0x20\n              add\n              0x00\n              keccak256\n              0x00\n                /* \"Campaign.sol\":1761:1792  contributors[msg.sender] = true */\n              0x0100\n              exp\n              dup2\n              sload\n              dup2\n              0xff\n              mul\n              not\n              and\n              swap1\n              dup4\n              iszero\n              iszero\n              mul\n              or\n              swap1\n              sstore\n              pop\n                /* \"Campaign.sol\":1803:1820  contributorsCount */\n              0x01\n              0x00\n                /* \"Campaign.sol\":1803:1822  contributorsCount++ */\n              dup2\n              sload\n              dup1\n              swap3\n              swap2\n              swap1\n              tag_100\n              swap1\n              tag_89\n              jump\t// in\n            tag_100:\n              swap2\n              swap1\n              pop\n              sstore\n              pop\n                /* \"Campaign.sol\":1528:1830  function contribute() public payable {... */\n              jump\t// out\n                /* \"Campaign.sol\":2297:2901  function approveRequest(uint index) public {... */\n            tag_71:\n                /* \"Campaign.sol\":2351:2374  Request storage request */\n              0x00\n                /* \"Campaign.sol\":2377:2385  requests */\n              0x04\n                /* \"Campaign.sol\":2377:2392  requests[index] */\n              0x00\n                /* \"Campaign.sol\":2386:2391  index */\n              dup4\n                /* \"Campaign.sol\":2377:2392  requests[index] */\n              dup2\n              mstore\n              0x20\n              add\n              swap1\n              dup2\n              mstore\n              0x20\n              add\n              0x00\n              keccak256\n                /* \"Campaign.sol\":2351:2392  Request storage request = requests[index] */\n              swap1\n              pop\n                /* \"Campaign.sol\":2439:2443  true */\n              0x01\n                /* \"Campaign.sol\":2411:2443  contributors[msg.sender] == true */\n              iszero\n              iszero\n                /* \"Campaign.sol\":2411:2423  contributors */\n              0x07\n                /* \"Campaign.sol\":2411:2435  contributors[msg.sender] */\n              0x00\n                /* \"Campaign.sol\":2424:2434  msg.sender */\n              caller\n                /* \"Campaign.sol\":2411:2435  contributors[msg.sender] */\n              0xffffffffffffffffffffffffffffffffffffffff\n              and\n              0xffffffffffffffffffffffffffffffffffffffff\n              and\n              dup2\n              mstore\n              0x20\n              add\n              swap1\n              dup2\n              mstore\n              0x20\n              add\n              0x00\n              keccak256\n              0x00\n              swap1\n              sload\n              swap1\n              0x0100\n              exp\n              swap1\n              div\n              0xff\n              and\n                /* \"Campaign.sol\":2411:2443  contributors[msg.sender] == true */\n              iszero\n              iszero\n              eq\n                /* \"Campaign.sol\":2403:2490  require(contributors[msg.sender] == true, \"Only Contributors can approve this Request\") */\n              tag_102\n              jumpi\n              mload(0x40)\n              0x08c379a000000000000000000000000000000000000000000000000000000000\n              dup2\n              mstore\n              0x04\n              add\n              tag_103\n              swap1\n              tag_104\n              jump\t// in\n            tag_103:\n              mload(0x40)\n              dup1\n              swap2\n              sub\n              swap1\n              revert\n            tag_102:\n                /* \"Campaign.sol\":2510:2517  request */\n              dup1\n                /* \"Campaign.sol\":2510:2527  request.approvals */\n              0x04\n              add\n                /* \"Campaign.sol\":2510:2539  request.approvals[msg.sender] */\n              0x00\n                /* \"Campaign.sol\":2528:2538  msg.sender */\n              caller\n                /* \"Campaign.sol\":2510:2539  request.approvals[msg.sender] */\n              0xffffffffffffffffffffffffffffffffffffffff\n              and\n              0xffffffffffffffffffffffffffffffffffffffff\n              and\n              dup2\n              mstore\n              0x20\n              add\n              swap1\n              dup2\n              mstore\n              0x20\n              add\n              0x00\n              keccak256\n              0x00\n              swap1\n              sload\n              swap1\n              0x0100\n              exp\n              swap1\n              div\n              0xff\n              and\n                /* \"Campaign.sol\":2509:2539  !request.approvals[msg.sender] */\n              iszero\n                /* \"Campaign.sol\":2501:2582  require(!request.approvals[msg.sender], \"You have already approved this Request\") */\n              tag_105\n              jumpi\n              mload(0x40)\n              0x08c379a000000000000000000000000000000000000000000000000000000000\n              dup2\n              mstore\n              0x04\n              add\n              tag_106\n              swap1\n              tag_107\n              jump\t// in\n            tag_106:\n              mload(0x40)\n              dup1\n              swap2\n              sub\n              swap1\n              revert\n            tag_105:\n                /* \"Campaign.sol\":2625:2629  true */\n              0x01\n                /* \"Campaign.sol\":2593:2600  request */\n              dup2\n                /* \"Campaign.sol\":2593:2610  request.approvals */\n              0x04\n              add\n                /* \"Campaign.sol\":2593:2622  request.approvals[msg.sender] */\n              0x00\n                /* \"Campaign.sol\":2611:2621  msg.sender */\n              caller\n                /* \"Campaign.sol\":2593:2622  request.approvals[msg.sender] */\n              0xffffffffffffffffffffffffffffffffffffffff\n              and\n              0xffffffffffffffffffffffffffffffffffffffff\n              and\n              dup2\n              mstore\n              0x20\n              add\n              swap1\n              dup2\n              mstore\n              0x20\n              add\n              0x00\n              keccak256\n              0x00\n                /* \"Campaign.sol\":2593:2629  request.approvals[msg.sender] = true */\n              0x0100\n              exp\n              dup2\n              sload\n              dup2\n              0xff\n              mul\n              not\n              and\n              swap1\n              dup4\n              iszero\n              iszero\n              mul\n              or\n              swap1\n              sstore\n              pop\n                /* \"Campaign.sol\":2640:2647  request */\n              dup1\n                /* \"Campaign.sol\":2640:2661  request.approvalCount */\n              0x03\n              add\n              0x00\n                /* \"Campaign.sol\":2640:2663  request.approvalCount++ */\n              dup2\n              sload\n              dup1\n              swap3\n              swap2\n              swap1\n              tag_108\n              swap1\n              tag_89\n              jump\t// in\n            tag_108:\n              swap2\n              swap1\n              pop\n              sstore\n              pop\n                /* \"Campaign.sol\":2721:2722  2 */\n              0x02\n                /* \"Campaign.sol\":2703:2720  contributorsCount */\n              sload(0x01)\n                /* \"Campaign.sol\":2703:2722  contributorsCount/2 */\n              tag_109\n              swap2\n              swap1\n              tag_110\n              jump\t// in\n            tag_109:\n                /* \"Campaign.sol\":2678:2685  request */\n              dup2\n                /* \"Campaign.sol\":2678:2699  request.approvalCount */\n              0x03\n              add\n              sload\n                /* \"Campaign.sol\":2678:2723  request.approvalCount > (contributorsCount/2) */\n              gt\n                /* \"Campaign.sol\":2678:2744  request.approvalCount > (contributorsCount/2) && !request.complete */\n              dup1\n              iszero\n              tag_111\n              jumpi\n              pop\n                /* \"Campaign.sol\":2728:2735  request */\n              dup1\n                /* \"Campaign.sol\":2728:2744  request.complete */\n              0x02\n              add\n              0x14\n              swap1\n              sload\n              swap1\n              0x0100\n              exp\n              swap1\n              div\n              0xff\n              and\n                /* \"Campaign.sol\":2727:2744  !request.complete */\n              iszero\n                /* \"Campaign.sol\":2678:2744  request.approvalCount > (contributorsCount/2) && !request.complete */\n            tag_111:\n                /* \"Campaign.sol\":2675:2894  if(request.approvalCount > (contributorsCount/2) && !request.complete){... */\n              iszero\n              tag_112\n              jumpi\n                /* \"Campaign.sol\":2779:2783  true */\n              0x01\n                /* \"Campaign.sol\":2760:2767  request */\n              dup2\n                /* \"Campaign.sol\":2760:2776  request.complete */\n              0x02\n              add\n              0x14\n                /* \"Campaign.sol\":2760:2783  request.complete = true */\n              0x0100\n              exp\n              dup2\n              sload\n              dup2\n              0xff\n              mul\n              not\n              and\n              swap1\n              dup4\n              iszero\n              iszero\n              mul\n              or\n              swap1\n              sstore\n              pop\n                /* \"Campaign.sol\":2799:2816  completedRequests */\n              0x03\n              0x00\n                /* \"Campaign.sol\":2799:2818  completedRequests++ */\n              dup2\n              sload\n              dup1\n              swap3\n              swap2\n              swap1\n              tag_113\n              swap1\n              tag_89\n              jump\t// in\n            tag_113:\n              swap2\n              swap1\n              pop\n              sstore\n              pop\n                /* \"Campaign.sol\":2841:2848  request */\n              dup1\n                /* \"Campaign.sol\":2841:2857  request.receiver */\n              0x02\n              add\n              0x00\n              swap1\n              sload\n              swap1\n              0x0100\n              exp\n              swap1\n              div\n              0xffffffffffffffffffffffffffffffffffffffff\n              and\n                /* \"Campaign.sol\":2833:2867  payable(request.receiver).transfer */\n              0xffffffffffffffffffffffffffffffffffffffff\n              and\n                /* \"Campaign.sol\":2833:2882  payable(request.receiver).transfer(request.value) */\n              0x08fc\n                /* \"Campaign.sol\":2868:2875  request */\n              dup3\n                /* \"Campaign.sol\":2868:2881  request.value */\n              0x01\n              add\n              sload\n                /* \"Campaign.sol\":2833:2882  payable(request.receiver).transfer(request.value) */\n              swap1\n              dup2\n              iszero\n              mul\n              swap1\n              mload(0x40)\n              0x00\n              mload(0x40)\n              dup1\n              dup4\n              sub\n              dup2\n              dup6\n              dup9\n              dup9\n              call\n              swap4\n              pop\n              pop\n              pop\n              pop\n              iszero\n              dup1\n              iszero\n              tag_115\n              jumpi\n              returndatasize\n              0x00\n              dup1\n              returndatacopy\n              revert(0x00, returndatasize)\n            tag_115:\n              pop\n                /* \"Campaign.sol\":2675:2894  if(request.approvalCount > (contributorsCount/2) && !request.complete){... */\n            tag_112:\n                /* \"Campaign.sol\":2340:2901  {... */\n              pop\n                /* \"Campaign.sol\":2297:2901  function approveRequest(uint index) public {... */\n              pop\n              jump\t// out\n            tag_91:\n              dup3\n              dup1\n              sload\n              tag_116\n              swap1\n              tag_73\n              jump\t// in\n            tag_116:\n              swap1\n              0x00\n              mstore\n              keccak256(0x00, 0x20)\n              swap1\n              0x1f\n              add\n              0x20\n              swap1\n              div\n              dup2\n              add\n              swap3\n              dup3\n              tag_118\n              jumpi\n              0x00\n              dup6\n              sstore\n              jump(tag_117)\n            tag_118:\n              dup3\n              0x1f\n              lt\n              tag_119\n              jumpi\n              dup1\n              mload\n              not(0xff)\n              and\n              dup4\n              dup1\n              add\n              or\n              dup6\n              sstore\n              jump(tag_117)\n            tag_119:\n              dup3\n              dup1\n              add\n              0x01\n              add\n              dup6\n              sstore\n              dup3\n              iszero\n              tag_117\n              jumpi\n              swap2\n              dup3\n              add\n            tag_120:\n              dup3\n              dup2\n              gt\n              iszero\n              tag_121\n              jumpi\n              dup3\n              mload\n              dup3\n              sstore\n              swap2\n              0x20\n              add\n              swap2\n              swap1\n              0x01\n              add\n              swap1\n              jump(tag_120)\n            tag_121:\n            tag_117:\n              pop\n              swap1\n              pop\n              tag_122\n              swap2\n              swap1\n              tag_123\n              jump\t// in\n            tag_122:\n              pop\n              swap1\n              jump\t// out\n            tag_123:\n            tag_124:\n              dup1\n              dup3\n              gt\n              iszero\n              tag_125\n              jumpi\n              0x00\n              dup2\n              0x00\n              swap1\n              sstore\n              pop\n              0x01\n              add\n              jump(tag_124)\n            tag_125:\n              pop\n              swap1\n              jump\t// out\n                /* \"#utility.yul\":7:106   */\n            tag_126:\n                /* \"#utility.yul\":59:65   */\n              0x00\n                /* \"#utility.yul\":93:98   */\n              dup2\n                /* \"#utility.yul\":87:99   */\n              mload\n                /* \"#utility.yul\":77:99   */\n              swap1\n              pop\n                /* \"#utility.yul\":7:106   */\n              swap2\n              swap1\n              pop\n              jump\t// out\n                /* \"#utility.yul\":112:281   */\n            tag_127:\n                /* \"#utility.yul\":196:207   */\n              0x00\n                /* \"#utility.yul\":230:236   */\n              dup3\n                /* \"#utility.yul\":225:228   */\n              dup3\n                /* \"#utility.yul\":218:237   */\n              mstore\n                /* \"#utility.yul\":270:274   */\n              0x20\n                /* \"#utility.yul\":265:268   */\n              dup3\n                /* \"#utility.yul\":261:275   */\n              add\n                /* \"#utility.yul\":246:275   */\n              swap1\n              pop\n                /* \"#utility.yul\":112:281   */\n              swap3\n              swap2\n              pop\n              pop\n              jump\t// out\n                /* \"#utility.yul\":287:594   */\n            tag_128:\n                /* \"#utility.yul\":355:356   */\n              0x00\n                /* \"#utility.yul\":365:478   */\n            tag_171:\n                /* \"#utility.yul\":379:385   */\n              dup4\n                /* \"#utility.yul\":376:377   */\n              dup2\n                /* \"#utility.yul\":373:386   */\n              lt\n                /* \"#utility.yul\":365:478   */\n              iszero\n              tag_173\n              jumpi\n                /* \"#utility.yul\":464:465   */\n              dup1\n                /* \"#utility.yul\":459:462   */\n              dup3\n                /* \"#utility.yul\":455:466   */\n              add\n                /* \"#utility.yul\":449:467   */\n              mload\n                /* \"#utility.yul\":445:446   */\n              dup2\n                /* \"#utility.yul\":440:443   */\n              dup5\n                /* \"#utility.yul\":436:447   */\n              add\n                /* \"#utility.yul\":429:468   */\n              mstore\n                /* \"#utility.yul\":401:403   */\n              0x20\n                /* \"#utility.yul\":398:399   */\n              dup2\n                /* \"#utility.yul\":394:404   */\n              add\n                /* \"#utility.yul\":389:404   */\n              swap1\n              pop\n                /* \"#utility.yul\":365:478   */\n              jump(tag_171)\n            tag_173:\n                /* \"#utility.yul\":496:502   */\n              dup4\n                /* \"#utility.yul\":493:494   */\n              dup2\n                /* \"#utility.yul\":490:503   */\n              gt\n                /* \"#utility.yul\":487:588   */\n              iszero\n              tag_174\n              jumpi\n                /* \"#utility.yul\":576:577   */\n              0x00\n                /* \"#utility.yul\":567:573   */\n              dup5\n                /* \"#utility.yul\":562:565   */\n              dup5\n                /* \"#utility.yul\":558:574   */\n              add\n                /* \"#utility.yul\":551:578   */\n              mstore\n                /* \"#utility.yul\":487:588   */\n            tag_174:\n                /* \"#utility.yul\":336:594   */\n              pop\n                /* \"#utility.yul\":287:594   */\n              pop\n              pop\n              pop\n              jump\t// out\n                /* \"#utility.yul\":600:702   */\n            tag_129:\n                /* \"#utility.yul\":641:647   */\n              0x00\n                /* \"#utility.yul\":692:694   */\n              0x1f\n                /* \"#utility.yul\":688:695   */\n              not\n                /* \"#utility.yul\":683:685   */\n              0x1f\n                /* \"#utility.yul\":676:681   */\n              dup4\n                /* \"#utility.yul\":672:686   */\n              add\n                /* \"#utility.yul\":668:696   */\n              and\n                /* \"#utility.yul\":658:696   */\n              swap1\n              pop\n                /* \"#utility.yul\":600:702   */\n              swap2\n              swap1\n              pop\n              jump\t// out\n                /* \"#utility.yul\":708:1072   */\n            tag_130:\n                /* \"#utility.yul\":796:799   */\n              0x00\n                /* \"#utility.yul\":824:863   */\n              tag_177\n                /* \"#utility.yul\":857:862   */\n              dup3\n                /* \"#utility.yul\":824:863   */\n              tag_126\n              jump\t// in\n            tag_177:\n                /* \"#utility.yul\":879:950   */\n              tag_178\n                /* \"#utility.yul\":943:949   */\n              dup2\n                /* \"#utility.yul\":938:941   */\n              dup6\n                /* \"#utility.yul\":879:950   */\n              tag_127\n              jump\t// in\n            tag_178:\n                /* \"#utility.yul\":872:950   */\n              swap4\n              pop\n                /* \"#utility.yul\":959:1011   */\n              tag_179\n                /* \"#utility.yul\":1004:1010   */\n              dup2\n                /* \"#utility.yul\":999:1002   */\n              dup6\n                /* \"#utility.yul\":992:996   */\n              0x20\n                /* \"#utility.yul\":985:990   */\n              dup7\n                /* \"#utility.yul\":981:997   */\n              add\n                /* \"#utility.yul\":959:1011   */\n              tag_128\n              jump\t// in\n            tag_179:\n                /* \"#utility.yul\":1036:1065   */\n              tag_180\n                /* \"#utility.yul\":1058:1064   */\n              dup2\n                /* \"#utility.yul\":1036:1065   */\n              tag_129\n              jump\t// in\n            tag_180:\n                /* \"#utility.yul\":1031:1034   */\n              dup5\n                /* \"#utility.yul\":1027:1066   */\n              add\n                /* \"#utility.yul\":1020:1066   */\n              swap2\n              pop\n                /* \"#utility.yul\":800:1072   */\n              pop\n                /* \"#utility.yul\":708:1072   */\n              swap3\n              swap2\n              pop\n              pop\n              jump\t// out\n                /* \"#utility.yul\":1078:1391   */\n            tag_19:\n                /* \"#utility.yul\":1191:1195   */\n              0x00\n                /* \"#utility.yul\":1229:1231   */\n              0x20\n                /* \"#utility.yul\":1218:1227   */\n              dup3\n                /* \"#utility.yul\":1214:1232   */\n              add\n                /* \"#utility.yul\":1206:1232   */\n              swap1\n              pop\n                /* \"#utility.yul\":1278:1287   */\n              dup2\n                /* \"#utility.yul\":1272:1276   */\n              dup2\n                /* \"#utility.yul\":1268:1288   */\n              sub\n                /* \"#utility.yul\":1264:1265   */\n              0x00\n                /* \"#utility.yul\":1253:1262   */\n              dup4\n                /* \"#utility.yul\":1249:1266   */\n              add\n                /* \"#utility.yul\":1242:1289   */\n              mstore\n                /* \"#utility.yul\":1306:1384   */\n              tag_182\n                /* \"#utility.yul\":1379:1383   */\n              dup2\n                /* \"#utility.yul\":1370:1376   */\n              dup5\n                /* \"#utility.yul\":1306:1384   */\n              tag_130\n              jump\t// in\n            tag_182:\n                /* \"#utility.yul\":1298:1384   */\n              swap1\n              pop\n                /* \"#utility.yul\":1078:1391   */\n              swap3\n              swap2\n              pop\n              pop\n              jump\t// out\n                /* \"#utility.yul\":1397:1474   */\n            tag_131:\n                /* \"#utility.yul\":1434:1441   */\n              0x00\n                /* \"#utility.yul\":1463:1468   */\n              dup2\n                /* \"#utility.yul\":1452:1468   */\n              swap1\n              pop\n                /* \"#utility.yul\":1397:1474   */\n              swap2\n              swap1\n              pop\n              jump\t// out\n                /* \"#utility.yul\":1480:1598   */\n            tag_132:\n                /* \"#utility.yul\":1567:1591   */\n              tag_185\n                /* \"#utility.yul\":1585:1590   */\n              dup2\n                /* \"#utility.yul\":1567:1591   */\n              tag_131\n              jump\t// in\n            tag_185:\n                /* \"#utility.yul\":1562:1565   */\n              dup3\n                /* \"#utility.yul\":1555:1592   */\n              mstore\n                /* \"#utility.yul\":1480:1598   */\n              pop\n              pop\n              jump\t// out\n                /* \"#utility.yul\":1604:1826   */\n            tag_24:\n                /* \"#utility.yul\":1697:1701   */\n              0x00\n                /* \"#utility.yul\":1735:1737   */\n              0x20\n                /* \"#utility.yul\":1724:1733   */\n              dup3\n                /* \"#utility.yul\":1720:1738   */\n              add\n                /* \"#utility.yul\":1712:1738   */\n              swap1\n              pop\n                /* \"#utility.yul\":1748:1819   */\n              tag_187\n                /* \"#utility.yul\":1816:1817   */\n              0x00\n                /* \"#utility.yul\":1805:1814   */\n              dup4\n                /* \"#utility.yul\":1801:1818   */\n              add\n                /* \"#utility.yul\":1792:1798   */\n              dup5\n                /* \"#utility.yul\":1748:1819   */\n              tag_132\n              jump\t// in\n            tag_187:\n                /* \"#utility.yul\":1604:1826   */\n              swap3\n              swap2\n              pop\n              pop\n              jump\t// out\n                /* \"#utility.yul\":1832:1907   */\n            tag_133:\n                /* \"#utility.yul\":1865:1871   */\n              0x00\n                /* \"#utility.yul\":1898:1900   */\n              0x40\n                /* \"#utility.yul\":1892:1901   */\n              mload\n                /* \"#utility.yul\":1882:1901   */\n              swap1\n              pop\n                /* \"#utility.yul\":1832:1907   */\n              swap1\n              jump\t// out\n                /* \"#utility.yul\":1913:2030   */\n            tag_134:\n                /* \"#utility.yul\":2022:2023   */\n              0x00\n                /* \"#utility.yul\":2019:2020   */\n              dup1\n                /* \"#utility.yul\":2012:2024   */\n              revert\n                /* \"#utility.yul\":2036:2153   */\n            tag_135:\n                /* \"#utility.yul\":2145:2146   */\n              0x00\n                /* \"#utility.yul\":2142:2143   */\n              dup1\n                /* \"#utility.yul\":2135:2147   */\n              revert\n                /* \"#utility.yul\":2159:2285   */\n            tag_136:\n                /* \"#utility.yul\":2196:2203   */\n              0x00\n                /* \"#utility.yul\":2236:2278   */\n              0xffffffffffffffffffffffffffffffffffffffff\n                /* \"#utility.yul\":2229:2234   */\n              dup3\n                /* \"#utility.yul\":2225:2279   */\n              and\n                /* \"#utility.yul\":2214:2279   */\n              swap1\n              pop\n                /* \"#utility.yul\":2159:2285   */\n              swap2\n              swap1\n              pop\n              jump\t// out\n                /* \"#utility.yul\":2291:2387   */\n            tag_137:\n                /* \"#utility.yul\":2328:2335   */\n              0x00\n                /* \"#utility.yul\":2357:2381   */\n              tag_193\n                /* \"#utility.yul\":2375:2380   */\n              dup3\n                /* \"#utility.yul\":2357:2381   */\n              tag_136\n              jump\t// in\n            tag_193:\n                /* \"#utility.yul\":2346:2381   */\n              swap1\n              pop\n                /* \"#utility.yul\":2291:2387   */\n              swap2\n              swap1\n              pop\n              jump\t// out\n                /* \"#utility.yul\":2393:2515   */\n            tag_138:\n                /* \"#utility.yul\":2466:2490   */\n              tag_195\n                /* \"#utility.yul\":2484:2489   */\n              dup2\n                /* \"#utility.yul\":2466:2490   */\n              tag_137\n              jump\t// in\n            tag_195:\n                /* \"#utility.yul\":2459:2464   */\n              dup2\n                /* \"#utility.yul\":2456:2491   */\n              eq\n                /* \"#utility.yul\":2446:2509   */\n              tag_196\n              jumpi\n                /* \"#utility.yul\":2505:2506   */\n              0x00\n                /* \"#utility.yul\":2502:2503   */\n              dup1\n                /* \"#utility.yul\":2495:2507   */\n              revert\n                /* \"#utility.yul\":2446:2509   */\n            tag_196:\n                /* \"#utility.yul\":2393:2515   */\n              pop\n              jump\t// out\n                /* \"#utility.yul\":2521:2660   */\n            tag_139:\n                /* \"#utility.yul\":2567:2572   */\n              0x00\n                /* \"#utility.yul\":2605:2611   */\n              dup2\n                /* \"#utility.yul\":2592:2612   */\n              calldataload\n                /* \"#utility.yul\":2583:2612   */\n              swap1\n              pop\n                /* \"#utility.yul\":2621:2654   */\n              tag_198\n                /* \"#utility.yul\":2648:2653   */\n              dup2\n                /* \"#utility.yul\":2621:2654   */\n              tag_138\n              jump\t// in\n            tag_198:\n                /* \"#utility.yul\":2521:2660   */\n              swap3\n              swap2\n              pop\n              pop\n              jump\t// out\n                /* \"#utility.yul\":2666:2995   */\n            tag_28:\n                /* \"#utility.yul\":2725:2731   */\n              0x00\n                /* \"#utility.yul\":2774:2776   */\n              0x20\n                /* \"#utility.yul\":2762:2771   */\n              dup3\n                /* \"#utility.yul\":2753:2760   */\n              dup5\n                /* \"#utility.yul\":2749:2772   */\n              sub\n                /* \"#utility.yul\":2745:2777   */\n              slt\n                /* \"#utility.yul\":2742:2861   */\n              iszero\n              tag_200\n              jumpi\n                /* \"#utility.yul\":2780:2859   */\n              tag_201\n              tag_134\n              jump\t// in\n            tag_201:\n                /* \"#utility.yul\":2742:2861   */\n            tag_200:\n                /* \"#utility.yul\":2900:2901   */\n              0x00\n                /* \"#utility.yul\":2925:2978   */\n              tag_202\n                /* \"#utility.yul\":2970:2977   */\n              dup5\n                /* \"#utility.yul\":2961:2967   */\n              dup3\n                /* \"#utility.yul\":2950:2959   */\n              dup6\n                /* \"#utility.yul\":2946:2968   */\n              add\n                /* \"#utility.yul\":2925:2978   */\n              tag_139\n              jump\t// in\n            tag_202:\n                /* \"#utility.yul\":2915:2978   */\n              swap2\n              pop\n                /* \"#utility.yul\":2871:2988   */\n              pop\n                /* \"#utility.yul\":2666:2995   */\n              swap3\n              swap2\n              pop\n              pop\n              jump\t// out\n                /* \"#utility.yul\":3001:3091   */\n            tag_140:\n                /* \"#utility.yul\":3035:3042   */\n              0x00\n                /* \"#utility.yul\":3078:3083   */\n              dup2\n                /* \"#utility.yul\":3071:3084   */\n              iszero\n                /* \"#utility.yul\":3064:3085   */\n              iszero\n                /* \"#utility.yul\":3053:3085   */\n              swap1\n              pop\n                /* \"#utility.yul\":3001:3091   */\n              swap2\n              swap1\n              pop\n              jump\t// out\n                /* \"#utility.yul\":3097:3206   */\n            tag_141:\n                /* \"#utility.yul\":3178:3199   */\n              tag_205\n                /* \"#utility.yul\":3193:3198   */\n              dup2\n                /* \"#utility.yul\":3178:3199   */\n              tag_140\n              jump\t// in\n            tag_205:\n                /* \"#utility.yul\":3173:3176   */\n              dup3\n                /* \"#utility.yul\":3166:3200   */\n              mstore\n                /* \"#utility.yul\":3097:3206   */\n              pop\n              pop\n              jump\t// out\n                /* \"#utility.yul\":3212:3422   */\n            tag_31:\n                /* \"#utility.yul\":3299:3303   */\n              0x00\n                /* \"#utility.yul\":3337:3339   */\n              0x20\n                /* \"#utility.yul\":3326:3335   */\n              dup3\n                /* \"#utility.yul\":3322:3340   */\n              add\n                /* \"#utility.yul\":3314:3340   */\n              swap1\n              pop\n                /* \"#utility.yul\":3350:3415   */\n              tag_207\n                /* \"#utility.yul\":3412:3413   */\n              0x00\n                /* \"#utility.yul\":3401:3410   */\n              dup4\n                /* \"#utility.yul\":3397:3414   */\n              add\n                /* \"#utility.yul\":3388:3394   */\n              dup5\n                /* \"#utility.yul\":3350:3415   */\n              tag_141\n              jump\t// in\n            tag_207:\n                /* \"#utility.yul\":3212:3422   */\n              swap3\n              swap2\n              pop\n              pop\n              jump\t// out\n                /* \"#utility.yul\":3428:3546   */\n            tag_142:\n                /* \"#utility.yul\":3515:3539   */\n              tag_209\n                /* \"#utility.yul\":3533:3538   */\n              dup2\n                /* \"#utility.yul\":3515:3539   */\n              tag_137\n              jump\t// in\n            tag_209:\n                /* \"#utility.yul\":3510:3513   */\n              dup3\n                /* \"#utility.yul\":3503:3540   */\n              mstore\n                /* \"#utility.yul\":3428:3546   */\n              pop\n              pop\n              jump\t// out\n                /* \"#utility.yul\":3552:3774   */\n            tag_40:\n                /* \"#utility.yul\":3645:3649   */\n              0x00\n                /* \"#utility.yul\":3683:3685   */\n              0x20\n                /* \"#utility.yul\":3672:3681   */\n              dup3\n                /* \"#utility.yul\":3668:3686   */\n              add\n                /* \"#utility.yul\":3660:3686   */\n              swap1\n              pop\n                /* \"#utility.yul\":3696:3767   */\n              tag_211\n                /* \"#utility.yul\":3764:3765   */\n              0x00\n                /* \"#utility.yul\":3753:3762   */\n              dup4\n                /* \"#utility.yul\":3749:3766   */\n              add\n                /* \"#utility.yul\":3740:3746   */\n              dup5\n                /* \"#utility.yul\":3696:3767   */\n              tag_142\n              jump\t// in\n            tag_211:\n                /* \"#utility.yul\":3552:3774   */\n              swap3\n              swap2\n              pop\n              pop\n              jump\t// out\n                /* \"#utility.yul\":3780:3902   */\n            tag_143:\n                /* \"#utility.yul\":3853:3877   */\n              tag_213\n                /* \"#utility.yul\":3871:3876   */\n              dup2\n                /* \"#utility.yul\":3853:3877   */\n              tag_131\n              jump\t// in\n            tag_213:\n                /* \"#utility.yul\":3846:3851   */\n              dup2\n                /* \"#utility.yul\":3843:3878   */\n              eq\n                /* \"#utility.yul\":3833:3896   */\n              tag_214\n              jumpi\n                /* \"#utility.yul\":3892:3893   */\n              0x00\n                /* \"#utility.yul\":3889:3890   */\n              dup1\n                /* \"#utility.yul\":3882:3894   */\n              revert\n                /* \"#utility.yul\":3833:3896   */\n            tag_214:\n                /* \"#utility.yul\":3780:3902   */\n              pop\n              jump\t// out\n                /* \"#utility.yul\":3908:4047   */\n            tag_144:\n                /* \"#utility.yul\":3954:3959   */\n              0x00\n                /* \"#utility.yul\":3992:3998   */\n              dup2\n                /* \"#utility.yul\":3979:3999   */\n              calldataload\n                /* \"#utility.yul\":3970:3999   */\n              swap1\n              pop\n                /* \"#utility.yul\":4008:4041   */\n              tag_216\n                /* \"#utility.yul\":4035:4040   */\n              dup2\n                /* \"#utility.yul\":4008:4041   */\n              tag_143\n              jump\t// in\n            tag_216:\n                /* \"#utility.yul\":3908:4047   */\n              swap3\n              swap2\n              pop\n              pop\n              jump\t// out\n                /* \"#utility.yul\":4053:4382   */\n            tag_48:\n                /* \"#utility.yul\":4112:4118   */\n              0x00\n                /* \"#utility.yul\":4161:4163   */\n              0x20\n                /* \"#utility.yul\":4149:4158   */\n              dup3\n                /* \"#utility.yul\":4140:4147   */\n              dup5\n                /* \"#utility.yul\":4136:4159   */\n              sub\n                /* \"#utility.yul\":4132:4164   */\n              slt\n                /* \"#utility.yul\":4129:4248   */\n              iszero\n              tag_218\n              jumpi\n                /* \"#utility.yul\":4167:4246   */\n              tag_219\n              tag_134\n              jump\t// in\n            tag_219:\n                /* \"#utility.yul\":4129:4248   */\n            tag_218:\n                /* \"#utility.yul\":4287:4288   */\n              0x00\n                /* \"#utility.yul\":4312:4365   */\n              tag_220\n                /* \"#utility.yul\":4357:4364   */\n              dup5\n                /* \"#utility.yul\":4348:4354   */\n              dup3\n                /* \"#utility.yul\":4337:4346   */\n              dup6\n                /* \"#utility.yul\":4333:4355   */\n              add\n                /* \"#utility.yul\":4312:4365   */\n              tag_144\n              jump\t// in\n            tag_220:\n                /* \"#utility.yul\":4302:4365   */\n              swap2\n              pop\n                /* \"#utility.yul\":4258:4375   */\n              pop\n                /* \"#utility.yul\":4053:4382   */\n              swap3\n              swap2\n              pop\n              pop\n              jump\t// out\n                /* \"#utility.yul\":4388:5131   */\n            tag_51:\n                /* \"#utility.yul\":4607:4611   */\n              0x00\n                /* \"#utility.yul\":4645:4648   */\n              0xa0\n                /* \"#utility.yul\":4634:4643   */\n              dup3\n                /* \"#utility.yul\":4630:4649   */\n              add\n                /* \"#utility.yul\":4622:4649   */\n              swap1\n              pop\n                /* \"#utility.yul\":4695:4704   */\n              dup2\n                /* \"#utility.yul\":4689:4693   */\n              dup2\n                /* \"#utility.yul\":4685:4705   */\n              sub\n                /* \"#utility.yul\":4681:4682   */\n              0x00\n                /* \"#utility.yul\":4670:4679   */\n              dup4\n                /* \"#utility.yul\":4666:4683   */\n              add\n                /* \"#utility.yul\":4659:4706   */\n              mstore\n                /* \"#utility.yul\":4723:4801   */\n              tag_222\n                /* \"#utility.yul\":4796:4800   */\n              dup2\n                /* \"#utility.yul\":4787:4793   */\n              dup9\n                /* \"#utility.yul\":4723:4801   */\n              tag_130\n              jump\t// in\n            tag_222:\n                /* \"#utility.yul\":4715:4801   */\n              swap1\n              pop\n                /* \"#utility.yul\":4811:4883   */\n              tag_223\n                /* \"#utility.yul\":4879:4881   */\n              0x20\n                /* \"#utility.yul\":4868:4877   */\n              dup4\n                /* \"#utility.yul\":4864:4882   */\n              add\n                /* \"#utility.yul\":4855:4861   */\n              dup8\n                /* \"#utility.yul\":4811:4883   */\n              tag_132\n              jump\t// in\n            tag_223:\n                /* \"#utility.yul\":4893:4965   */\n              tag_224\n                /* \"#utility.yul\":4961:4963   */\n              0x40\n                /* \"#utility.yul\":4950:4959   */\n              dup4\n                /* \"#utility.yul\":4946:4964   */\n              add\n                /* \"#utility.yul\":4937:4943   */\n              dup7\n                /* \"#utility.yul\":4893:4965   */\n              tag_142\n              jump\t// in\n            tag_224:\n                /* \"#utility.yul\":4975:5041   */\n              tag_225\n                /* \"#utility.yul\":5037:5039   */\n              0x60\n                /* \"#utility.yul\":5026:5035   */\n              dup4\n                /* \"#utility.yul\":5022:5040   */\n              add\n                /* \"#utility.yul\":5013:5019   */\n              dup6\n                /* \"#utility.yul\":4975:5041   */\n              tag_141\n              jump\t// in\n            tag_225:\n                /* \"#utility.yul\":5051:5124   */\n              tag_226\n                /* \"#utility.yul\":5119:5122   */\n              0x80\n                /* \"#utility.yul\":5108:5117   */\n              dup4\n                /* \"#utility.yul\":5104:5123   */\n              add\n                /* \"#utility.yul\":5095:5101   */\n              dup5\n                /* \"#utility.yul\":5051:5124   */\n              tag_132\n              jump\t// in\n            tag_226:\n                /* \"#utility.yul\":4388:5131   */\n              swap7\n              swap6\n              pop\n              pop\n              pop\n              pop\n              pop\n              pop\n              jump\t// out\n                /* \"#utility.yul\":5137:5254   */\n            tag_145:\n                /* \"#utility.yul\":5246:5247   */\n              0x00\n                /* \"#utility.yul\":5243:5244   */\n              dup1\n                /* \"#utility.yul\":5236:5248   */\n              revert\n                /* \"#utility.yul\":5260:5377   */\n            tag_146:\n                /* \"#utility.yul\":5369:5370   */\n              0x00\n                /* \"#utility.yul\":5366:5367   */\n              dup1\n                /* \"#utility.yul\":5359:5371   */\n              revert\n                /* \"#utility.yul\":5383:5563   */\n            tag_147:\n                /* \"#utility.yul\":5431:5508   */\n              0x4e487b7100000000000000000000000000000000000000000000000000000000\n                /* \"#utility.yul\":5428:5429   */\n              0x00\n                /* \"#utility.yul\":5421:5509   */\n              mstore\n                /* \"#utility.yul\":5528:5532   */\n              0x41\n                /* \"#utility.yul\":5525:5526   */\n              0x04\n                /* \"#utility.yul\":5518:5533   */\n              mstore\n                /* \"#utility.yul\":5552:5556   */\n              0x24\n                /* \"#utility.yul\":5549:5550   */\n              0x00\n                /* \"#utility.yul\":5542:5557   */\n              revert\n                /* \"#utility.yul\":5569:5850   */\n            tag_148:\n                /* \"#utility.yul\":5652:5679   */\n              tag_231\n                /* \"#utility.yul\":5674:5678   */\n              dup3\n                /* \"#utility.yul\":5652:5679   */\n              tag_129\n              jump\t// in\n            tag_231:\n                /* \"#utility.yul\":5644:5650   */\n              dup2\n                /* \"#utility.yul\":5640:5680   */\n              add\n                /* \"#utility.yul\":5782:5788   */\n              dup2\n                /* \"#utility.yul\":5770:5780   */\n              dup2\n                /* \"#utility.yul\":5767:5789   */\n              lt\n                /* \"#utility.yul\":5746:5764   */\n              0xffffffffffffffff\n                /* \"#utility.yul\":5734:5744   */\n              dup3\n                /* \"#utility.yul\":5731:5765   */\n              gt\n                /* \"#utility.yul\":5728:5790   */\n              or\n                /* \"#utility.yul\":5725:5813   */\n              iszero\n              tag_232\n              jumpi\n                /* \"#utility.yul\":5793:5811   */\n              tag_233\n              tag_147\n              jump\t// in\n            tag_233:\n                /* \"#utility.yul\":5725:5813   */\n            tag_232:\n                /* \"#utility.yul\":5833:5843   */\n              dup1\n                /* \"#utility.yul\":5829:5831   */\n              0x40\n                /* \"#utility.yul\":5822:5844   */\n              mstore\n                /* \"#utility.yul\":5612:5850   */\n              pop\n                /* \"#utility.yul\":5569:5850   */\n              pop\n              pop\n              jump\t// out\n                /* \"#utility.yul\":5856:5985   */\n            tag_149:\n                /* \"#utility.yul\":5890:5896   */\n              0x00\n                /* \"#utility.yul\":5917:5937   */\n              tag_235\n              tag_133\n              jump\t// in\n            tag_235:\n                /* \"#utility.yul\":5907:5937   */\n              swap1\n              pop\n                /* \"#utility.yul\":5946:5979   */\n              tag_236\n                /* \"#utility.yul\":5974:5978   */\n              dup3\n                /* \"#utility.yul\":5966:5972   */\n              dup3\n                /* \"#utility.yul\":5946:5979   */\n              tag_148\n              jump\t// in\n            tag_236:\n                /* \"#utility.yul\":5856:5985   */\n              swap2\n              swap1\n              pop\n              jump\t// out\n                /* \"#utility.yul\":5991:6299   */\n            tag_150:\n                /* \"#utility.yul\":6053:6057   */\n              0x00\n                /* \"#utility.yul\":6143:6161   */\n              0xffffffffffffffff\n                /* \"#utility.yul\":6135:6141   */\n              dup3\n                /* \"#utility.yul\":6132:6162   */\n              gt\n                /* \"#utility.yul\":6129:6185   */\n              iszero\n              tag_238\n              jumpi\n                /* \"#utility.yul\":6165:6183   */\n              tag_239\n              tag_147\n              jump\t// in\n            tag_239:\n                /* \"#utility.yul\":6129:6185   */\n            tag_238:\n                /* \"#utility.yul\":6203:6232   */\n              tag_240\n                /* \"#utility.yul\":6225:6231   */\n              dup3\n                /* \"#utility.yul\":6203:6232   */\n              tag_129\n              jump\t// in\n            tag_240:\n                /* \"#utility.yul\":6195:6232   */\n              swap1\n              pop\n                /* \"#utility.yul\":6287:6291   */\n              0x20\n                /* \"#utility.yul\":6281:6285   */\n              dup2\n                /* \"#utility.yul\":6277:6292   */\n              add\n                /* \"#utility.yul\":6269:6292   */\n              swap1\n              pop\n                /* \"#utility.yul\":5991:6299   */\n              swap2\n              swap1\n              pop\n              jump\t// out\n                /* \"#utility.yul\":6305:6459   */\n            tag_151:\n                /* \"#utility.yul\":6389:6395   */\n              dup3\n                /* \"#utility.yul\":6384:6387   */\n              dup2\n                /* \"#utility.yul\":6379:6382   */\n              dup4\n                /* \"#utility.yul\":6366:6396   */\n              calldatacopy\n                /* \"#utility.yul\":6451:6452   */\n              0x00\n                /* \"#utility.yul\":6442:6448   */\n              dup4\n                /* \"#utility.yul\":6437:6440   */\n              dup4\n                /* \"#utility.yul\":6433:6449   */\n              add\n                /* \"#utility.yul\":6426:6453   */\n              mstore\n                /* \"#utility.yul\":6305:6459   */\n              pop\n              pop\n              pop\n              jump\t// out\n                /* \"#utility.yul\":6465:6877   */\n            tag_152:\n                /* \"#utility.yul\":6543:6548   */\n              0x00\n                /* \"#utility.yul\":6568:6634   */\n              tag_243\n                /* \"#utility.yul\":6584:6633   */\n              tag_244\n                /* \"#utility.yul\":6626:6632   */\n              dup5\n                /* \"#utility.yul\":6584:6633   */\n              tag_150\n              jump\t// in\n            tag_244:\n                /* \"#utility.yul\":6568:6634   */\n              tag_149\n              jump\t// in\n            tag_243:\n                /* \"#utility.yul\":6559:6634   */\n              swap1\n              pop\n                /* \"#utility.yul\":6657:6663   */\n              dup3\n                /* \"#utility.yul\":6650:6655   */\n              dup2\n                /* \"#utility.yul\":6643:6664   */\n              mstore\n                /* \"#utility.yul\":6695:6699   */\n              0x20\n                /* \"#utility.yul\":6688:6693   */\n              dup2\n                /* \"#utility.yul\":6684:6700   */\n              add\n                /* \"#utility.yul\":6733:6736   */\n              dup5\n                /* \"#utility.yul\":6724:6730   */\n              dup5\n                /* \"#utility.yul\":6719:6722   */\n              dup5\n                /* \"#utility.yul\":6715:6731   */\n              add\n                /* \"#utility.yul\":6712:6737   */\n              gt\n                /* \"#utility.yul\":6709:6821   */\n              iszero\n              tag_245\n              jumpi\n                /* \"#utility.yul\":6740:6819   */\n              tag_246\n              tag_146\n              jump\t// in\n            tag_246:\n                /* \"#utility.yul\":6709:6821   */\n            tag_245:\n                /* \"#utility.yul\":6830:6871   */\n              tag_247\n                /* \"#utility.yul\":6864:6870   */\n              dup5\n                /* \"#utility.yul\":6859:6862   */\n              dup3\n                /* \"#utility.yul\":6854:6857   */\n              dup6\n                /* \"#utility.yul\":6830:6871   */\n              tag_151\n              jump\t// in\n            tag_247:\n                /* \"#utility.yul\":6549:6877   */\n              pop\n                /* \"#utility.yul\":6465:6877   */\n              swap4\n              swap3\n              pop\n              pop\n              pop\n              jump\t// out\n                /* \"#utility.yul\":6897:7237   */\n            tag_153:\n                /* \"#utility.yul\":6953:6958   */\n              0x00\n                /* \"#utility.yul\":7002:7005   */\n              dup3\n                /* \"#utility.yul\":6995:6999   */\n              0x1f\n                /* \"#utility.yul\":6987:6993   */\n              dup4\n                /* \"#utility.yul\":6983:7000   */\n              add\n                /* \"#utility.yul\":6979:7006   */\n              slt\n                /* \"#utility.yul\":6969:7091   */\n              tag_249\n              jumpi\n                /* \"#utility.yul\":7010:7089   */\n              tag_250\n              tag_145\n              jump\t// in\n            tag_250:\n                /* \"#utility.yul\":6969:7091   */\n            tag_249:\n                /* \"#utility.yul\":7127:7133   */\n              dup2\n                /* \"#utility.yul\":7114:7134   */\n              calldataload\n                /* \"#utility.yul\":7152:7231   */\n              tag_251\n                /* \"#utility.yul\":7227:7230   */\n              dup5\n                /* \"#utility.yul\":7219:7225   */\n              dup3\n                /* \"#utility.yul\":7212:7216   */\n              0x20\n                /* \"#utility.yul\":7204:7210   */\n              dup7\n                /* \"#utility.yul\":7200:7217   */\n              add\n                /* \"#utility.yul\":7152:7231   */\n              tag_152\n              jump\t// in\n            tag_251:\n                /* \"#utility.yul\":7143:7231   */\n              swap2\n              pop\n                /* \"#utility.yul\":6959:7237   */\n              pop\n                /* \"#utility.yul\":6897:7237   */\n              swap3\n              swap2\n              pop\n              pop\n              jump\t// out\n                /* \"#utility.yul\":7243:8042   */\n            tag_55:\n                /* \"#utility.yul\":7330:7336   */\n              0x00\n                /* \"#utility.yul\":7338:7344   */\n              dup1\n                /* \"#utility.yul\":7346:7352   */\n              0x00\n                /* \"#utility.yul\":7395:7397   */\n              0x60\n                /* \"#utility.yul\":7383:7392   */\n              dup5\n                /* \"#utility.yul\":7374:7381   */\n              dup7\n                /* \"#utility.yul\":7370:7393   */\n              sub\n                /* \"#utility.yul\":7366:7398   */\n              slt\n                /* \"#utility.yul\":7363:7482   */\n              iszero\n              tag_253\n              jumpi\n                /* \"#utility.yul\":7401:7480   */\n              tag_254\n              tag_134\n              jump\t// in\n            tag_254:\n                /* \"#utility.yul\":7363:7482   */\n            tag_253:\n                /* \"#utility.yul\":7549:7550   */\n              0x00\n                /* \"#utility.yul\":7538:7547   */\n              dup5\n                /* \"#utility.yul\":7534:7551   */\n              add\n                /* \"#utility.yul\":7521:7552   */\n              calldataload\n                /* \"#utility.yul\":7579:7597   */\n              0xffffffffffffffff\n                /* \"#utility.yul\":7571:7577   */\n              dup2\n                /* \"#utility.yul\":7568:7598   */\n              gt\n                /* \"#utility.yul\":7565:7682   */\n              iszero\n              tag_255\n              jumpi\n                /* \"#utility.yul\":7601:7680   */\n              tag_256\n              tag_135\n              jump\t// in\n            tag_256:\n                /* \"#utility.yul\":7565:7682   */\n            tag_255:\n                /* \"#utility.yul\":7706:7769   */\n              tag_257\n                /* \"#utility.yul\":7761:7768   */\n              dup7\n                /* \"#utility.yul\":7752:7758   */\n              dup3\n                /* \"#utility.yul\":7741:7750   */\n              dup8\n                /* \"#utility.yul\":7737:7759   */\n              add\n                /* \"#utility.yul\":7706:7769   */\n              tag_153\n              jump\t// in\n            tag_257:\n                /* \"#utility.yul\":7696:7769   */\n              swap4\n              pop\n                /* \"#utility.yul\":7492:7779   */\n              pop\n                /* \"#utility.yul\":7818:7820   */\n              0x20\n                /* \"#utility.yul\":7844:7897   */\n              tag_258\n                /* \"#utility.yul\":7889:7896   */\n              dup7\n                /* \"#utility.yul\":7880:7886   */\n              dup3\n                /* \"#utility.yul\":7869:7878   */\n              dup8\n                /* \"#utility.yul\":7865:7887   */\n              add\n                /* \"#utility.yul\":7844:7897   */\n              tag_144\n              jump\t// in\n            tag_258:\n                /* \"#utility.yul\":7834:7897   */\n              swap3\n              pop\n                /* \"#utility.yul\":7789:7907   */\n              pop\n                /* \"#utility.yul\":7946:7948   */\n              0x40\n                /* \"#utility.yul\":7972:8025   */\n              tag_259\n                /* \"#utility.yul\":8017:8024   */\n              dup7\n                /* \"#utility.yul\":8008:8014   */\n              dup3\n                /* \"#utility.yul\":7997:8006   */\n              dup8\n                /* \"#utility.yul\":7993:8015   */\n              add\n                /* \"#utility.yul\":7972:8025   */\n              tag_139\n              jump\t// in\n            tag_259:\n                /* \"#utility.yul\":7962:8025   */\n              swap2\n              pop\n                /* \"#utility.yul\":7917:8035   */\n              pop\n                /* \"#utility.yul\":7243:8042   */\n              swap3\n              pop\n              swap3\n              pop\n              swap3\n              jump\t// out\n                /* \"#utility.yul\":8048:8823   */\n            tag_65:\n                /* \"#utility.yul\":8281:8285   */\n              0x00\n                /* \"#utility.yul\":8319:8322   */\n              0xc0\n                /* \"#utility.yul\":8308:8317   */\n              dup3\n                /* \"#utility.yul\":8304:8323   */\n              add\n                /* \"#utility.yul\":8296:8323   */\n              swap1\n              pop\n                /* \"#utility.yul\":8333:8404   */\n              tag_261\n                /* \"#utility.yul\":8401:8402   */\n              0x00\n                /* \"#utility.yul\":8390:8399   */\n              dup4\n                /* \"#utility.yul\":8386:8403   */\n              add\n                /* \"#utility.yul\":8377:8383   */\n              dup10\n                /* \"#utility.yul\":8333:8404   */\n              tag_132\n              jump\t// in\n            tag_261:\n                /* \"#utility.yul\":8414:8486   */\n              tag_262\n                /* \"#utility.yul\":8482:8484   */\n              0x20\n                /* \"#utility.yul\":8471:8480   */\n              dup4\n                /* \"#utility.yul\":8467:8485   */\n              add\n                /* \"#utility.yul\":8458:8464   */\n              dup9\n                /* \"#utility.yul\":8414:8486   */\n              tag_132\n              jump\t// in\n            tag_262:\n                /* \"#utility.yul\":8496:8568   */\n              tag_263\n                /* \"#utility.yul\":8564:8566   */\n              0x40\n                /* \"#utility.yul\":8553:8562   */\n              dup4\n                /* \"#utility.yul\":8549:8567   */\n              add\n                /* \"#utility.yul\":8540:8546   */\n              dup8\n                /* \"#utility.yul\":8496:8568   */\n              tag_132\n              jump\t// in\n            tag_263:\n                /* \"#utility.yul\":8578:8650   */\n              tag_264\n                /* \"#utility.yul\":8646:8648   */\n              0x60\n                /* \"#utility.yul\":8635:8644   */\n              dup4\n                /* \"#utility.yul\":8631:8649   */\n              add\n                /* \"#utility.yul\":8622:8628   */\n              dup7\n                /* \"#utility.yul\":8578:8650   */\n              tag_132\n              jump\t// in\n            tag_264:\n                /* \"#utility.yul\":8660:8733   */\n              tag_265\n                /* \"#utility.yul\":8728:8731   */\n              0x80\n                /* \"#utility.yul\":8717:8726   */\n              dup4\n                /* \"#utility.yul\":8713:8732   */\n              add\n                /* \"#utility.yul\":8704:8710   */\n              dup6\n                /* \"#utility.yul\":8660:8733   */\n              tag_142\n              jump\t// in\n            tag_265:\n                /* \"#utility.yul\":8743:8816   */\n              tag_266\n                /* \"#utility.yul\":8811:8814   */\n              0xa0\n                /* \"#utility.yul\":8800:8809   */\n              dup4\n                /* \"#utility.yul\":8796:8815   */\n              add\n                /* \"#utility.yul\":8787:8793   */\n              dup5\n                /* \"#utility.yul\":8743:8816   */\n              tag_132\n              jump\t// in\n            tag_266:\n                /* \"#utility.yul\":8048:8823   */\n              swap8\n              swap7\n              pop\n              pop\n              pop\n              pop\n              pop\n              pop\n              pop\n              jump\t// out\n                /* \"#utility.yul\":8829:9009   */\n            tag_154:\n                /* \"#utility.yul\":8877:8954   */\n              0x4e487b7100000000000000000000000000000000000000000000000000000000\n                /* \"#utility.yul\":8874:8875   */\n              0x00\n                /* \"#utility.yul\":8867:8955   */\n              mstore\n                /* \"#utility.yul\":8974:8978   */\n              0x22\n                /* \"#utility.yul\":8971:8972   */\n              0x04\n                /* \"#utility.yul\":8964:8979   */\n              mstore\n                /* \"#utility.yul\":8998:9002   */\n              0x24\n                /* \"#utility.yul\":8995:8996   */\n              0x00\n                /* \"#utility.yul\":8988:9003   */\n              revert\n                /* \"#utility.yul\":9015:9335   */\n            tag_73:\n                /* \"#utility.yul\":9059:9065   */\n              0x00\n                /* \"#utility.yul\":9096:9097   */\n              0x02\n                /* \"#utility.yul\":9090:9094   */\n              dup3\n                /* \"#utility.yul\":9086:9098   */\n              div\n                /* \"#utility.yul\":9076:9098   */\n              swap1\n              pop\n                /* \"#utility.yul\":9143:9144   */\n              0x01\n                /* \"#utility.yul\":9137:9141   */\n              dup3\n                /* \"#utility.yul\":9133:9145   */\n              and\n                /* \"#utility.yul\":9164:9182   */\n              dup1\n                /* \"#utility.yul\":9154:9235   */\n              tag_269\n              jumpi\n                /* \"#utility.yul\":9220:9224   */\n              0x7f\n                /* \"#utility.yul\":9212:9218   */\n              dup3\n                /* \"#utility.yul\":9208:9225   */\n              and\n                /* \"#utility.yul\":9198:9225   */\n              swap2\n              pop\n                /* \"#utility.yul\":9154:9235   */\n            tag_269:\n                /* \"#utility.yul\":9282:9284   */\n              0x20\n                /* \"#utility.yul\":9274:9280   */\n              dup3\n                /* \"#utility.yul\":9271:9285   */\n              lt\n                /* \"#utility.yul\":9251:9269   */\n              dup2\n                /* \"#utility.yul\":9248:9286   */\n              eq\n                /* \"#utility.yul\":9245:9329   */\n              iszero\n              tag_270\n              jumpi\n                /* \"#utility.yul\":9301:9319   */\n              tag_271\n              tag_154\n              jump\t// in\n            tag_271:\n                /* \"#utility.yul\":9245:9329   */\n            tag_270:\n                /* \"#utility.yul\":9066:9335   */\n              pop\n                /* \"#utility.yul\":9015:9335   */\n              swap2\n              swap1\n              pop\n              jump\t// out\n                /* \"#utility.yul\":9341:9568   */\n            tag_155:\n                /* \"#utility.yul\":9481:9515   */\n              0x4f6e6c7920746865204d616e616765722063616e20706572666f726d20746869\n                /* \"#utility.yul\":9477:9478   */\n              0x00\n                /* \"#utility.yul\":9469:9475   */\n              dup3\n                /* \"#utility.yul\":9465:9479   */\n              add\n                /* \"#utility.yul\":9458:9516   */\n              mstore\n                /* \"#utility.yul\":9550:9560   */\n              0x7320616374696f6e000000000000000000000000000000000000000000000000\n                /* \"#utility.yul\":9545:9547   */\n              0x20\n                /* \"#utility.yul\":9537:9543   */\n              dup3\n                /* \"#utility.yul\":9533:9548   */\n              add\n                /* \"#utility.yul\":9526:9561   */\n              mstore\n                /* \"#utility.yul\":9341:9568   */\n              pop\n              jump\t// out\n                /* \"#utility.yul\":9574:9940   */\n            tag_156:\n                /* \"#utility.yul\":9716:9719   */\n              0x00\n                /* \"#utility.yul\":9737:9804   */\n              tag_274\n                /* \"#utility.yul\":9801:9803   */\n              0x28\n                /* \"#utility.yul\":9796:9799   */\n              dup4\n                /* \"#utility.yul\":9737:9804   */\n              tag_127\n              jump\t// in\n            tag_274:\n                /* \"#utility.yul\":9730:9804   */\n              swap2\n              pop\n                /* \"#utility.yul\":9813:9906   */\n              tag_275\n                /* \"#utility.yul\":9902:9905   */\n              dup3\n                /* \"#utility.yul\":9813:9906   */\n              tag_155\n              jump\t// in\n            tag_275:\n                /* \"#utility.yul\":9931:9933   */\n              0x40\n                /* \"#utility.yul\":9926:9929   */\n              dup3\n                /* \"#utility.yul\":9922:9934   */\n              add\n                /* \"#utility.yul\":9915:9934   */\n              swap1\n              pop\n                /* \"#utility.yul\":9574:9940   */\n              swap2\n              swap1\n              pop\n              jump\t// out\n                /* \"#utility.yul\":9946:10365   */\n            tag_86:\n                /* \"#utility.yul\":10112:10116   */\n              0x00\n                /* \"#utility.yul\":10150:10152   */\n              0x20\n                /* \"#utility.yul\":10139:10148   */\n              dup3\n                /* \"#utility.yul\":10135:10153   */\n              add\n                /* \"#utility.yul\":10127:10153   */\n              swap1\n              pop\n                /* \"#utility.yul\":10199:10208   */\n              dup2\n                /* \"#utility.yul\":10193:10197   */\n              dup2\n                /* \"#utility.yul\":10189:10209   */\n              sub\n                /* \"#utility.yul\":10185:10186   */\n              0x00\n                /* \"#utility.yul\":10174:10183   */\n              dup4\n                /* \"#utility.yul\":10170:10187   */\n              add\n                /* \"#utility.yul\":10163:10210   */\n              mstore\n                /* \"#utility.yul\":10227:10358   */\n              tag_277\n                /* \"#utility.yul\":10353:10357   */\n              dup2\n                /* \"#utility.yul\":10227:10358   */\n              tag_156\n              jump\t// in\n            tag_277:\n                /* \"#utility.yul\":10219:10358   */\n              swap1\n              pop\n                /* \"#utility.yul\":9946:10365   */\n              swap2\n              swap1\n              pop\n              jump\t// out\n                /* \"#utility.yul\":10371:10551   */\n            tag_157:\n                /* \"#utility.yul\":10419:10496   */\n              0x4e487b7100000000000000000000000000000000000000000000000000000000\n                /* \"#utility.yul\":10416:10417   */\n              0x00\n                /* \"#utility.yul\":10409:10497   */\n              mstore\n                /* \"#utility.yul\":10516:10520   */\n              0x11\n                /* \"#utility.yul\":10513:10514   */\n              0x04\n                /* \"#utility.yul\":10506:10521   */\n              mstore\n                /* \"#utility.yul\":10540:10544   */\n              0x24\n                /* \"#utility.yul\":10537:10538   */\n              0x00\n                /* \"#utility.yul\":10530:10545   */\n              revert\n                /* \"#utility.yul\":10557:10790   */\n            tag_89:\n                /* \"#utility.yul\":10596:10599   */\n              0x00\n                /* \"#utility.yul\":10619:10643   */\n              tag_280\n                /* \"#utility.yul\":10637:10642   */\n              dup3\n                /* \"#utility.yul\":10619:10643   */\n              tag_131\n              jump\t// in\n            tag_280:\n                /* \"#utility.yul\":10610:10643   */\n              swap2\n              pop\n                /* \"#utility.yul\":10665:10731   */\n              0xffffffffffffffffffffffffffffffffffffffffffffffffffffffffffffffff\n                /* \"#utility.yul\":10658:10663   */\n              dup3\n                /* \"#utility.yul\":10655:10732   */\n              eq\n                /* \"#utility.yul\":10652:10755   */\n              iszero\n              tag_281\n              jumpi\n                /* \"#utility.yul\":10735:10753   */\n              tag_282\n              tag_157\n              jump\t// in\n            tag_282:\n                /* \"#utility.yul\":10652:10755   */\n            tag_281:\n                /* \"#utility.yul\":10782:10783   */\n              0x01\n                /* \"#utility.yul\":10775:10780   */\n              dup3\n                /* \"#utility.yul\":10771:10784   */\n              add\n                /* \"#utility.yul\":10764:10784   */\n              swap1\n              pop\n                /* \"#utility.yul\":10557:10790   */\n              swap2\n              swap1\n              pop\n              jump\t// out\n                /* \"#utility.yul\":10796:11028   */\n            tag_158:\n                /* \"#utility.yul\":10936:10970   */\n              0x596f757220636f6e747269627574696f6e2069732062656c6f7720746865206d\n                /* \"#utility.yul\":10932:10933   */\n              0x00\n                /* \"#utility.yul\":10924:10930   */\n              dup3\n                /* \"#utility.yul\":10920:10934   */\n              add\n                /* \"#utility.yul\":10913:10971   */\n              mstore\n                /* \"#utility.yul\":11005:11020   */\n              0x696e696d756d20616d6f756e7400000000000000000000000000000000000000\n                /* \"#utility.yul\":11000:11002   */\n              0x20\n                /* \"#utility.yul\":10992:10998   */\n              dup3\n                /* \"#utility.yul\":10988:11003   */\n              add\n                /* \"#utility.yul\":10981:11021   */\n              mstore\n                /* \"#utility.yul\":10796:11028   */\n              pop\n              jump\t// out\n                /* \"#utility.yul\":11034:11400   */\n            tag_159:\n                /* \"#utility.yul\":11176:11179   */\n              0x00\n                /* \"#utility.yul\":11197:11264   */\n              tag_285\n                /* \"#utility.yul\":11261:11263   */\n              0x2d\n                /* \"#utility.yul\":11256:11259   */\n              dup4\n                /* \"#utility.yul\":11197:11264   */\n              tag_127\n              jump\t// in\n            tag_285:\n                /* \"#utility.yul\":11190:11264   */\n              swap2\n              pop\n                /* \"#utility.yul\":11273:11366   */\n              tag_286\n                /* \"#utility.yul\":11362:11365   */\n              dup3\n                /* \"#utility.yul\":11273:11366   */\n              tag_158\n              jump\t// in\n            tag_286:\n                /* \"#utility.yul\":11391:11393   */\n              0x40\n                /* \"#utility.yul\":11386:11389   */\n              dup3\n                /* \"#utility.yul\":11382:11394   */\n              add\n                /* \"#utility.yul\":11375:11394   */\n              swap1\n              pop\n                /* \"#utility.yul\":11034:11400   */\n              swap2\n              swap1\n              pop\n              jump\t// out\n                /* \"#utility.yul\":11406:11825   */\n            tag_96:\n                /* \"#utility.yul\":11572:11576   */\n              0x00\n                /* \"#utility.yul\":11610:11612   */\n              0x20\n                /* \"#utility.yul\":11599:11608   */\n              dup3\n                /* \"#utility.yul\":11595:11613   */\n              add\n                /* \"#utility.yul\":11587:11613   */\n              swap1\n              pop\n                /* \"#utility.yul\":11659:11668   */\n              dup2\n                /* \"#utility.yul\":11653:11657   */\n              dup2\n                /* \"#utility.yul\":11649:11669   */\n              sub\n                /* \"#utility.yul\":11645:11646   */\n              0x00\n                /* \"#utility.yul\":11634:11643   */\n              dup4\n                /* \"#utility.yul\":11630:11647   */\n              add\n                /* \"#utility.yul\":11623:11670   */\n              mstore\n                /* \"#utility.yul\":11687:11818   */\n              tag_288\n                /* \"#utility.yul\":11813:11817   */\n              dup2\n                /* \"#utility.yul\":11687:11818   */\n              tag_159\n              jump\t// in\n            tag_288:\n                /* \"#utility.yul\":11679:11818   */\n              swap1\n              pop\n                /* \"#utility.yul\":11406:11825   */\n              swap2\n              swap1\n              pop\n              jump\t// out\n                /* \"#utility.yul\":11831:12009   */\n            tag_160:\n                /* \"#utility.yul\":11971:12001   */\n              0x596f75206861766520616c726561647920636f6e747269627574656400000000\n                /* \"#utility.yul\":11967:11968   */\n              0x00\n                /* \"#utility.yul\":11959:11965   */\n              dup3\n                /* \"#utility.yul\":11955:11969   */\n              add\n                /* \"#utility.yul\":11948:12002   */\n              mstore\n                /* \"#utility.yul\":11831:12009   */\n              pop\n              jump\t// out\n                /* \"#utility.yul\":12015:12381   */\n            tag_161:\n                /* \"#utility.yul\":12157:12160   */\n              0x00\n                /* \"#utility.yul\":12178:12245   */\n              tag_291\n                /* \"#utility.yul\":12242:12244   */\n              0x1c\n                /* \"#utility.yul\":12237:12240   */\n              dup4\n                /* \"#utility.yul\":12178:12245   */\n              tag_127\n              jump\t// in\n            tag_291:\n                /* \"#utility.yul\":12171:12245   */\n              swap2\n              pop\n                /* \"#utility.yul\":12254:12347   */\n              tag_292\n                /* \"#utility.yul\":12343:12346   */\n              dup3\n                /* \"#utility.yul\":12254:12347   */\n              tag_160\n              jump\t// in\n            tag_292:\n                /* \"#utility.yul\":12372:12374   */\n              0x20\n                /* \"#utility.yul\":12367:12370   */\n              dup3\n                /* \"#utility.yul\":12363:12375   */\n              add\n                /* \"#utility.yul\":12356:12375   */\n              swap1\n              pop\n                /* \"#utility.yul\":12015:12381   */\n              swap2\n              swap1\n              pop\n              jump\t// out\n                /* \"#utility.yul\":12387:12806   */\n            tag_99:\n                /* \"#utility.yul\":12553:12557   */\n              0x00\n                /* \"#utility.yul\":12591:12593   */\n              0x20\n                /* \"#utility.yul\":12580:12589   */\n              dup3\n                /* \"#utility.yul\":12576:12594   */\n              add\n                /* \"#utility.yul\":12568:12594   */\n              swap1\n              pop\n                /* \"#utility.yul\":12640:12649   */\n              dup2\n                /* \"#utility.yul\":12634:12638   */\n              dup2\n                /* \"#utility.yul\":12630:12650   */\n              sub\n                /* \"#utility.yul\":12626:12627   */\n              0x00\n                /* \"#utility.yul\":12615:12624   */\n              dup4\n                /* \"#utility.yul\":12611:12628   */\n              add\n                /* \"#utility.yul\":12604:12651   */\n              mstore\n                /* \"#utility.yul\":12668:12799   */\n              tag_294\n                /* \"#utility.yul\":12794:12798   */\n              dup2\n                /* \"#utility.yul\":12668:12799   */\n              tag_161\n              jump\t// in\n            tag_294:\n                /* \"#utility.yul\":12660:12799   */\n              swap1\n              pop\n                /* \"#utility.yul\":12387:12806   */\n              swap2\n              swap1\n              pop\n              jump\t// out\n                /* \"#utility.yul\":12812:13041   */\n            tag_162:\n                /* \"#utility.yul\":12952:12986   */\n              0x4f6e6c7920436f6e7472696275746f72732063616e20617070726f7665207468\n                /* \"#utility.yul\":12948:12949   */\n              0x00\n                /* \"#utility.yul\":12940:12946   */\n              dup3\n                /* \"#utility.yul\":12936:12950   */\n              add\n                /* \"#utility.yul\":12929:12987   */\n              mstore\n                /* \"#utility.yul\":13021:13033   */\n              0x6973205265717565737400000000000000000000000000000000000000000000\n                /* \"#utility.yul\":13016:13018   */\n              0x20\n                /* \"#utility.yul\":13008:13014   */\n              dup3\n                /* \"#utility.yul\":13004:13019   */\n              add\n                /* \"#utility.yul\":12997:13034   */\n              mstore\n                /* \"#utility.yul\":12812:13041   */\n              pop\n              jump\t// out\n                /* \"#utility.yul\":13047:13413   */\n            tag_163:\n                /* \"#utility.yul\":13189:13192   */\n              0x00\n                /* \"#utility.yul\":13210:13277   */\n              tag_297\n                /* \"#utility.yul\":13274:13276   */\n              0x2a\n                /* \"#utility.yul\":13269:13272   */\n              dup4\n                /* \"#utility.yul\":13210:13277   */\n              tag_127\n              jump\t// in\n            tag_297:\n                /* \"#utility.yul\":13203:13277   */\n              swap2\n              pop\n                /* \"#utility.yul\":13286:13379   */\n              tag_298\n                /* \"#utility.yul\":13375:13378   */\n              dup3\n                /* \"#utility.yul\":13286:13379   */\n              tag_162\n              jump\t// in\n            tag_298:\n                /* \"#utility.yul\":13404:13406   */\n              0x40\n                /* \"#utility.yul\":13399:13402   */\n              dup3\n                /* \"#utility.yul\":13395:13407   */\n              add\n                /* \"#utility.yul\":13388:13407   */\n              swap1\n              pop\n                /* \"#utility.yul\":13047:13413   */\n              swap2\n              swap1\n              pop\n              jump\t// out\n                /* \"#utility.yul\":13419:13838   */\n            tag_104:\n                /* \"#utility.yul\":13585:13589   */\n              0x00\n                /* \"#utility.yul\":13623:13625   */\n              0x20\n                /* \"#utility.yul\":13612:13621   */\n              dup3\n                /* \"#utility.yul\":13608:13626   */\n              add\n                /* \"#utility.yul\":13600:13626   */\n              swap1\n              pop\n                /* \"#utility.yul\":13672:13681   */\n              dup2\n                /* \"#utility.yul\":13666:13670   */\n              dup2\n                /* \"#utility.yul\":13662:13682   */\n              sub\n                /* \"#utility.yul\":13658:13659   */\n              0x00\n                /* \"#utility.yul\":13647:13656   */\n              dup4\n                /* \"#utility.yul\":13643:13660   */\n              add\n                /* \"#utility.yul\":13636:13683   */\n              mstore\n                /* \"#utility.yul\":13700:13831   */\n              tag_300\n                /* \"#utility.yul\":13826:13830   */\n              dup2\n                /* \"#utility.yul\":13700:13831   */\n              tag_163\n              jump\t// in\n            tag_300:\n                /* \"#utility.yul\":13692:13831   */\n              swap1\n              pop\n                /* \"#utility.yul\":13419:13838   */\n              swap2\n              swap1\n              pop\n              jump\t// out\n                /* \"#utility.yul\":13844:14069   */\n            tag_164:\n                /* \"#utility.yul\":13984:14018   */\n              0x596f75206861766520616c726561647920617070726f76656420746869732052\n                /* \"#utility.yul\":13980:13981   */\n              0x00\n                /* \"#utility.yul\":13972:13978   */\n              dup3\n                /* \"#utility.yul\":13968:13982   */\n              add\n                /* \"#utility.yul\":13961:14019   */\n              mstore\n                /* \"#utility.yul\":14053:14061   */\n              0x6571756573740000000000000000000000000000000000000000000000000000\n                /* \"#utility.yul\":14048:14050   */\n              0x20\n                /* \"#utility.yul\":14040:14046   */\n              dup3\n                /* \"#utility.yul\":14036:14051   */\n              add\n                /* \"#utility.yul\":14029:14062   */\n              mstore\n                /* \"#utility.yul\":13844:14069   */\n              pop\n              jump\t// out\n                /* \"#utility.yul\":14075:14441   */\n            tag_165:\n                /* \"#utility.yul\":14217:14220   */\n              0x00\n                /* \"#utility.yul\":14238:14305   */\n              tag_303\n                /* \"#utility.yul\":14302:14304   */\n              0x26\n                /* \"#utility.yul\":14297:14300   */\n              dup4\n                /* \"#utility.yul\":14238:14305   */\n              tag_127\n              jump\t// in\n            tag_303:\n                /* \"#utility.yul\":14231:14305   */\n              swap2\n              pop\n                /* \"#utility.yul\":14314:14407   */\n              tag_304\n                /* \"#utility.yul\":14403:14406   */\n              dup3\n                /* \"#utility.yul\":14314:14407   */\n              tag_164\n              jump\t// in\n            tag_304:\n                /* \"#utility.yul\":14432:14434   */\n              0x40\n                /* \"#utility.yul\":14427:14430   */\n              dup3\n                /* \"#utility.yul\":14423:14435   */\n              add\n                /* \"#utility.yul\":14416:14435   */\n              swap1\n              pop\n                /* \"#utility.yul\":14075:14441   */\n              swap2\n              swap1\n              pop\n              jump\t// out\n                /* \"#utility.yul\":14447:14866   */\n            tag_107:\n                /* \"#utility.yul\":14613:14617   */\n              0x00\n                /* \"#utility.yul\":14651:14653   */\n              0x20\n                /* \"#utility.yul\":14640:14649   */\n              dup3\n                /* \"#utility.yul\":14636:14654   */\n              add\n                /* \"#utility.yul\":14628:14654   */\n              swap1\n              pop\n                /* \"#utility.yul\":14700:14709   */\n              dup2\n                /* \"#utility.yul\":14694:14698   */\n              dup2\n                /* \"#utility.yul\":14690:14710   */\n              sub\n                /* \"#utility.yul\":14686:14687   */\n              0x00\n                /* \"#utility.yul\":14675:14684   */\n              dup4\n                /* \"#utility.yul\":14671:14688   */\n              add\n                /* \"#utility.yul\":14664:14711   */\n              mstore\n                /* \"#utility.yul\":14728:14859   */\n              tag_306\n                /* \"#utility.yul\":14854:14858   */\n              dup2\n                /* \"#utility.yul\":14728:14859   */\n              tag_165\n              jump\t// in\n            tag_306:\n                /* \"#utility.yul\":14720:14859   */\n              swap1\n              pop\n                /* \"#utility.yul\":14447:14866   */\n              swap2\n              swap1\n              pop\n              jump\t// out\n                /* \"#utility.yul\":14872:15052   */\n            tag_166:\n                /* \"#utility.yul\":14920:14997   */\n              0x4e487b7100000000000000000000000000000000000000000000000000000000\n                /* \"#utility.yul\":14917:14918   */\n              0x00\n                /* \"#utility.yul\":14910:14998   */\n              mstore\n                /* \"#utility.yul\":15017:15021   */\n              0x12\n                /* \"#utility.yul\":15014:15015   */\n              0x04\n                /* \"#utility.yul\":15007:15022   */\n              mstore\n                /* \"#utility.yul\":15041:15045   */\n              0x24\n                /* \"#utility.yul\":15038:15039   */\n              0x00\n                /* \"#utility.yul\":15031:15046   */\n              revert\n                /* \"#utility.yul\":15058:15243   */\n            tag_110:\n                /* \"#utility.yul\":15098:15099   */\n              0x00\n                /* \"#utility.yul\":15115:15135   */\n              tag_309\n                /* \"#utility.yul\":15133:15134   */\n              dup3\n                /* \"#utility.yul\":15115:15135   */\n              tag_131\n              jump\t// in\n            tag_309:\n                /* \"#utility.yul\":15110:15135   */\n              swap2\n              pop\n                /* \"#utility.yul\":15149:15169   */\n              tag_310\n                /* \"#utility.yul\":15167:15168   */\n              dup4\n                /* \"#utility.yul\":15149:15169   */\n              tag_131\n              jump\t// in\n            tag_310:\n                /* \"#utility.yul\":15144:15169   */\n              swap3\n              pop\n                /* \"#utility.yul\":15188:15189   */\n              dup3\n                /* \"#utility.yul\":15178:15213   */\n              tag_311\n              jumpi\n                /* \"#utility.yul\":15193:15211   */\n              tag_312\n              tag_166\n              jump\t// in\n            tag_312:\n                /* \"#utility.yul\":15178:15213   */\n            tag_311:\n                /* \"#utility.yul\":15235:15236   */\n              dup3\n                /* \"#utility.yul\":15232:15233   */\n              dup3\n                /* \"#utility.yul\":15228:15237   */\n              div\n                /* \"#utility.yul\":15223:15237   */\n              swap1\n              pop\n                /* \"#utility.yul\":15058:15243   */\n              swap3\n              swap2\n              pop\n              pop\n              jump\t// out\n\n            auxdata: 0xa26469706673582212207f252eef0a187c6b4d484a1968c0df82af041963abfc888d3bfdbc169520549c64736f6c634300080b0033\n        }\n    }\n\n    auxdata: 0xa26469706673582212204df0b96b6b9701af177de740e4e6524334f91963e0cf4e03e0a9f42254e7aa1164736f6c634300080b0033\n}\n","bytecode":{"linkReferences":{},"object":"608060405234801561001057600080fd5b50612301806100206000396000f3fe60806040523480156200001157600080fd5b50600436106200005e5760003560e01c80630724fda9146200006357806334d4ab2b14620000855780634220d65614620000bb5780634acb9d4f14620000db5780635ce0144114620000fd575b600080fd5b6200006d62000133565b6040516200007c9190620005bb565b60405180910390f35b620000a360048036038101906200009d919062000658565b620001c9565b604051620000b29190620005bb565b60405180910390f35b620000d96004803603810190620000d3919062000816565b62000271565b005b620000e562000389565b604051620000f491906200094a565b60405180910390f35b6200011b60048036038101906200011591906200096e565b62000419565b6040516200012a9190620009b1565b60405180910390f35b600080546200014290620009fd565b80601f01602080910402602001604051908101604052809291908181526020018280546200017090620009fd565b8015620001c15780601f106200019557610100808354040283529160200191620001c1565b820191906000526020600020905b815481529060010190602001808311620001a357829003601f168201915b505050505081565b60026020528060005260406000206000915090508054620001ea90620009fd565b80601f01602080910402602001604051908101604052809291908181526020018280546200021890620009fd565b8015620002695780601f106200023d5761010080835404028352916020019162000269565b820191906000526020600020905b8154815290600101906020018083116200024b57829003601f168201915b505050505081565b80600090805190602001906200028992919062000459565b5060008233836040516200029d90620004ea565b620002ab9392919062000a44565b604051809103906000f080158015620002c8573d6000803e3d6000fd5b5090506001819080600181540180825580915050600190039060005260206000200160009091909190916101000a81548173ffffffffffffffffffffffffffffffffffffffff021916908373ffffffffffffffffffffffffffffffffffffffff16021790555081600260008373ffffffffffffffffffffffffffffffffffffffff1673ffffffffffffffffffffffffffffffffffffffff16815260200190815260200160002090805190602001906200038392919062000459565b50505050565b606060018054806020026020016040519081016040528092919081815260200182805480156200040f57602002820191906000526020600020905b8160009054906101000a900473ffffffffffffffffffffffffffffffffffffffff1673ffffffffffffffffffffffffffffffffffffffff1681526020019060010190808311620003c4575b5050505050905090565b600181815481106200042a57600080fd5b906000526020600020016000915054906101000a900473ffffffffffffffffffffffffffffffffffffffff1681565b8280546200046790620009fd565b90600052602060002090601f0160209004810192826200048b5760008555620004d7565b82601f10620004a657805160ff1916838001178555620004d7565b82800160010185558215620004d7579182015b82811115620004d6578251825591602001919060010190620004b9565b5b509050620004e69190620004f8565b5090565b6118438062000a8983390190565b5b8082111562000513576000816000905550600101620004f9565b5090565b600081519050919050565b600082825260208201905092915050565b60005b838110156200055357808201518184015260208101905062000536565b8381111562000563576000848401525b50505050565b6000601f19601f8301169050919050565b6000620005878262000517565b62000593818562000522565b9350620005a581856020860162000533565b620005b08162000569565b840191505092915050565b60006020820190508181036000830152620005d781846200057a565b905092915050565b6000604051905090565b600080fd5b600080fd5b600073ffffffffffffffffffffffffffffffffffffffff82169050919050565b60006200062082620005f3565b9050919050565b620006328162000613565b81146200063e57600080fd5b50565b600081359050620006528162000627565b92915050565b600060208284031215620006715762000670620005e9565b5b6000620006818482850162000641565b91505092915050565b6000819050919050565b6200069f816200068a565b8114620006ab57600080fd5b50565b600081359050620006bf8162000694565b92915050565b600080fd5b600080fd5b7f4e487b7100000000000000000000000000000000000000000000000000000000600052604160045260246000fd5b620007098262000569565b810181811067ffffffffffffffff821117156200072b576200072a620006cf565b5b80604052505050565b600062000740620005df565b90506200074e8282620006fe565b919050565b600067ffffffffffffffff821115620007715762000770620006cf565b5b6200077c8262000569565b9050602081019050919050565b82818337600083830152505050565b6000620007af620007a98462000753565b62000734565b905082815260208101848484011115620007ce57620007cd620006ca565b5b620007db84828562000789565b509392505050565b600082601f830112620007fb57620007fa620006c5565b5b81356200080d84826020860162000798565b91505092915050565b6000806040838503121562000830576200082f620005e9565b5b60006200084085828601620006ae565b925050602083013567ffffffffffffffff811115620008645762000863620005ee565b5b6200087285828601620007e3565b9150509250929050565b600081519050919050565b600082825260208201905092915050565b6000819050602082019050919050565b620008b38162000613565b82525050565b6000620008c78383620008a8565b60208301905092915050565b6000602082019050919050565b6000620008ed826200087c565b620008f9818562000887565b9350620009068362000898565b8060005b838110156200093d578151620009218882620008b9565b97506200092e83620008d3565b9250506001810190506200090a565b5085935050505092915050565b60006020820190508181036000830152620009668184620008e0565b905092915050565b600060208284031215620009875762000986620005e9565b5b60006200099784828501620006ae565b91505092915050565b620009ab8162000613565b82525050565b6000602082019050620009c86000830184620009a0565b92915050565b7f4e487b7100000000000000000000000000000000000000000000000000000000600052602260045260246000fd5b6000600282049050600182168062000a1657607f821691505b6020821081141562000a2d5762000a2c620009ce565b5b50919050565b62000a3e816200068a565b82525050565b600060608201905062000a5b600083018662000a33565b62000a6a6020830185620009a0565b818103604083015262000a7e81846200057a565b905094935050505056fe60806040523480156200001157600080fd5b50604051620018433803806200184383398181016040528101906200003791906200038e565b81600560006101000a81548173ffffffffffffffffffffffffffffffffffffffff021916908373ffffffffffffffffffffffffffffffffffffffff16021790555082600681905550806000908051906020019062000097929190620000a1565b505050506200046e565b828054620000af9062000438565b90600052602060002090601f016020900481019282620000d357600085556200011f565b82601f10620000ee57805160ff19168380011785556200011f565b828001600101855582156200011f579182015b828111156200011e57825182559160200191906001019062000101565b5b5090506200012e919062000132565b5090565b5b808211156200014d57600081600090555060010162000133565b5090565b6000604051905090565b600080fd5b600080fd5b6000819050919050565b6200017a8162000165565b81146200018657600080fd5b50565b6000815190506200019a816200016f565b92915050565b600073ffffffffffffffffffffffffffffffffffffffff82169050919050565b6000620001cd82620001a0565b9050919050565b620001df81620001c0565b8114620001eb57600080fd5b50565b600081519050620001ff81620001d4565b92915050565b600080fd5b600080fd5b6000601f19601f8301169050919050565b7f4e487b7100000000000000000000000000000000000000000000000000000000600052604160045260246000fd5b6200025a826200020f565b810181811067ffffffffffffffff821117156200027c576200027b62000220565b5b80604052505050565b60006200029162000151565b90506200029f82826200024f565b919050565b600067ffffffffffffffff821115620002c257620002c162000220565b5b620002cd826200020f565b9050602081019050919050565b60005b83811015620002fa578082015181840152602081019050620002dd565b838111156200030a576000848401525b50505050565b6000620003276200032184620002a4565b62000285565b9050828152602081018484840111156200034657620003456200020a565b5b62000353848285620002da565b509392505050565b600082601f83011262000373576200037262000205565b5b81516200038584826020860162000310565b91505092915050565b600080600060608486031215620003aa57620003a96200015b565b5b6000620003ba8682870162000189565b9350506020620003cd86828701620001ee565b925050604084015167ffffffffffffffff811115620003f157620003f062000160565b5b620003ff868287016200035b565b9150509250925092565b7f4e487b7100000000000000000000000000000000000000000000000000000000600052602260045260246000fd5b600060028204905060018216806200045157607f821691505b6020821081141562000468576200046762000409565b5b50919050565b6113c5806200047e6000396000f3fe6080604052600436106100a75760003560e01c806381d12c581161006457806381d12c58146101c05780638a9cfd5514610201578063937e09b11461022a578063a00c96d714610255578063d7bb99ba14610285578063d7d1bbdb1461028f576100a7565b80630724fda9146100ac57806308f438f7146100d75780631f6d494214610102578063278d2ee01461013f578063481c6a751461016a5780637569b3d714610195575b600080fd5b3480156100b857600080fd5b506100c16102b8565b6040516100ce9190610b95565b60405180910390f35b3480156100e357600080fd5b506100ec610346565b6040516100f99190610bd0565b60405180910390f35b34801561010e57600080fd5b5061012960048036038101906101249190610c5d565b61034c565b6040516101369190610ca5565b60405180910390f35b34801561014b57600080fd5b5061015461036c565b6040516101619190610bd0565b60405180910390f35b34801561017657600080fd5b5061017f610372565b60405161018c9190610ccf565b60405180910390f35b3480156101a157600080fd5b506101aa610398565b6040516101b79190610bd0565b60405180910390f35b3480156101cc57600080fd5b506101e760048036038101906101e29190610d16565b61039e565b6040516101f8959493929190610d43565b60405180910390f35b34801561020d57600080fd5b5061022860048036038101906102239190610ed2565b610489565b005b34801561023657600080fd5b5061023f610632565b60405161024c9190610bd0565b60405180910390f35b34801561026157600080fd5b5061026a610638565b60405161027c96959493929190610f41565b60405180910390f35b61028d610685565b005b34801561029b57600080fd5b506102b660048036038101906102b19190610d16565b6107ce565b005b600080546102c590610fd1565b80601f01602080910402602001604051908101604052809291908181526020018280546102f190610fd1565b801561033e5780601f106103135761010080835404028352916020019161033e565b820191906000526020600020905b81548152906001019060200180831161032157829003601f168201915b505050505081565b60035481565b60076020528060005260406000206000915054906101000a900460ff1681565b60025481565b600560009054906101000a900473ffffffffffffffffffffffffffffffffffffffff1681565b60015481565b60046020528060005260406000206000915090508060000180546103c190610fd1565b80601f01602080910402602001604051908101604052809291908181526020018280546103ed90610fd1565b801561043a5780601f1061040f5761010080835404028352916020019161043a565b820191906000526020600020905b81548152906001019060200180831161041d57829003601f168201915b5050505050908060010154908060020160009054906101000a900473ffffffffffffffffffffffffffffffffffffffff16908060020160149054906101000a900460ff16908060030154905085565b600560009054906101000a900473ffffffffffffffffffffffffffffffffffffffff1673ffffffffffffffffffffffffffffffffffffffff163373ffffffffffffffffffffffffffffffffffffffff1614610519576040517f08c379a000000000000000000000000000000000000000000000000000000000815260040161051090611075565b60405180910390fd5b60006004600060026000815480929190610532906110c4565b91905055815260200190815260200160002090508381600001908051906020019061055e929190610a59565b50828160010181905550818160020160006101000a81548173ffffffffffffffffffffffffffffffffffffffff021916908373ffffffffffffffffffffffffffffffffffffffff16021790555060008160020160146101000a81548160ff0219169083151502179055506000816003018190555060008160040160003373ffffffffffffffffffffffffffffffffffffffff1673ffffffffffffffffffffffffffffffffffffffff16815260200190815260200160002060006101000a81548160ff02191690831515021790555050505050565b60065481565b60008060008060008060065447600154600254600560009054906101000a900473ffffffffffffffffffffffffffffffffffffffff16600354955095509550955095509550909192939495565b60065434116106c9576040517f08c379a00000000000000000000000000000000000000000000000000000000081526004016106c09061117f565b60405180910390fd5b60001515600760003373ffffffffffffffffffffffffffffffffffffffff1673ffffffffffffffffffffffffffffffffffffffff16815260200190815260200160002060009054906101000a900460ff1615151461075c576040517f08c379a0000000000000000000000000000000000000000000000000000000008152600401610753906111eb565b60405180910390fd5b6001600760003373ffffffffffffffffffffffffffffffffffffffff1673ffffffffffffffffffffffffffffffffffffffff16815260200190815260200160002060006101000a81548160ff021916908315150217905550600160008154809291906107c7906110c4565b9190505550565b600060046000838152602001908152602001600020905060011515600760003373ffffffffffffffffffffffffffffffffffffffff1673ffffffffffffffffffffffffffffffffffffffff16815260200190815260200160002060009054906101000a900460ff16151514610878576040517f08c379a000000000000000000000000000000000000000000000000000000000815260040161086f9061127d565b60405180910390fd5b8060040160003373ffffffffffffffffffffffffffffffffffffffff1673ffffffffffffffffffffffffffffffffffffffff16815260200190815260200160002060009054906101000a900460ff1615610907576040517f08c379a00000000000000000000000000000000000000000000000000000000081526004016108fe9061130f565b60405180910390fd5b60018160040160003373ffffffffffffffffffffffffffffffffffffffff1673ffffffffffffffffffffffffffffffffffffffff16815260200190815260200160002060006101000a81548160ff021916908315150217905550806003016000815480929190610976906110c4565b9190505550600260015461098a919061135e565b81600301541180156109ab57508060020160149054906101000a900460ff16155b15610a555760018160020160146101000a81548160ff021916908315150217905550600360008154809291906109e0906110c4565b91905055508060020160009054906101000a900473ffffffffffffffffffffffffffffffffffffffff1673ffffffffffffffffffffffffffffffffffffffff166108fc82600101549081150290604051600060405180830381858888f19350505050158015610a53573d6000803e3d6000fd5b505b5050565b828054610a6590610fd1565b90600052602060002090601f016020900481019282610a875760008555610ace565b82601f10610aa057805160ff1916838001178555610ace565b82800160010185558215610ace579182015b82811115610acd578251825591602001919060010190610ab2565b5b509050610adb9190610adf565b5090565b5b80821115610af8576000816000905550600101610ae0565b5090565b600081519050919050565b600082825260208201905092915050565b60005b83811015610b36578082015181840152602081019050610b1b565b83811115610b45576000848401525b50505050565b6000601f19601f8301169050919050565b6000610b6782610afc565b610b718185610b07565b9350610b81818560208601610b18565b610b8a81610b4b565b840191505092915050565b60006020820190508181036000830152610baf8184610b5c565b905092915050565b6000819050919050565b610bca81610bb7565b82525050565b6000602082019050610be56000830184610bc1565b92915050565b6000604051905090565b600080fd5b600080fd5b600073ffffffffffffffffffffffffffffffffffffffff82169050919050565b6000610c2a82610bff565b9050919050565b610c3a81610c1f565b8114610c4557600080fd5b50565b600081359050610c5781610c31565b92915050565b600060208284031215610c7357610c72610bf5565b5b6000610c8184828501610c48565b91505092915050565b60008115159050919050565b610c9f81610c8a565b82525050565b6000602082019050610cba6000830184610c96565b92915050565b610cc981610c1f565b82525050565b6000602082019050610ce46000830184610cc0565b92915050565b610cf381610bb7565b8114610cfe57600080fd5b50565b600081359050610d1081610cea565b92915050565b600060208284031215610d2c57610d2b610bf5565b5b6000610d3a84828501610d01565b91505092915050565b600060a0820190508181036000830152610d5d8188610b5c565b9050610d6c6020830187610bc1565b610d796040830186610cc0565b610d866060830185610c96565b610d936080830184610bc1565b9695505050505050565b600080fd5b600080fd5b7f4e487b7100000000000000000000000000000000000000000000000000000000600052604160045260246000fd5b610ddf82610b4b565b810181811067ffffffffffffffff82111715610dfe57610dfd610da7565b5b80604052505050565b6000610e11610beb565b9050610e1d8282610dd6565b919050565b600067ffffffffffffffff821115610e3d57610e3c610da7565b5b610e4682610b4b565b9050602081019050919050565b82818337600083830152505050565b6000610e75610e7084610e22565b610e07565b905082815260208101848484011115610e9157610e90610da2565b5b610e9c848285610e53565b509392505050565b600082601f830112610eb957610eb8610d9d565b5b8135610ec9848260208601610e62565b91505092915050565b600080600060608486031215610eeb57610eea610bf5565b5b600084013567ffffffffffffffff811115610f0957610f08610bfa565b5b610f1586828701610ea4565b9350506020610f2686828701610d01565b9250506040610f3786828701610c48565b9150509250925092565b600060c082019050610f566000830189610bc1565b610f636020830188610bc1565b610f706040830187610bc1565b610f7d6060830186610bc1565b610f8a6080830185610cc0565b610f9760a0830184610bc1565b979650505050505050565b7f4e487b7100000000000000000000000000000000000000000000000000000000600052602260045260246000fd5b60006002820490506001821680610fe957607f821691505b60208210811415610ffd57610ffc610fa2565b5b50919050565b7f4f6e6c7920746865204d616e616765722063616e20706572666f726d2074686960008201527f7320616374696f6e000000000000000000000000000000000000000000000000602082015250565b600061105f602883610b07565b915061106a82611003565b604082019050919050565b6000602082019050818103600083015261108e81611052565b9050919050565b7f4e487b7100000000000000000000000000000000000000000000000000000000600052601160045260246000fd5b60006110cf82610bb7565b91507fffffffffffffffffffffffffffffffffffffffffffffffffffffffffffffffff82141561110257611101611095565b5b600182019050919050565b7f596f757220636f6e747269627574696f6e2069732062656c6f7720746865206d60008201527f696e696d756d20616d6f756e7400000000000000000000000000000000000000602082015250565b6000611169602d83610b07565b91506111748261110d565b604082019050919050565b600060208201905081810360008301526111988161115c565b9050919050565b7f596f75206861766520616c726561647920636f6e747269627574656400000000600082015250565b60006111d5601c83610b07565b91506111e08261119f565b602082019050919050565b60006020820190508181036000830152611204816111c8565b9050919050565b7f4f6e6c7920436f6e7472696275746f72732063616e20617070726f766520746860008201527f6973205265717565737400000000000000000000000000000000000000000000602082015250565b6000611267602a83610b07565b91506112728261120b565b604082019050919050565b600060208201905081810360008301526112968161125a565b9050919050565b7f596f75206861766520616c726561647920617070726f7665642074686973205260008201527f6571756573740000000000000000000000000000000000000000000000000000602082015250565b60006112f9602683610b07565b91506113048261129d565b604082019050919050565b60006020820190508181036000830152611328816112ec565b9050919050565b7f4e487b7100000000000000000000000000000000000000000000000000000000600052601260045260246000fd5b600061136982610bb7565b915061137483610bb7565b9250826113845761138361132f565b5b82820490509291505056fea26469706673582212207f252eef0a187c6b4d484a1968c0df82af041963abfc888d3bfdbc169520549c64736f6c634300080b0033a26469706673582212204df0b96b6b9701af177de740e4e6524334f91963e0cf4e03e0a9f42254e7aa1164736f6c634300080b0033","opcodes":"PUSH1 0x80 PUSH1 0x40 MSTORE CALLVALUE DUP1 ISZERO PUSH2 0x10 JUMPI PUSH1 0x0 DUP1 REVERT JUMPDEST POP PUSH2 0x2301 DUP1 PUSH2 0x20 PUSH1 0x0 CODECOPY PUSH1 0x0 RETURN INVALID PUSH1 0x80 PUSH1 0x40 MSTORE CALLVALUE DUP1 ISZERO PUSH3 0x11 JUMPI PUSH1 0x0 DUP1 REVERT JUMPDEST POP PUSH1 0x4 CALLDATASIZE LT PUSH3 0x5E JUMPI PUSH1 0x0 CALLDATALOAD PUSH1 0xE0 SHR DUP1 PUSH4 0x724FDA9 EQ PUSH3 0x63 JUMPI DUP1 PUSH4 0x34D4AB2B EQ PUSH3 0x85 JUMPI DUP1 PUSH4 0x4220D656 EQ PUSH3 0xBB JUMPI DUP1 PUSH4 0x4ACB9D4F EQ PUSH3 0xDB JUMPI DUP1 PUSH4 0x5CE01441 EQ PUSH3 0xFD JUMPI JUMPDEST PUSH1 0x0 DUP1 REVERT JUMPDEST PUSH3 0x6D PUSH3 0x133 JUMP JUMPDEST PUSH1 0x40 MLOAD PUSH3 0x7C SWAP2 SWAP1 PUSH3 0x5BB JUMP JUMPDEST PUSH1 0x40 MLOAD DUP1 SWAP2 SUB SWAP1 RETURN JUMPDEST PUSH3 0xA3 PUSH1 0x4 DUP1 CALLDATASIZE SUB DUP2 ADD SWAP1 PUSH3 0x9D SWAP2 SWAP1 PUSH3 0x658 JUMP JUMPDEST PUSH3 0x1C9 JUMP JUMPDEST PUSH1 0x40 MLOAD PUSH3 0xB2 SWAP2 SWAP1 PUSH3 0x5BB JUMP JUMPDEST PUSH1 0x40 MLOAD DUP1 SWAP2 SUB SWAP1 RETURN JUMPDEST PUSH3 0xD9 PUSH1 0x4 DUP1 CALLDATASIZE SUB DUP2 ADD SWAP1 PUSH3 0xD3 SWAP2 SWAP1 PUSH3 0x816 JUMP JUMPDEST PUSH3 0x271 JUMP JUMPDEST STOP JUMPDEST PUSH3 0xE5 PUSH3 0x389 JUMP JUMPDEST PUSH1 0x40 MLOAD PUSH3 0xF4 SWAP2 SWAP1 PUSH3 0x94A JUMP JUMPDEST PUSH1 0x40 MLOAD DUP1 SWAP2 SUB SWAP1 RETURN JUMPDEST PUSH3 0x11B PUSH1 0x4 DUP1 CALLDATASIZE SUB DUP2 ADD SWAP1 PUSH3 0x115 SWAP2 SWAP1 PUSH3 0x96E JUMP JUMPDEST PUSH3 0x419 JUMP JUMPDEST PUSH1 0x40 MLOAD PUSH3 0x12A SWAP2 SWAP1 PUSH3 0x9B1 JUMP JUMPDEST PUSH1 0x40 MLOAD DUP1 SWAP2 SUB SWAP1 RETURN JUMPDEST PUSH1 0x0 DUP1 SLOAD PUSH3 0x142 SWAP1 PUSH3 0x9FD JUMP JUMPDEST DUP1 PUSH1 0x1F ADD PUSH1 0x20 DUP1 SWAP2 DIV MUL PUSH1 0x20 ADD PUSH1 0x40 MLOAD SWAP1 DUP2 ADD PUSH1 0x40 MSTORE DUP1 SWAP3 SWAP2 SWAP1 DUP2 DUP2 MSTORE PUSH1 0x20 ADD DUP3 DUP1 SLOAD PUSH3 0x170 SWAP1 PUSH3 0x9FD JUMP JUMPDEST DUP1 ISZERO PUSH3 0x1C1 JUMPI DUP1 PUSH1 0x1F LT PUSH3 0x195 JUMPI PUSH2 0x100 DUP1 DUP4 SLOAD DIV MUL DUP4 MSTORE SWAP2 PUSH1 0x20 ADD SWAP2 PUSH3 0x1C1 JUMP JUMPDEST DUP3 ADD SWAP2 SWAP1 PUSH1 0x0 MSTORE PUSH1 0x20 PUSH1 0x0 KECCAK256 SWAP1 JUMPDEST DUP2 SLOAD DUP2 MSTORE SWAP1 PUSH1 0x1 ADD SWAP1 PUSH1 0x20 ADD DUP1 DUP4 GT PUSH3 0x1A3 JUMPI DUP3 SWAP1 SUB PUSH1 0x1F AND DUP3 ADD SWAP2 JUMPDEST POP POP POP POP POP DUP2 JUMP JUMPDEST PUSH1 0x2 PUSH1 0x20 MSTORE DUP1 PUSH1 0x0 MSTORE PUSH1 0x40 PUSH1 0x0 KECCAK256 PUSH1 0x0 SWAP2 POP SWAP1 POP DUP1 SLOAD PUSH3 0x1EA SWAP1 PUSH3 0x9FD JUMP JUMPDEST DUP1 PUSH1 0x1F ADD PUSH1 0x20 DUP1 SWAP2 DIV MUL PUSH1 0x20 ADD PUSH1 0x40 MLOAD SWAP1 DUP2 ADD PUSH1 0x40 MSTORE DUP1 SWAP3 SWAP2 SWAP1 DUP2 DUP2 MSTORE PUSH1 0x20 ADD DUP3 DUP1 SLOAD PUSH3 0x218 SWAP1 PUSH3 0x9FD JUMP JUMPDEST DUP1 ISZERO PUSH3 0x269 JUMPI DUP1 PUSH1 0x1F LT PUSH3 0x23D JUMPI PUSH2 0x100 DUP1 DUP4 SLOAD DIV MUL DUP4 MSTORE SWAP2 PUSH1 0x20 ADD SWAP2 PUSH3 0x269 JUMP JUMPDEST DUP3 ADD SWAP2 SWAP1 PUSH1 0x0 MSTORE PUSH1 0x20 PUSH1 0x0 KECCAK256 SWAP1 JUMPDEST DUP2 SLOAD DUP2 MSTORE SWAP1 PUSH1 0x1 ADD SWAP1 PUSH1 0x20 ADD DUP1 DUP4 GT PUSH3 0x24B JUMPI DUP3 SWAP1 SUB PUSH1 0x1F AND DUP3 ADD SWAP2 JUMPDEST POP POP POP POP POP DUP2 JUMP JUMPDEST DUP1 PUSH1 0x0 SWAP1 DUP1 MLOAD SWAP1 PUSH1 0x20 ADD SWAP1 PUSH3 0x289 SWAP3 SWAP2 SWAP1 PUSH3 0x459 JUMP JUMPDEST POP PUSH1 0x0 DUP3 CALLER DUP4 PUSH1 0x40 MLOAD PUSH3 0x29D SWAP1 PUSH3 0x4EA JUMP JUMPDEST PUSH3 0x2AB SWAP4 SWAP3 SWAP2 SWAP1 PUSH3 0xA44 JUMP JUMPDEST PUSH1 0x40 MLOAD DUP1 SWAP2 SUB SWAP1 PUSH1 0x0 CREATE DUP1 ISZERO DUP1 ISZERO PUSH3 0x2C8 JUMPI RETURNDATASIZE PUSH1 0x0 DUP1 RETURNDATACOPY RETURNDATASIZE PUSH1 0x0 REVERT JUMPDEST POP SWAP1 POP PUSH1 0x1 DUP2 SWAP1 DUP1 PUSH1 0x1 DUP2 SLOAD ADD DUP1 DUP3 SSTORE DUP1 SWAP2 POP POP PUSH1 0x1 SWAP1 SUB SWAP1 PUSH1 0x0 MSTORE PUSH1 0x20 PUSH1 0x0 KECCAK256 ADD PUSH1 0x0 SWAP1 SWAP2 SWAP1 SWAP2 SWAP1 SWAP2 PUSH2 0x100 EXP DUP2 SLOAD DUP2 PUSH20 0xFFFFFFFFFFFFFFFFFFFFFFFFFFFFFFFFFFFFFFFF MUL NOT AND SWAP1 DUP4 PUSH20 0xFFFFFFFFFFFFFFFFFFFFFFFFFFFFFFFFFFFFFFFF AND MUL OR SWAP1 SSTORE POP DUP2 PUSH1 0x2 PUSH1 0x0 DUP4 PUSH20 0xFFFFFFFFFFFFFFFFFFFFFFFFFFFFFFFFFFFFFFFF AND PUSH20 0xFFFFFFFFFFFFFFFFFFFFFFFFFFFFFFFFFFFFFFFF AND DUP2 MSTORE PUSH1 0x20 ADD SWAP1 DUP2 MSTORE PUSH1 0x20 ADD PUSH1 0x0 KECCAK256 SWAP1 DUP1 MLOAD SWAP1 PUSH1 0x20 ADD SWAP1 PUSH3 0x383 SWAP3 SWAP2 SWAP1 PUSH3 0x459 JUMP JUMPDEST POP POP POP POP JUMP JUMPDEST PUSH1 0x60 PUSH1 0x1 DUP1 SLOAD DUP1 PUSH1 0x20 MUL PUSH1 0x20 ADD PUSH1 0x40 MLOAD SWAP1 DUP2 ADD PUSH1 0x40 MSTORE DUP1 SWAP3 SWAP2 SWAP1 DUP2 DUP2 MSTORE PUSH1 0x20 ADD DUP3 DUP1 SLOAD DUP1 ISZERO PUSH3 0x40F JUMPI PUSH1 0x20 MUL DUP3 ADD SWAP2 SWAP1 PUSH1 0x0 MSTORE PUSH1 0x20 PUSH1 0x0 KECCAK256 SWAP1 JUMPDEST DUP2 PUSH1 0x0 SWAP1 SLOAD SWAP1 PUSH2 0x100 EXP SWAP1 DIV PUSH20 0xFFFFFFFFFFFFFFFFFFFFFFFFFFFFFFFFFFFFFFFF AND PUSH20 0xFFFFFFFFFFFFFFFFFFFFFFFFFFFFFFFFFFFFFFFF AND DUP2 MSTORE PUSH1 0x20 ADD SWAP1 PUSH1 0x1 ADD SWAP1 DUP1 DUP4 GT PUSH3 0x3C4 JUMPI JUMPDEST POP POP POP POP POP SWAP1 POP SWAP1 JUMP JUMPDEST PUSH1 0x1 DUP2 DUP2 SLOAD DUP2 LT PUSH3 0x42A JUMPI PUSH1 0x0 DUP1 REVERT JUMPDEST SWAP1 PUSH1 0x0 MSTORE PUSH1 0x20 PUSH1 0x0 KECCAK256 ADD PUSH1 0x0 SWAP2 POP SLOAD SWAP1 PUSH2 0x100 EXP SWAP1 DIV PUSH20 0xFFFFFFFFFFFFFFFFFFFFFFFFFFFFFFFFFFFFFFFF AND DUP2 JUMP JUMPDEST DUP3 DUP1 SLOAD PUSH3 0x467 SWAP1 PUSH3 0x9FD JUMP JUMPDEST SWAP1 PUSH1 0x0 MSTORE PUSH1 0x20 PUSH1 0x0 KECCAK256 SWAP1 PUSH1 0x1F ADD PUSH1 0x20 SWAP1 DIV DUP2 ADD SWAP3 DUP3 PUSH3 0x48B JUMPI PUSH1 0x0 DUP6 SSTORE PUSH3 0x4D7 JUMP JUMPDEST DUP3 PUSH1 0x1F LT PUSH3 0x4A6 JUMPI DUP1 MLOAD PUSH1 0xFF NOT AND DUP4 DUP1 ADD OR DUP6 SSTORE PUSH3 0x4D7 JUMP JUMPDEST DUP3 DUP1 ADD PUSH1 0x1 ADD DUP6 SSTORE DUP3 ISZERO PUSH3 0x4D7 JUMPI SWAP2 DUP3 ADD JUMPDEST DUP3 DUP2 GT ISZERO PUSH3 0x4D6 JUMPI DUP3 MLOAD DUP3 SSTORE SWAP2 PUSH1 0x20 ADD SWAP2 SWAP1 PUSH1 0x1 ADD SWAP1 PUSH3 0x4B9 JUMP JUMPDEST JUMPDEST POP SWAP1 POP PUSH3 0x4E6 SWAP2 SWAP1 PUSH3 0x4F8 JUMP JUMPDEST POP SWAP1 JUMP JUMPDEST PUSH2 0x1843 DUP1 PUSH3 0xA89 DUP4 CODECOPY ADD SWAP1 JUMP JUMPDEST JUMPDEST DUP1 DUP3 GT ISZERO PUSH3 0x513 JUMPI PUSH1 0x0 DUP2 PUSH1 0x0 SWAP1 SSTORE POP PUSH1 0x1 ADD PUSH3 0x4F9 JUMP JUMPDEST POP SWAP1 JUMP JUMPDEST PUSH1 0x0 DUP2 MLOAD SWAP1 POP SWAP2 SWAP1 POP JUMP JUMPDEST PUSH1 0x0 DUP3 DUP3 MSTORE PUSH1 0x20 DUP3 ADD SWAP1 POP SWAP3 SWAP2 POP POP JUMP JUMPDEST PUSH1 0x0 JUMPDEST DUP4 DUP2 LT ISZERO PUSH3 0x553 JUMPI DUP1 DUP3 ADD MLOAD DUP2 DUP5 ADD MSTORE PUSH1 0x20 DUP2 ADD SWAP1 POP PUSH3 0x536 JUMP JUMPDEST DUP4 DUP2 GT ISZERO PUSH3 0x563 JUMPI PUSH1 0x0 DUP5 DUP5 ADD MSTORE JUMPDEST POP POP POP POP JUMP JUMPDEST PUSH1 0x0 PUSH1 0x1F NOT PUSH1 0x1F DUP4 ADD AND SWAP1 POP SWAP2 SWAP1 POP JUMP JUMPDEST PUSH1 0x0 PUSH3 0x587 DUP3 PUSH3 0x517 JUMP JUMPDEST PUSH3 0x593 DUP2 DUP6 PUSH3 0x522 JUMP JUMPDEST SWAP4 POP PUSH3 0x5A5 DUP2 DUP6 PUSH1 0x20 DUP7 ADD PUSH3 0x533 JUMP JUMPDEST PUSH3 0x5B0 DUP2 PUSH3 0x569 JUMP JUMPDEST DUP5 ADD SWAP2 POP POP SWAP3 SWAP2 POP POP JUMP JUMPDEST PUSH1 0x0 PUSH1 0x20 DUP3 ADD SWAP1 POP DUP2 DUP2 SUB PUSH1 0x0 DUP4 ADD MSTORE PUSH3 0x5D7 DUP2 DUP5 PUSH3 0x57A JUMP JUMPDEST SWAP1 POP SWAP3 SWAP2 POP POP JUMP JUMPDEST PUSH1 0x0 PUSH1 0x40 MLOAD SWAP1 POP SWAP1 JUMP JUMPDEST PUSH1 0x0 DUP1 REVERT JUMPDEST PUSH1 0x0 DUP1 REVERT JUMPDEST PUSH1 0x0 PUSH20 0xFFFFFFFFFFFFFFFFFFFFFFFFFFFFFFFFFFFFFFFF DUP3 AND SWAP1 POP SWAP2 SWAP1 POP JUMP JUMPDEST PUSH1 0x0 PUSH3 0x620 DUP3 PUSH3 0x5F3 JUMP JUMPDEST SWAP1 POP SWAP2 SWAP1 POP JUMP JUMPDEST PUSH3 0x632 DUP2 PUSH3 0x613 JUMP JUMPDEST DUP2 EQ PUSH3 0x63E JUMPI PUSH1 0x0 DUP1 REVERT JUMPDEST POP JUMP JUMPDEST PUSH1 0x0 DUP2 CALLDATALOAD SWAP1 POP PUSH3 0x652 DUP2 PUSH3 0x627 JUMP JUMPDEST SWAP3 SWAP2 POP POP JUMP JUMPDEST PUSH1 0x0 PUSH1 0x20 DUP3 DUP5 SUB SLT ISZERO PUSH3 0x671 JUMPI PUSH3 0x670 PUSH3 0x5E9 JUMP JUMPDEST JUMPDEST PUSH1 0x0 PUSH3 0x681 DUP5 DUP3 DUP6 ADD PUSH3 0x641 JUMP JUMPDEST SWAP2 POP POP SWAP3 SWAP2 POP POP JUMP JUMPDEST PUSH1 0x0 DUP2 SWAP1 POP SWAP2 SWAP1 POP JUMP JUMPDEST PUSH3 0x69F DUP2 PUSH3 0x68A JUMP JUMPDEST DUP2 EQ PUSH3 0x6AB JUMPI PUSH1 0x0 DUP1 REVERT JUMPDEST POP JUMP JUMPDEST PUSH1 0x0 DUP2 CALLDATALOAD SWAP1 POP PUSH3 0x6BF DUP2 PUSH3 0x694 JUMP JUMPDEST SWAP3 SWAP2 POP POP JUMP JUMPDEST PUSH1 0x0 DUP1 REVERT JUMPDEST PUSH1 0x0 DUP1 REVERT JUMPDEST PUSH32 0x4E487B7100000000000000000000000000000000000000000000000000000000 PUSH1 0x0 MSTORE PUSH1 0x41 PUSH1 0x4 MSTORE PUSH1 0x24 PUSH1 0x0 REVERT JUMPDEST PUSH3 0x709 DUP3 PUSH3 0x569 JUMP JUMPDEST DUP2 ADD DUP2 DUP2 LT PUSH8 0xFFFFFFFFFFFFFFFF DUP3 GT OR ISZERO PUSH3 0x72B JUMPI PUSH3 0x72A PUSH3 0x6CF JUMP JUMPDEST JUMPDEST DUP1 PUSH1 0x40 MSTORE POP POP POP JUMP JUMPDEST PUSH1 0x0 PUSH3 0x740 PUSH3 0x5DF JUMP JUMPDEST SWAP1 POP PUSH3 0x74E DUP3 DUP3 PUSH3 0x6FE JUMP JUMPDEST SWAP2 SWAP1 POP JUMP JUMPDEST PUSH1 0x0 PUSH8 0xFFFFFFFFFFFFFFFF DUP3 GT ISZERO PUSH3 0x771 JUMPI PUSH3 0x770 PUSH3 0x6CF JUMP JUMPDEST JUMPDEST PUSH3 0x77C DUP3 PUSH3 0x569 JUMP JUMPDEST SWAP1 POP PUSH1 0x20 DUP2 ADD SWAP1 POP SWAP2 SWAP1 POP JUMP JUMPDEST DUP3 DUP2 DUP4 CALLDATACOPY PUSH1 0x0 DUP4 DUP4 ADD MSTORE POP POP POP JUMP JUMPDEST PUSH1 0x0 PUSH3 0x7AF PUSH3 0x7A9 DUP5 PUSH3 0x753 JUMP JUMPDEST PUSH3 0x734 JUMP JUMPDEST SWAP1 POP DUP3 DUP2 MSTORE PUSH1 0x20 DUP2 ADD DUP5 DUP5 DUP5 ADD GT ISZERO PUSH3 0x7CE JUMPI PUSH3 0x7CD PUSH3 0x6CA JUMP JUMPDEST JUMPDEST PUSH3 0x7DB DUP5 DUP3 DUP6 PUSH3 0x789 JUMP JUMPDEST POP SWAP4 SWAP3 POP POP POP JUMP JUMPDEST PUSH1 0x0 DUP3 PUSH1 0x1F DUP4 ADD SLT PUSH3 0x7FB JUMPI PUSH3 0x7FA PUSH3 0x6C5 JUMP JUMPDEST JUMPDEST DUP2 CALLDATALOAD PUSH3 0x80D DUP5 DUP3 PUSH1 0x20 DUP7 ADD PUSH3 0x798 JUMP JUMPDEST SWAP2 POP POP SWAP3 SWAP2 POP POP JUMP JUMPDEST PUSH1 0x0 DUP1 PUSH1 0x40 DUP4 DUP6 SUB SLT ISZERO PUSH3 0x830 JUMPI PUSH3 0x82F PUSH3 0x5E9 JUMP JUMPDEST JUMPDEST PUSH1 0x0 PUSH3 0x840 DUP6 DUP3 DUP7 ADD PUSH3 0x6AE JUMP JUMPDEST SWAP3 POP POP PUSH1 0x20 DUP4 ADD CALLDATALOAD PUSH8 0xFFFFFFFFFFFFFFFF DUP2 GT ISZERO PUSH3 0x864 JUMPI PUSH3 0x863 PUSH3 0x5EE JUMP JUMPDEST JUMPDEST PUSH3 0x872 DUP6 DUP3 DUP7 ADD PUSH3 0x7E3 JUMP JUMPDEST SWAP2 POP POP SWAP3 POP SWAP3 SWAP1 POP JUMP JUMPDEST PUSH1 0x0 DUP2 MLOAD SWAP1 POP SWAP2 SWAP1 POP JUMP JUMPDEST PUSH1 0x0 DUP3 DUP3 MSTORE PUSH1 0x20 DUP3 ADD SWAP1 POP SWAP3 SWAP2 POP POP JUMP JUMPDEST PUSH1 0x0 DUP2 SWAP1 POP PUSH1 0x20 DUP3 ADD SWAP1 POP SWAP2 SWAP1 POP JUMP JUMPDEST PUSH3 0x8B3 DUP2 PUSH3 0x613 JUMP JUMPDEST DUP3 MSTORE POP POP JUMP JUMPDEST PUSH1 0x0 PUSH3 0x8C7 DUP4 DUP4 PUSH3 0x8A8 JUMP JUMPDEST PUSH1 0x20 DUP4 ADD SWAP1 POP SWAP3 SWAP2 POP POP JUMP JUMPDEST PUSH1 0x0 PUSH1 0x20 DUP3 ADD SWAP1 POP SWAP2 SWAP1 POP JUMP JUMPDEST PUSH1 0x0 PUSH3 0x8ED DUP3 PUSH3 0x87C JUMP JUMPDEST PUSH3 0x8F9 DUP2 DUP6 PUSH3 0x887 JUMP JUMPDEST SWAP4 POP PUSH3 0x906 DUP4 PUSH3 0x898 JUMP JUMPDEST DUP1 PUSH1 0x0 JUMPDEST DUP4 DUP2 LT ISZERO PUSH3 0x93D JUMPI DUP2 MLOAD PUSH3 0x921 DUP9 DUP3 PUSH3 0x8B9 JUMP JUMPDEST SWAP8 POP PUSH3 0x92E DUP4 PUSH3 0x8D3 JUMP JUMPDEST SWAP3 POP POP PUSH1 0x1 DUP2 ADD SWAP1 POP PUSH3 0x90A JUMP JUMPDEST POP DUP6 SWAP4 POP POP POP POP SWAP3 SWAP2 POP POP JUMP JUMPDEST PUSH1 0x0 PUSH1 0x20 DUP3 ADD SWAP1 POP DUP2 DUP2 SUB PUSH1 0x0 DUP4 ADD MSTORE PUSH3 0x966 DUP2 DUP5 PUSH3 0x8E0 JUMP JUMPDEST SWAP1 POP SWAP3 SWAP2 POP POP JUMP JUMPDEST PUSH1 0x0 PUSH1 0x20 DUP3 DUP5 SUB SLT ISZERO PUSH3 0x987 JUMPI PUSH3 0x986 PUSH3 0x5E9 JUMP JUMPDEST JUMPDEST PUSH1 0x0 PUSH3 0x997 DUP5 DUP3 DUP6 ADD PUSH3 0x6AE JUMP JUMPDEST SWAP2 POP POP SWAP3 SWAP2 POP POP JUMP JUMPDEST PUSH3 0x9AB DUP2 PUSH3 0x613 JUMP JUMPDEST DUP3 MSTORE POP POP JUMP JUMPDEST PUSH1 0x0 PUSH1 0x20 DUP3 ADD SWAP1 POP PUSH3 0x9C8 PUSH1 0x0 DUP4 ADD DUP5 PUSH3 0x9A0 JUMP JUMPDEST SWAP3 SWAP2 POP POP JUMP JUMPDEST PUSH32 0x4E487B7100000000000000000000000000000000000000000000000000000000 PUSH1 0x0 MSTORE PUSH1 0x22 PUSH1 0x4 MSTORE PUSH1 0x24 PUSH1 0x0 REVERT JUMPDEST PUSH1 0x0 PUSH1 0x2 DUP3 DIV SWAP1 POP PUSH1 0x1 DUP3 AND DUP1 PUSH3 0xA16 JUMPI PUSH1 0x7F DUP3 AND SWAP2 POP JUMPDEST PUSH1 0x20 DUP3 LT DUP2 EQ ISZERO PUSH3 0xA2D JUMPI PUSH3 0xA2C PUSH3 0x9CE JUMP JUMPDEST JUMPDEST POP SWAP2 SWAP1 POP JUMP JUMPDEST PUSH3 0xA3E DUP2 PUSH3 0x68A JUMP JUMPDEST DUP3 MSTORE POP POP JUMP JUMPDEST PUSH1 0x0 PUSH1 0x60 DUP3 ADD SWAP1 POP PUSH3 0xA5B PUSH1 0x0 DUP4 ADD DUP7 PUSH3 0xA33 JUMP JUMPDEST PUSH3 0xA6A PUSH1 0x20 DUP4 ADD DUP6 PUSH3 0x9A0 JUMP JUMPDEST DUP2 DUP2 SUB PUSH1 0x40 DUP4 ADD MSTORE PUSH3 0xA7E DUP2 DUP5 PUSH3 0x57A JUMP JUMPDEST SWAP1 POP SWAP5 SWAP4 POP POP POP POP JUMP INVALID PUSH1 0x80 PUSH1 0x40 MSTORE CALLVALUE DUP1 ISZERO PUSH3 0x11 JUMPI PUSH1 0x0 DUP1 REVERT JUMPDEST POP PUSH1 0x40 MLOAD PUSH3 0x1843 CODESIZE SUB DUP1 PUSH3 0x1843 DUP4 CODECOPY DUP2 DUP2 ADD PUSH1 0x40 MSTORE DUP2 ADD SWAP1 PUSH3 0x37 SWAP2 SWAP1 PUSH3 0x38E JUMP JUMPDEST DUP2 PUSH1 0x5 PUSH1 0x0 PUSH2 0x100 EXP DUP2 SLOAD DUP2 PUSH20 0xFFFFFFFFFFFFFFFFFFFFFFFFFFFFFFFFFFFFFFFF MUL NOT AND SWAP1 DUP4 PUSH20 0xFFFFFFFFFFFFFFFFFFFFFFFFFFFFFFFFFFFFFFFF AND MUL OR SWAP1 SSTORE POP DUP3 PUSH1 0x6 DUP2 SWAP1 SSTORE POP DUP1 PUSH1 0x0 SWAP1 DUP1 MLOAD SWAP1 PUSH1 0x20 ADD SWAP1 PUSH3 0x97 SWAP3 SWAP2 SWAP1 PUSH3 0xA1 JUMP JUMPDEST POP POP POP POP PUSH3 0x46E JUMP JUMPDEST DUP3 DUP1 SLOAD PUSH3 0xAF SWAP1 PUSH3 0x438 JUMP JUMPDEST SWAP1 PUSH1 0x0 MSTORE PUSH1 0x20 PUSH1 0x0 KECCAK256 SWAP1 PUSH1 0x1F ADD PUSH1 0x20 SWAP1 DIV DUP2 ADD SWAP3 DUP3 PUSH3 0xD3 JUMPI PUSH1 0x0 DUP6 SSTORE PUSH3 0x11F JUMP JUMPDEST DUP3 PUSH1 0x1F LT PUSH3 0xEE JUMPI DUP1 MLOAD PUSH1 0xFF NOT AND DUP4 DUP1 ADD OR DUP6 SSTORE PUSH3 0x11F JUMP JUMPDEST DUP3 DUP1 ADD PUSH1 0x1 ADD DUP6 SSTORE DUP3 ISZERO PUSH3 0x11F JUMPI SWAP2 DUP3 ADD JUMPDEST DUP3 DUP2 GT ISZERO PUSH3 0x11E JUMPI DUP3 MLOAD DUP3 SSTORE SWAP2 PUSH1 0x20 ADD SWAP2 SWAP1 PUSH1 0x1 ADD SWAP1 PUSH3 0x101 JUMP JUMPDEST JUMPDEST POP SWAP1 POP PUSH3 0x12E SWAP2 SWAP1 PUSH3 0x132 JUMP JUMPDEST POP SWAP1 JUMP JUMPDEST JUMPDEST DUP1 DUP3 GT ISZERO PUSH3 0x14D JUMPI PUSH1 0x0 DUP2 PUSH1 0x0 SWAP1 SSTORE POP PUSH1 0x1 ADD PUSH3 0x133 JUMP JUMPDEST POP SWAP1 JUMP JUMPDEST PUSH1 0x0 PUSH1 0x40 MLOAD SWAP1 POP SWAP1 JUMP JUMPDEST PUSH1 0x0 DUP1 REVERT JUMPDEST PUSH1 0x0 DUP1 REVERT JUMPDEST PUSH1 0x0 DUP2 SWAP1 POP SWAP2 SWAP1 POP JUMP JUMPDEST PUSH3 0x17A DUP2 PUSH3 0x165 JUMP JUMPDEST DUP2 EQ PUSH3 0x186 JUMPI PUSH1 0x0 DUP1 REVERT JUMPDEST POP JUMP JUMPDEST PUSH1 0x0 DUP2 MLOAD SWAP1 POP PUSH3 0x19A DUP2 PUSH3 0x16F JUMP JUMPDEST SWAP3 SWAP2 POP POP JUMP JUMPDEST PUSH1 0x0 PUSH20 0xFFFFFFFFFFFFFFFFFFFFFFFFFFFFFFFFFFFFFFFF DUP3 AND SWAP1 POP SWAP2 SWAP1 POP JUMP JUMPDEST PUSH1 0x0 PUSH3 0x1CD DUP3 PUSH3 0x1A0 JUMP JUMPDEST SWAP1 POP SWAP2 SWAP1 POP JUMP JUMPDEST PUSH3 0x1DF DUP2 PUSH3 0x1C0 JUMP JUMPDEST DUP2 EQ PUSH3 0x1EB JUMPI PUSH1 0x0 DUP1 REVERT JUMPDEST POP JUMP JUMPDEST PUSH1 0x0 DUP2 MLOAD SWAP1 POP PUSH3 0x1FF DUP2 PUSH3 0x1D4 JUMP JUMPDEST SWAP3 SWAP2 POP POP JUMP JUMPDEST PUSH1 0x0 DUP1 REVERT JUMPDEST PUSH1 0x0 DUP1 REVERT JUMPDEST PUSH1 0x0 PUSH1 0x1F NOT PUSH1 0x1F DUP4 ADD AND SWAP1 POP SWAP2 SWAP1 POP JUMP JUMPDEST PUSH32 0x4E487B7100000000000000000000000000000000000000000000000000000000 PUSH1 0x0 MSTORE PUSH1 0x41 PUSH1 0x4 MSTORE PUSH1 0x24 PUSH1 0x0 REVERT JUMPDEST PUSH3 0x25A DUP3 PUSH3 0x20F JUMP JUMPDEST DUP2 ADD DUP2 DUP2 LT PUSH8 0xFFFFFFFFFFFFFFFF DUP3 GT OR ISZERO PUSH3 0x27C JUMPI PUSH3 0x27B PUSH3 0x220 JUMP JUMPDEST JUMPDEST DUP1 PUSH1 0x40 MSTORE POP POP POP JUMP JUMPDEST PUSH1 0x0 PUSH3 0x291 PUSH3 0x151 JUMP JUMPDEST SWAP1 POP PUSH3 0x29F DUP3 DUP3 PUSH3 0x24F JUMP JUMPDEST SWAP2 SWAP1 POP JUMP JUMPDEST PUSH1 0x0 PUSH8 0xFFFFFFFFFFFFFFFF DUP3 GT ISZERO PUSH3 0x2C2 JUMPI PUSH3 0x2C1 PUSH3 0x220 JUMP JUMPDEST JUMPDEST PUSH3 0x2CD DUP3 PUSH3 0x20F JUMP JUMPDEST SWAP1 POP PUSH1 0x20 DUP2 ADD SWAP1 POP SWAP2 SWAP1 POP JUMP JUMPDEST PUSH1 0x0 JUMPDEST DUP4 DUP2 LT ISZERO PUSH3 0x2FA JUMPI DUP1 DUP3 ADD MLOAD DUP2 DUP5 ADD MSTORE PUSH1 0x20 DUP2 ADD SWAP1 POP PUSH3 0x2DD JUMP JUMPDEST DUP4 DUP2 GT ISZERO PUSH3 0x30A JUMPI PUSH1 0x0 DUP5 DUP5 ADD MSTORE JUMPDEST POP POP POP POP JUMP JUMPDEST PUSH1 0x0 PUSH3 0x327 PUSH3 0x321 DUP5 PUSH3 0x2A4 JUMP JUMPDEST PUSH3 0x285 JUMP JUMPDEST SWAP1 POP DUP3 DUP2 MSTORE PUSH1 0x20 DUP2 ADD DUP5 DUP5 DUP5 ADD GT ISZERO PUSH3 0x346 JUMPI PUSH3 0x345 PUSH3 0x20A JUMP JUMPDEST JUMPDEST PUSH3 0x353 DUP5 DUP3 DUP6 PUSH3 0x2DA JUMP JUMPDEST POP SWAP4 SWAP3 POP POP POP JUMP JUMPDEST PUSH1 0x0 DUP3 PUSH1 0x1F DUP4 ADD SLT PUSH3 0x373 JUMPI PUSH3 0x372 PUSH3 0x205 JUMP JUMPDEST JUMPDEST DUP2 MLOAD PUSH3 0x385 DUP5 DUP3 PUSH1 0x20 DUP7 ADD PUSH3 0x310 JUMP JUMPDEST SWAP2 POP POP SWAP3 SWAP2 POP POP JUMP JUMPDEST PUSH1 0x0 DUP1 PUSH1 0x0 PUSH1 0x60 DUP5 DUP7 SUB SLT ISZERO PUSH3 0x3AA JUMPI PUSH3 0x3A9 PUSH3 0x15B JUMP JUMPDEST JUMPDEST PUSH1 0x0 PUSH3 0x3BA DUP7 DUP3 DUP8 ADD PUSH3 0x189 JUMP JUMPDEST SWAP4 POP POP PUSH1 0x20 PUSH3 0x3CD DUP7 DUP3 DUP8 ADD PUSH3 0x1EE JUMP JUMPDEST SWAP3 POP POP PUSH1 0x40 DUP5 ADD MLOAD PUSH8 0xFFFFFFFFFFFFFFFF DUP2 GT ISZERO PUSH3 0x3F1 JUMPI PUSH3 0x3F0 PUSH3 0x160 JUMP JUMPDEST JUMPDEST PUSH3 0x3FF DUP7 DUP3 DUP8 ADD PUSH3 0x35B JUMP JUMPDEST SWAP2 POP POP SWAP3 POP SWAP3 POP SWAP3 JUMP JUMPDEST PUSH32 0x4E487B7100000000000000000000000000000000000000000000000000000000 PUSH1 0x0 MSTORE PUSH1 0x22 PUSH1 0x4 MSTORE PUSH1 0x24 PUSH1 0x0 REVERT JUMPDEST PUSH1 0x0 PUSH1 0x2 DUP3 DIV SWAP1 POP PUSH1 0x1 DUP3 AND DUP1 PUSH3 0x451 JUMPI PUSH1 0x7F DUP3 AND SWAP2 POP JUMPDEST PUSH1 0x20 DUP3 LT DUP2 EQ ISZERO PUSH3 0x468 JUMPI PUSH3 0x467 PUSH3 0x409 JUMP JUMPDEST JUMPDEST POP SWAP2 SWAP1 POP JUMP JUMPDEST PUSH2 0x13C5 DUP1 PUSH3 0x47E PUSH1 0x0 CODECOPY PUSH1 0x0 RETURN INVALID PUSH1 0x80 PUSH1 0x40 MSTORE PUSH1 0x4 CALLDATASIZE LT PUSH2 0xA7 JUMPI PUSH1 0x0 CALLDATALOAD PUSH1 0xE0 SHR DUP1 PUSH4 0x81D12C58 GT PUSH2 0x64 JUMPI DUP1 PUSH4 0x81D12C58 EQ PUSH2 0x1C0 JUMPI DUP1 PUSH4 0x8A9CFD55 EQ PUSH2 0x201 JUMPI DUP1 PUSH4 0x937E09B1 EQ PUSH2 0x22A JUMPI DUP1 PUSH4 0xA00C96D7 EQ PUSH2 0x255 JUMPI DUP1 PUSH4 0xD7BB99BA EQ PUSH2 0x285 JUMPI DUP1 PUSH4 0xD7D1BBDB EQ PUSH2 0x28F JUMPI PUSH2 0xA7 JUMP JUMPDEST DUP1 PUSH4 0x724FDA9 EQ PUSH2 0xAC JUMPI DUP1 PUSH4 0x8F438F7 EQ PUSH2 0xD7 JUMPI DUP1 PUSH4 0x1F6D4942 EQ PUSH2 0x102 JUMPI DUP1 PUSH4 0x278D2EE0 EQ PUSH2 0x13F JUMPI DUP1 PUSH4 0x481C6A75 EQ PUSH2 0x16A JUMPI DUP1 PUSH4 0x7569B3D7 EQ PUSH2 0x195 JUMPI JUMPDEST PUSH1 0x0 DUP1 REVERT JUMPDEST CALLVALUE DUP1 ISZERO PUSH2 0xB8 JUMPI PUSH1 0x0 DUP1 REVERT JUMPDEST POP PUSH2 0xC1 PUSH2 0x2B8 JUMP JUMPDEST PUSH1 0x40 MLOAD PUSH2 0xCE SWAP2 SWAP1 PUSH2 0xB95 JUMP JUMPDEST PUSH1 0x40 MLOAD DUP1 SWAP2 SUB SWAP1 RETURN JUMPDEST CALLVALUE DUP1 ISZERO PUSH2 0xE3 JUMPI PUSH1 0x0 DUP1 REVERT JUMPDEST POP PUSH2 0xEC PUSH2 0x346 JUMP JUMPDEST PUSH1 0x40 MLOAD PUSH2 0xF9 SWAP2 SWAP1 PUSH2 0xBD0 JUMP JUMPDEST PUSH1 0x40 MLOAD DUP1 SWAP2 SUB SWAP1 RETURN JUMPDEST CALLVALUE DUP1 ISZERO PUSH2 0x10E JUMPI PUSH1 0x0 DUP1 REVERT JUMPDEST POP PUSH2 0x129 PUSH1 0x4 DUP1 CALLDATASIZE SUB DUP2 ADD SWAP1 PUSH2 0x124 SWAP2 SWAP1 PUSH2 0xC5D JUMP JUMPDEST PUSH2 0x34C JUMP JUMPDEST PUSH1 0x40 MLOAD PUSH2 0x136 SWAP2 SWAP1 PUSH2 0xCA5 JUMP JUMPDEST PUSH1 0x40 MLOAD DUP1 SWAP2 SUB SWAP1 RETURN JUMPDEST CALLVALUE DUP1 ISZERO PUSH2 0x14B JUMPI PUSH1 0x0 DUP1 REVERT JUMPDEST POP PUSH2 0x154 PUSH2 0x36C JUMP JUMPDEST PUSH1 0x40 MLOAD PUSH2 0x161 SWAP2 SWAP1 PUSH2 0xBD0 JUMP JUMPDEST PUSH1 0x40 MLOAD DUP1 SWAP2 SUB SWAP1 RETURN JUMPDEST CALLVALUE DUP1 ISZERO PUSH2 0x176 JUMPI PUSH1 0x0 DUP1 REVERT JUMPDEST POP PUSH2 0x17F PUSH2 0x372 JUMP JUMPDEST PUSH1 0x40 MLOAD PUSH2 0x18C SWAP2 SWAP1 PUSH2 0xCCF JUMP JUMPDEST PUSH1 0x40 MLOAD DUP1 SWAP2 SUB SWAP1 RETURN JUMPDEST CALLVALUE DUP1 ISZERO PUSH2 0x1A1 JUMPI PUSH1 0x0 DUP1 REVERT JUMPDEST POP PUSH2 0x1AA PUSH2 0x398 JUMP JUMPDEST PUSH1 0x40 MLOAD PUSH2 0x1B7 SWAP2 SWAP1 PUSH2 0xBD0 JUMP JUMPDEST PUSH1 0x40 MLOAD DUP1 SWAP2 SUB SWAP1 RETURN JUMPDEST CALLVALUE DUP1 ISZERO PUSH2 0x1CC JUMPI PUSH1 0x0 DUP1 REVERT JUMPDEST POP PUSH2 0x1E7 PUSH1 0x4 DUP1 CALLDATASIZE SUB DUP2 ADD SWAP1 PUSH2 0x1E2 SWAP2 SWAP1 PUSH2 0xD16 JUMP JUMPDEST PUSH2 0x39E JUMP JUMPDEST PUSH1 0x40 MLOAD PUSH2 0x1F8 SWAP6 SWAP5 SWAP4 SWAP3 SWAP2 SWAP1 PUSH2 0xD43 JUMP JUMPDEST PUSH1 0x40 MLOAD DUP1 SWAP2 SUB SWAP1 RETURN JUMPDEST CALLVALUE DUP1 ISZERO PUSH2 0x20D JUMPI PUSH1 0x0 DUP1 REVERT JUMPDEST POP PUSH2 0x228 PUSH1 0x4 DUP1 CALLDATASIZE SUB DUP2 ADD SWAP1 PUSH2 0x223 SWAP2 SWAP1 PUSH2 0xED2 JUMP JUMPDEST PUSH2 0x489 JUMP JUMPDEST STOP JUMPDEST CALLVALUE DUP1 ISZERO PUSH2 0x236 JUMPI PUSH1 0x0 DUP1 REVERT JUMPDEST POP PUSH2 0x23F PUSH2 0x632 JUMP JUMPDEST PUSH1 0x40 MLOAD PUSH2 0x24C SWAP2 SWAP1 PUSH2 0xBD0 JUMP JUMPDEST PUSH1 0x40 MLOAD DUP1 SWAP2 SUB SWAP1 RETURN JUMPDEST CALLVALUE DUP1 ISZERO PUSH2 0x261 JUMPI PUSH1 0x0 DUP1 REVERT JUMPDEST POP PUSH2 0x26A PUSH2 0x638 JUMP JUMPDEST PUSH1 0x40 MLOAD PUSH2 0x27C SWAP7 SWAP6 SWAP5 SWAP4 SWAP3 SWAP2 SWAP1 PUSH2 0xF41 JUMP JUMPDEST PUSH1 0x40 MLOAD DUP1 SWAP2 SUB SWAP1 RETURN JUMPDEST PUSH2 0x28D PUSH2 0x685 JUMP JUMPDEST STOP JUMPDEST CALLVALUE DUP1 ISZERO PUSH2 0x29B JUMPI PUSH1 0x0 DUP1 REVERT JUMPDEST POP PUSH2 0x2B6 PUSH1 0x4 DUP1 CALLDATASIZE SUB DUP2 ADD SWAP1 PUSH2 0x2B1 SWAP2 SWAP1 PUSH2 0xD16 JUMP JUMPDEST PUSH2 0x7CE JUMP JUMPDEST STOP JUMPDEST PUSH1 0x0 DUP1 SLOAD PUSH2 0x2C5 SWAP1 PUSH2 0xFD1 JUMP JUMPDEST DUP1 PUSH1 0x1F ADD PUSH1 0x20 DUP1 SWAP2 DIV MUL PUSH1 0x20 ADD PUSH1 0x40 MLOAD SWAP1 DUP2 ADD PUSH1 0x40 MSTORE DUP1 SWAP3 SWAP2 SWAP1 DUP2 DUP2 MSTORE PUSH1 0x20 ADD DUP3 DUP1 SLOAD PUSH2 0x2F1 SWAP1 PUSH2 0xFD1 JUMP JUMPDEST DUP1 ISZERO PUSH2 0x33E JUMPI DUP1 PUSH1 0x1F LT PUSH2 0x313 JUMPI PUSH2 0x100 DUP1 DUP4 SLOAD DIV MUL DUP4 MSTORE SWAP2 PUSH1 0x20 ADD SWAP2 PUSH2 0x33E JUMP JUMPDEST DUP3 ADD SWAP2 SWAP1 PUSH1 0x0 MSTORE PUSH1 0x20 PUSH1 0x0 KECCAK256 SWAP1 JUMPDEST DUP2 SLOAD DUP2 MSTORE SWAP1 PUSH1 0x1 ADD SWAP1 PUSH1 0x20 ADD DUP1 DUP4 GT PUSH2 0x321 JUMPI DUP3 SWAP1 SUB PUSH1 0x1F AND DUP3 ADD SWAP2 JUMPDEST POP POP POP POP POP DUP2 JUMP JUMPDEST PUSH1 0x3 SLOAD DUP2 JUMP JUMPDEST PUSH1 0x7 PUSH1 0x20 MSTORE DUP1 PUSH1 0x0 MSTORE PUSH1 0x40 PUSH1 0x0 KECCAK256 PUSH1 0x0 SWAP2 POP SLOAD SWAP1 PUSH2 0x100 EXP SWAP1 DIV PUSH1 0xFF AND DUP2 JUMP JUMPDEST PUSH1 0x2 SLOAD DUP2 JUMP JUMPDEST PUSH1 0x5 PUSH1 0x0 SWAP1 SLOAD SWAP1 PUSH2 0x100 EXP SWAP1 DIV PUSH20 0xFFFFFFFFFFFFFFFFFFFFFFFFFFFFFFFFFFFFFFFF AND DUP2 JUMP JUMPDEST PUSH1 0x1 SLOAD DUP2 JUMP JUMPDEST PUSH1 0x4 PUSH1 0x20 MSTORE DUP1 PUSH1 0x0 MSTORE PUSH1 0x40 PUSH1 0x0 KECCAK256 PUSH1 0x0 SWAP2 POP SWAP1 POP DUP1 PUSH1 0x0 ADD DUP1 SLOAD PUSH2 0x3C1 SWAP1 PUSH2 0xFD1 JUMP JUMPDEST DUP1 PUSH1 0x1F ADD PUSH1 0x20 DUP1 SWAP2 DIV MUL PUSH1 0x20 ADD PUSH1 0x40 MLOAD SWAP1 DUP2 ADD PUSH1 0x40 MSTORE DUP1 SWAP3 SWAP2 SWAP1 DUP2 DUP2 MSTORE PUSH1 0x20 ADD DUP3 DUP1 SLOAD PUSH2 0x3ED SWAP1 PUSH2 0xFD1 JUMP JUMPDEST DUP1 ISZERO PUSH2 0x43A JUMPI DUP1 PUSH1 0x1F LT PUSH2 0x40F JUMPI PUSH2 0x100 DUP1 DUP4 SLOAD DIV MUL DUP4 MSTORE SWAP2 PUSH1 0x20 ADD SWAP2 PUSH2 0x43A JUMP JUMPDEST DUP3 ADD SWAP2 SWAP1 PUSH1 0x0 MSTORE PUSH1 0x20 PUSH1 0x0 KECCAK256 SWAP1 JUMPDEST DUP2 SLOAD DUP2 MSTORE SWAP1 PUSH1 0x1 ADD SWAP1 PUSH1 0x20 ADD DUP1 DUP4 GT PUSH2 0x41D JUMPI DUP3 SWAP1 SUB PUSH1 0x1F AND DUP3 ADD SWAP2 JUMPDEST POP POP POP POP POP SWAP1 DUP1 PUSH1 0x1 ADD SLOAD SWAP1 DUP1 PUSH1 0x2 ADD PUSH1 0x0 SWAP1 SLOAD SWAP1 PUSH2 0x100 EXP SWAP1 DIV PUSH20 0xFFFFFFFFFFFFFFFFFFFFFFFFFFFFFFFFFFFFFFFF AND SWAP1 DUP1 PUSH1 0x2 ADD PUSH1 0x14 SWAP1 SLOAD SWAP1 PUSH2 0x100 EXP SWAP1 DIV PUSH1 0xFF AND SWAP1 DUP1 PUSH1 0x3 ADD SLOAD SWAP1 POP DUP6 JUMP JUMPDEST PUSH1 0x5 PUSH1 0x0 SWAP1 SLOAD SWAP1 PUSH2 0x100 EXP SWAP1 DIV PUSH20 0xFFFFFFFFFFFFFFFFFFFFFFFFFFFFFFFFFFFFFFFF AND PUSH20 0xFFFFFFFFFFFFFFFFFFFFFFFFFFFFFFFFFFFFFFFF AND CALLER PUSH20 0xFFFFFFFFFFFFFFFFFFFFFFFFFFFFFFFFFFFFFFFF AND EQ PUSH2 0x519 JUMPI PUSH1 0x40 MLOAD PUSH32 0x8C379A000000000000000000000000000000000000000000000000000000000 DUP2 MSTORE PUSH1 0x4 ADD PUSH2 0x510 SWAP1 PUSH2 0x1075 JUMP JUMPDEST PUSH1 0x40 MLOAD DUP1 SWAP2 SUB SWAP1 REVERT JUMPDEST PUSH1 0x0 PUSH1 0x4 PUSH1 0x0 PUSH1 0x2 PUSH1 0x0 DUP2 SLOAD DUP1 SWAP3 SWAP2 SWAP1 PUSH2 0x532 SWAP1 PUSH2 0x10C4 JUMP JUMPDEST SWAP2 SWAP1 POP SSTORE DUP2 MSTORE PUSH1 0x20 ADD SWAP1 DUP2 MSTORE PUSH1 0x20 ADD PUSH1 0x0 KECCAK256 SWAP1 POP DUP4 DUP2 PUSH1 0x0 ADD SWAP1 DUP1 MLOAD SWAP1 PUSH1 0x20 ADD SWAP1 PUSH2 0x55E SWAP3 SWAP2 SWAP1 PUSH2 0xA59 JUMP JUMPDEST POP DUP3 DUP2 PUSH1 0x1 ADD DUP2 SWAP1 SSTORE POP DUP2 DUP2 PUSH1 0x2 ADD PUSH1 0x0 PUSH2 0x100 EXP DUP2 SLOAD DUP2 PUSH20 0xFFFFFFFFFFFFFFFFFFFFFFFFFFFFFFFFFFFFFFFF MUL NOT AND SWAP1 DUP4 PUSH20 0xFFFFFFFFFFFFFFFFFFFFFFFFFFFFFFFFFFFFFFFF AND MUL OR SWAP1 SSTORE POP PUSH1 0x0 DUP2 PUSH1 0x2 ADD PUSH1 0x14 PUSH2 0x100 EXP DUP2 SLOAD DUP2 PUSH1 0xFF MUL NOT AND SWAP1 DUP4 ISZERO ISZERO MUL OR SWAP1 SSTORE POP PUSH1 0x0 DUP2 PUSH1 0x3 ADD DUP2 SWAP1 SSTORE POP PUSH1 0x0 DUP2 PUSH1 0x4 ADD PUSH1 0x0 CALLER PUSH20 0xFFFFFFFFFFFFFFFFFFFFFFFFFFFFFFFFFFFFFFFF AND PUSH20 0xFFFFFFFFFFFFFFFFFFFFFFFFFFFFFFFFFFFFFFFF AND DUP2 MSTORE PUSH1 0x20 ADD SWAP1 DUP2 MSTORE PUSH1 0x20 ADD PUSH1 0x0 KECCAK256 PUSH1 0x0 PUSH2 0x100 EXP DUP2 SLOAD DUP2 PUSH1 0xFF MUL NOT AND SWAP1 DUP4 ISZERO ISZERO MUL OR SWAP1 SSTORE POP POP POP POP POP JUMP JUMPDEST PUSH1 0x6 SLOAD DUP2 JUMP JUMPDEST PUSH1 0x0 DUP1 PUSH1 0x0 DUP1 PUSH1 0x0 DUP1 PUSH1 0x6 SLOAD SELFBALANCE PUSH1 0x1 SLOAD PUSH1 0x2 SLOAD PUSH1 0x5 PUSH1 0x0 SWAP1 SLOAD SWAP1 PUSH2 0x100 EXP SWAP1 DIV PUSH20 0xFFFFFFFFFFFFFFFFFFFFFFFFFFFFFFFFFFFFFFFF AND PUSH1 0x3 SLOAD SWAP6 POP SWAP6 POP SWAP6 POP SWAP6 POP SWAP6 POP SWAP6 POP SWAP1 SWAP2 SWAP3 SWAP4 SWAP5 SWAP6 JUMP JUMPDEST PUSH1 0x6 SLOAD CALLVALUE GT PUSH2 0x6C9 JUMPI PUSH1 0x40 MLOAD PUSH32 0x8C379A000000000000000000000000000000000000000000000000000000000 DUP2 MSTORE PUSH1 0x4 ADD PUSH2 0x6C0 SWAP1 PUSH2 0x117F JUMP JUMPDEST PUSH1 0x40 MLOAD DUP1 SWAP2 SUB SWAP1 REVERT JUMPDEST PUSH1 0x0 ISZERO ISZERO PUSH1 0x7 PUSH1 0x0 CALLER PUSH20 0xFFFFFFFFFFFFFFFFFFFFFFFFFFFFFFFFFFFFFFFF AND PUSH20 0xFFFFFFFFFFFFFFFFFFFFFFFFFFFFFFFFFFFFFFFF AND DUP2 MSTORE PUSH1 0x20 ADD SWAP1 DUP2 MSTORE PUSH1 0x20 ADD PUSH1 0x0 KECCAK256 PUSH1 0x0 SWAP1 SLOAD SWAP1 PUSH2 0x100 EXP SWAP1 DIV PUSH1 0xFF AND ISZERO ISZERO EQ PUSH2 0x75C JUMPI PUSH1 0x40 MLOAD PUSH32 0x8C379A000000000000000000000000000000000000000000000000000000000 DUP2 MSTORE PUSH1 0x4 ADD PUSH2 0x753 SWAP1 PUSH2 0x11EB JUMP JUMPDEST PUSH1 0x40 MLOAD DUP1 SWAP2 SUB SWAP1 REVERT JUMPDEST PUSH1 0x1 PUSH1 0x7 PUSH1 0x0 CALLER PUSH20 0xFFFFFFFFFFFFFFFFFFFFFFFFFFFFFFFFFFFFFFFF AND PUSH20 0xFFFFFFFFFFFFFFFFFFFFFFFFFFFFFFFFFFFFFFFF AND DUP2 MSTORE PUSH1 0x20 ADD SWAP1 DUP2 MSTORE PUSH1 0x20 ADD PUSH1 0x0 KECCAK256 PUSH1 0x0 PUSH2 0x100 EXP DUP2 SLOAD DUP2 PUSH1 0xFF MUL NOT AND SWAP1 DUP4 ISZERO ISZERO MUL OR SWAP1 SSTORE POP PUSH1 0x1 PUSH1 0x0 DUP2 SLOAD DUP1 SWAP3 SWAP2 SWAP1 PUSH2 0x7C7 SWAP1 PUSH2 0x10C4 JUMP JUMPDEST SWAP2 SWAP1 POP SSTORE POP JUMP JUMPDEST PUSH1 0x0 PUSH1 0x4 PUSH1 0x0 DUP4 DUP2 MSTORE PUSH1 0x20 ADD SWAP1 DUP2 MSTORE PUSH1 0x20 ADD PUSH1 0x0 KECCAK256 SWAP1 POP PUSH1 0x1 ISZERO ISZERO PUSH1 0x7 PUSH1 0x0 CALLER PUSH20 0xFFFFFFFFFFFFFFFFFFFFFFFFFFFFFFFFFFFFFFFF AND PUSH20 0xFFFFFFFFFFFFFFFFFFFFFFFFFFFFFFFFFFFFFFFF AND DUP2 MSTORE PUSH1 0x20 ADD SWAP1 DUP2 MSTORE PUSH1 0x20 ADD PUSH1 0x0 KECCAK256 PUSH1 0x0 SWAP1 SLOAD SWAP1 PUSH2 0x100 EXP SWAP1 DIV PUSH1 0xFF AND ISZERO ISZERO EQ PUSH2 0x878 JUMPI PUSH1 0x40 MLOAD PUSH32 0x8C379A000000000000000000000000000000000000000000000000000000000 DUP2 MSTORE PUSH1 0x4 ADD PUSH2 0x86F SWAP1 PUSH2 0x127D JUMP JUMPDEST PUSH1 0x40 MLOAD DUP1 SWAP2 SUB SWAP1 REVERT JUMPDEST DUP1 PUSH1 0x4 ADD PUSH1 0x0 CALLER PUSH20 0xFFFFFFFFFFFFFFFFFFFFFFFFFFFFFFFFFFFFFFFF AND PUSH20 0xFFFFFFFFFFFFFFFFFFFFFFFFFFFFFFFFFFFFFFFF AND DUP2 MSTORE PUSH1 0x20 ADD SWAP1 DUP2 MSTORE PUSH1 0x20 ADD PUSH1 0x0 KECCAK256 PUSH1 0x0 SWAP1 SLOAD SWAP1 PUSH2 0x100 EXP SWAP1 DIV PUSH1 0xFF AND ISZERO PUSH2 0x907 JUMPI PUSH1 0x40 MLOAD PUSH32 0x8C379A000000000000000000000000000000000000000000000000000000000 DUP2 MSTORE PUSH1 0x4 ADD PUSH2 0x8FE SWAP1 PUSH2 0x130F JUMP JUMPDEST PUSH1 0x40 MLOAD DUP1 SWAP2 SUB SWAP1 REVERT JUMPDEST PUSH1 0x1 DUP2 PUSH1 0x4 ADD PUSH1 0x0 CALLER PUSH20 0xFFFFFFFFFFFFFFFFFFFFFFFFFFFFFFFFFFFFFFFF AND PUSH20 0xFFFFFFFFFFFFFFFFFFFFFFFFFFFFFFFFFFFFFFFF AND DUP2 MSTORE PUSH1 0x20 ADD SWAP1 DUP2 MSTORE PUSH1 0x20 ADD PUSH1 0x0 KECCAK256 PUSH1 0x0 PUSH2 0x100 EXP DUP2 SLOAD DUP2 PUSH1 0xFF MUL NOT AND SWAP1 DUP4 ISZERO ISZERO MUL OR SWAP1 SSTORE POP DUP1 PUSH1 0x3 ADD PUSH1 0x0 DUP2 SLOAD DUP1 SWAP3 SWAP2 SWAP1 PUSH2 0x976 SWAP1 PUSH2 0x10C4 JUMP JUMPDEST SWAP2 SWAP1 POP SSTORE POP PUSH1 0x2 PUSH1 0x1 SLOAD PUSH2 0x98A SWAP2 SWAP1 PUSH2 0x135E JUMP JUMPDEST DUP2 PUSH1 0x3 ADD SLOAD GT DUP1 ISZERO PUSH2 0x9AB JUMPI POP DUP1 PUSH1 0x2 ADD PUSH1 0x14 SWAP1 SLOAD SWAP1 PUSH2 0x100 EXP SWAP1 DIV PUSH1 0xFF AND ISZERO JUMPDEST ISZERO PUSH2 0xA55 JUMPI PUSH1 0x1 DUP2 PUSH1 0x2 ADD PUSH1 0x14 PUSH2 0x100 EXP DUP2 SLOAD DUP2 PUSH1 0xFF MUL NOT AND SWAP1 DUP4 ISZERO ISZERO MUL OR SWAP1 SSTORE POP PUSH1 0x3 PUSH1 0x0 DUP2 SLOAD DUP1 SWAP3 SWAP2 SWAP1 PUSH2 0x9E0 SWAP1 PUSH2 0x10C4 JUMP JUMPDEST SWAP2 SWAP1 POP SSTORE POP DUP1 PUSH1 0x2 ADD PUSH1 0x0 SWAP1 SLOAD SWAP1 PUSH2 0x100 EXP SWAP1 DIV PUSH20 0xFFFFFFFFFFFFFFFFFFFFFFFFFFFFFFFFFFFFFFFF AND PUSH20 0xFFFFFFFFFFFFFFFFFFFFFFFFFFFFFFFFFFFFFFFF AND PUSH2 0x8FC DUP3 PUSH1 0x1 ADD SLOAD SWAP1 DUP2 ISZERO MUL SWAP1 PUSH1 0x40 MLOAD PUSH1 0x0 PUSH1 0x40 MLOAD DUP1 DUP4 SUB DUP2 DUP6 DUP9 DUP9 CALL SWAP4 POP POP POP POP ISZERO DUP1 ISZERO PUSH2 0xA53 JUMPI RETURNDATASIZE PUSH1 0x0 DUP1 RETURNDATACOPY RETURNDATASIZE PUSH1 0x0 REVERT JUMPDEST POP JUMPDEST POP POP JUMP JUMPDEST DUP3 DUP1 SLOAD PUSH2 0xA65 SWAP1 PUSH2 0xFD1 JUMP JUMPDEST SWAP1 PUSH1 0x0 MSTORE PUSH1 0x20 PUSH1 0x0 KECCAK256 SWAP1 PUSH1 0x1F ADD PUSH1 0x20 SWAP1 DIV DUP2 ADD SWAP3 DUP3 PUSH2 0xA87 JUMPI PUSH1 0x0 DUP6 SSTORE PUSH2 0xACE JUMP JUMPDEST DUP3 PUSH1 0x1F LT PUSH2 0xAA0 JUMPI DUP1 MLOAD PUSH1 0xFF NOT AND DUP4 DUP1 ADD OR DUP6 SSTORE PUSH2 0xACE JUMP JUMPDEST DUP3 DUP1 ADD PUSH1 0x1 ADD DUP6 SSTORE DUP3 ISZERO PUSH2 0xACE JUMPI SWAP2 DUP3 ADD JUMPDEST DUP3 DUP2 GT ISZERO PUSH2 0xACD JUMPI DUP3 MLOAD DUP3 SSTORE SWAP2 PUSH1 0x20 ADD SWAP2 SWAP1 PUSH1 0x1 ADD SWAP1 PUSH2 0xAB2 JUMP JUMPDEST JUMPDEST POP SWAP1 POP PUSH2 0xADB SWAP2 SWAP1 PUSH2 0xADF JUMP JUMPDEST POP SWAP1 JUMP JUMPDEST JUMPDEST DUP1 DUP3 GT ISZERO PUSH2 0xAF8 JUMPI PUSH1 0x0 DUP2 PUSH1 0x0 SWAP1 SSTORE POP PUSH1 0x1 ADD PUSH2 0xAE0 JUMP JUMPDEST POP SWAP1 JUMP JUMPDEST PUSH1 0x0 DUP2 MLOAD SWAP1 POP SWAP2 SWAP1 POP JUMP JUMPDEST PUSH1 0x0 DUP3 DUP3 MSTORE PUSH1 0x20 DUP3 ADD SWAP1 POP SWAP3 SWAP2 POP POP JUMP JUMPDEST PUSH1 0x0 JUMPDEST DUP4 DUP2 LT ISZERO PUSH2 0xB36 JUMPI DUP1 DUP3 ADD MLOAD DUP2 DUP5 ADD MSTORE PUSH1 0x20 DUP2 ADD SWAP1 POP PUSH2 0xB1B JUMP JUMPDEST DUP4 DUP2 GT ISZERO PUSH2 0xB45 JUMPI PUSH1 0x0 DUP5 DUP5 ADD MSTORE JUMPDEST POP POP POP POP JUMP JUMPDEST PUSH1 0x0 PUSH1 0x1F NOT PUSH1 0x1F DUP4 ADD AND SWAP1 POP SWAP2 SWAP1 POP JUMP JUMPDEST PUSH1 0x0 PUSH2 0xB67 DUP3 PUSH2 0xAFC JUMP JUMPDEST PUSH2 0xB71 DUP2 DUP6 PUSH2 0xB07 JUMP JUMPDEST SWAP4 POP PUSH2 0xB81 DUP2 DUP6 PUSH1 0x20 DUP7 ADD PUSH2 0xB18 JUMP JUMPDEST PUSH2 0xB8A DUP2 PUSH2 0xB4B JUMP JUMPDEST DUP5 ADD SWAP2 POP POP SWAP3 SWAP2 POP POP JUMP JUMPDEST PUSH1 0x0 PUSH1 0x20 DUP3 ADD SWAP1 POP DUP2 DUP2 SUB PUSH1 0x0 DUP4 ADD MSTORE PUSH2 0xBAF DUP2 DUP5 PUSH2 0xB5C JUMP JUMPDEST SWAP1 POP SWAP3 SWAP2 POP POP JUMP JUMPDEST PUSH1 0x0 DUP2 SWAP1 POP SWAP2 SWAP1 POP JUMP JUMPDEST PUSH2 0xBCA DUP2 PUSH2 0xBB7 JUMP JUMPDEST DUP3 MSTORE POP POP JUMP JUMPDEST PUSH1 0x0 PUSH1 0x20 DUP3 ADD SWAP1 POP PUSH2 0xBE5 PUSH1 0x0 DUP4 ADD DUP5 PUSH2 0xBC1 JUMP JUMPDEST SWAP3 SWAP2 POP POP JUMP JUMPDEST PUSH1 0x0 PUSH1 0x40 MLOAD SWAP1 POP SWAP1 JUMP JUMPDEST PUSH1 0x0 DUP1 REVERT JUMPDEST PUSH1 0x0 DUP1 REVERT JUMPDEST PUSH1 0x0 PUSH20 0xFFFFFFFFFFFFFFFFFFFFFFFFFFFFFFFFFFFFFFFF DUP3 AND SWAP1 POP SWAP2 SWAP1 POP JUMP JUMPDEST PUSH1 0x0 PUSH2 0xC2A DUP3 PUSH2 0xBFF JUMP JUMPDEST SWAP1 POP SWAP2 SWAP1 POP JUMP JUMPDEST PUSH2 0xC3A DUP2 PUSH2 0xC1F JUMP JUMPDEST DUP2 EQ PUSH2 0xC45 JUMPI PUSH1 0x0 DUP1 REVERT JUMPDEST POP JUMP JUMPDEST PUSH1 0x0 DUP2 CALLDATALOAD SWAP1 POP PUSH2 0xC57 DUP2 PUSH2 0xC31 JUMP JUMPDEST SWAP3 SWAP2 POP POP JUMP JUMPDEST PUSH1 0x0 PUSH1 0x20 DUP3 DUP5 SUB SLT ISZERO PUSH2 0xC73 JUMPI PUSH2 0xC72 PUSH2 0xBF5 JUMP JUMPDEST JUMPDEST PUSH1 0x0 PUSH2 0xC81 DUP5 DUP3 DUP6 ADD PUSH2 0xC48 JUMP JUMPDEST SWAP2 POP POP SWAP3 SWAP2 POP POP JUMP JUMPDEST PUSH1 0x0 DUP2 ISZERO ISZERO SWAP1 POP SWAP2 SWAP1 POP JUMP JUMPDEST PUSH2 0xC9F DUP2 PUSH2 0xC8A JUMP JUMPDEST DUP3 MSTORE POP POP JUMP JUMPDEST PUSH1 0x0 PUSH1 0x20 DUP3 ADD SWAP1 POP PUSH2 0xCBA PUSH1 0x0 DUP4 ADD DUP5 PUSH2 0xC96 JUMP JUMPDEST SWAP3 SWAP2 POP POP JUMP JUMPDEST PUSH2 0xCC9 DUP2 PUSH2 0xC1F JUMP JUMPDEST DUP3 MSTORE POP POP JUMP JUMPDEST PUSH1 0x0 PUSH1 0x20 DUP3 ADD SWAP1 POP PUSH2 0xCE4 PUSH1 0x0 DUP4 ADD DUP5 PUSH2 0xCC0 JUMP JUMPDEST SWAP3 SWAP2 POP POP JUMP JUMPDEST PUSH2 0xCF3 DUP2 PUSH2 0xBB7 JUMP JUMPDEST DUP2 EQ PUSH2 0xCFE JUMPI PUSH1 0x0 DUP1 REVERT JUMPDEST POP JUMP JUMPDEST PUSH1 0x0 DUP2 CALLDATALOAD SWAP1 POP PUSH2 0xD10 DUP2 PUSH2 0xCEA JUMP JUMPDEST SWAP3 SWAP2 POP POP JUMP JUMPDEST PUSH1 0x0 PUSH1 0x20 DUP3 DUP5 SUB SLT ISZERO PUSH2 0xD2C JUMPI PUSH2 0xD2B PUSH2 0xBF5 JUMP JUMPDEST JUMPDEST PUSH1 0x0 PUSH2 0xD3A DUP5 DUP3 DUP6 ADD PUSH2 0xD01 JUMP JUMPDEST SWAP2 POP POP SWAP3 SWAP2 POP POP JUMP JUMPDEST PUSH1 0x0 PUSH1 0xA0 DUP3 ADD SWAP1 POP DUP2 DUP2 SUB PUSH1 0x0 DUP4 ADD MSTORE PUSH2 0xD5D DUP2 DUP9 PUSH2 0xB5C JUMP JUMPDEST SWAP1 POP PUSH2 0xD6C PUSH1 0x20 DUP4 ADD DUP8 PUSH2 0xBC1 JUMP JUMPDEST PUSH2 0xD79 PUSH1 0x40 DUP4 ADD DUP7 PUSH2 0xCC0 JUMP JUMPDEST PUSH2 0xD86 PUSH1 0x60 DUP4 ADD DUP6 PUSH2 0xC96 JUMP JUMPDEST PUSH2 0xD93 PUSH1 0x80 DUP4 ADD DUP5 PUSH2 0xBC1 JUMP JUMPDEST SWAP7 SWAP6 POP POP POP POP POP POP JUMP JUMPDEST PUSH1 0x0 DUP1 REVERT JUMPDEST PUSH1 0x0 DUP1 REVERT JUMPDEST PUSH32 0x4E487B7100000000000000000000000000000000000000000000000000000000 PUSH1 0x0 MSTORE PUSH1 0x41 PUSH1 0x4 MSTORE PUSH1 0x24 PUSH1 0x0 REVERT JUMPDEST PUSH2 0xDDF DUP3 PUSH2 0xB4B JUMP JUMPDEST DUP2 ADD DUP2 DUP2 LT PUSH8 0xFFFFFFFFFFFFFFFF DUP3 GT OR ISZERO PUSH2 0xDFE JUMPI PUSH2 0xDFD PUSH2 0xDA7 JUMP JUMPDEST JUMPDEST DUP1 PUSH1 0x40 MSTORE POP POP POP JUMP JUMPDEST PUSH1 0x0 PUSH2 0xE11 PUSH2 0xBEB JUMP JUMPDEST SWAP1 POP PUSH2 0xE1D DUP3 DUP3 PUSH2 0xDD6 JUMP JUMPDEST SWAP2 SWAP1 POP JUMP JUMPDEST PUSH1 0x0 PUSH8 0xFFFFFFFFFFFFFFFF DUP3 GT ISZERO PUSH2 0xE3D JUMPI PUSH2 0xE3C PUSH2 0xDA7 JUMP JUMPDEST JUMPDEST PUSH2 0xE46 DUP3 PUSH2 0xB4B JUMP JUMPDEST SWAP1 POP PUSH1 0x20 DUP2 ADD SWAP1 POP SWAP2 SWAP1 POP JUMP JUMPDEST DUP3 DUP2 DUP4 CALLDATACOPY PUSH1 0x0 DUP4 DUP4 ADD MSTORE POP POP POP JUMP JUMPDEST PUSH1 0x0 PUSH2 0xE75 PUSH2 0xE70 DUP5 PUSH2 0xE22 JUMP JUMPDEST PUSH2 0xE07 JUMP JUMPDEST SWAP1 POP DUP3 DUP2 MSTORE PUSH1 0x20 DUP2 ADD DUP5 DUP5 DUP5 ADD GT ISZERO PUSH2 0xE91 JUMPI PUSH2 0xE90 PUSH2 0xDA2 JUMP JUMPDEST JUMPDEST PUSH2 0xE9C DUP5 DUP3 DUP6 PUSH2 0xE53 JUMP JUMPDEST POP SWAP4 SWAP3 POP POP POP JUMP JUMPDEST PUSH1 0x0 DUP3 PUSH1 0x1F DUP4 ADD SLT PUSH2 0xEB9 JUMPI PUSH2 0xEB8 PUSH2 0xD9D JUMP JUMPDEST JUMPDEST DUP2 CALLDATALOAD PUSH2 0xEC9 DUP5 DUP3 PUSH1 0x20 DUP7 ADD PUSH2 0xE62 JUMP JUMPDEST SWAP2 POP POP SWAP3 SWAP2 POP POP JUMP JUMPDEST PUSH1 0x0 DUP1 PUSH1 0x0 PUSH1 0x60 DUP5 DUP7 SUB SLT ISZERO PUSH2 0xEEB JUMPI PUSH2 0xEEA PUSH2 0xBF5 JUMP JUMPDEST JUMPDEST PUSH1 0x0 DUP5 ADD CALLDATALOAD PUSH8 0xFFFFFFFFFFFFFFFF DUP2 GT ISZERO PUSH2 0xF09 JUMPI PUSH2 0xF08 PUSH2 0xBFA JUMP JUMPDEST JUMPDEST PUSH2 0xF15 DUP7 DUP3 DUP8 ADD PUSH2 0xEA4 JUMP JUMPDEST SWAP4 POP POP PUSH1 0x20 PUSH2 0xF26 DUP7 DUP3 DUP8 ADD PUSH2 0xD01 JUMP JUMPDEST SWAP3 POP POP PUSH1 0x40 PUSH2 0xF37 DUP7 DUP3 DUP8 ADD PUSH2 0xC48 JUMP JUMPDEST SWAP2 POP POP SWAP3 POP SWAP3 POP SWAP3 JUMP JUMPDEST PUSH1 0x0 PUSH1 0xC0 DUP3 ADD SWAP1 POP PUSH2 0xF56 PUSH1 0x0 DUP4 ADD DUP10 PUSH2 0xBC1 JUMP JUMPDEST PUSH2 0xF63 PUSH1 0x20 DUP4 ADD DUP9 PUSH2 0xBC1 JUMP JUMPDEST PUSH2 0xF70 PUSH1 0x40 DUP4 ADD DUP8 PUSH2 0xBC1 JUMP JUMPDEST PUSH2 0xF7D PUSH1 0x60 DUP4 ADD DUP7 PUSH2 0xBC1 JUMP JUMPDEST PUSH2 0xF8A PUSH1 0x80 DUP4 ADD DUP6 PUSH2 0xCC0 JUMP JUMPDEST PUSH2 0xF97 PUSH1 0xA0 DUP4 ADD DUP5 PUSH2 0xBC1 JUMP JUMPDEST SWAP8 SWAP7 POP POP POP POP POP POP POP JUMP JUMPDEST PUSH32 0x4E487B7100000000000000000000000000000000000000000000000000000000 PUSH1 0x0 MSTORE PUSH1 0x22 PUSH1 0x4 MSTORE PUSH1 0x24 PUSH1 0x0 REVERT JUMPDEST PUSH1 0x0 PUSH1 0x2 DUP3 DIV SWAP1 POP PUSH1 0x1 DUP3 AND DUP1 PUSH2 0xFE9 JUMPI PUSH1 0x7F DUP3 AND SWAP2 POP JUMPDEST PUSH1 0x20 DUP3 LT DUP2 EQ ISZERO PUSH2 0xFFD JUMPI PUSH2 0xFFC PUSH2 0xFA2 JUMP JUMPDEST JUMPDEST POP SWAP2 SWAP1 POP JUMP JUMPDEST PUSH32 0x4F6E6C7920746865204D616E616765722063616E20706572666F726D20746869 PUSH1 0x0 DUP3 ADD MSTORE PUSH32 0x7320616374696F6E000000000000000000000000000000000000000000000000 PUSH1 0x20 DUP3 ADD MSTORE POP JUMP JUMPDEST PUSH1 0x0 PUSH2 0x105F PUSH1 0x28 DUP4 PUSH2 0xB07 JUMP JUMPDEST SWAP2 POP PUSH2 0x106A DUP3 PUSH2 0x1003 JUMP JUMPDEST PUSH1 0x40 DUP3 ADD SWAP1 POP SWAP2 SWAP1 POP JUMP JUMPDEST PUSH1 0x0 PUSH1 0x20 DUP3 ADD SWAP1 POP DUP2 DUP2 SUB PUSH1 0x0 DUP4 ADD MSTORE PUSH2 0x108E DUP2 PUSH2 0x1052 JUMP JUMPDEST SWAP1 POP SWAP2 SWAP1 POP JUMP JUMPDEST PUSH32 0x4E487B7100000000000000000000000000000000000000000000000000000000 PUSH1 0x0 MSTORE PUSH1 0x11 PUSH1 0x4 MSTORE PUSH1 0x24 PUSH1 0x0 REVERT JUMPDEST PUSH1 0x0 PUSH2 0x10CF DUP3 PUSH2 0xBB7 JUMP JUMPDEST SWAP2 POP PUSH32 0xFFFFFFFFFFFFFFFFFFFFFFFFFFFFFFFFFFFFFFFFFFFFFFFFFFFFFFFFFFFFFFFF DUP3 EQ ISZERO PUSH2 0x1102 JUMPI PUSH2 0x1101 PUSH2 0x1095 JUMP JUMPDEST JUMPDEST PUSH1 0x1 DUP3 ADD SWAP1 POP SWAP2 SWAP1 POP JUMP JUMPDEST PUSH32 0x596F757220636F6E747269627574696F6E2069732062656C6F7720746865206D PUSH1 0x0 DUP3 ADD MSTORE PUSH32 0x696E696D756D20616D6F756E7400000000000000000000000000000000000000 PUSH1 0x20 DUP3 ADD MSTORE POP JUMP JUMPDEST PUSH1 0x0 PUSH2 0x1169 PUSH1 0x2D DUP4 PUSH2 0xB07 JUMP JUMPDEST SWAP2 POP PUSH2 0x1174 DUP3 PUSH2 0x110D JUMP JUMPDEST PUSH1 0x40 DUP3 ADD SWAP1 POP SWAP2 SWAP1 POP JUMP JUMPDEST PUSH1 0x0 PUSH1 0x20 DUP3 ADD SWAP1 POP DUP2 DUP2 SUB PUSH1 0x0 DUP4 ADD MSTORE PUSH2 0x1198 DUP2 PUSH2 0x115C JUMP JUMPDEST SWAP1 POP SWAP2 SWAP1 POP JUMP JUMPDEST PUSH32 0x596F75206861766520616C726561647920636F6E747269627574656400000000 PUSH1 0x0 DUP3 ADD MSTORE POP JUMP JUMPDEST PUSH1 0x0 PUSH2 0x11D5 PUSH1 0x1C DUP4 PUSH2 0xB07 JUMP JUMPDEST SWAP2 POP PUSH2 0x11E0 DUP3 PUSH2 0x119F JUMP JUMPDEST PUSH1 0x20 DUP3 ADD SWAP1 POP SWAP2 SWAP1 POP JUMP JUMPDEST PUSH1 0x0 PUSH1 0x20 DUP3 ADD SWAP1 POP DUP2 DUP2 SUB PUSH1 0x0 DUP4 ADD MSTORE PUSH2 0x1204 DUP2 PUSH2 0x11C8 JUMP JUMPDEST SWAP1 POP SWAP2 SWAP1 POP JUMP JUMPDEST PUSH32 0x4F6E6C7920436F6E7472696275746F72732063616E20617070726F7665207468 PUSH1 0x0 DUP3 ADD MSTORE PUSH32 0x6973205265717565737400000000000000000000000000000000000000000000 PUSH1 0x20 DUP3 ADD MSTORE POP JUMP JUMPDEST PUSH1 0x0 PUSH2 0x1267 PUSH1 0x2A DUP4 PUSH2 0xB07 JUMP JUMPDEST SWAP2 POP PUSH2 0x1272 DUP3 PUSH2 0x120B JUMP JUMPDEST PUSH1 0x40 DUP3 ADD SWAP1 POP SWAP2 SWAP1 POP JUMP JUMPDEST PUSH1 0x0 PUSH1 0x20 DUP3 ADD SWAP1 POP DUP2 DUP2 SUB PUSH1 0x0 DUP4 ADD MSTORE PUSH2 0x1296 DUP2 PUSH2 0x125A JUMP JUMPDEST SWAP1 POP SWAP2 SWAP1 POP JUMP JUMPDEST PUSH32 0x596F75206861766520616C726561647920617070726F76656420746869732052 PUSH1 0x0 DUP3 ADD MSTORE PUSH32 0x6571756573740000000000000000000000000000000000000000000000000000 PUSH1 0x20 DUP3 ADD MSTORE POP JUMP JUMPDEST PUSH1 0x0 PUSH2 0x12F9 PUSH1 0x26 DUP4 PUSH2 0xB07 JUMP JUMPDEST SWAP2 POP PUSH2 0x1304 DUP3 PUSH2 0x129D JUMP JUMPDEST PUSH1 0x40 DUP3 ADD SWAP1 POP SWAP2 SWAP1 POP JUMP JUMPDEST PUSH1 0x0 PUSH1 0x20 DUP3 ADD SWAP1 POP DUP2 DUP2 SUB PUSH1 0x0 DUP4 ADD MSTORE PUSH2 0x1328 DUP2 PUSH2 0x12EC JUMP JUMPDEST SWAP1 POP SWAP2 SWAP1 POP JUMP JUMPDEST PUSH32 0x4E487B7100000000000000000000000000000000000000000000000000000000 PUSH1 0x0 MSTORE PUSH1 0x12 PUSH1 0x4 MSTORE PUSH1 0x24 PUSH1 0x0 REVERT JUMPDEST PUSH1 0x0 PUSH2 0x1369 DUP3 PUSH2 0xBB7 JUMP JUMPDEST SWAP2 POP PUSH2 0x1374 DUP4 PUSH2 0xBB7 JUMP JUMPDEST SWAP3 POP DUP3 PUSH2 0x1384 JUMPI PUSH2 0x1383 PUSH2 0x132F JUMP JUMPDEST JUMPDEST DUP3 DUP3 DIV SWAP1 POP SWAP3 SWAP2 POP POP JUMP INVALID LOG2 PUSH5 0x6970667358 0x22 SLT KECCAK256 PUSH32 0x252EEF0A187C6B4D484A1968C0DF82AF041963ABFC888D3BFDBC169520549C64 PUSH20 0x6F6C634300080B0033A26469706673582212204D CREATE 0xB9 PUSH12 0x6B9701AF177DE740E4E65243 CALLVALUE 0xF9 NOT PUSH4 0xE0CF4E03 0xE0 0xA9 DELEGATECALL 0x22 SLOAD 0xE7 0xAA GT PUSH5 0x736F6C6343 STOP ADDMOD SIGNEXTEND STOP CALLER "},"gasEstimates":{"creation":{"codeDepositCost":"1792200","executionCost":"1891","totalCost":"1794091"},"external":{"campaignName()":"infinite","createCampaign(uint256,string)":"infinite","deployedCampaignAddresses(uint256)":"5022","deployedCampaigns(address)":"infinite","getDeployedCampaigns()":"infinite"}},"methodIdentifiers":{"campaignName()":"0724fda9","createCampaign(uint256,string)":"4220d656","deployedCampaignAddresses(uint256)":"5ce01441","deployedCampaigns(address)":"34d4ab2b","getDeployedCampaigns()":"4acb9d4f"}},"storageLayout":{"storage":[{"astId":3,"contract":"Campaign.sol:CampaignFactory","label":"campaignName","offset":0,"slot":"0","type":"t_string_storage"},{"astId":6,"contract":"Campaign.sol:CampaignFactory","label":"deployedCampaignAddresses","offset":0,"slot":"1","type":"t_array(t_address)dyn_storage"},{"astId":10,"contract":"Campaign.sol:CampaignFactory","label":"deployedCampaigns","offset":0,"slot":"2","type":"t_mapping(t_address,t_string_storage)"}],"types":{"t_address":{"encoding":"inplace","label":"address","numberOfBytes":"20"},"t_array(t_address)dyn_storage":{"base":"t_address","encoding":"dynamic_array","label":"address[]","numberOfBytes":"32"},"t_mapping(t_address,t_string_storage)":{"encoding":"mapping","key":"t_address","label":"mapping(address => string)","numberOfBytes":"32","value":"t_string_storage"},"t_string_storage":{"encoding":"bytes","label":"string","numberOfBytes":"32"}}},"userdoc":{"kind":"user","methods":{},"version":1}}